{
	"contracts/Store.sol": {
		"Store": {
			"abi": [
				{
					"inputs": [],
					"stateMutability": "nonpayable",
					"type": "constructor"
				},
				{
					"inputs": [
						{
							"internalType": "address",
							"name": "",
							"type": "address"
						},
						{
							"internalType": "address",
							"name": "",
							"type": "address"
						}
					],
					"name": "allowance",
					"outputs": [
						{
							"internalType": "uint256",
							"name": "",
							"type": "uint256"
						}
					],
					"stateMutability": "view",
					"type": "function"
				},
				{
					"inputs": [
						{
							"internalType": "address",
							"name": "spender",
							"type": "address"
						},
						{
							"internalType": "uint256",
							"name": "amount",
							"type": "uint256"
						}
					],
					"name": "approve",
					"outputs": [
						{
							"internalType": "bool",
							"name": "",
							"type": "bool"
						}
					],
					"stateMutability": "nonpayable",
					"type": "function"
				},
				{
					"inputs": [
						{
							"internalType": "address",
							"name": "account",
							"type": "address"
						}
					],
					"name": "balanceOf",
					"outputs": [
						{
							"internalType": "uint256",
							"name": "",
							"type": "uint256"
						}
					],
					"stateMutability": "view",
					"type": "function"
				},
				{
					"inputs": [
						{
							"internalType": "address",
							"name": "",
							"type": "address"
						}
					],
					"name": "balances",
					"outputs": [
						{
							"internalType": "uint256",
							"name": "",
							"type": "uint256"
						}
					],
					"stateMutability": "view",
					"type": "function"
				},
				{
					"inputs": [
						{
							"internalType": "uint256",
							"name": "amount",
							"type": "uint256"
						}
					],
					"name": "burn",
					"outputs": [],
					"stateMutability": "nonpayable",
					"type": "function"
				},
				{
					"inputs": [
						{
							"internalType": "uint256",
							"name": "index",
							"type": "uint256"
						}
					],
					"name": "buyGoods",
					"outputs": [],
					"stateMutability": "nonpayable",
					"type": "function"
				},
				{
					"inputs": [],
					"name": "decimals",
					"outputs": [
						{
							"internalType": "uint8",
							"name": "",
							"type": "uint8"
						}
					],
					"stateMutability": "view",
					"type": "function"
				},
				{
					"inputs": [
						{
							"internalType": "uint256",
							"name": "",
							"type": "uint256"
						}
					],
					"name": "goodsForSale",
					"outputs": [
						{
							"internalType": "string",
							"name": "url",
							"type": "string"
						},
						{
							"internalType": "string",
							"name": "name",
							"type": "string"
						},
						{
							"internalType": "uint256",
							"name": "price",
							"type": "uint256"
						},
						{
							"internalType": "address",
							"name": "seller",
							"type": "address"
						}
					],
					"stateMutability": "view",
					"type": "function"
				},
				{
					"inputs": [
						{
							"internalType": "address",
							"name": "",
							"type": "address"
						},
						{
							"internalType": "uint256",
							"name": "",
							"type": "uint256"
						}
					],
					"name": "goodsUserBuy",
					"outputs": [
						{
							"internalType": "string",
							"name": "url",
							"type": "string"
						},
						{
							"internalType": "string",
							"name": "name",
							"type": "string"
						},
						{
							"internalType": "uint256",
							"name": "price",
							"type": "uint256"
						},
						{
							"internalType": "address",
							"name": "seller",
							"type": "address"
						}
					],
					"stateMutability": "view",
					"type": "function"
				},
				{
					"inputs": [
						{
							"internalType": "address",
							"name": "",
							"type": "address"
						},
						{
							"internalType": "uint256",
							"name": "",
							"type": "uint256"
						}
					],
					"name": "goodsUserRegister",
					"outputs": [
						{
							"internalType": "string",
							"name": "url",
							"type": "string"
						},
						{
							"internalType": "string",
							"name": "name",
							"type": "string"
						},
						{
							"internalType": "uint256",
							"name": "price",
							"type": "uint256"
						},
						{
							"internalType": "address",
							"name": "seller",
							"type": "address"
						}
					],
					"stateMutability": "view",
					"type": "function"
				},
				{
					"inputs": [
						{
							"internalType": "uint256",
							"name": "index",
							"type": "uint256"
						}
					],
					"name": "makeSale",
					"outputs": [],
					"stateMutability": "nonpayable",
					"type": "function"
				},
				{
					"inputs": [],
					"name": "mypageGoods",
					"outputs": [
						{
							"components": [
								{
									"internalType": "string",
									"name": "url",
									"type": "string"
								},
								{
									"internalType": "string",
									"name": "name",
									"type": "string"
								},
								{
									"internalType": "uint256",
									"name": "price",
									"type": "uint256"
								},
								{
									"internalType": "address",
									"name": "seller",
									"type": "address"
								}
							],
							"internalType": "struct Store.Goods[]",
							"name": "",
							"type": "tuple[]"
						}
					],
					"stateMutability": "view",
					"type": "function"
				},
				{
					"inputs": [],
					"name": "name",
					"outputs": [
						{
							"internalType": "string",
							"name": "",
							"type": "string"
						}
					],
					"stateMutability": "view",
					"type": "function"
				},
				{
					"inputs": [
						{
							"internalType": "string",
							"name": "_url",
							"type": "string"
						},
						{
							"internalType": "string",
							"name": "_name",
							"type": "string"
						},
						{
							"internalType": "uint256",
							"name": "_price",
							"type": "uint256"
						}
					],
					"name": "registerGoods",
					"outputs": [],
					"stateMutability": "nonpayable",
					"type": "function"
				},
				{
					"inputs": [
						{
							"internalType": "uint256",
							"name": "index",
							"type": "uint256"
						}
					],
					"name": "removeMyGoods",
					"outputs": [],
					"stateMutability": "nonpayable",
					"type": "function"
				},
				{
					"inputs": [],
					"name": "showAllGoods",
					"outputs": [
						{
							"components": [
								{
									"internalType": "string",
									"name": "url",
									"type": "string"
								},
								{
									"internalType": "string",
									"name": "name",
									"type": "string"
								},
								{
									"internalType": "uint256",
									"name": "price",
									"type": "uint256"
								},
								{
									"internalType": "address",
									"name": "seller",
									"type": "address"
								}
							],
							"internalType": "struct Store.Goods[]",
							"name": "",
							"type": "tuple[]"
						}
					],
					"stateMutability": "view",
					"type": "function"
				},
				{
					"inputs": [],
					"name": "showMyGoods",
					"outputs": [
						{
							"components": [
								{
									"internalType": "string",
									"name": "url",
									"type": "string"
								},
								{
									"internalType": "string",
									"name": "name",
									"type": "string"
								},
								{
									"internalType": "uint256",
									"name": "price",
									"type": "uint256"
								},
								{
									"internalType": "address",
									"name": "seller",
									"type": "address"
								}
							],
							"internalType": "struct Store.Goods[]",
							"name": "",
							"type": "tuple[]"
						}
					],
					"stateMutability": "view",
					"type": "function"
				},
				{
					"inputs": [],
					"name": "symbol",
					"outputs": [
						{
							"internalType": "string",
							"name": "",
							"type": "string"
						}
					],
					"stateMutability": "view",
					"type": "function"
				},
				{
					"inputs": [],
					"name": "totalSupply",
					"outputs": [
						{
							"internalType": "uint256",
							"name": "",
							"type": "uint256"
						}
					],
					"stateMutability": "view",
					"type": "function"
				},
				{
					"inputs": [
						{
							"internalType": "address",
							"name": "to",
							"type": "address"
						},
						{
							"internalType": "uint256",
							"name": "amount",
							"type": "uint256"
						}
					],
					"name": "transfer",
					"outputs": [
						{
							"internalType": "bool",
							"name": "",
							"type": "bool"
						}
					],
					"stateMutability": "nonpayable",
					"type": "function"
				},
				{
					"inputs": [
						{
							"internalType": "address",
							"name": "sender",
							"type": "address"
						},
						{
							"internalType": "address",
							"name": "to",
							"type": "address"
						},
						{
							"internalType": "uint256",
							"name": "amount",
							"type": "uint256"
						}
					],
					"name": "transferFrom",
					"outputs": [
						{
							"internalType": "bool",
							"name": "",
							"type": "bool"
						}
					],
					"stateMutability": "nonpayable",
					"type": "function"
				},
				{
					"stateMutability": "payable",
					"type": "receive"
				}
			],
			"devdoc": {
				"kind": "dev",
				"methods": {},
				"version": 1
			},
			"evm": {
				"assembly": "    /* \"contracts/Store.sol\":81:2947  contract Store is ERC20 {... */\n  mstore(0x40, 0x80)\n    /* \"contracts/ERC20.sol\":221:223  18 */\n  0x12\n    /* \"contracts/ERC20.sol\":197:223  uint8 public decimals = 18 */\n  0x02\n  exp(0x0100, 0x00)\n  dup2\n  sload\n  dup2\n  0xff\n  mul\n  not\n  and\n  swap1\n  dup4\n  0xff\n  and\n  mul\n  or\n  swap1\n  sstore\n  pop\n    /* \"contracts/Store.sol\":111:167  constructor() ERC20(\"DaminToken\", \"DAM\", 100000) {... */\n  callvalue\n  dup1\n  iszero\n  tag_1\n  jumpi\n  0x00\n  dup1\n  revert\ntag_1:\n  pop\n    /* \"contracts/ERC20.sol\":1273:1473  constructor(string memory _name, string memory _symbol, uint256 _amount) {... */\n  mload(0x40)\n  dup1\n  0x40\n  add\n  0x40\n  mstore\n  dup1\n  0x0a\n  dup2\n  mstore\n  0x20\n  add\n  0x44616d696e546f6b656e00000000000000000000000000000000000000000000\n  dup2\n  mstore\n  pop\n  mload(0x40)\n  dup1\n  0x40\n  add\n  0x40\n  mstore\n  dup1\n  0x03\n  dup2\n  mstore\n  0x20\n  add\n  0x44414d0000000000000000000000000000000000000000000000000000000000\n  dup2\n  mstore\n  pop\n    /* \"contracts/Store.sol\":152:158  100000 */\n  0x0186a0\n    /* \"contracts/ERC20.sol\":1364:1374  msg.sender */\n  caller\n    /* \"contracts/ERC20.sol\":1356:1361  owner */\n  0x04\n  0x00\n    /* \"contracts/ERC20.sol\":1356:1374  owner = msg.sender */\n  0x0100\n  exp\n  dup2\n  sload\n  dup2\n  0xffffffffffffffffffffffffffffffffffffffff\n  mul\n  not\n  and\n  swap1\n  dup4\n  0xffffffffffffffffffffffffffffffffffffffff\n  and\n  mul\n  or\n  swap1\n  sstore\n  pop\n    /* \"contracts/ERC20.sol\":1391:1396  _name */\n  dup3\n    /* \"contracts/ERC20.sol\":1384:1388  name */\n  0x00\n    /* \"contracts/ERC20.sol\":1384:1396  name = _name */\n  swap1\n  dup2\n  tag_5\n  swap2\n  swap1\n  tag_6\n  jump\t// in\ntag_5:\n  pop\n    /* \"contracts/ERC20.sol\":1415:1422  _symbol */\n  dup2\n    /* \"contracts/ERC20.sol\":1406:1412  symbol */\n  0x01\n    /* \"contracts/ERC20.sol\":1406:1422  symbol = _symbol */\n  swap1\n  dup2\n  tag_7\n  swap2\n  swap1\n  tag_6\n  jump\t// in\ntag_7:\n  pop\n    /* \"contracts/ERC20.sol\":1433:1466  _mint(_amount * (10 ** decimals)) */\n  tag_8\n    /* \"contracts/ERC20.sol\":1456:1464  decimals */\n  0x02\n  0x00\n  swap1\n  sload\n  swap1\n  0x0100\n  exp\n  swap1\n  div\n  0xff\n  and\n    /* \"contracts/ERC20.sol\":1450:1452  10 */\n  0x0a\n    /* \"contracts/ERC20.sol\":1450:1464  10 ** decimals */\n  tag_9\n  swap2\n  swap1\n  tag_10\n  jump\t// in\ntag_9:\n    /* \"contracts/ERC20.sol\":1439:1446  _amount */\n  dup3\n    /* \"contracts/ERC20.sol\":1439:1465  _amount * (10 ** decimals) */\n  tag_11\n  swap2\n  swap1\n  tag_12\n  jump\t// in\ntag_11:\n    /* \"contracts/ERC20.sol\":1433:1438  _mint */\n  shl(0x20, tag_13)\n    /* \"contracts/ERC20.sol\":1433:1466  _mint(_amount * (10 ** decimals)) */\n  0x20\n  shr\n  jump\t// in\ntag_8:\n    /* \"contracts/ERC20.sol\":1273:1473  constructor(string memory _name, string memory _symbol, uint256 _amount) {... */\n  pop\n  pop\n  pop\n    /* \"contracts/Store.sol\":81:2947  contract Store is ERC20 {... */\n  jump(tag_15)\n    /* \"contracts/ERC20.sol\":1500:1615  function _mint(uint amount) internal {... */\ntag_13:\n    /* \"contracts/ERC20.sol\":1571:1577  amount */\n  dup1\n    /* \"contracts/ERC20.sol\":1547:1555  balances */\n  0x05\n    /* \"contracts/ERC20.sol\":1547:1567  balances[msg.sender] */\n  0x00\n    /* \"contracts/ERC20.sol\":1556:1566  msg.sender */\n  caller\n    /* \"contracts/ERC20.sol\":1547:1567  balances[msg.sender] */\n  0xffffffffffffffffffffffffffffffffffffffff\n  and\n  0xffffffffffffffffffffffffffffffffffffffff\n  and\n  dup2\n  mstore\n  0x20\n  add\n  swap1\n  dup2\n  mstore\n  0x20\n  add\n  0x00\n  keccak256\n  0x00\n    /* \"contracts/ERC20.sol\":1547:1577  balances[msg.sender] += amount */\n  dup3\n  dup3\n  sload\n  tag_17\n  swap2\n  swap1\n  tag_18\n  jump\t// in\ntag_17:\n  swap3\n  pop\n  pop\n  dup2\n  swap1\n  sstore\n  pop\n    /* \"contracts/ERC20.sol\":1602:1608  amount */\n  dup1\n    /* \"contracts/ERC20.sol\":1587:1598  totalSupply */\n  0x03\n  0x00\n    /* \"contracts/ERC20.sol\":1587:1608  totalSupply += amount */\n  dup3\n  dup3\n  sload\n  tag_19\n  swap2\n  swap1\n  tag_18\n  jump\t// in\ntag_19:\n  swap3\n  pop\n  pop\n  dup2\n  swap1\n  sstore\n  pop\n    /* \"contracts/ERC20.sol\":1500:1615  function _mint(uint amount) internal {... */\n  pop\n  jump\t// out\n    /* \"#utility.yul\":7:106   */\ntag_20:\n    /* \"#utility.yul\":59:65   */\n  0x00\n    /* \"#utility.yul\":93:98   */\n  dup2\n    /* \"#utility.yul\":87:99   */\n  mload\n    /* \"#utility.yul\":77:99   */\n  swap1\n  pop\n    /* \"#utility.yul\":7:106   */\n  swap2\n  swap1\n  pop\n  jump\t// out\n    /* \"#utility.yul\":112:292   */\ntag_21:\n    /* \"#utility.yul\":160:237   */\n  0x4e487b7100000000000000000000000000000000000000000000000000000000\n    /* \"#utility.yul\":157:158   */\n  0x00\n    /* \"#utility.yul\":150:238   */\n  mstore\n    /* \"#utility.yul\":257:261   */\n  0x41\n    /* \"#utility.yul\":254:255   */\n  0x04\n    /* \"#utility.yul\":247:262   */\n  mstore\n    /* \"#utility.yul\":281:285   */\n  0x24\n    /* \"#utility.yul\":278:279   */\n  0x00\n    /* \"#utility.yul\":271:286   */\n  revert\n    /* \"#utility.yul\":298:478   */\ntag_22:\n    /* \"#utility.yul\":346:423   */\n  0x4e487b7100000000000000000000000000000000000000000000000000000000\n    /* \"#utility.yul\":343:344   */\n  0x00\n    /* \"#utility.yul\":336:424   */\n  mstore\n    /* \"#utility.yul\":443:447   */\n  0x22\n    /* \"#utility.yul\":440:441   */\n  0x04\n    /* \"#utility.yul\":433:448   */\n  mstore\n    /* \"#utility.yul\":467:471   */\n  0x24\n    /* \"#utility.yul\":464:465   */\n  0x00\n    /* \"#utility.yul\":457:472   */\n  revert\n    /* \"#utility.yul\":484:804   */\ntag_23:\n    /* \"#utility.yul\":528:534   */\n  0x00\n    /* \"#utility.yul\":565:566   */\n  0x02\n    /* \"#utility.yul\":559:563   */\n  dup3\n    /* \"#utility.yul\":555:567   */\n  div\n    /* \"#utility.yul\":545:567   */\n  swap1\n  pop\n    /* \"#utility.yul\":612:613   */\n  0x01\n    /* \"#utility.yul\":606:610   */\n  dup3\n    /* \"#utility.yul\":602:614   */\n  and\n    /* \"#utility.yul\":633:651   */\n  dup1\n    /* \"#utility.yul\":623:704   */\n  tag_50\n  jumpi\n    /* \"#utility.yul\":689:693   */\n  0x7f\n    /* \"#utility.yul\":681:687   */\n  dup3\n    /* \"#utility.yul\":677:694   */\n  and\n    /* \"#utility.yul\":667:694   */\n  swap2\n  pop\n    /* \"#utility.yul\":623:704   */\ntag_50:\n    /* \"#utility.yul\":751:753   */\n  0x20\n    /* \"#utility.yul\":743:749   */\n  dup3\n    /* \"#utility.yul\":740:754   */\n  lt\n    /* \"#utility.yul\":720:738   */\n  dup2\n    /* \"#utility.yul\":717:755   */\n  sub\n    /* \"#utility.yul\":714:798   */\n  tag_51\n  jumpi\n    /* \"#utility.yul\":770:788   */\n  tag_52\n  tag_22\n  jump\t// in\ntag_52:\n    /* \"#utility.yul\":714:798   */\ntag_51:\n    /* \"#utility.yul\":535:804   */\n  pop\n    /* \"#utility.yul\":484:804   */\n  swap2\n  swap1\n  pop\n  jump\t// out\n    /* \"#utility.yul\":810:951   */\ntag_24:\n    /* \"#utility.yul\":859:863   */\n  0x00\n    /* \"#utility.yul\":882:885   */\n  dup2\n    /* \"#utility.yul\":874:885   */\n  swap1\n  pop\n    /* \"#utility.yul\":905:908   */\n  dup2\n    /* \"#utility.yul\":902:903   */\n  0x00\n    /* \"#utility.yul\":895:909   */\n  mstore\n    /* \"#utility.yul\":939:943   */\n  0x20\n    /* \"#utility.yul\":936:937   */\n  0x00\n    /* \"#utility.yul\":926:944   */\n  keccak256\n    /* \"#utility.yul\":918:944   */\n  swap1\n  pop\n    /* \"#utility.yul\":810:951   */\n  swap2\n  swap1\n  pop\n  jump\t// out\n    /* \"#utility.yul\":957:1050   */\ntag_25:\n    /* \"#utility.yul\":994:1000   */\n  0x00\n    /* \"#utility.yul\":1041:1043   */\n  0x20\n    /* \"#utility.yul\":1036:1038   */\n  0x1f\n    /* \"#utility.yul\":1029:1034   */\n  dup4\n    /* \"#utility.yul\":1025:1039   */\n  add\n    /* \"#utility.yul\":1021:1044   */\n  div\n    /* \"#utility.yul\":1011:1044   */\n  swap1\n  pop\n    /* \"#utility.yul\":957:1050   */\n  swap2\n  swap1\n  pop\n  jump\t// out\n    /* \"#utility.yul\":1056:1163   */\ntag_26:\n    /* \"#utility.yul\":1100:1108   */\n  0x00\n    /* \"#utility.yul\":1150:1155   */\n  dup3\n    /* \"#utility.yul\":1144:1148   */\n  dup3\n    /* \"#utility.yul\":1140:1156   */\n  shl\n    /* \"#utility.yul\":1119:1156   */\n  swap1\n  pop\n    /* \"#utility.yul\":1056:1163   */\n  swap3\n  swap2\n  pop\n  pop\n  jump\t// out\n    /* \"#utility.yul\":1169:1562   */\ntag_27:\n    /* \"#utility.yul\":1238:1244   */\n  0x00\n    /* \"#utility.yul\":1288:1289   */\n  0x08\n    /* \"#utility.yul\":1276:1286   */\n  dup4\n    /* \"#utility.yul\":1272:1290   */\n  mul\n    /* \"#utility.yul\":1311:1408   */\n  tag_57\n    /* \"#utility.yul\":1341:1407   */\n  0xffffffffffffffffffffffffffffffffffffffffffffffffffffffffffffffff\n    /* \"#utility.yul\":1330:1339   */\n  dup3\n    /* \"#utility.yul\":1311:1408   */\n  tag_26\n  jump\t// in\ntag_57:\n    /* \"#utility.yul\":1429:1468   */\n  tag_58\n    /* \"#utility.yul\":1459:1467   */\n  dup7\n    /* \"#utility.yul\":1448:1457   */\n  dup4\n    /* \"#utility.yul\":1429:1468   */\n  tag_26\n  jump\t// in\ntag_58:\n    /* \"#utility.yul\":1417:1468   */\n  swap6\n  pop\n    /* \"#utility.yul\":1501:1505   */\n  dup1\n    /* \"#utility.yul\":1497:1506   */\n  not\n    /* \"#utility.yul\":1490:1495   */\n  dup5\n    /* \"#utility.yul\":1486:1507   */\n  and\n    /* \"#utility.yul\":1477:1507   */\n  swap4\n  pop\n    /* \"#utility.yul\":1550:1554   */\n  dup1\n    /* \"#utility.yul\":1540:1548   */\n  dup7\n    /* \"#utility.yul\":1536:1555   */\n  and\n    /* \"#utility.yul\":1529:1534   */\n  dup5\n    /* \"#utility.yul\":1526:1556   */\n  or\n    /* \"#utility.yul\":1516:1556   */\n  swap3\n  pop\n    /* \"#utility.yul\":1245:1562   */\n  pop\n  pop\n    /* \"#utility.yul\":1169:1562   */\n  swap4\n  swap3\n  pop\n  pop\n  pop\n  jump\t// out\n    /* \"#utility.yul\":1568:1645   */\ntag_28:\n    /* \"#utility.yul\":1605:1612   */\n  0x00\n    /* \"#utility.yul\":1634:1639   */\n  dup2\n    /* \"#utility.yul\":1623:1639   */\n  swap1\n  pop\n    /* \"#utility.yul\":1568:1645   */\n  swap2\n  swap1\n  pop\n  jump\t// out\n    /* \"#utility.yul\":1651:1711   */\ntag_29:\n    /* \"#utility.yul\":1679:1682   */\n  0x00\n    /* \"#utility.yul\":1700:1705   */\n  dup2\n    /* \"#utility.yul\":1693:1705   */\n  swap1\n  pop\n    /* \"#utility.yul\":1651:1711   */\n  swap2\n  swap1\n  pop\n  jump\t// out\n    /* \"#utility.yul\":1717:1859   */\ntag_30:\n    /* \"#utility.yul\":1767:1776   */\n  0x00\n    /* \"#utility.yul\":1800:1853   */\n  tag_62\n    /* \"#utility.yul\":1818:1852   */\n  tag_63\n    /* \"#utility.yul\":1827:1851   */\n  tag_64\n    /* \"#utility.yul\":1845:1850   */\n  dup5\n    /* \"#utility.yul\":1827:1851   */\n  tag_28\n  jump\t// in\ntag_64:\n    /* \"#utility.yul\":1818:1852   */\n  tag_29\n  jump\t// in\ntag_63:\n    /* \"#utility.yul\":1800:1853   */\n  tag_28\n  jump\t// in\ntag_62:\n    /* \"#utility.yul\":1787:1853   */\n  swap1\n  pop\n    /* \"#utility.yul\":1717:1859   */\n  swap2\n  swap1\n  pop\n  jump\t// out\n    /* \"#utility.yul\":1865:1940   */\ntag_31:\n    /* \"#utility.yul\":1908:1911   */\n  0x00\n    /* \"#utility.yul\":1929:1934   */\n  dup2\n    /* \"#utility.yul\":1922:1934   */\n  swap1\n  pop\n    /* \"#utility.yul\":1865:1940   */\n  swap2\n  swap1\n  pop\n  jump\t// out\n    /* \"#utility.yul\":1946:2215   */\ntag_32:\n    /* \"#utility.yul\":2056:2095   */\n  tag_67\n    /* \"#utility.yul\":2087:2094   */\n  dup4\n    /* \"#utility.yul\":2056:2095   */\n  tag_30\n  jump\t// in\ntag_67:\n    /* \"#utility.yul\":2117:2208   */\n  tag_68\n    /* \"#utility.yul\":2166:2207   */\n  tag_69\n    /* \"#utility.yul\":2190:2206   */\n  dup3\n    /* \"#utility.yul\":2166:2207   */\n  tag_31\n  jump\t// in\ntag_69:\n    /* \"#utility.yul\":2158:2164   */\n  dup5\n    /* \"#utility.yul\":2151:2155   */\n  dup5\n    /* \"#utility.yul\":2145:2156   */\n  sload\n    /* \"#utility.yul\":2117:2208   */\n  tag_27\n  jump\t// in\ntag_68:\n    /* \"#utility.yul\":2111:2115   */\n  dup3\n    /* \"#utility.yul\":2104:2209   */\n  sstore\n    /* \"#utility.yul\":2022:2215   */\n  pop\n    /* \"#utility.yul\":1946:2215   */\n  pop\n  pop\n  pop\n  jump\t// out\n    /* \"#utility.yul\":2221:2294   */\ntag_33:\n    /* \"#utility.yul\":2266:2269   */\n  0x00\n    /* \"#utility.yul\":2221:2294   */\n  swap1\n  jump\t// out\n    /* \"#utility.yul\":2300:2489   */\ntag_34:\n    /* \"#utility.yul\":2377:2409   */\n  tag_72\n  tag_33\n  jump\t// in\ntag_72:\n    /* \"#utility.yul\":2418:2483   */\n  tag_73\n    /* \"#utility.yul\":2476:2482   */\n  dup2\n    /* \"#utility.yul\":2468:2474   */\n  dup5\n    /* \"#utility.yul\":2462:2466   */\n  dup5\n    /* \"#utility.yul\":2418:2483   */\n  tag_32\n  jump\t// in\ntag_73:\n    /* \"#utility.yul\":2353:2489   */\n  pop\n    /* \"#utility.yul\":2300:2489   */\n  pop\n  pop\n  jump\t// out\n    /* \"#utility.yul\":2495:2681   */\ntag_35:\n    /* \"#utility.yul\":2555:2675   */\ntag_75:\n    /* \"#utility.yul\":2572:2575   */\n  dup2\n    /* \"#utility.yul\":2565:2570   */\n  dup2\n    /* \"#utility.yul\":2562:2576   */\n  lt\n    /* \"#utility.yul\":2555:2675   */\n  iszero\n  tag_77\n  jumpi\n    /* \"#utility.yul\":2626:2665   */\n  tag_78\n    /* \"#utility.yul\":2663:2664   */\n  0x00\n    /* \"#utility.yul\":2656:2661   */\n  dup3\n    /* \"#utility.yul\":2626:2665   */\n  tag_34\n  jump\t// in\ntag_78:\n    /* \"#utility.yul\":2599:2600   */\n  0x01\n    /* \"#utility.yul\":2592:2597   */\n  dup2\n    /* \"#utility.yul\":2588:2601   */\n  add\n    /* \"#utility.yul\":2579:2601   */\n  swap1\n  pop\n    /* \"#utility.yul\":2555:2675   */\n  jump(tag_75)\ntag_77:\n    /* \"#utility.yul\":2495:2681   */\n  pop\n  pop\n  jump\t// out\n    /* \"#utility.yul\":2687:3230   */\ntag_36:\n    /* \"#utility.yul\":2788:2790   */\n  0x1f\n    /* \"#utility.yul\":2783:2786   */\n  dup3\n    /* \"#utility.yul\":2780:2791   */\n  gt\n    /* \"#utility.yul\":2777:3223   */\n  iszero\n  tag_80\n  jumpi\n    /* \"#utility.yul\":2822:2860   */\n  tag_81\n    /* \"#utility.yul\":2854:2859   */\n  dup2\n    /* \"#utility.yul\":2822:2860   */\n  tag_24\n  jump\t// in\ntag_81:\n    /* \"#utility.yul\":2906:2935   */\n  tag_82\n    /* \"#utility.yul\":2924:2934   */\n  dup5\n    /* \"#utility.yul\":2906:2935   */\n  tag_25\n  jump\t// in\ntag_82:\n    /* \"#utility.yul\":2896:2904   */\n  dup2\n    /* \"#utility.yul\":2892:2936   */\n  add\n    /* \"#utility.yul\":3089:3091   */\n  0x20\n    /* \"#utility.yul\":3077:3087   */\n  dup6\n    /* \"#utility.yul\":3074:3092   */\n  lt\n    /* \"#utility.yul\":3071:3120   */\n  iszero\n  tag_83\n  jumpi\n    /* \"#utility.yul\":3110:3118   */\n  dup2\n    /* \"#utility.yul\":3095:3118   */\n  swap1\n  pop\n    /* \"#utility.yul\":3071:3120   */\ntag_83:\n    /* \"#utility.yul\":3133:3213   */\n  tag_84\n    /* \"#utility.yul\":3189:3211   */\n  tag_85\n    /* \"#utility.yul\":3207:3210   */\n  dup6\n    /* \"#utility.yul\":3189:3211   */\n  tag_25\n  jump\t// in\ntag_85:\n    /* \"#utility.yul\":3179:3187   */\n  dup4\n    /* \"#utility.yul\":3175:3212   */\n  add\n    /* \"#utility.yul\":3162:3173   */\n  dup3\n    /* \"#utility.yul\":3133:3213   */\n  tag_35\n  jump\t// in\ntag_84:\n    /* \"#utility.yul\":2792:3223   */\n  pop\n  pop\n    /* \"#utility.yul\":2777:3223   */\ntag_80:\n    /* \"#utility.yul\":2687:3230   */\n  pop\n  pop\n  pop\n  jump\t// out\n    /* \"#utility.yul\":3236:3353   */\ntag_37:\n    /* \"#utility.yul\":3290:3298   */\n  0x00\n    /* \"#utility.yul\":3340:3345   */\n  dup3\n    /* \"#utility.yul\":3334:3338   */\n  dup3\n    /* \"#utility.yul\":3330:3346   */\n  shr\n    /* \"#utility.yul\":3309:3346   */\n  swap1\n  pop\n    /* \"#utility.yul\":3236:3353   */\n  swap3\n  swap2\n  pop\n  pop\n  jump\t// out\n    /* \"#utility.yul\":3359:3528   */\ntag_38:\n    /* \"#utility.yul\":3403:3409   */\n  0x00\n    /* \"#utility.yul\":3436:3487   */\n  tag_88\n    /* \"#utility.yul\":3484:3485   */\n  0x00\n    /* \"#utility.yul\":3480:3486   */\n  not\n    /* \"#utility.yul\":3472:3477   */\n  dup5\n    /* \"#utility.yul\":3469:3470   */\n  0x08\n    /* \"#utility.yul\":3465:3478   */\n  mul\n    /* \"#utility.yul\":3436:3487   */\n  tag_37\n  jump\t// in\ntag_88:\n    /* \"#utility.yul\":3432:3488   */\n  not\n    /* \"#utility.yul\":3517:3521   */\n  dup1\n    /* \"#utility.yul\":3511:3515   */\n  dup4\n    /* \"#utility.yul\":3507:3522   */\n  and\n    /* \"#utility.yul\":3497:3522   */\n  swap2\n  pop\n    /* \"#utility.yul\":3410:3528   */\n  pop\n    /* \"#utility.yul\":3359:3528   */\n  swap3\n  swap2\n  pop\n  pop\n  jump\t// out\n    /* \"#utility.yul\":3533:3828   */\ntag_39:\n    /* \"#utility.yul\":3609:3613   */\n  0x00\n    /* \"#utility.yul\":3755:3784   */\n  tag_90\n    /* \"#utility.yul\":3780:3783   */\n  dup4\n    /* \"#utility.yul\":3774:3778   */\n  dup4\n    /* \"#utility.yul\":3755:3784   */\n  tag_38\n  jump\t// in\ntag_90:\n    /* \"#utility.yul\":3747:3784   */\n  swap2\n  pop\n    /* \"#utility.yul\":3817:3820   */\n  dup3\n    /* \"#utility.yul\":3814:3815   */\n  0x02\n    /* \"#utility.yul\":3810:3821   */\n  mul\n    /* \"#utility.yul\":3804:3808   */\n  dup3\n    /* \"#utility.yul\":3801:3822   */\n  or\n    /* \"#utility.yul\":3793:3822   */\n  swap1\n  pop\n    /* \"#utility.yul\":3533:3828   */\n  swap3\n  swap2\n  pop\n  pop\n  jump\t// out\n    /* \"#utility.yul\":3833:5228   */\ntag_6:\n    /* \"#utility.yul\":3950:3987   */\n  tag_92\n    /* \"#utility.yul\":3983:3986   */\n  dup3\n    /* \"#utility.yul\":3950:3987   */\n  tag_20\n  jump\t// in\ntag_92:\n    /* \"#utility.yul\":4052:4070   */\n  0xffffffffffffffff\n    /* \"#utility.yul\":4044:4050   */\n  dup2\n    /* \"#utility.yul\":4041:4071   */\n  gt\n    /* \"#utility.yul\":4038:4094   */\n  iszero\n  tag_93\n  jumpi\n    /* \"#utility.yul\":4074:4092   */\n  tag_94\n  tag_21\n  jump\t// in\ntag_94:\n    /* \"#utility.yul\":4038:4094   */\ntag_93:\n    /* \"#utility.yul\":4118:4156   */\n  tag_95\n    /* \"#utility.yul\":4150:4154   */\n  dup3\n    /* \"#utility.yul\":4144:4155   */\n  sload\n    /* \"#utility.yul\":4118:4156   */\n  tag_23\n  jump\t// in\ntag_95:\n    /* \"#utility.yul\":4203:4270   */\n  tag_96\n    /* \"#utility.yul\":4263:4269   */\n  dup3\n    /* \"#utility.yul\":4255:4261   */\n  dup3\n    /* \"#utility.yul\":4249:4253   */\n  dup6\n    /* \"#utility.yul\":4203:4270   */\n  tag_36\n  jump\t// in\ntag_96:\n    /* \"#utility.yul\":4297:4298   */\n  0x00\n    /* \"#utility.yul\":4321:4325   */\n  0x20\n    /* \"#utility.yul\":4308:4325   */\n  swap1\n  pop\n    /* \"#utility.yul\":4353:4355   */\n  0x1f\n    /* \"#utility.yul\":4345:4351   */\n  dup4\n    /* \"#utility.yul\":4342:4356   */\n  gt\n    /* \"#utility.yul\":4370:4371   */\n  0x01\n    /* \"#utility.yul\":4365:4983   */\n  dup2\n  eq\n  tag_98\n  jumpi\n    /* \"#utility.yul\":5027:5028   */\n  0x00\n    /* \"#utility.yul\":5044:5050   */\n  dup5\n    /* \"#utility.yul\":5041:5118   */\n  iszero\n  tag_99\n  jumpi\n    /* \"#utility.yul\":5093:5102   */\n  dup3\n    /* \"#utility.yul\":5088:5091   */\n  dup8\n    /* \"#utility.yul\":5084:5103   */\n  add\n    /* \"#utility.yul\":5078:5104   */\n  mload\n    /* \"#utility.yul\":5069:5104   */\n  swap1\n  pop\n    /* \"#utility.yul\":5041:5118   */\ntag_99:\n    /* \"#utility.yul\":5144:5211   */\n  tag_100\n    /* \"#utility.yul\":5204:5210   */\n  dup6\n    /* \"#utility.yul\":5197:5202   */\n  dup3\n    /* \"#utility.yul\":5144:5211   */\n  tag_39\n  jump\t// in\ntag_100:\n    /* \"#utility.yul\":5138:5142   */\n  dup7\n    /* \"#utility.yul\":5131:5212   */\n  sstore\n    /* \"#utility.yul\":5000:5222   */\n  pop\n    /* \"#utility.yul\":4335:5222   */\n  jump(tag_97)\n    /* \"#utility.yul\":4365:4983   */\ntag_98:\n    /* \"#utility.yul\":4417:4421   */\n  0x1f\n    /* \"#utility.yul\":4413:4422   */\n  not\n    /* \"#utility.yul\":4405:4411   */\n  dup5\n    /* \"#utility.yul\":4401:4423   */\n  and\n    /* \"#utility.yul\":4451:4488   */\n  tag_101\n    /* \"#utility.yul\":4483:4487   */\n  dup7\n    /* \"#utility.yul\":4451:4488   */\n  tag_24\n  jump\t// in\ntag_101:\n    /* \"#utility.yul\":4510:4511   */\n  0x00\n    /* \"#utility.yul\":4524:4732   */\ntag_102:\n    /* \"#utility.yul\":4538:4545   */\n  dup3\n    /* \"#utility.yul\":4535:4536   */\n  dup2\n    /* \"#utility.yul\":4532:4546   */\n  lt\n    /* \"#utility.yul\":4524:4732   */\n  iszero\n  tag_104\n  jumpi\n    /* \"#utility.yul\":4617:4626   */\n  dup5\n    /* \"#utility.yul\":4612:4615   */\n  dup10\n    /* \"#utility.yul\":4608:4627   */\n  add\n    /* \"#utility.yul\":4602:4628   */\n  mload\n    /* \"#utility.yul\":4594:4600   */\n  dup3\n    /* \"#utility.yul\":4587:4629   */\n  sstore\n    /* \"#utility.yul\":4668:4669   */\n  0x01\n    /* \"#utility.yul\":4660:4666   */\n  dup3\n    /* \"#utility.yul\":4656:4670   */\n  add\n    /* \"#utility.yul\":4646:4670   */\n  swap2\n  pop\n    /* \"#utility.yul\":4715:4717   */\n  0x20\n    /* \"#utility.yul\":4704:4713   */\n  dup6\n    /* \"#utility.yul\":4700:4718   */\n  add\n    /* \"#utility.yul\":4687:4718   */\n  swap5\n  pop\n    /* \"#utility.yul\":4561:4565   */\n  0x20\n    /* \"#utility.yul\":4558:4559   */\n  dup2\n    /* \"#utility.yul\":4554:4566   */\n  add\n    /* \"#utility.yul\":4549:4566   */\n  swap1\n  pop\n    /* \"#utility.yul\":4524:4732   */\n  jump(tag_102)\ntag_104:\n    /* \"#utility.yul\":4760:4766   */\n  dup7\n    /* \"#utility.yul\":4751:4758   */\n  dup4\n    /* \"#utility.yul\":4748:4767   */\n  lt\n    /* \"#utility.yul\":4745:4924   */\n  iszero\n  tag_105\n  jumpi\n    /* \"#utility.yul\":4818:4827   */\n  dup5\n    /* \"#utility.yul\":4813:4816   */\n  dup10\n    /* \"#utility.yul\":4809:4828   */\n  add\n    /* \"#utility.yul\":4803:4829   */\n  mload\n    /* \"#utility.yul\":4861:4909   */\n  tag_106\n    /* \"#utility.yul\":4903:4907   */\n  0x1f\n    /* \"#utility.yul\":4895:4901   */\n  dup10\n    /* \"#utility.yul\":4891:4908   */\n  and\n    /* \"#utility.yul\":4880:4889   */\n  dup3\n    /* \"#utility.yul\":4861:4909   */\n  tag_38\n  jump\t// in\ntag_106:\n    /* \"#utility.yul\":4853:4859   */\n  dup4\n    /* \"#utility.yul\":4846:4910   */\n  sstore\n    /* \"#utility.yul\":4768:4924   */\n  pop\n    /* \"#utility.yul\":4745:4924   */\ntag_105:\n    /* \"#utility.yul\":4970:4971   */\n  0x01\n    /* \"#utility.yul\":4966:4967   */\n  0x02\n    /* \"#utility.yul\":4958:4964   */\n  dup9\n    /* \"#utility.yul\":4954:4968   */\n  mul\n    /* \"#utility.yul\":4950:4972   */\n  add\n    /* \"#utility.yul\":4944:4948   */\n  dup9\n    /* \"#utility.yul\":4937:4973   */\n  sstore\n    /* \"#utility.yul\":4372:4983   */\n  pop\n  pop\n  pop\n    /* \"#utility.yul\":4335:5222   */\ntag_97:\n  pop\n    /* \"#utility.yul\":3925:5228   */\n  pop\n  pop\n  pop\n    /* \"#utility.yul\":3833:5228   */\n  pop\n  pop\n  jump\t// out\n    /* \"#utility.yul\":5234:5414   */\ntag_40:\n    /* \"#utility.yul\":5282:5359   */\n  0x4e487b7100000000000000000000000000000000000000000000000000000000\n    /* \"#utility.yul\":5279:5280   */\n  0x00\n    /* \"#utility.yul\":5272:5360   */\n  mstore\n    /* \"#utility.yul\":5379:5383   */\n  0x11\n    /* \"#utility.yul\":5376:5377   */\n  0x04\n    /* \"#utility.yul\":5369:5384   */\n  mstore\n    /* \"#utility.yul\":5403:5407   */\n  0x24\n    /* \"#utility.yul\":5400:5401   */\n  0x00\n    /* \"#utility.yul\":5393:5408   */\n  revert\n    /* \"#utility.yul\":5420:5522   */\ntag_41:\n    /* \"#utility.yul\":5462:5470   */\n  0x00\n    /* \"#utility.yul\":5509:5514   */\n  dup2\n    /* \"#utility.yul\":5506:5507   */\n  0x01\n    /* \"#utility.yul\":5502:5515   */\n  shr\n    /* \"#utility.yul\":5481:5515   */\n  swap1\n  pop\n    /* \"#utility.yul\":5420:5522   */\n  swap2\n  swap1\n  pop\n  jump\t// out\n    /* \"#utility.yul\":5528:6376   */\ntag_42:\n    /* \"#utility.yul\":5589:5594   */\n  0x00\n    /* \"#utility.yul\":5596:5600   */\n  dup1\n    /* \"#utility.yul\":5620:5626   */\n  dup3\n    /* \"#utility.yul\":5611:5626   */\n  swap2\n  pop\n    /* \"#utility.yul\":5644:5649   */\n  dup4\n    /* \"#utility.yul\":5635:5649   */\n  swap1\n  pop\n    /* \"#utility.yul\":5658:6370   */\ntag_110:\n    /* \"#utility.yul\":5679:5680   */\n  0x01\n    /* \"#utility.yul\":5669:5677   */\n  dup6\n    /* \"#utility.yul\":5666:5681   */\n  gt\n    /* \"#utility.yul\":5658:6370   */\n  iszero\n  tag_112\n  jumpi\n    /* \"#utility.yul\":5774:5778   */\n  dup1\n    /* \"#utility.yul\":5769:5772   */\n  dup7\n    /* \"#utility.yul\":5765:5779   */\n  div\n    /* \"#utility.yul\":5759:5763   */\n  dup2\n    /* \"#utility.yul\":5756:5780   */\n  gt\n    /* \"#utility.yul\":5753:5803   */\n  iszero\n  tag_113\n  jumpi\n    /* \"#utility.yul\":5783:5801   */\n  tag_114\n  tag_40\n  jump\t// in\ntag_114:\n    /* \"#utility.yul\":5753:5803   */\ntag_113:\n    /* \"#utility.yul\":5833:5834   */\n  0x01\n    /* \"#utility.yul\":5823:5831   */\n  dup6\n    /* \"#utility.yul\":5819:5835   */\n  and\n    /* \"#utility.yul\":5816:6267   */\n  iszero\n  tag_115\n  jumpi\n    /* \"#utility.yul\":6248:6252   */\n  dup1\n    /* \"#utility.yul\":6241:6246   */\n  dup3\n    /* \"#utility.yul\":6237:6253   */\n  mul\n    /* \"#utility.yul\":6228:6253   */\n  swap2\n  pop\n    /* \"#utility.yul\":5816:6267   */\ntag_115:\n    /* \"#utility.yul\":6298:6302   */\n  dup1\n    /* \"#utility.yul\":6292:6296   */\n  dup2\n    /* \"#utility.yul\":6288:6303   */\n  mul\n    /* \"#utility.yul\":6280:6303   */\n  swap1\n  pop\n    /* \"#utility.yul\":6328:6360   */\n  tag_116\n    /* \"#utility.yul\":6351:6359   */\n  dup6\n    /* \"#utility.yul\":6328:6360   */\n  tag_41\n  jump\t// in\ntag_116:\n    /* \"#utility.yul\":6316:6360   */\n  swap5\n  pop\n    /* \"#utility.yul\":5658:6370   */\n  jump(tag_110)\ntag_112:\n    /* \"#utility.yul\":5528:6376   */\n  swap5\n  pop\n  swap5\n  swap3\n  pop\n  pop\n  pop\n  jump\t// out\n    /* \"#utility.yul\":6382:7455   */\ntag_43:\n    /* \"#utility.yul\":6436:6441   */\n  0x00\n    /* \"#utility.yul\":6627:6635   */\n  dup3\n    /* \"#utility.yul\":6617:6657   */\n  tag_118\n  jumpi\n    /* \"#utility.yul\":6648:6649   */\n  0x01\n    /* \"#utility.yul\":6639:6649   */\n  swap1\n  pop\n    /* \"#utility.yul\":6650:6655   */\n  jump(tag_117)\n    /* \"#utility.yul\":6617:6657   */\ntag_118:\n    /* \"#utility.yul\":6676:6680   */\n  dup2\n    /* \"#utility.yul\":6666:6702   */\n  tag_119\n  jumpi\n    /* \"#utility.yul\":6693:6694   */\n  0x00\n    /* \"#utility.yul\":6684:6694   */\n  swap1\n  pop\n    /* \"#utility.yul\":6695:6700   */\n  jump(tag_117)\n    /* \"#utility.yul\":6666:6702   */\ntag_119:\n    /* \"#utility.yul\":6762:6766   */\n  dup2\n    /* \"#utility.yul\":6810:6811   */\n  0x01\n    /* \"#utility.yul\":6805:6832   */\n  dup2\n  eq\n  tag_121\n  jumpi\n    /* \"#utility.yul\":6846:6847   */\n  0x02\n    /* \"#utility.yul\":6841:7032   */\n  dup2\n  eq\n  tag_122\n  jumpi\n    /* \"#utility.yul\":6755:7032   */\n  jump(tag_120)\n    /* \"#utility.yul\":6805:6832   */\ntag_121:\n    /* \"#utility.yul\":6823:6824   */\n  0x01\n    /* \"#utility.yul\":6814:6824   */\n  swap2\n  pop\n    /* \"#utility.yul\":6825:6830   */\n  pop\n  jump(tag_117)\n    /* \"#utility.yul\":6841:7032   */\ntag_122:\n    /* \"#utility.yul\":6886:6889   */\n  0xff\n    /* \"#utility.yul\":6876:6884   */\n  dup5\n    /* \"#utility.yul\":6873:6890   */\n  gt\n    /* \"#utility.yul\":6870:6913   */\n  iszero\n  tag_123\n  jumpi\n    /* \"#utility.yul\":6893:6911   */\n  tag_124\n  tag_40\n  jump\t// in\ntag_124:\n    /* \"#utility.yul\":6870:6913   */\ntag_123:\n    /* \"#utility.yul\":6942:6950   */\n  dup4\n    /* \"#utility.yul\":6939:6940   */\n  0x02\n    /* \"#utility.yul\":6935:6951   */\n  exp\n    /* \"#utility.yul\":6926:6951   */\n  swap2\n  pop\n    /* \"#utility.yul\":6977:6980   */\n  dup5\n    /* \"#utility.yul\":6970:6975   */\n  dup3\n    /* \"#utility.yul\":6967:6981   */\n  gt\n    /* \"#utility.yul\":6964:7004   */\n  iszero\n  tag_125\n  jumpi\n    /* \"#utility.yul\":6984:7002   */\n  tag_126\n  tag_40\n  jump\t// in\ntag_126:\n    /* \"#utility.yul\":6964:7004   */\ntag_125:\n    /* \"#utility.yul\":7017:7022   */\n  pop\n  jump(tag_117)\n    /* \"#utility.yul\":6755:7032   */\ntag_120:\n  pop\n    /* \"#utility.yul\":7141:7143   */\n  0x20\n    /* \"#utility.yul\":7131:7139   */\n  dup4\n    /* \"#utility.yul\":7128:7144   */\n  lt\n    /* \"#utility.yul\":7122:7125   */\n  0x0133\n    /* \"#utility.yul\":7116:7120   */\n  dup4\n    /* \"#utility.yul\":7113:7126   */\n  lt\n    /* \"#utility.yul\":7109:7145   */\n  and\n    /* \"#utility.yul\":7091:7093   */\n  0x4e\n    /* \"#utility.yul\":7081:7089   */\n  dup5\n    /* \"#utility.yul\":7078:7094   */\n  lt\n    /* \"#utility.yul\":7073:7075   */\n  0x0b\n    /* \"#utility.yul\":7067:7071   */\n  dup5\n    /* \"#utility.yul\":7064:7076   */\n  lt\n    /* \"#utility.yul\":7060:7095   */\n  and\n    /* \"#utility.yul\":7044:7155   */\n  or\n    /* \"#utility.yul\":7041:7287   */\n  iszero\n  tag_127\n  jumpi\n    /* \"#utility.yul\":7197:7205   */\n  dup3\n    /* \"#utility.yul\":7191:7195   */\n  dup3\n    /* \"#utility.yul\":7187:7206   */\n  exp\n    /* \"#utility.yul\":7178:7206   */\n  swap1\n  pop\n    /* \"#utility.yul\":7232:7235   */\n  dup4\n    /* \"#utility.yul\":7225:7230   */\n  dup2\n    /* \"#utility.yul\":7222:7236   */\n  gt\n    /* \"#utility.yul\":7219:7259   */\n  iszero\n  tag_128\n  jumpi\n    /* \"#utility.yul\":7239:7257   */\n  tag_129\n  tag_40\n  jump\t// in\ntag_129:\n    /* \"#utility.yul\":7219:7259   */\ntag_128:\n    /* \"#utility.yul\":7272:7277   */\n  jump(tag_117)\n    /* \"#utility.yul\":7041:7287   */\ntag_127:\n    /* \"#utility.yul\":7312:7354   */\n  tag_130\n    /* \"#utility.yul\":7350:7353   */\n  dup5\n    /* \"#utility.yul\":7340:7348   */\n  dup5\n    /* \"#utility.yul\":7334:7338   */\n  dup5\n    /* \"#utility.yul\":7331:7332   */\n  0x01\n    /* \"#utility.yul\":7312:7354   */\n  tag_42\n  jump\t// in\ntag_130:\n    /* \"#utility.yul\":7297:7354   */\n  swap3\n  pop\n  swap1\n  pop\n    /* \"#utility.yul\":7386:7390   */\n  dup2\n    /* \"#utility.yul\":7381:7384   */\n  dup5\n    /* \"#utility.yul\":7377:7391   */\n  div\n    /* \"#utility.yul\":7370:7375   */\n  dup2\n    /* \"#utility.yul\":7367:7392   */\n  gt\n    /* \"#utility.yul\":7364:7415   */\n  iszero\n  tag_131\n  jumpi\n    /* \"#utility.yul\":7395:7413   */\n  tag_132\n  tag_40\n  jump\t// in\ntag_132:\n    /* \"#utility.yul\":7364:7415   */\ntag_131:\n    /* \"#utility.yul\":7444:7448   */\n  dup2\n    /* \"#utility.yul\":7437:7442   */\n  dup2\n    /* \"#utility.yul\":7433:7449   */\n  mul\n    /* \"#utility.yul\":7424:7449   */\n  swap1\n  pop\n    /* \"#utility.yul\":6382:7455   */\ntag_117:\n  swap4\n  swap3\n  pop\n  pop\n  pop\n  jump\t// out\n    /* \"#utility.yul\":7461:7547   */\ntag_44:\n    /* \"#utility.yul\":7496:7503   */\n  0x00\n    /* \"#utility.yul\":7536:7540   */\n  0xff\n    /* \"#utility.yul\":7529:7534   */\n  dup3\n    /* \"#utility.yul\":7525:7541   */\n  and\n    /* \"#utility.yul\":7514:7541   */\n  swap1\n  pop\n    /* \"#utility.yul\":7461:7547   */\n  swap2\n  swap1\n  pop\n  jump\t// out\n    /* \"#utility.yul\":7553:7834   */\ntag_10:\n    /* \"#utility.yul\":7611:7616   */\n  0x00\n    /* \"#utility.yul\":7635:7658   */\n  tag_135\n    /* \"#utility.yul\":7653:7657   */\n  dup3\n    /* \"#utility.yul\":7635:7658   */\n  tag_28\n  jump\t// in\ntag_135:\n    /* \"#utility.yul\":7627:7658   */\n  swap2\n  pop\n    /* \"#utility.yul\":7679:7704   */\n  tag_136\n    /* \"#utility.yul\":7695:7703   */\n  dup4\n    /* \"#utility.yul\":7679:7704   */\n  tag_44\n  jump\t// in\ntag_136:\n    /* \"#utility.yul\":7667:7704   */\n  swap3\n  pop\n    /* \"#utility.yul\":7723:7827   */\n  tag_137\n    /* \"#utility.yul\":7760:7826   */\n  0xffffffffffffffffffffffffffffffffffffffffffffffffffffffffffffffff\n    /* \"#utility.yul\":7750:7758   */\n  dup5\n    /* \"#utility.yul\":7744:7748   */\n  dup5\n    /* \"#utility.yul\":7723:7827   */\n  tag_43\n  jump\t// in\ntag_137:\n    /* \"#utility.yul\":7714:7827   */\n  swap1\n  pop\n    /* \"#utility.yul\":7553:7834   */\n  swap3\n  swap2\n  pop\n  pop\n  jump\t// out\n    /* \"#utility.yul\":7840:8250   */\ntag_12:\n    /* \"#utility.yul\":7880:7887   */\n  0x00\n    /* \"#utility.yul\":7903:7923   */\n  tag_139\n    /* \"#utility.yul\":7921:7922   */\n  dup3\n    /* \"#utility.yul\":7903:7923   */\n  tag_28\n  jump\t// in\ntag_139:\n    /* \"#utility.yul\":7898:7923   */\n  swap2\n  pop\n    /* \"#utility.yul\":7937:7957   */\n  tag_140\n    /* \"#utility.yul\":7955:7956   */\n  dup4\n    /* \"#utility.yul\":7937:7957   */\n  tag_28\n  jump\t// in\ntag_140:\n    /* \"#utility.yul\":7932:7957   */\n  swap3\n  pop\n    /* \"#utility.yul\":7992:7993   */\n  dup3\n    /* \"#utility.yul\":7989:7990   */\n  dup3\n    /* \"#utility.yul\":7985:7994   */\n  mul\n    /* \"#utility.yul\":8014:8044   */\n  tag_141\n    /* \"#utility.yul\":8032:8043   */\n  dup2\n    /* \"#utility.yul\":8014:8044   */\n  tag_28\n  jump\t// in\ntag_141:\n    /* \"#utility.yul\":8003:8044   */\n  swap2\n  pop\n    /* \"#utility.yul\":8193:8194   */\n  dup3\n    /* \"#utility.yul\":8184:8191   */\n  dup3\n    /* \"#utility.yul\":8180:8195   */\n  div\n    /* \"#utility.yul\":8177:8178   */\n  dup5\n    /* \"#utility.yul\":8174:8196   */\n  eq\n    /* \"#utility.yul\":8154:8155   */\n  dup4\n    /* \"#utility.yul\":8147:8156   */\n  iszero\n    /* \"#utility.yul\":8127:8210   */\n  or\n    /* \"#utility.yul\":8104:8243   */\n  tag_142\n  jumpi\n    /* \"#utility.yul\":8223:8241   */\n  tag_143\n  tag_40\n  jump\t// in\ntag_143:\n    /* \"#utility.yul\":8104:8243   */\ntag_142:\n    /* \"#utility.yul\":7888:8250   */\n  pop\n    /* \"#utility.yul\":7840:8250   */\n  swap3\n  swap2\n  pop\n  pop\n  jump\t// out\n    /* \"#utility.yul\":8256:8447   */\ntag_18:\n    /* \"#utility.yul\":8296:8299   */\n  0x00\n    /* \"#utility.yul\":8315:8335   */\n  tag_145\n    /* \"#utility.yul\":8333:8334   */\n  dup3\n    /* \"#utility.yul\":8315:8335   */\n  tag_28\n  jump\t// in\ntag_145:\n    /* \"#utility.yul\":8310:8335   */\n  swap2\n  pop\n    /* \"#utility.yul\":8349:8369   */\n  tag_146\n    /* \"#utility.yul\":8367:8368   */\n  dup4\n    /* \"#utility.yul\":8349:8369   */\n  tag_28\n  jump\t// in\ntag_146:\n    /* \"#utility.yul\":8344:8369   */\n  swap3\n  pop\n    /* \"#utility.yul\":8392:8393   */\n  dup3\n    /* \"#utility.yul\":8389:8390   */\n  dup3\n    /* \"#utility.yul\":8385:8394   */\n  add\n    /* \"#utility.yul\":8378:8394   */\n  swap1\n  pop\n    /* \"#utility.yul\":8413:8416   */\n  dup1\n    /* \"#utility.yul\":8410:8411   */\n  dup3\n    /* \"#utility.yul\":8407:8417   */\n  gt\n    /* \"#utility.yul\":8404:8440   */\n  iszero\n  tag_147\n  jumpi\n    /* \"#utility.yul\":8420:8438   */\n  tag_148\n  tag_40\n  jump\t// in\ntag_148:\n    /* \"#utility.yul\":8404:8440   */\ntag_147:\n    /* \"#utility.yul\":8256:8447   */\n  swap3\n  swap2\n  pop\n  pop\n  jump\t// out\n    /* \"contracts/Store.sol\":81:2947  contract Store is ERC20 {... */\ntag_15:\n  dataSize(sub_0)\n  dup1\n  dataOffset(sub_0)\n  0x00\n  codecopy\n  0x00\n  return\nstop\n\nsub_0: assembly {\n        /* \"contracts/Store.sol\":81:2947  contract Store is ERC20 {... */\n      mstore(0x40, 0x80)\n      jumpi(tag_1, lt(calldatasize, 0x04))\n      shr(0xe0, calldataload(0x00))\n      dup1\n      0x6bd7e3ac\n      gt\n      tag_24\n      jumpi\n      dup1\n      0x974031e5\n      gt\n      tag_25\n      jumpi\n      dup1\n      0x974031e5\n      eq\n      tag_18\n      jumpi\n      dup1\n      0x9fe6ef0f\n      eq\n      tag_19\n      jumpi\n      dup1\n      0xa586784d\n      eq\n      tag_20\n      jumpi\n      dup1\n      0xa9059cbb\n      eq\n      tag_21\n      jumpi\n      dup1\n      0xdd62ed3e\n      eq\n      tag_22\n      jumpi\n      dup1\n      0xf0210f31\n      eq\n      tag_23\n      jumpi\n      jump(tag_2)\n    tag_25:\n      dup1\n      0x6bd7e3ac\n      eq\n      tag_13\n      jumpi\n      dup1\n      0x6cf8bce1\n      eq\n      tag_14\n      jumpi\n      dup1\n      0x70a08231\n      eq\n      tag_15\n      jumpi\n      dup1\n      0x8f4babfb\n      eq\n      tag_16\n      jumpi\n      dup1\n      0x95d89b41\n      eq\n      tag_17\n      jumpi\n      jump(tag_2)\n    tag_24:\n      dup1\n      0x296bbf86\n      gt\n      tag_26\n      jumpi\n      dup1\n      0x296bbf86\n      eq\n      tag_8\n      jumpi\n      dup1\n      0x313ce567\n      eq\n      tag_9\n      jumpi\n      dup1\n      0x364083f4\n      eq\n      tag_10\n      jumpi\n      dup1\n      0x42966c68\n      eq\n      tag_11\n      jumpi\n      dup1\n      0x676766c4\n      eq\n      tag_12\n      jumpi\n      jump(tag_2)\n    tag_26:\n      dup1\n      0x06fdde03\n      eq\n      tag_3\n      jumpi\n      dup1\n      0x095ea7b3\n      eq\n      tag_4\n      jumpi\n      dup1\n      0x18160ddd\n      eq\n      tag_5\n      jumpi\n      dup1\n      0x23b872dd\n      eq\n      tag_6\n      jumpi\n      dup1\n      0x27e235e3\n      eq\n      tag_7\n      jumpi\n      jump(tag_2)\n    tag_1:\n      jumpi(tag_2, calldatasize)\n        /* \"contracts/ERC20.sol\":878:889  uint amount */\n      0x00\n        /* \"contracts/ERC20.sol\":904:907  200 */\n      0xc8\n        /* \"contracts/ERC20.sol\":892:901  msg.value */\n      callvalue\n        /* \"contracts/ERC20.sol\":892:907  msg.value * 200 */\n      tag_29\n      swap2\n      swap1\n      tag_30\n      jump\t// in\n    tag_29:\n        /* \"contracts/ERC20.sol\":878:907  uint amount = msg.value * 200 */\n      swap1\n      pop\n        /* \"contracts/ERC20.sol\":965:971  amount */\n      dup1\n        /* \"contracts/ERC20.sol\":946:954  balances */\n      0x05\n        /* \"contracts/ERC20.sol\":946:961  balances[owner] */\n      0x00\n        /* \"contracts/ERC20.sol\":955:960  owner */\n      0x04\n      0x00\n      swap1\n      sload\n      swap1\n      0x0100\n      exp\n      swap1\n      div\n      0xffffffffffffffffffffffffffffffffffffffff\n      and\n        /* \"contracts/ERC20.sol\":946:961  balances[owner] */\n      0xffffffffffffffffffffffffffffffffffffffff\n      and\n      0xffffffffffffffffffffffffffffffffffffffff\n      and\n      dup2\n      mstore\n      0x20\n      add\n      swap1\n      dup2\n      mstore\n      0x20\n      add\n      0x00\n      keccak256\n      sload\n        /* \"contracts/ERC20.sol\":946:971  balances[owner] >= amount */\n      lt\n      iszero\n        /* \"contracts/ERC20.sol\":938:972  require(balances[owner] >= amount) */\n      tag_31\n      jumpi\n      0x00\n      dup1\n      revert\n    tag_31:\n        /* \"contracts/ERC20.sol\":1001:1007  amount */\n      dup1\n        /* \"contracts/ERC20.sol\":982:990  balances */\n      0x05\n        /* \"contracts/ERC20.sol\":982:997  balances[owner] */\n      0x00\n        /* \"contracts/ERC20.sol\":991:996  owner */\n      0x04\n      0x00\n      swap1\n      sload\n      swap1\n      0x0100\n      exp\n      swap1\n      div\n      0xffffffffffffffffffffffffffffffffffffffff\n      and\n        /* \"contracts/ERC20.sol\":982:997  balances[owner] */\n      0xffffffffffffffffffffffffffffffffffffffff\n      and\n      0xffffffffffffffffffffffffffffffffffffffff\n      and\n      dup2\n      mstore\n      0x20\n      add\n      swap1\n      dup2\n      mstore\n      0x20\n      add\n      0x00\n      keccak256\n      0x00\n        /* \"contracts/ERC20.sol\":982:1007  balances[owner] -= amount */\n      dup3\n      dup3\n      sload\n      tag_32\n      swap2\n      swap1\n      tag_33\n      jump\t// in\n    tag_32:\n      swap3\n      pop\n      pop\n      dup2\n      swap1\n      sstore\n      pop\n        /* \"contracts/ERC20.sol\":1041:1047  amount */\n      dup1\n        /* \"contracts/ERC20.sol\":1017:1025  balances */\n      0x05\n        /* \"contracts/ERC20.sol\":1017:1037  balances[msg.sender] */\n      0x00\n        /* \"contracts/ERC20.sol\":1026:1036  msg.sender */\n      caller\n        /* \"contracts/ERC20.sol\":1017:1037  balances[msg.sender] */\n      0xffffffffffffffffffffffffffffffffffffffff\n      and\n      0xffffffffffffffffffffffffffffffffffffffff\n      and\n      dup2\n      mstore\n      0x20\n      add\n      swap1\n      dup2\n      mstore\n      0x20\n      add\n      0x00\n      keccak256\n      0x00\n        /* \"contracts/ERC20.sol\":1017:1047  balances[msg.sender] += amount */\n      dup3\n      dup3\n      sload\n      tag_34\n      swap2\n      swap1\n      tag_35\n      jump\t// in\n    tag_34:\n      swap3\n      pop\n      pop\n      dup2\n      swap1\n      sstore\n      pop\n        /* \"contracts/ERC20.sol\":1216:1221  owner */\n      0x04\n      0x00\n      swap1\n      sload\n      swap1\n      0x0100\n      exp\n      swap1\n      div\n      0xffffffffffffffffffffffffffffffffffffffff\n      and\n        /* \"contracts/ERC20.sol\":1202:1221  msg.sender == owner */\n      0xffffffffffffffffffffffffffffffffffffffff\n      and\n        /* \"contracts/ERC20.sol\":1202:1212  msg.sender */\n      caller\n        /* \"contracts/ERC20.sol\":1202:1221  msg.sender == owner */\n      0xffffffffffffffffffffffffffffffffffffffff\n      and\n      sub\n        /* \"contracts/ERC20.sol\":1199:1261  if(msg.sender == owner) {... */\n      tag_36\n      jumpi\n        /* \"contracts/ERC20.sol\":1237:1250  _mint(amount) */\n      tag_37\n        /* \"contracts/ERC20.sol\":1243:1249  amount */\n      dup2\n        /* \"contracts/ERC20.sol\":1237:1242  _mint */\n      tag_38\n        /* \"contracts/ERC20.sol\":1237:1250  _mint(amount) */\n      jump\t// in\n    tag_37:\n        /* \"contracts/ERC20.sol\":1199:1261  if(msg.sender == owner) {... */\n    tag_36:\n        /* \"contracts/ERC20.sol\":695:1267  {... */\n      stop\n        /* \"contracts/Store.sol\":81:2947  contract Store is ERC20 {... */\n    tag_2:\n      0x00\n      dup1\n      revert\n        /* \"contracts/ERC20.sol\":113:131  string public name */\n    tag_3:\n      callvalue\n      dup1\n      iszero\n      tag_39\n      jumpi\n      0x00\n      dup1\n      revert\n    tag_39:\n      pop\n      tag_40\n      tag_41\n      jump\t// in\n    tag_40:\n      mload(0x40)\n      tag_42\n      swap2\n      swap1\n      tag_43\n      jump\t// in\n    tag_42:\n      mload(0x40)\n      dup1\n      swap2\n      sub\n      swap1\n      return\n        /* \"contracts/ERC20.sol\":2030:2187  function approve(address spender, uint amount) external override returns (bool) {... */\n    tag_4:\n      callvalue\n      dup1\n      iszero\n      tag_44\n      jumpi\n      0x00\n      dup1\n      revert\n    tag_44:\n      pop\n      tag_45\n      0x04\n      dup1\n      calldatasize\n      sub\n      dup2\n      add\n      swap1\n      tag_46\n      swap2\n      swap1\n      tag_47\n      jump\t// in\n    tag_46:\n      tag_48\n      jump\t// in\n    tag_45:\n      mload(0x40)\n      tag_49\n      swap2\n      swap1\n      tag_50\n      jump\t// in\n    tag_49:\n      mload(0x40)\n      dup1\n      swap2\n      sub\n      swap1\n      return\n        /* \"contracts/ERC20.sol\":249:281  uint public override totalSupply */\n    tag_5:\n      callvalue\n      dup1\n      iszero\n      tag_51\n      jumpi\n      0x00\n      dup1\n      revert\n    tag_51:\n      pop\n      tag_52\n      tag_53\n      jump\t// in\n    tag_52:\n      mload(0x40)\n      tag_54\n      swap2\n      swap1\n      tag_55\n      jump\t// in\n    tag_54:\n      mload(0x40)\n      dup1\n      swap2\n      sub\n      swap1\n      return\n        /* \"contracts/ERC20.sol\":2231:2841  function transferFrom(address sender, address to, uint amount) external override returns (bool) {... */\n    tag_6:\n      callvalue\n      dup1\n      iszero\n      tag_56\n      jumpi\n      0x00\n      dup1\n      revert\n    tag_56:\n      pop\n      tag_57\n      0x04\n      dup1\n      calldatasize\n      sub\n      dup2\n      add\n      swap1\n      tag_58\n      swap2\n      swap1\n      tag_59\n      jump\t// in\n    tag_58:\n      tag_60\n      jump\t// in\n    tag_57:\n      mload(0x40)\n      tag_61\n      swap2\n      swap1\n      tag_50\n      jump\t// in\n    tag_61:\n      mload(0x40)\n      dup1\n      swap2\n      sub\n      swap1\n      return\n        /* \"contracts/ERC20.sol\":357:397  mapping(address => uint) public balances */\n    tag_7:\n      callvalue\n      dup1\n      iszero\n      tag_62\n      jumpi\n      0x00\n      dup1\n      revert\n    tag_62:\n      pop\n      tag_63\n      0x04\n      dup1\n      calldatasize\n      sub\n      dup2\n      add\n      swap1\n      tag_64\n      swap2\n      swap1\n      tag_65\n      jump\t// in\n    tag_64:\n      tag_66\n      jump\t// in\n    tag_63:\n      mload(0x40)\n      tag_67\n      swap2\n      swap1\n      tag_55\n      jump\t// in\n    tag_67:\n      mload(0x40)\n      dup1\n      swap2\n      sub\n      swap1\n      return\n        /* \"contracts/Store.sol\":494:521  Goods[] public goodsForSale */\n    tag_8:\n      callvalue\n      dup1\n      iszero\n      tag_68\n      jumpi\n      0x00\n      dup1\n      revert\n    tag_68:\n      pop\n      tag_69\n      0x04\n      dup1\n      calldatasize\n      sub\n      dup2\n      add\n      swap1\n      tag_70\n      swap2\n      swap1\n      tag_71\n      jump\t// in\n    tag_70:\n      tag_72\n      jump\t// in\n    tag_69:\n      mload(0x40)\n      tag_73\n      swap5\n      swap4\n      swap3\n      swap2\n      swap1\n      tag_74\n      jump\t// in\n    tag_73:\n      mload(0x40)\n      dup1\n      swap2\n      sub\n      swap1\n      return\n        /* \"contracts/ERC20.sol\":197:223  uint8 public decimals = 18 */\n    tag_9:\n      callvalue\n      dup1\n      iszero\n      tag_75\n      jumpi\n      0x00\n      dup1\n      revert\n    tag_75:\n      pop\n      tag_76\n      tag_77\n      jump\t// in\n    tag_76:\n      mload(0x40)\n      tag_78\n      swap2\n      swap1\n      tag_79\n      jump\t// in\n    tag_78:\n      mload(0x40)\n      dup1\n      swap2\n      sub\n      swap1\n      return\n        /* \"contracts/Store.sol\":1609:1957  function makeSale(uint index) public {... */\n    tag_10:\n      callvalue\n      dup1\n      iszero\n      tag_80\n      jumpi\n      0x00\n      dup1\n      revert\n    tag_80:\n      pop\n      tag_81\n      0x04\n      dup1\n      calldatasize\n      sub\n      dup2\n      add\n      swap1\n      tag_82\n      swap2\n      swap1\n      tag_71\n      jump\t// in\n    tag_82:\n      tag_83\n      jump\t// in\n    tag_81:\n      stop\n        /* \"contracts/ERC20.sol\":2871:2985  function burn(uint amount) external {... */\n    tag_11:\n      callvalue\n      dup1\n      iszero\n      tag_84\n      jumpi\n      0x00\n      dup1\n      revert\n    tag_84:\n      pop\n      tag_85\n      0x04\n      dup1\n      calldatasize\n      sub\n      dup2\n      add\n      swap1\n      tag_86\n      swap2\n      swap1\n      tag_71\n      jump\t// in\n    tag_86:\n      tag_87\n      jump\t// in\n    tag_85:\n      stop\n        /* \"contracts/Store.sol\":1043:1156  function showMyGoods() public view returns (Goods[] memory) {... */\n    tag_12:\n      callvalue\n      dup1\n      iszero\n      tag_88\n      jumpi\n      0x00\n      dup1\n      revert\n    tag_88:\n      pop\n      tag_89\n      tag_90\n      jump\t// in\n    tag_89:\n      mload(0x40)\n      tag_91\n      swap2\n      swap1\n      tag_92\n      jump\t// in\n    tag_91:\n      mload(0x40)\n      dup1\n      swap2\n      sub\n      swap1\n      return\n        /* \"contracts/Store.sol\":2004:2101  function showAllGoods() public view returns (Goods[] memory) {... */\n    tag_13:\n      callvalue\n      dup1\n      iszero\n      tag_93\n      jumpi\n      0x00\n      dup1\n      revert\n    tag_93:\n      pop\n      tag_94\n      tag_95\n      jump\t// in\n    tag_94:\n      mload(0x40)\n      tag_96\n      swap2\n      swap1\n      tag_92\n      jump\t// in\n    tag_96:\n      mload(0x40)\n      dup1\n      swap2\n      sub\n      swap1\n      return\n        /* \"contracts/Store.sol\":1248:1562  function removeMyGoods(uint index) public {... */\n    tag_14:\n      callvalue\n      dup1\n      iszero\n      tag_97\n      jumpi\n      0x00\n      dup1\n      revert\n    tag_97:\n      pop\n      tag_98\n      0x04\n      dup1\n      calldatasize\n      sub\n      dup2\n      add\n      swap1\n      tag_99\n      swap2\n      swap1\n      tag_71\n      jump\t// in\n    tag_99:\n      tag_100\n      jump\t// in\n    tag_98:\n      stop\n        /* \"contracts/ERC20.sol\":1685:1800  function balanceOf(address account) external view override returns (uint) {... */\n    tag_15:\n      callvalue\n      dup1\n      iszero\n      tag_101\n      jumpi\n      0x00\n      dup1\n      revert\n    tag_101:\n      pop\n      tag_102\n      0x04\n      dup1\n      calldatasize\n      sub\n      dup2\n      add\n      swap1\n      tag_103\n      swap2\n      swap1\n      tag_65\n      jump\t// in\n    tag_103:\n      tag_104\n      jump\t// in\n    tag_102:\n      mload(0x40)\n      tag_105\n      swap2\n      swap1\n      tag_55\n      jump\t// in\n    tag_105:\n      mload(0x40)\n      dup1\n      swap2\n      sub\n      swap1\n      return\n        /* \"contracts/Store.sol\":2131:2800  function buyGoods(uint index) public {... */\n    tag_16:\n      callvalue\n      dup1\n      iszero\n      tag_106\n      jumpi\n      0x00\n      dup1\n      revert\n    tag_106:\n      pop\n      tag_107\n      0x04\n      dup1\n      calldatasize\n      sub\n      dup2\n      add\n      swap1\n      tag_108\n      swap2\n      swap1\n      tag_71\n      jump\t// in\n    tag_108:\n      tag_109\n      jump\t// in\n    tag_107:\n      stop\n        /* \"contracts/ERC20.sol\":154:174  string public symbol */\n    tag_17:\n      callvalue\n      dup1\n      iszero\n      tag_110\n      jumpi\n      0x00\n      dup1\n      revert\n    tag_110:\n      pop\n      tag_111\n      tag_112\n      jump\t// in\n    tag_111:\n      mload(0x40)\n      tag_113\n      swap2\n      swap1\n      tag_43\n      jump\t// in\n    tag_113:\n      mload(0x40)\n      dup1\n      swap2\n      sub\n      swap1\n      return\n        /* \"contracts/Store.sol\":671:718  mapping(address => Goods[]) public goodsUserBuy */\n    tag_18:\n      callvalue\n      dup1\n      iszero\n      tag_114\n      jumpi\n      0x00\n      dup1\n      revert\n    tag_114:\n      pop\n      tag_115\n      0x04\n      dup1\n      calldatasize\n      sub\n      dup2\n      add\n      swap1\n      tag_116\n      swap2\n      swap1\n      tag_47\n      jump\t// in\n    tag_116:\n      tag_117\n      jump\t// in\n    tag_115:\n      mload(0x40)\n      tag_118\n      swap5\n      swap4\n      swap3\n      swap2\n      swap1\n      tag_74\n      jump\t// in\n    tag_118:\n      mload(0x40)\n      dup1\n      swap2\n      sub\n      swap1\n      return\n        /* \"contracts/Store.sol\":750:996  function registerGoods(... */\n    tag_19:\n      callvalue\n      dup1\n      iszero\n      tag_119\n      jumpi\n      0x00\n      dup1\n      revert\n    tag_119:\n      pop\n      tag_120\n      0x04\n      dup1\n      calldatasize\n      sub\n      dup2\n      add\n      swap1\n      tag_121\n      swap2\n      swap1\n      tag_122\n      jump\t// in\n    tag_121:\n      tag_123\n      jump\t// in\n    tag_120:\n      stop\n        /* \"contracts/Store.sol\":2837:2945  function mypageGoods() public view returns (Goods[] memory) {... */\n    tag_20:\n      callvalue\n      dup1\n      iszero\n      tag_124\n      jumpi\n      0x00\n      dup1\n      revert\n    tag_124:\n      pop\n      tag_125\n      tag_126\n      jump\t// in\n    tag_125:\n      mload(0x40)\n      tag_127\n      swap2\n      swap1\n      tag_92\n      jump\t// in\n    tag_127:\n      mload(0x40)\n      dup1\n      swap2\n      sub\n      swap1\n      return\n        /* \"contracts/ERC20.sol\":1827:2003  function transfer(address to, uint amount) external override returns (bool) {... */\n    tag_21:\n      callvalue\n      dup1\n      iszero\n      tag_128\n      jumpi\n      0x00\n      dup1\n      revert\n    tag_128:\n      pop\n      tag_129\n      0x04\n      dup1\n      calldatasize\n      sub\n      dup2\n      add\n      swap1\n      tag_130\n      swap2\n      swap1\n      tag_47\n      jump\t// in\n    tag_130:\n      tag_131\n      jump\t// in\n    tag_129:\n      mload(0x40)\n      tag_132\n      swap2\n      swap1\n      tag_50\n      jump\t// in\n    tag_132:\n      mload(0x40)\n      dup1\n      swap2\n      sub\n      swap1\n      return\n        /* \"contracts/ERC20.sol\":473:543  mapping(address => mapping(address => uint)) public override allowance */\n    tag_22:\n      callvalue\n      dup1\n      iszero\n      tag_133\n      jumpi\n      0x00\n      dup1\n      revert\n    tag_133:\n      pop\n      tag_134\n      0x04\n      dup1\n      calldatasize\n      sub\n      dup2\n      add\n      swap1\n      tag_135\n      swap2\n      swap1\n      tag_136\n      jump\t// in\n    tag_135:\n      tag_137\n      jump\t// in\n    tag_134:\n      mload(0x40)\n      tag_138\n      swap2\n      swap1\n      tag_55\n      jump\t// in\n    tag_138:\n      mload(0x40)\n      dup1\n      swap2\n      sub\n      swap1\n      return\n        /* \"contracts/Store.sol\":555:607  mapping(address => Goods[]) public goodsUserRegister */\n    tag_23:\n      callvalue\n      dup1\n      iszero\n      tag_139\n      jumpi\n      0x00\n      dup1\n      revert\n    tag_139:\n      pop\n      tag_140\n      0x04\n      dup1\n      calldatasize\n      sub\n      dup2\n      add\n      swap1\n      tag_141\n      swap2\n      swap1\n      tag_47\n      jump\t// in\n    tag_141:\n      tag_142\n      jump\t// in\n    tag_140:\n      mload(0x40)\n      tag_143\n      swap5\n      swap4\n      swap3\n      swap2\n      swap1\n      tag_74\n      jump\t// in\n    tag_143:\n      mload(0x40)\n      dup1\n      swap2\n      sub\n      swap1\n      return\n        /* \"contracts/ERC20.sol\":1500:1615  function _mint(uint amount) internal {... */\n    tag_38:\n        /* \"contracts/ERC20.sol\":1571:1577  amount */\n      dup1\n        /* \"contracts/ERC20.sol\":1547:1555  balances */\n      0x05\n        /* \"contracts/ERC20.sol\":1547:1567  balances[msg.sender] */\n      0x00\n        /* \"contracts/ERC20.sol\":1556:1566  msg.sender */\n      caller\n        /* \"contracts/ERC20.sol\":1547:1567  balances[msg.sender] */\n      0xffffffffffffffffffffffffffffffffffffffff\n      and\n      0xffffffffffffffffffffffffffffffffffffffff\n      and\n      dup2\n      mstore\n      0x20\n      add\n      swap1\n      dup2\n      mstore\n      0x20\n      add\n      0x00\n      keccak256\n      0x00\n        /* \"contracts/ERC20.sol\":1547:1577  balances[msg.sender] += amount */\n      dup3\n      dup3\n      sload\n      tag_145\n      swap2\n      swap1\n      tag_35\n      jump\t// in\n    tag_145:\n      swap3\n      pop\n      pop\n      dup2\n      swap1\n      sstore\n      pop\n        /* \"contracts/ERC20.sol\":1602:1608  amount */\n      dup1\n        /* \"contracts/ERC20.sol\":1587:1598  totalSupply */\n      0x03\n      0x00\n        /* \"contracts/ERC20.sol\":1587:1608  totalSupply += amount */\n      dup3\n      dup3\n      sload\n      tag_146\n      swap2\n      swap1\n      tag_35\n      jump\t// in\n    tag_146:\n      swap3\n      pop\n      pop\n      dup2\n      swap1\n      sstore\n      pop\n        /* \"contracts/ERC20.sol\":1500:1615  function _mint(uint amount) internal {... */\n      pop\n      jump\t// out\n        /* \"contracts/ERC20.sol\":113:131  string public name */\n    tag_41:\n      0x00\n      dup1\n      sload\n      tag_147\n      swap1\n      tag_148\n      jump\t// in\n    tag_147:\n      dup1\n      0x1f\n      add\n      0x20\n      dup1\n      swap2\n      div\n      mul\n      0x20\n      add\n      mload(0x40)\n      swap1\n      dup2\n      add\n      0x40\n      mstore\n      dup1\n      swap3\n      swap2\n      swap1\n      dup2\n      dup2\n      mstore\n      0x20\n      add\n      dup3\n      dup1\n      sload\n      tag_149\n      swap1\n      tag_148\n      jump\t// in\n    tag_149:\n      dup1\n      iszero\n      tag_150\n      jumpi\n      dup1\n      0x1f\n      lt\n      tag_151\n      jumpi\n      0x0100\n      dup1\n      dup4\n      sload\n      div\n      mul\n      dup4\n      mstore\n      swap2\n      0x20\n      add\n      swap2\n      jump(tag_150)\n    tag_151:\n      dup3\n      add\n      swap2\n      swap1\n      0x00\n      mstore\n      keccak256(0x00, 0x20)\n      swap1\n    tag_152:\n      dup2\n      sload\n      dup2\n      mstore\n      swap1\n      0x01\n      add\n      swap1\n      0x20\n      add\n      dup1\n      dup4\n      gt\n      tag_152\n      jumpi\n      dup3\n      swap1\n      sub\n      0x1f\n      and\n      dup3\n      add\n      swap2\n    tag_150:\n      pop\n      pop\n      pop\n      pop\n      pop\n      dup2\n      jump\t// out\n        /* \"contracts/ERC20.sol\":2030:2187  function approve(address spender, uint amount) external override returns (bool) {... */\n    tag_48:\n        /* \"contracts/ERC20.sol\":2104:2108  bool */\n      0x00\n        /* \"contracts/ERC20.sol\":2153:2159  amount */\n      dup2\n        /* \"contracts/ERC20.sol\":2120:2129  allowance */\n      0x06\n        /* \"contracts/ERC20.sol\":2120:2141  allowance[msg.sender] */\n      0x00\n        /* \"contracts/ERC20.sol\":2130:2140  msg.sender */\n      caller\n        /* \"contracts/ERC20.sol\":2120:2141  allowance[msg.sender] */\n      0xffffffffffffffffffffffffffffffffffffffff\n      and\n      0xffffffffffffffffffffffffffffffffffffffff\n      and\n      dup2\n      mstore\n      0x20\n      add\n      swap1\n      dup2\n      mstore\n      0x20\n      add\n      0x00\n      keccak256\n        /* \"contracts/ERC20.sol\":2120:2150  allowance[msg.sender][spender] */\n      0x00\n        /* \"contracts/ERC20.sol\":2142:2149  spender */\n      dup6\n        /* \"contracts/ERC20.sol\":2120:2150  allowance[msg.sender][spender] */\n      0xffffffffffffffffffffffffffffffffffffffff\n      and\n      0xffffffffffffffffffffffffffffffffffffffff\n      and\n      dup2\n      mstore\n      0x20\n      add\n      swap1\n      dup2\n      mstore\n      0x20\n      add\n      0x00\n      keccak256\n        /* \"contracts/ERC20.sol\":2120:2159  allowance[msg.sender][spender] = amount */\n      dup2\n      swap1\n      sstore\n      pop\n        /* \"contracts/ERC20.sol\":2176:2180  true */\n      0x01\n        /* \"contracts/ERC20.sol\":2169:2180  return true */\n      swap1\n      pop\n        /* \"contracts/ERC20.sol\":2030:2187  function approve(address spender, uint amount) external override returns (bool) {... */\n      swap3\n      swap2\n      pop\n      pop\n      jump\t// out\n        /* \"contracts/ERC20.sol\":249:281  uint public override totalSupply */\n    tag_53:\n      sload(0x03)\n      dup2\n      jump\t// out\n        /* \"contracts/ERC20.sol\":2231:2841  function transferFrom(address sender, address to, uint amount) external override returns (bool) {... */\n    tag_60:\n        /* \"contracts/ERC20.sol\":2321:2325  bool */\n      0x00\n        /* \"contracts/ERC20.sol\":2378:2384  amount */\n      dup2\n        /* \"contracts/ERC20.sol\":2345:2354  allowance */\n      0x06\n        /* \"contracts/ERC20.sol\":2345:2362  allowance[sender] */\n      0x00\n        /* \"contracts/ERC20.sol\":2355:2361  sender */\n      dup7\n        /* \"contracts/ERC20.sol\":2345:2362  allowance[sender] */\n      0xffffffffffffffffffffffffffffffffffffffff\n      and\n      0xffffffffffffffffffffffffffffffffffffffff\n      and\n      dup2\n      mstore\n      0x20\n      add\n      swap1\n      dup2\n      mstore\n      0x20\n      add\n      0x00\n      keccak256\n        /* \"contracts/ERC20.sol\":2345:2374  allowance[sender][msg.sender] */\n      0x00\n        /* \"contracts/ERC20.sol\":2363:2373  msg.sender */\n      caller\n        /* \"contracts/ERC20.sol\":2345:2374  allowance[sender][msg.sender] */\n      0xffffffffffffffffffffffffffffffffffffffff\n      and\n      0xffffffffffffffffffffffffffffffffffffffff\n      and\n      dup2\n      mstore\n      0x20\n      add\n      swap1\n      dup2\n      mstore\n      0x20\n      add\n      0x00\n      keccak256\n      sload\n        /* \"contracts/ERC20.sol\":2345:2384  allowance[sender][msg.sender] >= amount */\n      lt\n      iszero\n        /* \"contracts/ERC20.sol\":2337:2385  require(allowance[sender][msg.sender] >= amount) */\n      tag_155\n      jumpi\n      0x00\n      dup1\n      revert\n    tag_155:\n        /* \"contracts/ERC20.sol\":2428:2434  amount */\n      dup2\n        /* \"contracts/ERC20.sol\":2395:2404  allowance */\n      0x06\n        /* \"contracts/ERC20.sol\":2395:2412  allowance[sender] */\n      0x00\n        /* \"contracts/ERC20.sol\":2405:2411  sender */\n      dup7\n        /* \"contracts/ERC20.sol\":2395:2412  allowance[sender] */\n      0xffffffffffffffffffffffffffffffffffffffff\n      and\n      0xffffffffffffffffffffffffffffffffffffffff\n      and\n      dup2\n      mstore\n      0x20\n      add\n      swap1\n      dup2\n      mstore\n      0x20\n      add\n      0x00\n      keccak256\n        /* \"contracts/ERC20.sol\":2395:2424  allowance[sender][msg.sender] */\n      0x00\n        /* \"contracts/ERC20.sol\":2413:2423  msg.sender */\n      caller\n        /* \"contracts/ERC20.sol\":2395:2424  allowance[sender][msg.sender] */\n      0xffffffffffffffffffffffffffffffffffffffff\n      and\n      0xffffffffffffffffffffffffffffffffffffffff\n      and\n      dup2\n      mstore\n      0x20\n      add\n      swap1\n      dup2\n      mstore\n      0x20\n      add\n      0x00\n      keccak256\n      0x00\n        /* \"contracts/ERC20.sol\":2395:2434  allowance[sender][msg.sender] -= amount */\n      dup3\n      dup3\n      sload\n      tag_156\n      swap2\n      swap1\n      tag_33\n      jump\t// in\n    tag_156:\n      swap3\n      pop\n      pop\n      dup2\n      swap1\n      sstore\n      pop\n        /* \"contracts/ERC20.sol\":2464:2470  amount */\n      dup2\n        /* \"contracts/ERC20.sol\":2444:2452  balances */\n      0x05\n        /* \"contracts/ERC20.sol\":2444:2460  balances[sender] */\n      0x00\n        /* \"contracts/ERC20.sol\":2453:2459  sender */\n      dup7\n        /* \"contracts/ERC20.sol\":2444:2460  balances[sender] */\n      0xffffffffffffffffffffffffffffffffffffffff\n      and\n      0xffffffffffffffffffffffffffffffffffffffff\n      and\n      dup2\n      mstore\n      0x20\n      add\n      swap1\n      dup2\n      mstore\n      0x20\n      add\n      0x00\n      keccak256\n      0x00\n        /* \"contracts/ERC20.sol\":2444:2470  balances[sender] -= amount */\n      dup3\n      dup3\n      sload\n      tag_157\n      swap2\n      swap1\n      tag_33\n      jump\t// in\n    tag_157:\n      swap3\n      pop\n      pop\n      dup2\n      swap1\n      sstore\n      pop\n        /* \"contracts/ERC20.sol\":2496:2502  amount */\n      dup2\n        /* \"contracts/ERC20.sol\":2480:2488  balances */\n      0x05\n        /* \"contracts/ERC20.sol\":2480:2492  balances[to] */\n      0x00\n        /* \"contracts/ERC20.sol\":2489:2491  to */\n      dup6\n        /* \"contracts/ERC20.sol\":2480:2492  balances[to] */\n      0xffffffffffffffffffffffffffffffffffffffff\n      and\n      0xffffffffffffffffffffffffffffffffffffffff\n      and\n      dup2\n      mstore\n      0x20\n      add\n      swap1\n      dup2\n      mstore\n      0x20\n      add\n      0x00\n      keccak256\n      0x00\n        /* \"contracts/ERC20.sol\":2480:2502  balances[to] += amount */\n      dup3\n      dup3\n      sload\n      tag_158\n      swap2\n      swap1\n      tag_35\n      jump\t// in\n    tag_158:\n      swap3\n      pop\n      pop\n      dup2\n      swap1\n      sstore\n      pop\n        /* \"contracts/ERC20.sol\":2519:2523  true */\n      0x01\n        /* \"contracts/ERC20.sol\":2512:2523  return true */\n      swap1\n      pop\n        /* \"contracts/ERC20.sol\":2231:2841  function transferFrom(address sender, address to, uint amount) external override returns (bool) {... */\n      swap4\n      swap3\n      pop\n      pop\n      pop\n      jump\t// out\n        /* \"contracts/ERC20.sol\":357:397  mapping(address => uint) public balances */\n    tag_66:\n      mstore(0x20, 0x05)\n      dup1\n      0x00\n      mstore\n      keccak256(0x00, 0x40)\n      0x00\n      swap2\n      pop\n      swap1\n      pop\n      sload\n      dup2\n      jump\t// out\n        /* \"contracts/Store.sol\":494:521  Goods[] public goodsForSale */\n    tag_72:\n      0x07\n      dup2\n      dup2\n      sload\n      dup2\n      lt\n      tag_159\n      jumpi\n      0x00\n      dup1\n      revert\n    tag_159:\n      swap1\n      0x00\n      mstore\n      keccak256(0x00, 0x20)\n      swap1\n      0x04\n      mul\n      add\n      0x00\n      swap2\n      pop\n      swap1\n      pop\n      dup1\n      0x00\n      add\n      dup1\n      sload\n      tag_161\n      swap1\n      tag_148\n      jump\t// in\n    tag_161:\n      dup1\n      0x1f\n      add\n      0x20\n      dup1\n      swap2\n      div\n      mul\n      0x20\n      add\n      mload(0x40)\n      swap1\n      dup2\n      add\n      0x40\n      mstore\n      dup1\n      swap3\n      swap2\n      swap1\n      dup2\n      dup2\n      mstore\n      0x20\n      add\n      dup3\n      dup1\n      sload\n      tag_162\n      swap1\n      tag_148\n      jump\t// in\n    tag_162:\n      dup1\n      iszero\n      tag_163\n      jumpi\n      dup1\n      0x1f\n      lt\n      tag_164\n      jumpi\n      0x0100\n      dup1\n      dup4\n      sload\n      div\n      mul\n      dup4\n      mstore\n      swap2\n      0x20\n      add\n      swap2\n      jump(tag_163)\n    tag_164:\n      dup3\n      add\n      swap2\n      swap1\n      0x00\n      mstore\n      keccak256(0x00, 0x20)\n      swap1\n    tag_165:\n      dup2\n      sload\n      dup2\n      mstore\n      swap1\n      0x01\n      add\n      swap1\n      0x20\n      add\n      dup1\n      dup4\n      gt\n      tag_165\n      jumpi\n      dup3\n      swap1\n      sub\n      0x1f\n      and\n      dup3\n      add\n      swap2\n    tag_163:\n      pop\n      pop\n      pop\n      pop\n      pop\n      swap1\n      dup1\n      0x01\n      add\n      dup1\n      sload\n      tag_166\n      swap1\n      tag_148\n      jump\t// in\n    tag_166:\n      dup1\n      0x1f\n      add\n      0x20\n      dup1\n      swap2\n      div\n      mul\n      0x20\n      add\n      mload(0x40)\n      swap1\n      dup2\n      add\n      0x40\n      mstore\n      dup1\n      swap3\n      swap2\n      swap1\n      dup2\n      dup2\n      mstore\n      0x20\n      add\n      dup3\n      dup1\n      sload\n      tag_167\n      swap1\n      tag_148\n      jump\t// in\n    tag_167:\n      dup1\n      iszero\n      tag_168\n      jumpi\n      dup1\n      0x1f\n      lt\n      tag_169\n      jumpi\n      0x0100\n      dup1\n      dup4\n      sload\n      div\n      mul\n      dup4\n      mstore\n      swap2\n      0x20\n      add\n      swap2\n      jump(tag_168)\n    tag_169:\n      dup3\n      add\n      swap2\n      swap1\n      0x00\n      mstore\n      keccak256(0x00, 0x20)\n      swap1\n    tag_170:\n      dup2\n      sload\n      dup2\n      mstore\n      swap1\n      0x01\n      add\n      swap1\n      0x20\n      add\n      dup1\n      dup4\n      gt\n      tag_170\n      jumpi\n      dup3\n      swap1\n      sub\n      0x1f\n      and\n      dup3\n      add\n      swap2\n    tag_168:\n      pop\n      pop\n      pop\n      pop\n      pop\n      swap1\n      dup1\n      0x02\n      add\n      sload\n      swap1\n      dup1\n      0x03\n      add\n      0x00\n      swap1\n      sload\n      swap1\n      0x0100\n      exp\n      swap1\n      div\n      0xffffffffffffffffffffffffffffffffffffffff\n      and\n      swap1\n      pop\n      dup5\n      jump\t// out\n        /* \"contracts/ERC20.sol\":197:223  uint8 public decimals = 18 */\n    tag_77:\n      0x02\n      0x00\n      swap1\n      sload\n      swap1\n      0x0100\n      exp\n      swap1\n      div\n      0xff\n      and\n      dup2\n      jump\t// out\n        /* \"contracts/Store.sol\":1609:1957  function makeSale(uint index) public {... */\n    tag_83:\n        /* \"contracts/Store.sol\":1656:1675  Goods storage goods */\n      0x00\n        /* \"contracts/Store.sol\":1678:1695  goodsUserRegister */\n      0x08\n        /* \"contracts/Store.sol\":1678:1707  goodsUserRegister[msg.sender] */\n      0x00\n        /* \"contracts/Store.sol\":1696:1706  msg.sender */\n      caller\n        /* \"contracts/Store.sol\":1678:1707  goodsUserRegister[msg.sender] */\n      0xffffffffffffffffffffffffffffffffffffffff\n      and\n      0xffffffffffffffffffffffffffffffffffffffff\n      and\n      dup2\n      mstore\n      0x20\n      add\n      swap1\n      dup2\n      mstore\n      0x20\n      add\n      0x00\n      keccak256\n        /* \"contracts/Store.sol\":1708:1713  index */\n      dup3\n        /* \"contracts/Store.sol\":1678:1714  goodsUserRegister[msg.sender][index] */\n      dup2\n      sload\n      dup2\n      lt\n      tag_172\n      jumpi\n      tag_173\n      tag_174\n      jump\t// in\n    tag_173:\n    tag_172:\n      swap1\n      0x00\n      mstore\n      keccak256(0x00, 0x20)\n      swap1\n      0x04\n      mul\n      add\n        /* \"contracts/Store.sol\":1656:1714  Goods storage goods = goodsUserRegister[msg.sender][index] */\n      swap1\n      pop\n        /* \"contracts/Store.sol\":1724:1736  goodsForSale */\n      0x07\n        /* \"contracts/Store.sol\":1742:1747  goods */\n      dup2\n        /* \"contracts/Store.sol\":1724:1748  goodsForSale.push(goods) */\n      swap1\n      dup1\n      0x01\n      dup2\n      sload\n      add\n      dup1\n      dup3\n      sstore\n      dup1\n      swap2\n      pop\n      pop\n      0x01\n      swap1\n      sub\n      swap1\n      0x00\n      mstore\n      keccak256(0x00, 0x20)\n      swap1\n      0x04\n      mul\n      add\n      0x00\n      swap1\n      swap2\n      swap1\n      swap2\n      swap1\n      swap2\n      pop\n      0x00\n      dup3\n      add\n      dup2\n      0x00\n      add\n      swap1\n      dup2\n      tag_177\n      swap2\n      swap1\n      tag_178\n      jump\t// in\n    tag_177:\n      pop\n      0x01\n      dup3\n      add\n      dup2\n      0x01\n      add\n      swap1\n      dup2\n      tag_179\n      swap2\n      swap1\n      tag_178\n      jump\t// in\n    tag_179:\n      pop\n      0x02\n      dup3\n      add\n      sload\n      dup2\n      0x02\n      add\n      sstore\n      0x03\n      dup3\n      add\n      0x00\n      swap1\n      sload\n      swap1\n      0x0100\n      exp\n      swap1\n      div\n      0xffffffffffffffffffffffffffffffffffffffff\n      and\n      dup2\n      0x03\n      add\n      exp(0x0100, 0x00)\n      dup2\n      sload\n      dup2\n      0xffffffffffffffffffffffffffffffffffffffff\n      mul\n      not\n      and\n      swap1\n      dup4\n      0xffffffffffffffffffffffffffffffffffffffff\n      and\n      mul\n      or\n      swap1\n      sstore\n      pop\n      pop\n      pop\n        /* \"contracts/Store.sol\":1759:1773  uint lastIndex */\n      0x00\n        /* \"contracts/Store.sol\":1815:1816  1 */\n      0x01\n        /* \"contracts/Store.sol\":1776:1793  goodsUserRegister */\n      0x08\n        /* \"contracts/Store.sol\":1776:1805  goodsUserRegister[msg.sender] */\n      0x00\n        /* \"contracts/Store.sol\":1794:1804  msg.sender */\n      caller\n        /* \"contracts/Store.sol\":1776:1805  goodsUserRegister[msg.sender] */\n      0xffffffffffffffffffffffffffffffffffffffff\n      and\n      0xffffffffffffffffffffffffffffffffffffffff\n      and\n      dup2\n      mstore\n      0x20\n      add\n      swap1\n      dup2\n      mstore\n      0x20\n      add\n      0x00\n      keccak256\n        /* \"contracts/Store.sol\":1776:1812  goodsUserRegister[msg.sender].length */\n      dup1\n      sload\n      swap1\n      pop\n        /* \"contracts/Store.sol\":1776:1816  goodsUserRegister[msg.sender].length - 1 */\n      tag_180\n      swap2\n      swap1\n      tag_33\n      jump\t// in\n    tag_180:\n        /* \"contracts/Store.sol\":1759:1816  uint lastIndex = goodsUserRegister[msg.sender].length - 1 */\n      swap1\n      pop\n        /* \"contracts/Store.sol\":1865:1882  goodsUserRegister */\n      0x08\n        /* \"contracts/Store.sol\":1865:1894  goodsUserRegister[msg.sender] */\n      0x00\n        /* \"contracts/Store.sol\":1883:1893  msg.sender */\n      caller\n        /* \"contracts/Store.sol\":1865:1894  goodsUserRegister[msg.sender] */\n      0xffffffffffffffffffffffffffffffffffffffff\n      and\n      0xffffffffffffffffffffffffffffffffffffffff\n      and\n      dup2\n      mstore\n      0x20\n      add\n      swap1\n      dup2\n      mstore\n      0x20\n      add\n      0x00\n      keccak256\n        /* \"contracts/Store.sol\":1895:1904  lastIndex */\n      dup2\n        /* \"contracts/Store.sol\":1865:1905  goodsUserRegister[msg.sender][lastIndex] */\n      dup2\n      sload\n      dup2\n      lt\n      tag_181\n      jumpi\n      tag_182\n      tag_174\n      jump\t// in\n    tag_182:\n    tag_181:\n      swap1\n      0x00\n      mstore\n      keccak256(0x00, 0x20)\n      swap1\n      0x04\n      mul\n      add\n        /* \"contracts/Store.sol\":1826:1843  goodsUserRegister */\n      0x08\n        /* \"contracts/Store.sol\":1826:1855  goodsUserRegister[msg.sender] */\n      0x00\n        /* \"contracts/Store.sol\":1844:1854  msg.sender */\n      caller\n        /* \"contracts/Store.sol\":1826:1855  goodsUserRegister[msg.sender] */\n      0xffffffffffffffffffffffffffffffffffffffff\n      and\n      0xffffffffffffffffffffffffffffffffffffffff\n      and\n      dup2\n      mstore\n      0x20\n      add\n      swap1\n      dup2\n      mstore\n      0x20\n      add\n      0x00\n      keccak256\n        /* \"contracts/Store.sol\":1856:1861  index */\n      dup5\n        /* \"contracts/Store.sol\":1826:1862  goodsUserRegister[msg.sender][index] */\n      dup2\n      sload\n      dup2\n      lt\n      tag_184\n      jumpi\n      tag_185\n      tag_174\n      jump\t// in\n    tag_185:\n    tag_184:\n      swap1\n      0x00\n      mstore\n      keccak256(0x00, 0x20)\n      swap1\n      0x04\n      mul\n      add\n        /* \"contracts/Store.sol\":1826:1905  goodsUserRegister[msg.sender][index] = goodsUserRegister[msg.sender][lastIndex] */\n      0x00\n      dup3\n      add\n      dup2\n      0x00\n      add\n      swap1\n      dup2\n      tag_187\n      swap2\n      swap1\n      tag_178\n      jump\t// in\n    tag_187:\n      pop\n      0x01\n      dup3\n      add\n      dup2\n      0x01\n      add\n      swap1\n      dup2\n      tag_188\n      swap2\n      swap1\n      tag_178\n      jump\t// in\n    tag_188:\n      pop\n      0x02\n      dup3\n      add\n      sload\n      dup2\n      0x02\n      add\n      sstore\n      0x03\n      dup3\n      add\n      0x00\n      swap1\n      sload\n      swap1\n      0x0100\n      exp\n      swap1\n      div\n      0xffffffffffffffffffffffffffffffffffffffff\n      and\n      dup2\n      0x03\n      add\n      exp(0x0100, 0x00)\n      dup2\n      sload\n      dup2\n      0xffffffffffffffffffffffffffffffffffffffff\n      mul\n      not\n      and\n      swap1\n      dup4\n      0xffffffffffffffffffffffffffffffffffffffff\n      and\n      mul\n      or\n      swap1\n      sstore\n      pop\n      swap1\n      pop\n      pop\n        /* \"contracts/Store.sol\":1915:1932  goodsUserRegister */\n      0x08\n        /* \"contracts/Store.sol\":1915:1944  goodsUserRegister[msg.sender] */\n      0x00\n        /* \"contracts/Store.sol\":1933:1943  msg.sender */\n      caller\n        /* \"contracts/Store.sol\":1915:1944  goodsUserRegister[msg.sender] */\n      0xffffffffffffffffffffffffffffffffffffffff\n      and\n      0xffffffffffffffffffffffffffffffffffffffff\n      and\n      dup2\n      mstore\n      0x20\n      add\n      swap1\n      dup2\n      mstore\n      0x20\n      add\n      0x00\n      keccak256\n        /* \"contracts/Store.sol\":1915:1950  goodsUserRegister[msg.sender].pop() */\n      dup1\n      sload\n      dup1\n      tag_189\n      jumpi\n      tag_190\n      tag_191\n      jump\t// in\n    tag_190:\n    tag_189:\n      0x01\n      swap1\n      sub\n      dup2\n      dup2\n      swap1\n      0x00\n      mstore\n      keccak256(0x00, 0x20)\n      swap1\n      0x04\n      mul\n      add\n      0x00\n      dup1\n      dup3\n      add\n      0x00\n      tag_193\n      swap2\n      swap1\n      tag_194\n      jump\t// in\n    tag_193:\n      0x01\n      dup3\n      add\n      0x00\n      tag_195\n      swap2\n      swap1\n      tag_194\n      jump\t// in\n    tag_195:\n      0x02\n      dup3\n      add\n      0x00\n      swap1\n      sstore\n      0x03\n      dup3\n      add\n      exp(0x0100, 0x00)\n      dup2\n      sload\n      swap1\n      0xffffffffffffffffffffffffffffffffffffffff\n      mul\n      not\n      and\n      swap1\n      sstore\n      pop\n      pop\n      swap1\n      sstore\n        /* \"contracts/Store.sol\":1646:1957  {... */\n      pop\n      pop\n        /* \"contracts/Store.sol\":1609:1957  function makeSale(uint index) public {... */\n      pop\n      jump\t// out\n        /* \"contracts/ERC20.sol\":2871:2985  function burn(uint amount) external {... */\n    tag_87:\n        /* \"contracts/ERC20.sol\":2941:2947  amount */\n      dup1\n        /* \"contracts/ERC20.sol\":2917:2925  balances */\n      0x05\n        /* \"contracts/ERC20.sol\":2917:2937  balances[msg.sender] */\n      0x00\n        /* \"contracts/ERC20.sol\":2926:2936  msg.sender */\n      caller\n        /* \"contracts/ERC20.sol\":2917:2937  balances[msg.sender] */\n      0xffffffffffffffffffffffffffffffffffffffff\n      and\n      0xffffffffffffffffffffffffffffffffffffffff\n      and\n      dup2\n      mstore\n      0x20\n      add\n      swap1\n      dup2\n      mstore\n      0x20\n      add\n      0x00\n      keccak256\n      0x00\n        /* \"contracts/ERC20.sol\":2917:2947  balances[msg.sender] -= amount */\n      dup3\n      dup3\n      sload\n      tag_197\n      swap2\n      swap1\n      tag_33\n      jump\t// in\n    tag_197:\n      swap3\n      pop\n      pop\n      dup2\n      swap1\n      sstore\n      pop\n        /* \"contracts/ERC20.sol\":2972:2978  amount */\n      dup1\n        /* \"contracts/ERC20.sol\":2957:2968  totalSupply */\n      0x03\n      0x00\n        /* \"contracts/ERC20.sol\":2957:2978  totalSupply -= amount */\n      dup3\n      dup3\n      sload\n      tag_198\n      swap2\n      swap1\n      tag_33\n      jump\t// in\n    tag_198:\n      swap3\n      pop\n      pop\n      dup2\n      swap1\n      sstore\n      pop\n        /* \"contracts/ERC20.sol\":2871:2985  function burn(uint amount) external {... */\n      pop\n      jump\t// out\n        /* \"contracts/Store.sol\":1043:1156  function showMyGoods() public view returns (Goods[] memory) {... */\n    tag_90:\n        /* \"contracts/Store.sol\":1087:1101  Goods[] memory */\n      0x60\n        /* \"contracts/Store.sol\":1120:1137  goodsUserRegister */\n      0x08\n        /* \"contracts/Store.sol\":1120:1149  goodsUserRegister[msg.sender] */\n      0x00\n        /* \"contracts/Store.sol\":1138:1148  msg.sender */\n      caller\n        /* \"contracts/Store.sol\":1120:1149  goodsUserRegister[msg.sender] */\n      0xffffffffffffffffffffffffffffffffffffffff\n      and\n      0xffffffffffffffffffffffffffffffffffffffff\n      and\n      dup2\n      mstore\n      0x20\n      add\n      swap1\n      dup2\n      mstore\n      0x20\n      add\n      0x00\n      keccak256\n        /* \"contracts/Store.sol\":1113:1149  return goodsUserRegister[msg.sender] */\n      dup1\n      sload\n      dup1\n      0x20\n      mul\n      0x20\n      add\n      mload(0x40)\n      swap1\n      dup2\n      add\n      0x40\n      mstore\n      dup1\n      swap3\n      swap2\n      swap1\n      dup2\n      dup2\n      mstore\n      0x20\n      add\n      0x00\n      swap1\n    tag_200:\n      dup3\n      dup3\n      lt\n      iszero\n      tag_201\n      jumpi\n      dup4\n      dup3\n      swap1\n      0x00\n      mstore\n      keccak256(0x00, 0x20)\n      swap1\n      0x04\n      mul\n      add\n      mload(0x40)\n      dup1\n      0x80\n      add\n      0x40\n      mstore\n      swap1\n      dup2\n      0x00\n      dup3\n      add\n      dup1\n      sload\n      tag_203\n      swap1\n      tag_148\n      jump\t// in\n    tag_203:\n      dup1\n      0x1f\n      add\n      0x20\n      dup1\n      swap2\n      div\n      mul\n      0x20\n      add\n      mload(0x40)\n      swap1\n      dup2\n      add\n      0x40\n      mstore\n      dup1\n      swap3\n      swap2\n      swap1\n      dup2\n      dup2\n      mstore\n      0x20\n      add\n      dup3\n      dup1\n      sload\n      tag_204\n      swap1\n      tag_148\n      jump\t// in\n    tag_204:\n      dup1\n      iszero\n      tag_205\n      jumpi\n      dup1\n      0x1f\n      lt\n      tag_206\n      jumpi\n      0x0100\n      dup1\n      dup4\n      sload\n      div\n      mul\n      dup4\n      mstore\n      swap2\n      0x20\n      add\n      swap2\n      jump(tag_205)\n    tag_206:\n      dup3\n      add\n      swap2\n      swap1\n      0x00\n      mstore\n      keccak256(0x00, 0x20)\n      swap1\n    tag_207:\n      dup2\n      sload\n      dup2\n      mstore\n      swap1\n      0x01\n      add\n      swap1\n      0x20\n      add\n      dup1\n      dup4\n      gt\n      tag_207\n      jumpi\n      dup3\n      swap1\n      sub\n      0x1f\n      and\n      dup3\n      add\n      swap2\n    tag_205:\n      pop\n      pop\n      pop\n      pop\n      pop\n      dup2\n      mstore\n      0x20\n      add\n      0x01\n      dup3\n      add\n      dup1\n      sload\n      tag_208\n      swap1\n      tag_148\n      jump\t// in\n    tag_208:\n      dup1\n      0x1f\n      add\n      0x20\n      dup1\n      swap2\n      div\n      mul\n      0x20\n      add\n      mload(0x40)\n      swap1\n      dup2\n      add\n      0x40\n      mstore\n      dup1\n      swap3\n      swap2\n      swap1\n      dup2\n      dup2\n      mstore\n      0x20\n      add\n      dup3\n      dup1\n      sload\n      tag_209\n      swap1\n      tag_148\n      jump\t// in\n    tag_209:\n      dup1\n      iszero\n      tag_210\n      jumpi\n      dup1\n      0x1f\n      lt\n      tag_211\n      jumpi\n      0x0100\n      dup1\n      dup4\n      sload\n      div\n      mul\n      dup4\n      mstore\n      swap2\n      0x20\n      add\n      swap2\n      jump(tag_210)\n    tag_211:\n      dup3\n      add\n      swap2\n      swap1\n      0x00\n      mstore\n      keccak256(0x00, 0x20)\n      swap1\n    tag_212:\n      dup2\n      sload\n      dup2\n      mstore\n      swap1\n      0x01\n      add\n      swap1\n      0x20\n      add\n      dup1\n      dup4\n      gt\n      tag_212\n      jumpi\n      dup3\n      swap1\n      sub\n      0x1f\n      and\n      dup3\n      add\n      swap2\n    tag_210:\n      pop\n      pop\n      pop\n      pop\n      pop\n      dup2\n      mstore\n      0x20\n      add\n      0x02\n      dup3\n      add\n      sload\n      dup2\n      mstore\n      0x20\n      add\n      0x03\n      dup3\n      add\n      0x00\n      swap1\n      sload\n      swap1\n      0x0100\n      exp\n      swap1\n      div\n      0xffffffffffffffffffffffffffffffffffffffff\n      and\n      0xffffffffffffffffffffffffffffffffffffffff\n      and\n      0xffffffffffffffffffffffffffffffffffffffff\n      and\n      dup2\n      mstore\n      pop\n      pop\n      dup2\n      mstore\n      0x20\n      add\n      swap1\n      0x01\n      add\n      swap1\n      jump(tag_200)\n    tag_201:\n      pop\n      pop\n      pop\n      pop\n      swap1\n      pop\n        /* \"contracts/Store.sol\":1043:1156  function showMyGoods() public view returns (Goods[] memory) {... */\n      swap1\n      jump\t// out\n        /* \"contracts/Store.sol\":2004:2101  function showAllGoods() public view returns (Goods[] memory) {... */\n    tag_95:\n        /* \"contracts/Store.sol\":2049:2063  Goods[] memory */\n      0x60\n        /* \"contracts/Store.sol\":2082:2094  goodsForSale */\n      0x07\n        /* \"contracts/Store.sol\":2075:2094  return goodsForSale */\n      dup1\n      sload\n      dup1\n      0x20\n      mul\n      0x20\n      add\n      mload(0x40)\n      swap1\n      dup2\n      add\n      0x40\n      mstore\n      dup1\n      swap3\n      swap2\n      swap1\n      dup2\n      dup2\n      mstore\n      0x20\n      add\n      0x00\n      swap1\n    tag_214:\n      dup3\n      dup3\n      lt\n      iszero\n      tag_215\n      jumpi\n      dup4\n      dup3\n      swap1\n      0x00\n      mstore\n      keccak256(0x00, 0x20)\n      swap1\n      0x04\n      mul\n      add\n      mload(0x40)\n      dup1\n      0x80\n      add\n      0x40\n      mstore\n      swap1\n      dup2\n      0x00\n      dup3\n      add\n      dup1\n      sload\n      tag_217\n      swap1\n      tag_148\n      jump\t// in\n    tag_217:\n      dup1\n      0x1f\n      add\n      0x20\n      dup1\n      swap2\n      div\n      mul\n      0x20\n      add\n      mload(0x40)\n      swap1\n      dup2\n      add\n      0x40\n      mstore\n      dup1\n      swap3\n      swap2\n      swap1\n      dup2\n      dup2\n      mstore\n      0x20\n      add\n      dup3\n      dup1\n      sload\n      tag_218\n      swap1\n      tag_148\n      jump\t// in\n    tag_218:\n      dup1\n      iszero\n      tag_219\n      jumpi\n      dup1\n      0x1f\n      lt\n      tag_220\n      jumpi\n      0x0100\n      dup1\n      dup4\n      sload\n      div\n      mul\n      dup4\n      mstore\n      swap2\n      0x20\n      add\n      swap2\n      jump(tag_219)\n    tag_220:\n      dup3\n      add\n      swap2\n      swap1\n      0x00\n      mstore\n      keccak256(0x00, 0x20)\n      swap1\n    tag_221:\n      dup2\n      sload\n      dup2\n      mstore\n      swap1\n      0x01\n      add\n      swap1\n      0x20\n      add\n      dup1\n      dup4\n      gt\n      tag_221\n      jumpi\n      dup3\n      swap1\n      sub\n      0x1f\n      and\n      dup3\n      add\n      swap2\n    tag_219:\n      pop\n      pop\n      pop\n      pop\n      pop\n      dup2\n      mstore\n      0x20\n      add\n      0x01\n      dup3\n      add\n      dup1\n      sload\n      tag_222\n      swap1\n      tag_148\n      jump\t// in\n    tag_222:\n      dup1\n      0x1f\n      add\n      0x20\n      dup1\n      swap2\n      div\n      mul\n      0x20\n      add\n      mload(0x40)\n      swap1\n      dup2\n      add\n      0x40\n      mstore\n      dup1\n      swap3\n      swap2\n      swap1\n      dup2\n      dup2\n      mstore\n      0x20\n      add\n      dup3\n      dup1\n      sload\n      tag_223\n      swap1\n      tag_148\n      jump\t// in\n    tag_223:\n      dup1\n      iszero\n      tag_224\n      jumpi\n      dup1\n      0x1f\n      lt\n      tag_225\n      jumpi\n      0x0100\n      dup1\n      dup4\n      sload\n      div\n      mul\n      dup4\n      mstore\n      swap2\n      0x20\n      add\n      swap2\n      jump(tag_224)\n    tag_225:\n      dup3\n      add\n      swap2\n      swap1\n      0x00\n      mstore\n      keccak256(0x00, 0x20)\n      swap1\n    tag_226:\n      dup2\n      sload\n      dup2\n      mstore\n      swap1\n      0x01\n      add\n      swap1\n      0x20\n      add\n      dup1\n      dup4\n      gt\n      tag_226\n      jumpi\n      dup3\n      swap1\n      sub\n      0x1f\n      and\n      dup3\n      add\n      swap2\n    tag_224:\n      pop\n      pop\n      pop\n      pop\n      pop\n      dup2\n      mstore\n      0x20\n      add\n      0x02\n      dup3\n      add\n      sload\n      dup2\n      mstore\n      0x20\n      add\n      0x03\n      dup3\n      add\n      0x00\n      swap1\n      sload\n      swap1\n      0x0100\n      exp\n      swap1\n      div\n      0xffffffffffffffffffffffffffffffffffffffff\n      and\n      0xffffffffffffffffffffffffffffffffffffffff\n      and\n      0xffffffffffffffffffffffffffffffffffffffff\n      and\n      dup2\n      mstore\n      pop\n      pop\n      dup2\n      mstore\n      0x20\n      add\n      swap1\n      0x01\n      add\n      swap1\n      jump(tag_214)\n    tag_215:\n      pop\n      pop\n      pop\n      pop\n      swap1\n      pop\n        /* \"contracts/Store.sol\":2004:2101  function showAllGoods() public view returns (Goods[] memory) {... */\n      swap1\n      jump\t// out\n        /* \"contracts/Store.sol\":1248:1562  function removeMyGoods(uint index) public {... */\n    tag_100:\n        /* \"contracts/Store.sol\":1300:1314  uint lastIndex */\n      0x00\n        /* \"contracts/Store.sol\":1356:1357  1 */\n      0x01\n        /* \"contracts/Store.sol\":1317:1334  goodsUserRegister */\n      0x08\n        /* \"contracts/Store.sol\":1317:1346  goodsUserRegister[msg.sender] */\n      0x00\n        /* \"contracts/Store.sol\":1335:1345  msg.sender */\n      caller\n        /* \"contracts/Store.sol\":1317:1346  goodsUserRegister[msg.sender] */\n      0xffffffffffffffffffffffffffffffffffffffff\n      and\n      0xffffffffffffffffffffffffffffffffffffffff\n      and\n      dup2\n      mstore\n      0x20\n      add\n      swap1\n      dup2\n      mstore\n      0x20\n      add\n      0x00\n      keccak256\n        /* \"contracts/Store.sol\":1317:1353  goodsUserRegister[msg.sender].length */\n      dup1\n      sload\n      swap1\n      pop\n        /* \"contracts/Store.sol\":1317:1357  goodsUserRegister[msg.sender].length - 1 */\n      tag_228\n      swap2\n      swap1\n      tag_33\n      jump\t// in\n    tag_228:\n        /* \"contracts/Store.sol\":1300:1357  uint lastIndex = goodsUserRegister[msg.sender].length - 1 */\n      swap1\n      pop\n        /* \"contracts/Store.sol\":1384:1393  lastIndex */\n      dup1\n        /* \"contracts/Store.sol\":1375:1380  index */\n      dup3\n        /* \"contracts/Store.sol\":1375:1393  index <= lastIndex */\n      gt\n      iszero\n        /* \"contracts/Store.sol\":1367:1421  require(index <= lastIndex, \"Invalid index to remove\") */\n      tag_229\n      jumpi\n      mload(0x40)\n      0x08c379a000000000000000000000000000000000000000000000000000000000\n      dup2\n      mstore\n      0x04\n      add\n      tag_230\n      swap1\n      tag_231\n      jump\t// in\n    tag_230:\n      mload(0x40)\n      dup1\n      swap2\n      sub\n      swap1\n      revert\n    tag_229:\n        /* \"contracts/Store.sol\":1470:1487  goodsUserRegister */\n      0x08\n        /* \"contracts/Store.sol\":1470:1499  goodsUserRegister[msg.sender] */\n      0x00\n        /* \"contracts/Store.sol\":1488:1498  msg.sender */\n      caller\n        /* \"contracts/Store.sol\":1470:1499  goodsUserRegister[msg.sender] */\n      0xffffffffffffffffffffffffffffffffffffffff\n      and\n      0xffffffffffffffffffffffffffffffffffffffff\n      and\n      dup2\n      mstore\n      0x20\n      add\n      swap1\n      dup2\n      mstore\n      0x20\n      add\n      0x00\n      keccak256\n        /* \"contracts/Store.sol\":1500:1509  lastIndex */\n      dup2\n        /* \"contracts/Store.sol\":1470:1510  goodsUserRegister[msg.sender][lastIndex] */\n      dup2\n      sload\n      dup2\n      lt\n      tag_232\n      jumpi\n      tag_233\n      tag_174\n      jump\t// in\n    tag_233:\n    tag_232:\n      swap1\n      0x00\n      mstore\n      keccak256(0x00, 0x20)\n      swap1\n      0x04\n      mul\n      add\n        /* \"contracts/Store.sol\":1431:1448  goodsUserRegister */\n      0x08\n        /* \"contracts/Store.sol\":1431:1460  goodsUserRegister[msg.sender] */\n      0x00\n        /* \"contracts/Store.sol\":1449:1459  msg.sender */\n      caller\n        /* \"contracts/Store.sol\":1431:1460  goodsUserRegister[msg.sender] */\n      0xffffffffffffffffffffffffffffffffffffffff\n      and\n      0xffffffffffffffffffffffffffffffffffffffff\n      and\n      dup2\n      mstore\n      0x20\n      add\n      swap1\n      dup2\n      mstore\n      0x20\n      add\n      0x00\n      keccak256\n        /* \"contracts/Store.sol\":1461:1466  index */\n      dup4\n        /* \"contracts/Store.sol\":1431:1467  goodsUserRegister[msg.sender][index] */\n      dup2\n      sload\n      dup2\n      lt\n      tag_235\n      jumpi\n      tag_236\n      tag_174\n      jump\t// in\n    tag_236:\n    tag_235:\n      swap1\n      0x00\n      mstore\n      keccak256(0x00, 0x20)\n      swap1\n      0x04\n      mul\n      add\n        /* \"contracts/Store.sol\":1431:1510  goodsUserRegister[msg.sender][index] = goodsUserRegister[msg.sender][lastIndex] */\n      0x00\n      dup3\n      add\n      dup2\n      0x00\n      add\n      swap1\n      dup2\n      tag_238\n      swap2\n      swap1\n      tag_178\n      jump\t// in\n    tag_238:\n      pop\n      0x01\n      dup3\n      add\n      dup2\n      0x01\n      add\n      swap1\n      dup2\n      tag_239\n      swap2\n      swap1\n      tag_178\n      jump\t// in\n    tag_239:\n      pop\n      0x02\n      dup3\n      add\n      sload\n      dup2\n      0x02\n      add\n      sstore\n      0x03\n      dup3\n      add\n      0x00\n      swap1\n      sload\n      swap1\n      0x0100\n      exp\n      swap1\n      div\n      0xffffffffffffffffffffffffffffffffffffffff\n      and\n      dup2\n      0x03\n      add\n      exp(0x0100, 0x00)\n      dup2\n      sload\n      dup2\n      0xffffffffffffffffffffffffffffffffffffffff\n      mul\n      not\n      and\n      swap1\n      dup4\n      0xffffffffffffffffffffffffffffffffffffffff\n      and\n      mul\n      or\n      swap1\n      sstore\n      pop\n      swap1\n      pop\n      pop\n        /* \"contracts/Store.sol\":1520:1537  goodsUserRegister */\n      0x08\n        /* \"contracts/Store.sol\":1520:1549  goodsUserRegister[msg.sender] */\n      0x00\n        /* \"contracts/Store.sol\":1538:1548  msg.sender */\n      caller\n        /* \"contracts/Store.sol\":1520:1549  goodsUserRegister[msg.sender] */\n      0xffffffffffffffffffffffffffffffffffffffff\n      and\n      0xffffffffffffffffffffffffffffffffffffffff\n      and\n      dup2\n      mstore\n      0x20\n      add\n      swap1\n      dup2\n      mstore\n      0x20\n      add\n      0x00\n      keccak256\n        /* \"contracts/Store.sol\":1520:1555  goodsUserRegister[msg.sender].pop() */\n      dup1\n      sload\n      dup1\n      tag_240\n      jumpi\n      tag_241\n      tag_191\n      jump\t// in\n    tag_241:\n    tag_240:\n      0x01\n      swap1\n      sub\n      dup2\n      dup2\n      swap1\n      0x00\n      mstore\n      keccak256(0x00, 0x20)\n      swap1\n      0x04\n      mul\n      add\n      0x00\n      dup1\n      dup3\n      add\n      0x00\n      tag_243\n      swap2\n      swap1\n      tag_194\n      jump\t// in\n    tag_243:\n      0x01\n      dup3\n      add\n      0x00\n      tag_244\n      swap2\n      swap1\n      tag_194\n      jump\t// in\n    tag_244:\n      0x02\n      dup3\n      add\n      0x00\n      swap1\n      sstore\n      0x03\n      dup3\n      add\n      exp(0x0100, 0x00)\n      dup2\n      sload\n      swap1\n      0xffffffffffffffffffffffffffffffffffffffff\n      mul\n      not\n      and\n      swap1\n      sstore\n      pop\n      pop\n      swap1\n      sstore\n        /* \"contracts/Store.sol\":1290:1562  {... */\n      pop\n        /* \"contracts/Store.sol\":1248:1562  function removeMyGoods(uint index) public {... */\n      pop\n      jump\t// out\n        /* \"contracts/ERC20.sol\":1685:1800  function balanceOf(address account) external view override returns (uint) {... */\n    tag_104:\n        /* \"contracts/ERC20.sol\":1753:1757  uint */\n      0x00\n        /* \"contracts/ERC20.sol\":1776:1784  balances */\n      0x05\n        /* \"contracts/ERC20.sol\":1776:1793  balances[account] */\n      0x00\n        /* \"contracts/ERC20.sol\":1785:1792  account */\n      dup4\n        /* \"contracts/ERC20.sol\":1776:1793  balances[account] */\n      0xffffffffffffffffffffffffffffffffffffffff\n      and\n      0xffffffffffffffffffffffffffffffffffffffff\n      and\n      dup2\n      mstore\n      0x20\n      add\n      swap1\n      dup2\n      mstore\n      0x20\n      add\n      0x00\n      keccak256\n      sload\n        /* \"contracts/ERC20.sol\":1769:1793  return balances[account] */\n      swap1\n      pop\n        /* \"contracts/ERC20.sol\":1685:1800  function balanceOf(address account) external view override returns (uint) {... */\n      swap2\n      swap1\n      pop\n      jump\t// out\n        /* \"contracts/Store.sol\":2131:2800  function buyGoods(uint index) public {... */\n    tag_109:\n        /* \"contracts/Store.sol\":2253:2272  Goods storage goods */\n      0x00\n        /* \"contracts/Store.sol\":2275:2287  goodsForSale */\n      0x07\n        /* \"contracts/Store.sol\":2288:2293  index */\n      dup3\n        /* \"contracts/Store.sol\":2275:2294  goodsForSale[index] */\n      dup2\n      sload\n      dup2\n      lt\n      tag_247\n      jumpi\n      tag_248\n      tag_174\n      jump\t// in\n    tag_248:\n    tag_247:\n      swap1\n      0x00\n      mstore\n      keccak256(0x00, 0x20)\n      swap1\n      0x04\n      mul\n      add\n        /* \"contracts/Store.sol\":2253:2294  Goods storage goods = goodsForSale[index] */\n      swap1\n      pop\n        /* \"contracts/Store.sol\":2336:2341  goods */\n      dup1\n        /* \"contracts/Store.sol\":2336:2347  goods.price */\n      0x02\n      add\n      sload\n        /* \"contracts/Store.sol\":2312:2320  balances */\n      0x05\n        /* \"contracts/Store.sol\":2312:2332  balances[msg.sender] */\n      0x00\n        /* \"contracts/Store.sol\":2321:2331  msg.sender */\n      caller\n        /* \"contracts/Store.sol\":2312:2332  balances[msg.sender] */\n      0xffffffffffffffffffffffffffffffffffffffff\n      and\n      0xffffffffffffffffffffffffffffffffffffffff\n      and\n      dup2\n      mstore\n      0x20\n      add\n      swap1\n      dup2\n      mstore\n      0x20\n      add\n      0x00\n      keccak256\n      sload\n        /* \"contracts/Store.sol\":2312:2347  balances[msg.sender] >= goods.price */\n      lt\n      iszero\n        /* \"contracts/Store.sol\":2304:2348  require(balances[msg.sender] >= goods.price) */\n      tag_250\n      jumpi\n      0x00\n      dup1\n      revert\n    tag_250:\n        /* \"contracts/Store.sol\":2470:2478  10 ** 18 */\n      0x0de0b6b3a7640000\n        /* \"contracts/Store.sol\":2455:2460  goods */\n      dup2\n        /* \"contracts/Store.sol\":2455:2466  goods.price */\n      0x02\n      add\n      sload\n        /* \"contracts/Store.sol\":2455:2479  goods.price * (10 ** 18) */\n      tag_251\n      swap2\n      swap1\n      tag_30\n      jump\t// in\n    tag_251:\n        /* \"contracts/Store.sol\":2431:2439  balances */\n      0x05\n        /* \"contracts/Store.sol\":2431:2451  balances[msg.sender] */\n      0x00\n        /* \"contracts/Store.sol\":2440:2450  msg.sender */\n      caller\n        /* \"contracts/Store.sol\":2431:2451  balances[msg.sender] */\n      0xffffffffffffffffffffffffffffffffffffffff\n      and\n      0xffffffffffffffffffffffffffffffffffffffff\n      and\n      dup2\n      mstore\n      0x20\n      add\n      swap1\n      dup2\n      mstore\n      0x20\n      add\n      0x00\n      keccak256\n      0x00\n        /* \"contracts/Store.sol\":2431:2479  balances[msg.sender] -= goods.price * (10 ** 18) */\n      dup3\n      dup3\n      sload\n      tag_252\n      swap2\n      swap1\n      tag_33\n      jump\t// in\n    tag_252:\n      swap3\n      pop\n      pop\n      dup2\n      swap1\n      sstore\n      pop\n        /* \"contracts/Store.sol\":2530:2538  10 ** 18 */\n      0x0de0b6b3a7640000\n        /* \"contracts/Store.sol\":2515:2520  goods */\n      dup2\n        /* \"contracts/Store.sol\":2515:2526  goods.price */\n      0x02\n      add\n      sload\n        /* \"contracts/Store.sol\":2515:2539  goods.price * (10 ** 18) */\n      tag_253\n      swap2\n      swap1\n      tag_30\n      jump\t// in\n    tag_253:\n        /* \"contracts/Store.sol\":2489:2497  balances */\n      0x05\n        /* \"contracts/Store.sol\":2489:2511  balances[goods.seller] */\n      0x00\n        /* \"contracts/Store.sol\":2498:2503  goods */\n      dup4\n        /* \"contracts/Store.sol\":2498:2510  goods.seller */\n      0x03\n      add\n      0x00\n      swap1\n      sload\n      swap1\n      0x0100\n      exp\n      swap1\n      div\n      0xffffffffffffffffffffffffffffffffffffffff\n      and\n        /* \"contracts/Store.sol\":2489:2511  balances[goods.seller] */\n      0xffffffffffffffffffffffffffffffffffffffff\n      and\n      0xffffffffffffffffffffffffffffffffffffffff\n      and\n      dup2\n      mstore\n      0x20\n      add\n      swap1\n      dup2\n      mstore\n      0x20\n      add\n      0x00\n      keccak256\n      0x00\n        /* \"contracts/Store.sol\":2489:2539  balances[goods.seller] += goods.price * (10 ** 18) */\n      dup3\n      dup3\n      sload\n      tag_254\n      swap2\n      swap1\n      tag_35\n      jump\t// in\n    tag_254:\n      swap3\n      pop\n      pop\n      dup2\n      swap1\n      sstore\n      pop\n        /* \"contracts/Store.sol\":2588:2602  uint lastIndex */\n      0x00\n        /* \"contracts/Store.sol\":2627:2628  1 */\n      0x01\n        /* \"contracts/Store.sol\":2605:2617  goodsForSale */\n      0x07\n        /* \"contracts/Store.sol\":2605:2624  goodsForSale.length */\n      dup1\n      sload\n      swap1\n      pop\n        /* \"contracts/Store.sol\":2605:2628  goodsForSale.length - 1 */\n      tag_255\n      swap2\n      swap1\n      tag_33\n      jump\t// in\n    tag_255:\n        /* \"contracts/Store.sol\":2588:2628  uint lastIndex = goodsForSale.length - 1 */\n      swap1\n      pop\n        /* \"contracts/Store.sol\":2660:2672  goodsForSale */\n      0x07\n        /* \"contracts/Store.sol\":2673:2682  lastIndex */\n      dup2\n        /* \"contracts/Store.sol\":2660:2683  goodsForSale[lastIndex] */\n      dup2\n      sload\n      dup2\n      lt\n      tag_256\n      jumpi\n      tag_257\n      tag_174\n      jump\t// in\n    tag_257:\n    tag_256:\n      swap1\n      0x00\n      mstore\n      keccak256(0x00, 0x20)\n      swap1\n      0x04\n      mul\n      add\n        /* \"contracts/Store.sol\":2638:2650  goodsForSale */\n      0x07\n        /* \"contracts/Store.sol\":2651:2656  index */\n      dup5\n        /* \"contracts/Store.sol\":2638:2657  goodsForSale[index] */\n      dup2\n      sload\n      dup2\n      lt\n      tag_259\n      jumpi\n      tag_260\n      tag_174\n      jump\t// in\n    tag_260:\n    tag_259:\n      swap1\n      0x00\n      mstore\n      keccak256(0x00, 0x20)\n      swap1\n      0x04\n      mul\n      add\n        /* \"contracts/Store.sol\":2638:2683  goodsForSale[index] = goodsForSale[lastIndex] */\n      0x00\n      dup3\n      add\n      dup2\n      0x00\n      add\n      swap1\n      dup2\n      tag_262\n      swap2\n      swap1\n      tag_178\n      jump\t// in\n    tag_262:\n      pop\n      0x01\n      dup3\n      add\n      dup2\n      0x01\n      add\n      swap1\n      dup2\n      tag_263\n      swap2\n      swap1\n      tag_178\n      jump\t// in\n    tag_263:\n      pop\n      0x02\n      dup3\n      add\n      sload\n      dup2\n      0x02\n      add\n      sstore\n      0x03\n      dup3\n      add\n      0x00\n      swap1\n      sload\n      swap1\n      0x0100\n      exp\n      swap1\n      div\n      0xffffffffffffffffffffffffffffffffffffffff\n      and\n      dup2\n      0x03\n      add\n      exp(0x0100, 0x00)\n      dup2\n      sload\n      dup2\n      0xffffffffffffffffffffffffffffffffffffffff\n      mul\n      not\n      and\n      swap1\n      dup4\n      0xffffffffffffffffffffffffffffffffffffffff\n      and\n      mul\n      or\n      swap1\n      sstore\n      pop\n      swap1\n      pop\n      pop\n        /* \"contracts/Store.sol\":2693:2705  goodsForSale */\n      0x07\n        /* \"contracts/Store.sol\":2693:2711  goodsForSale.pop() */\n      dup1\n      sload\n      dup1\n      tag_264\n      jumpi\n      tag_265\n      tag_191\n      jump\t// in\n    tag_265:\n    tag_264:\n      0x01\n      swap1\n      sub\n      dup2\n      dup2\n      swap1\n      0x00\n      mstore\n      keccak256(0x00, 0x20)\n      swap1\n      0x04\n      mul\n      add\n      0x00\n      dup1\n      dup3\n      add\n      0x00\n      tag_267\n      swap2\n      swap1\n      tag_194\n      jump\t// in\n    tag_267:\n      0x01\n      dup3\n      add\n      0x00\n      tag_268\n      swap2\n      swap1\n      tag_194\n      jump\t// in\n    tag_268:\n      0x02\n      dup3\n      add\n      0x00\n      swap1\n      sstore\n      0x03\n      dup3\n      add\n      exp(0x0100, 0x00)\n      dup2\n      sload\n      swap1\n      0xffffffffffffffffffffffffffffffffffffffff\n      mul\n      not\n      and\n      swap1\n      sstore\n      pop\n      pop\n      swap1\n      sstore\n        /* \"contracts/Store.sol\":2757:2769  goodsUserBuy */\n      0x09\n        /* \"contracts/Store.sol\":2757:2781  goodsUserBuy[msg.sender] */\n      0x00\n        /* \"contracts/Store.sol\":2770:2780  msg.sender */\n      caller\n        /* \"contracts/Store.sol\":2757:2781  goodsUserBuy[msg.sender] */\n      0xffffffffffffffffffffffffffffffffffffffff\n      and\n      0xffffffffffffffffffffffffffffffffffffffff\n      and\n      dup2\n      mstore\n      0x20\n      add\n      swap1\n      dup2\n      mstore\n      0x20\n      add\n      0x00\n      keccak256\n        /* \"contracts/Store.sol\":2787:2792  goods */\n      dup3\n        /* \"contracts/Store.sol\":2757:2793  goodsUserBuy[msg.sender].push(goods) */\n      swap1\n      dup1\n      0x01\n      dup2\n      sload\n      add\n      dup1\n      dup3\n      sstore\n      dup1\n      swap2\n      pop\n      pop\n      0x01\n      swap1\n      sub\n      swap1\n      0x00\n      mstore\n      keccak256(0x00, 0x20)\n      swap1\n      0x04\n      mul\n      add\n      0x00\n      swap1\n      swap2\n      swap1\n      swap2\n      swap1\n      swap2\n      pop\n      0x00\n      dup3\n      add\n      dup2\n      0x00\n      add\n      swap1\n      dup2\n      tag_270\n      swap2\n      swap1\n      tag_178\n      jump\t// in\n    tag_270:\n      pop\n      0x01\n      dup3\n      add\n      dup2\n      0x01\n      add\n      swap1\n      dup2\n      tag_271\n      swap2\n      swap1\n      tag_178\n      jump\t// in\n    tag_271:\n      pop\n      0x02\n      dup3\n      add\n      sload\n      dup2\n      0x02\n      add\n      sstore\n      0x03\n      dup3\n      add\n      0x00\n      swap1\n      sload\n      swap1\n      0x0100\n      exp\n      swap1\n      div\n      0xffffffffffffffffffffffffffffffffffffffff\n      and\n      dup2\n      0x03\n      add\n      exp(0x0100, 0x00)\n      dup2\n      sload\n      dup2\n      0xffffffffffffffffffffffffffffffffffffffff\n      mul\n      not\n      and\n      swap1\n      dup4\n      0xffffffffffffffffffffffffffffffffffffffff\n      and\n      mul\n      or\n      swap1\n      sstore\n      pop\n      pop\n      pop\n        /* \"contracts/Store.sol\":2168:2800  {... */\n      pop\n      pop\n        /* \"contracts/Store.sol\":2131:2800  function buyGoods(uint index) public {... */\n      pop\n      jump\t// out\n        /* \"contracts/ERC20.sol\":154:174  string public symbol */\n    tag_112:\n      0x01\n      dup1\n      sload\n      tag_272\n      swap1\n      tag_148\n      jump\t// in\n    tag_272:\n      dup1\n      0x1f\n      add\n      0x20\n      dup1\n      swap2\n      div\n      mul\n      0x20\n      add\n      mload(0x40)\n      swap1\n      dup2\n      add\n      0x40\n      mstore\n      dup1\n      swap3\n      swap2\n      swap1\n      dup2\n      dup2\n      mstore\n      0x20\n      add\n      dup3\n      dup1\n      sload\n      tag_273\n      swap1\n      tag_148\n      jump\t// in\n    tag_273:\n      dup1\n      iszero\n      tag_274\n      jumpi\n      dup1\n      0x1f\n      lt\n      tag_275\n      jumpi\n      0x0100\n      dup1\n      dup4\n      sload\n      div\n      mul\n      dup4\n      mstore\n      swap2\n      0x20\n      add\n      swap2\n      jump(tag_274)\n    tag_275:\n      dup3\n      add\n      swap2\n      swap1\n      0x00\n      mstore\n      keccak256(0x00, 0x20)\n      swap1\n    tag_276:\n      dup2\n      sload\n      dup2\n      mstore\n      swap1\n      0x01\n      add\n      swap1\n      0x20\n      add\n      dup1\n      dup4\n      gt\n      tag_276\n      jumpi\n      dup3\n      swap1\n      sub\n      0x1f\n      and\n      dup3\n      add\n      swap2\n    tag_274:\n      pop\n      pop\n      pop\n      pop\n      pop\n      dup2\n      jump\t// out\n        /* \"contracts/Store.sol\":671:718  mapping(address => Goods[]) public goodsUserBuy */\n    tag_117:\n      mstore(0x20, 0x09)\n      dup2\n      0x00\n      mstore\n      keccak256(0x00, 0x40)\n      dup2\n      dup2\n      sload\n      dup2\n      lt\n      tag_277\n      jumpi\n      0x00\n      dup1\n      revert\n    tag_277:\n      swap1\n      0x00\n      mstore\n      keccak256(0x00, 0x20)\n      swap1\n      0x04\n      mul\n      add\n      0x00\n      swap2\n      pop\n      swap2\n      pop\n      pop\n      dup1\n      0x00\n      add\n      dup1\n      sload\n      tag_279\n      swap1\n      tag_148\n      jump\t// in\n    tag_279:\n      dup1\n      0x1f\n      add\n      0x20\n      dup1\n      swap2\n      div\n      mul\n      0x20\n      add\n      mload(0x40)\n      swap1\n      dup2\n      add\n      0x40\n      mstore\n      dup1\n      swap3\n      swap2\n      swap1\n      dup2\n      dup2\n      mstore\n      0x20\n      add\n      dup3\n      dup1\n      sload\n      tag_280\n      swap1\n      tag_148\n      jump\t// in\n    tag_280:\n      dup1\n      iszero\n      tag_281\n      jumpi\n      dup1\n      0x1f\n      lt\n      tag_282\n      jumpi\n      0x0100\n      dup1\n      dup4\n      sload\n      div\n      mul\n      dup4\n      mstore\n      swap2\n      0x20\n      add\n      swap2\n      jump(tag_281)\n    tag_282:\n      dup3\n      add\n      swap2\n      swap1\n      0x00\n      mstore\n      keccak256(0x00, 0x20)\n      swap1\n    tag_283:\n      dup2\n      sload\n      dup2\n      mstore\n      swap1\n      0x01\n      add\n      swap1\n      0x20\n      add\n      dup1\n      dup4\n      gt\n      tag_283\n      jumpi\n      dup3\n      swap1\n      sub\n      0x1f\n      and\n      dup3\n      add\n      swap2\n    tag_281:\n      pop\n      pop\n      pop\n      pop\n      pop\n      swap1\n      dup1\n      0x01\n      add\n      dup1\n      sload\n      tag_284\n      swap1\n      tag_148\n      jump\t// in\n    tag_284:\n      dup1\n      0x1f\n      add\n      0x20\n      dup1\n      swap2\n      div\n      mul\n      0x20\n      add\n      mload(0x40)\n      swap1\n      dup2\n      add\n      0x40\n      mstore\n      dup1\n      swap3\n      swap2\n      swap1\n      dup2\n      dup2\n      mstore\n      0x20\n      add\n      dup3\n      dup1\n      sload\n      tag_285\n      swap1\n      tag_148\n      jump\t// in\n    tag_285:\n      dup1\n      iszero\n      tag_286\n      jumpi\n      dup1\n      0x1f\n      lt\n      tag_287\n      jumpi\n      0x0100\n      dup1\n      dup4\n      sload\n      div\n      mul\n      dup4\n      mstore\n      swap2\n      0x20\n      add\n      swap2\n      jump(tag_286)\n    tag_287:\n      dup3\n      add\n      swap2\n      swap1\n      0x00\n      mstore\n      keccak256(0x00, 0x20)\n      swap1\n    tag_288:\n      dup2\n      sload\n      dup2\n      mstore\n      swap1\n      0x01\n      add\n      swap1\n      0x20\n      add\n      dup1\n      dup4\n      gt\n      tag_288\n      jumpi\n      dup3\n      swap1\n      sub\n      0x1f\n      and\n      dup3\n      add\n      swap2\n    tag_286:\n      pop\n      pop\n      pop\n      pop\n      pop\n      swap1\n      dup1\n      0x02\n      add\n      sload\n      swap1\n      dup1\n      0x03\n      add\n      0x00\n      swap1\n      sload\n      swap1\n      0x0100\n      exp\n      swap1\n      div\n      0xffffffffffffffffffffffffffffffffffffffff\n      and\n      swap1\n      pop\n      dup5\n      jump\t// out\n        /* \"contracts/Store.sol\":750:996  function registerGoods(... */\n    tag_123:\n        /* \"contracts/Store.sol\":869:890  Goods memory newGoods */\n      0x00\n        /* \"contracts/Store.sol\":893:931  Goods(_url, _name, _price, msg.sender) */\n      mload(0x40)\n      dup1\n      0x80\n      add\n      0x40\n      mstore\n      dup1\n        /* \"contracts/Store.sol\":899:903  _url */\n      dup6\n        /* \"contracts/Store.sol\":893:931  Goods(_url, _name, _price, msg.sender) */\n      dup2\n      mstore\n      0x20\n      add\n        /* \"contracts/Store.sol\":905:910  _name */\n      dup5\n        /* \"contracts/Store.sol\":893:931  Goods(_url, _name, _price, msg.sender) */\n      dup2\n      mstore\n      0x20\n      add\n        /* \"contracts/Store.sol\":912:918  _price */\n      dup4\n        /* \"contracts/Store.sol\":893:931  Goods(_url, _name, _price, msg.sender) */\n      dup2\n      mstore\n      0x20\n      add\n        /* \"contracts/Store.sol\":920:930  msg.sender */\n      caller\n        /* \"contracts/Store.sol\":893:931  Goods(_url, _name, _price, msg.sender) */\n      0xffffffffffffffffffffffffffffffffffffffff\n      and\n      dup2\n      mstore\n      pop\n        /* \"contracts/Store.sol\":869:931  Goods memory newGoods = Goods(_url, _name, _price, msg.sender) */\n      swap1\n      pop\n        /* \"contracts/Store.sol\":945:962  goodsUserRegister */\n      0x08\n        /* \"contracts/Store.sol\":945:974  goodsUserRegister[msg.sender] */\n      0x00\n        /* \"contracts/Store.sol\":963:973  msg.sender */\n      caller\n        /* \"contracts/Store.sol\":945:974  goodsUserRegister[msg.sender] */\n      0xffffffffffffffffffffffffffffffffffffffff\n      and\n      0xffffffffffffffffffffffffffffffffffffffff\n      and\n      dup2\n      mstore\n      0x20\n      add\n      swap1\n      dup2\n      mstore\n      0x20\n      add\n      0x00\n      keccak256\n        /* \"contracts/Store.sol\":980:988  newGoods */\n      dup2\n        /* \"contracts/Store.sol\":945:989  goodsUserRegister[msg.sender].push(newGoods) */\n      swap1\n      dup1\n      0x01\n      dup2\n      sload\n      add\n      dup1\n      dup3\n      sstore\n      dup1\n      swap2\n      pop\n      pop\n      0x01\n      swap1\n      sub\n      swap1\n      0x00\n      mstore\n      keccak256(0x00, 0x20)\n      swap1\n      0x04\n      mul\n      add\n      0x00\n      swap1\n      swap2\n      swap1\n      swap2\n      swap1\n      swap2\n      pop\n      0x00\n      dup3\n      add\n      mload\n      dup2\n      0x00\n      add\n      swap1\n      dup2\n      tag_291\n      swap2\n      swap1\n      tag_292\n      jump\t// in\n    tag_291:\n      pop\n      0x20\n      dup3\n      add\n      mload\n      dup2\n      0x01\n      add\n      swap1\n      dup2\n      tag_293\n      swap2\n      swap1\n      tag_292\n      jump\t// in\n    tag_293:\n      pop\n      0x40\n      dup3\n      add\n      mload\n      dup2\n      0x02\n      add\n      sstore\n      0x60\n      dup3\n      add\n      mload\n      dup2\n      0x03\n      add\n      exp(0x0100, 0x00)\n      dup2\n      sload\n      dup2\n      0xffffffffffffffffffffffffffffffffffffffff\n      mul\n      not\n      and\n      swap1\n      dup4\n      0xffffffffffffffffffffffffffffffffffffffff\n      and\n      mul\n      or\n      swap1\n      sstore\n      pop\n      pop\n      pop\n        /* \"contracts/Store.sol\":855:996  {... */\n      pop\n        /* \"contracts/Store.sol\":750:996  function registerGoods(... */\n      pop\n      pop\n      pop\n      jump\t// out\n        /* \"contracts/Store.sol\":2837:2945  function mypageGoods() public view returns (Goods[] memory) {... */\n    tag_126:\n        /* \"contracts/Store.sol\":2881:2895  Goods[] memory */\n      0x60\n        /* \"contracts/Store.sol\":2914:2926  goodsUserBuy */\n      0x09\n        /* \"contracts/Store.sol\":2914:2938  goodsUserBuy[msg.sender] */\n      0x00\n        /* \"contracts/Store.sol\":2927:2937  msg.sender */\n      caller\n        /* \"contracts/Store.sol\":2914:2938  goodsUserBuy[msg.sender] */\n      0xffffffffffffffffffffffffffffffffffffffff\n      and\n      0xffffffffffffffffffffffffffffffffffffffff\n      and\n      dup2\n      mstore\n      0x20\n      add\n      swap1\n      dup2\n      mstore\n      0x20\n      add\n      0x00\n      keccak256\n        /* \"contracts/Store.sol\":2907:2938  return goodsUserBuy[msg.sender] */\n      dup1\n      sload\n      dup1\n      0x20\n      mul\n      0x20\n      add\n      mload(0x40)\n      swap1\n      dup2\n      add\n      0x40\n      mstore\n      dup1\n      swap3\n      swap2\n      swap1\n      dup2\n      dup2\n      mstore\n      0x20\n      add\n      0x00\n      swap1\n    tag_295:\n      dup3\n      dup3\n      lt\n      iszero\n      tag_296\n      jumpi\n      dup4\n      dup3\n      swap1\n      0x00\n      mstore\n      keccak256(0x00, 0x20)\n      swap1\n      0x04\n      mul\n      add\n      mload(0x40)\n      dup1\n      0x80\n      add\n      0x40\n      mstore\n      swap1\n      dup2\n      0x00\n      dup3\n      add\n      dup1\n      sload\n      tag_298\n      swap1\n      tag_148\n      jump\t// in\n    tag_298:\n      dup1\n      0x1f\n      add\n      0x20\n      dup1\n      swap2\n      div\n      mul\n      0x20\n      add\n      mload(0x40)\n      swap1\n      dup2\n      add\n      0x40\n      mstore\n      dup1\n      swap3\n      swap2\n      swap1\n      dup2\n      dup2\n      mstore\n      0x20\n      add\n      dup3\n      dup1\n      sload\n      tag_299\n      swap1\n      tag_148\n      jump\t// in\n    tag_299:\n      dup1\n      iszero\n      tag_300\n      jumpi\n      dup1\n      0x1f\n      lt\n      tag_301\n      jumpi\n      0x0100\n      dup1\n      dup4\n      sload\n      div\n      mul\n      dup4\n      mstore\n      swap2\n      0x20\n      add\n      swap2\n      jump(tag_300)\n    tag_301:\n      dup3\n      add\n      swap2\n      swap1\n      0x00\n      mstore\n      keccak256(0x00, 0x20)\n      swap1\n    tag_302:\n      dup2\n      sload\n      dup2\n      mstore\n      swap1\n      0x01\n      add\n      swap1\n      0x20\n      add\n      dup1\n      dup4\n      gt\n      tag_302\n      jumpi\n      dup3\n      swap1\n      sub\n      0x1f\n      and\n      dup3\n      add\n      swap2\n    tag_300:\n      pop\n      pop\n      pop\n      pop\n      pop\n      dup2\n      mstore\n      0x20\n      add\n      0x01\n      dup3\n      add\n      dup1\n      sload\n      tag_303\n      swap1\n      tag_148\n      jump\t// in\n    tag_303:\n      dup1\n      0x1f\n      add\n      0x20\n      dup1\n      swap2\n      div\n      mul\n      0x20\n      add\n      mload(0x40)\n      swap1\n      dup2\n      add\n      0x40\n      mstore\n      dup1\n      swap3\n      swap2\n      swap1\n      dup2\n      dup2\n      mstore\n      0x20\n      add\n      dup3\n      dup1\n      sload\n      tag_304\n      swap1\n      tag_148\n      jump\t// in\n    tag_304:\n      dup1\n      iszero\n      tag_305\n      jumpi\n      dup1\n      0x1f\n      lt\n      tag_306\n      jumpi\n      0x0100\n      dup1\n      dup4\n      sload\n      div\n      mul\n      dup4\n      mstore\n      swap2\n      0x20\n      add\n      swap2\n      jump(tag_305)\n    tag_306:\n      dup3\n      add\n      swap2\n      swap1\n      0x00\n      mstore\n      keccak256(0x00, 0x20)\n      swap1\n    tag_307:\n      dup2\n      sload\n      dup2\n      mstore\n      swap1\n      0x01\n      add\n      swap1\n      0x20\n      add\n      dup1\n      dup4\n      gt\n      tag_307\n      jumpi\n      dup3\n      swap1\n      sub\n      0x1f\n      and\n      dup3\n      add\n      swap2\n    tag_305:\n      pop\n      pop\n      pop\n      pop\n      pop\n      dup2\n      mstore\n      0x20\n      add\n      0x02\n      dup3\n      add\n      sload\n      dup2\n      mstore\n      0x20\n      add\n      0x03\n      dup3\n      add\n      0x00\n      swap1\n      sload\n      swap1\n      0x0100\n      exp\n      swap1\n      div\n      0xffffffffffffffffffffffffffffffffffffffff\n      and\n      0xffffffffffffffffffffffffffffffffffffffff\n      and\n      0xffffffffffffffffffffffffffffffffffffffff\n      and\n      dup2\n      mstore\n      pop\n      pop\n      dup2\n      mstore\n      0x20\n      add\n      swap1\n      0x01\n      add\n      swap1\n      jump(tag_295)\n    tag_296:\n      pop\n      pop\n      pop\n      pop\n      swap1\n      pop\n        /* \"contracts/Store.sol\":2837:2945  function mypageGoods() public view returns (Goods[] memory) {... */\n      swap1\n      jump\t// out\n        /* \"contracts/ERC20.sol\":1827:2003  function transfer(address to, uint amount) external override returns (bool) {... */\n    tag_131:\n        /* \"contracts/ERC20.sol\":1897:1901  bool */\n      0x00\n        /* \"contracts/ERC20.sol\":1937:1943  amount */\n      dup2\n        /* \"contracts/ERC20.sol\":1913:1921  balances */\n      0x05\n        /* \"contracts/ERC20.sol\":1913:1933  balances[msg.sender] */\n      0x00\n        /* \"contracts/ERC20.sol\":1922:1932  msg.sender */\n      caller\n        /* \"contracts/ERC20.sol\":1913:1933  balances[msg.sender] */\n      0xffffffffffffffffffffffffffffffffffffffff\n      and\n      0xffffffffffffffffffffffffffffffffffffffff\n      and\n      dup2\n      mstore\n      0x20\n      add\n      swap1\n      dup2\n      mstore\n      0x20\n      add\n      0x00\n      keccak256\n      0x00\n        /* \"contracts/ERC20.sol\":1913:1943  balances[msg.sender] -= amount */\n      dup3\n      dup3\n      sload\n      tag_309\n      swap2\n      swap1\n      tag_33\n      jump\t// in\n    tag_309:\n      swap3\n      pop\n      pop\n      dup2\n      swap1\n      sstore\n      pop\n        /* \"contracts/ERC20.sol\":1969:1975  amount */\n      dup2\n        /* \"contracts/ERC20.sol\":1953:1961  balances */\n      0x05\n        /* \"contracts/ERC20.sol\":1953:1965  balances[to] */\n      0x00\n        /* \"contracts/ERC20.sol\":1962:1964  to */\n      dup6\n        /* \"contracts/ERC20.sol\":1953:1965  balances[to] */\n      0xffffffffffffffffffffffffffffffffffffffff\n      and\n      0xffffffffffffffffffffffffffffffffffffffff\n      and\n      dup2\n      mstore\n      0x20\n      add\n      swap1\n      dup2\n      mstore\n      0x20\n      add\n      0x00\n      keccak256\n      0x00\n        /* \"contracts/ERC20.sol\":1953:1975  balances[to] += amount */\n      dup3\n      dup3\n      sload\n      tag_310\n      swap2\n      swap1\n      tag_35\n      jump\t// in\n    tag_310:\n      swap3\n      pop\n      pop\n      dup2\n      swap1\n      sstore\n      pop\n        /* \"contracts/ERC20.sol\":1992:1996  true */\n      0x01\n        /* \"contracts/ERC20.sol\":1985:1996  return true */\n      swap1\n      pop\n        /* \"contracts/ERC20.sol\":1827:2003  function transfer(address to, uint amount) external override returns (bool) {... */\n      swap3\n      swap2\n      pop\n      pop\n      jump\t// out\n        /* \"contracts/ERC20.sol\":473:543  mapping(address => mapping(address => uint)) public override allowance */\n    tag_137:\n      mstore(0x20, 0x06)\n      dup2\n      0x00\n      mstore\n      mstore(0x20, keccak256(0x00, 0x40))\n      dup1\n      0x00\n      mstore\n      keccak256(0x00, 0x40)\n      0x00\n      swap2\n      pop\n      swap2\n      pop\n      pop\n      sload\n      dup2\n      jump\t// out\n        /* \"contracts/Store.sol\":555:607  mapping(address => Goods[]) public goodsUserRegister */\n    tag_142:\n      mstore(0x20, 0x08)\n      dup2\n      0x00\n      mstore\n      keccak256(0x00, 0x40)\n      dup2\n      dup2\n      sload\n      dup2\n      lt\n      tag_311\n      jumpi\n      0x00\n      dup1\n      revert\n    tag_311:\n      swap1\n      0x00\n      mstore\n      keccak256(0x00, 0x20)\n      swap1\n      0x04\n      mul\n      add\n      0x00\n      swap2\n      pop\n      swap2\n      pop\n      pop\n      dup1\n      0x00\n      add\n      dup1\n      sload\n      tag_313\n      swap1\n      tag_148\n      jump\t// in\n    tag_313:\n      dup1\n      0x1f\n      add\n      0x20\n      dup1\n      swap2\n      div\n      mul\n      0x20\n      add\n      mload(0x40)\n      swap1\n      dup2\n      add\n      0x40\n      mstore\n      dup1\n      swap3\n      swap2\n      swap1\n      dup2\n      dup2\n      mstore\n      0x20\n      add\n      dup3\n      dup1\n      sload\n      tag_314\n      swap1\n      tag_148\n      jump\t// in\n    tag_314:\n      dup1\n      iszero\n      tag_315\n      jumpi\n      dup1\n      0x1f\n      lt\n      tag_316\n      jumpi\n      0x0100\n      dup1\n      dup4\n      sload\n      div\n      mul\n      dup4\n      mstore\n      swap2\n      0x20\n      add\n      swap2\n      jump(tag_315)\n    tag_316:\n      dup3\n      add\n      swap2\n      swap1\n      0x00\n      mstore\n      keccak256(0x00, 0x20)\n      swap1\n    tag_317:\n      dup2\n      sload\n      dup2\n      mstore\n      swap1\n      0x01\n      add\n      swap1\n      0x20\n      add\n      dup1\n      dup4\n      gt\n      tag_317\n      jumpi\n      dup3\n      swap1\n      sub\n      0x1f\n      and\n      dup3\n      add\n      swap2\n    tag_315:\n      pop\n      pop\n      pop\n      pop\n      pop\n      swap1\n      dup1\n      0x01\n      add\n      dup1\n      sload\n      tag_318\n      swap1\n      tag_148\n      jump\t// in\n    tag_318:\n      dup1\n      0x1f\n      add\n      0x20\n      dup1\n      swap2\n      div\n      mul\n      0x20\n      add\n      mload(0x40)\n      swap1\n      dup2\n      add\n      0x40\n      mstore\n      dup1\n      swap3\n      swap2\n      swap1\n      dup2\n      dup2\n      mstore\n      0x20\n      add\n      dup3\n      dup1\n      sload\n      tag_319\n      swap1\n      tag_148\n      jump\t// in\n    tag_319:\n      dup1\n      iszero\n      tag_320\n      jumpi\n      dup1\n      0x1f\n      lt\n      tag_321\n      jumpi\n      0x0100\n      dup1\n      dup4\n      sload\n      div\n      mul\n      dup4\n      mstore\n      swap2\n      0x20\n      add\n      swap2\n      jump(tag_320)\n    tag_321:\n      dup3\n      add\n      swap2\n      swap1\n      0x00\n      mstore\n      keccak256(0x00, 0x20)\n      swap1\n    tag_322:\n      dup2\n      sload\n      dup2\n      mstore\n      swap1\n      0x01\n      add\n      swap1\n      0x20\n      add\n      dup1\n      dup4\n      gt\n      tag_322\n      jumpi\n      dup3\n      swap1\n      sub\n      0x1f\n      and\n      dup3\n      add\n      swap2\n    tag_320:\n      pop\n      pop\n      pop\n      pop\n      pop\n      swap1\n      dup1\n      0x02\n      add\n      sload\n      swap1\n      dup1\n      0x03\n      add\n      0x00\n      swap1\n      sload\n      swap1\n      0x0100\n      exp\n      swap1\n      div\n      0xffffffffffffffffffffffffffffffffffffffff\n      and\n      swap1\n      pop\n      dup5\n      jump\t// out\n    tag_194:\n      pop\n      dup1\n      sload\n      tag_323\n      swap1\n      tag_148\n      jump\t// in\n    tag_323:\n      0x00\n      dup3\n      sstore\n      dup1\n      0x1f\n      lt\n      tag_325\n      jumpi\n      pop\n      jump(tag_324)\n    tag_325:\n      0x1f\n      add\n      0x20\n      swap1\n      div\n      swap1\n      0x00\n      mstore\n      keccak256(0x00, 0x20)\n      swap1\n      dup2\n      add\n      swap1\n      tag_326\n      swap2\n      swap1\n      tag_327\n      jump\t// in\n    tag_326:\n    tag_324:\n      pop\n      jump\t// out\n    tag_327:\n    tag_328:\n      dup1\n      dup3\n      gt\n      iszero\n      tag_329\n      jumpi\n      0x00\n      dup2\n      0x00\n      swap1\n      sstore\n      pop\n      0x01\n      add\n      jump(tag_328)\n    tag_329:\n      pop\n      swap1\n      jump\t// out\n        /* \"#utility.yul\":7:84   */\n    tag_330:\n        /* \"#utility.yul\":44:51   */\n      0x00\n        /* \"#utility.yul\":73:78   */\n      dup2\n        /* \"#utility.yul\":62:78   */\n      swap1\n      pop\n        /* \"#utility.yul\":7:84   */\n      swap2\n      swap1\n      pop\n      jump\t// out\n        /* \"#utility.yul\":90:270   */\n    tag_331:\n        /* \"#utility.yul\":138:215   */\n      0x4e487b7100000000000000000000000000000000000000000000000000000000\n        /* \"#utility.yul\":135:136   */\n      0x00\n        /* \"#utility.yul\":128:216   */\n      mstore\n        /* \"#utility.yul\":235:239   */\n      0x11\n        /* \"#utility.yul\":232:233   */\n      0x04\n        /* \"#utility.yul\":225:240   */\n      mstore\n        /* \"#utility.yul\":259:263   */\n      0x24\n        /* \"#utility.yul\":256:257   */\n      0x00\n        /* \"#utility.yul\":249:264   */\n      revert\n        /* \"#utility.yul\":276:686   */\n    tag_30:\n        /* \"#utility.yul\":316:323   */\n      0x00\n        /* \"#utility.yul\":339:359   */\n      tag_395\n        /* \"#utility.yul\":357:358   */\n      dup3\n        /* \"#utility.yul\":339:359   */\n      tag_330\n      jump\t// in\n    tag_395:\n        /* \"#utility.yul\":334:359   */\n      swap2\n      pop\n        /* \"#utility.yul\":373:393   */\n      tag_396\n        /* \"#utility.yul\":391:392   */\n      dup4\n        /* \"#utility.yul\":373:393   */\n      tag_330\n      jump\t// in\n    tag_396:\n        /* \"#utility.yul\":368:393   */\n      swap3\n      pop\n        /* \"#utility.yul\":428:429   */\n      dup3\n        /* \"#utility.yul\":425:426   */\n      dup3\n        /* \"#utility.yul\":421:430   */\n      mul\n        /* \"#utility.yul\":450:480   */\n      tag_397\n        /* \"#utility.yul\":468:479   */\n      dup2\n        /* \"#utility.yul\":450:480   */\n      tag_330\n      jump\t// in\n    tag_397:\n        /* \"#utility.yul\":439:480   */\n      swap2\n      pop\n        /* \"#utility.yul\":629:630   */\n      dup3\n        /* \"#utility.yul\":620:627   */\n      dup3\n        /* \"#utility.yul\":616:631   */\n      div\n        /* \"#utility.yul\":613:614   */\n      dup5\n        /* \"#utility.yul\":610:632   */\n      eq\n        /* \"#utility.yul\":590:591   */\n      dup4\n        /* \"#utility.yul\":583:592   */\n      iszero\n        /* \"#utility.yul\":563:646   */\n      or\n        /* \"#utility.yul\":540:679   */\n      tag_398\n      jumpi\n        /* \"#utility.yul\":659:677   */\n      tag_399\n      tag_331\n      jump\t// in\n    tag_399:\n        /* \"#utility.yul\":540:679   */\n    tag_398:\n        /* \"#utility.yul\":324:686   */\n      pop\n        /* \"#utility.yul\":276:686   */\n      swap3\n      swap2\n      pop\n      pop\n      jump\t// out\n        /* \"#utility.yul\":692:886   */\n    tag_33:\n        /* \"#utility.yul\":732:736   */\n      0x00\n        /* \"#utility.yul\":752:772   */\n      tag_401\n        /* \"#utility.yul\":770:771   */\n      dup3\n        /* \"#utility.yul\":752:772   */\n      tag_330\n      jump\t// in\n    tag_401:\n        /* \"#utility.yul\":747:772   */\n      swap2\n      pop\n        /* \"#utility.yul\":786:806   */\n      tag_402\n        /* \"#utility.yul\":804:805   */\n      dup4\n        /* \"#utility.yul\":786:806   */\n      tag_330\n      jump\t// in\n    tag_402:\n        /* \"#utility.yul\":781:806   */\n      swap3\n      pop\n        /* \"#utility.yul\":830:831   */\n      dup3\n        /* \"#utility.yul\":827:828   */\n      dup3\n        /* \"#utility.yul\":823:832   */\n      sub\n        /* \"#utility.yul\":815:832   */\n      swap1\n      pop\n        /* \"#utility.yul\":854:855   */\n      dup2\n        /* \"#utility.yul\":848:852   */\n      dup2\n        /* \"#utility.yul\":845:856   */\n      gt\n        /* \"#utility.yul\":842:879   */\n      iszero\n      tag_403\n      jumpi\n        /* \"#utility.yul\":859:877   */\n      tag_404\n      tag_331\n      jump\t// in\n    tag_404:\n        /* \"#utility.yul\":842:879   */\n    tag_403:\n        /* \"#utility.yul\":692:886   */\n      swap3\n      swap2\n      pop\n      pop\n      jump\t// out\n        /* \"#utility.yul\":892:1083   */\n    tag_35:\n        /* \"#utility.yul\":932:935   */\n      0x00\n        /* \"#utility.yul\":951:971   */\n      tag_406\n        /* \"#utility.yul\":969:970   */\n      dup3\n        /* \"#utility.yul\":951:971   */\n      tag_330\n      jump\t// in\n    tag_406:\n        /* \"#utility.yul\":946:971   */\n      swap2\n      pop\n        /* \"#utility.yul\":985:1005   */\n      tag_407\n        /* \"#utility.yul\":1003:1004   */\n      dup4\n        /* \"#utility.yul\":985:1005   */\n      tag_330\n      jump\t// in\n    tag_407:\n        /* \"#utility.yul\":980:1005   */\n      swap3\n      pop\n        /* \"#utility.yul\":1028:1029   */\n      dup3\n        /* \"#utility.yul\":1025:1026   */\n      dup3\n        /* \"#utility.yul\":1021:1030   */\n      add\n        /* \"#utility.yul\":1014:1030   */\n      swap1\n      pop\n        /* \"#utility.yul\":1049:1052   */\n      dup1\n        /* \"#utility.yul\":1046:1047   */\n      dup3\n        /* \"#utility.yul\":1043:1053   */\n      gt\n        /* \"#utility.yul\":1040:1076   */\n      iszero\n      tag_408\n      jumpi\n        /* \"#utility.yul\":1056:1074   */\n      tag_409\n      tag_331\n      jump\t// in\n    tag_409:\n        /* \"#utility.yul\":1040:1076   */\n    tag_408:\n        /* \"#utility.yul\":892:1083   */\n      swap3\n      swap2\n      pop\n      pop\n      jump\t// out\n        /* \"#utility.yul\":1089:1188   */\n    tag_332:\n        /* \"#utility.yul\":1141:1147   */\n      0x00\n        /* \"#utility.yul\":1175:1180   */\n      dup2\n        /* \"#utility.yul\":1169:1181   */\n      mload\n        /* \"#utility.yul\":1159:1181   */\n      swap1\n      pop\n        /* \"#utility.yul\":1089:1188   */\n      swap2\n      swap1\n      pop\n      jump\t// out\n        /* \"#utility.yul\":1194:1363   */\n    tag_333:\n        /* \"#utility.yul\":1278:1289   */\n      0x00\n        /* \"#utility.yul\":1312:1318   */\n      dup3\n        /* \"#utility.yul\":1307:1310   */\n      dup3\n        /* \"#utility.yul\":1300:1319   */\n      mstore\n        /* \"#utility.yul\":1352:1356   */\n      0x20\n        /* \"#utility.yul\":1347:1350   */\n      dup3\n        /* \"#utility.yul\":1343:1357   */\n      add\n        /* \"#utility.yul\":1328:1357   */\n      swap1\n      pop\n        /* \"#utility.yul\":1194:1363   */\n      swap3\n      swap2\n      pop\n      pop\n      jump\t// out\n        /* \"#utility.yul\":1369:1615   */\n    tag_334:\n        /* \"#utility.yul\":1450:1451   */\n      0x00\n        /* \"#utility.yul\":1460:1573   */\n    tag_413:\n        /* \"#utility.yul\":1474:1480   */\n      dup4\n        /* \"#utility.yul\":1471:1472   */\n      dup2\n        /* \"#utility.yul\":1468:1481   */\n      lt\n        /* \"#utility.yul\":1460:1573   */\n      iszero\n      tag_415\n      jumpi\n        /* \"#utility.yul\":1559:1560   */\n      dup1\n        /* \"#utility.yul\":1554:1557   */\n      dup3\n        /* \"#utility.yul\":1550:1561   */\n      add\n        /* \"#utility.yul\":1544:1562   */\n      mload\n        /* \"#utility.yul\":1540:1541   */\n      dup2\n        /* \"#utility.yul\":1535:1538   */\n      dup5\n        /* \"#utility.yul\":1531:1542   */\n      add\n        /* \"#utility.yul\":1524:1563   */\n      mstore\n        /* \"#utility.yul\":1496:1498   */\n      0x20\n        /* \"#utility.yul\":1493:1494   */\n      dup2\n        /* \"#utility.yul\":1489:1499   */\n      add\n        /* \"#utility.yul\":1484:1499   */\n      swap1\n      pop\n        /* \"#utility.yul\":1460:1573   */\n      jump(tag_413)\n    tag_415:\n        /* \"#utility.yul\":1607:1608   */\n      0x00\n        /* \"#utility.yul\":1598:1604   */\n      dup5\n        /* \"#utility.yul\":1593:1596   */\n      dup5\n        /* \"#utility.yul\":1589:1605   */\n      add\n        /* \"#utility.yul\":1582:1609   */\n      mstore\n        /* \"#utility.yul\":1431:1615   */\n      pop\n        /* \"#utility.yul\":1369:1615   */\n      pop\n      pop\n      pop\n      jump\t// out\n        /* \"#utility.yul\":1621:1723   */\n    tag_335:\n        /* \"#utility.yul\":1662:1668   */\n      0x00\n        /* \"#utility.yul\":1713:1715   */\n      0x1f\n        /* \"#utility.yul\":1709:1716   */\n      not\n        /* \"#utility.yul\":1704:1706   */\n      0x1f\n        /* \"#utility.yul\":1697:1702   */\n      dup4\n        /* \"#utility.yul\":1693:1707   */\n      add\n        /* \"#utility.yul\":1689:1717   */\n      and\n        /* \"#utility.yul\":1679:1717   */\n      swap1\n      pop\n        /* \"#utility.yul\":1621:1723   */\n      swap2\n      swap1\n      pop\n      jump\t// out\n        /* \"#utility.yul\":1729:2106   */\n    tag_336:\n        /* \"#utility.yul\":1817:1820   */\n      0x00\n        /* \"#utility.yul\":1845:1884   */\n      tag_418\n        /* \"#utility.yul\":1878:1883   */\n      dup3\n        /* \"#utility.yul\":1845:1884   */\n      tag_332\n      jump\t// in\n    tag_418:\n        /* \"#utility.yul\":1900:1971   */\n      tag_419\n        /* \"#utility.yul\":1964:1970   */\n      dup2\n        /* \"#utility.yul\":1959:1962   */\n      dup6\n        /* \"#utility.yul\":1900:1971   */\n      tag_333\n      jump\t// in\n    tag_419:\n        /* \"#utility.yul\":1893:1971   */\n      swap4\n      pop\n        /* \"#utility.yul\":1980:2045   */\n      tag_420\n        /* \"#utility.yul\":2038:2044   */\n      dup2\n        /* \"#utility.yul\":2033:2036   */\n      dup6\n        /* \"#utility.yul\":2026:2030   */\n      0x20\n        /* \"#utility.yul\":2019:2024   */\n      dup7\n        /* \"#utility.yul\":2015:2031   */\n      add\n        /* \"#utility.yul\":1980:2045   */\n      tag_334\n      jump\t// in\n    tag_420:\n        /* \"#utility.yul\":2070:2099   */\n      tag_421\n        /* \"#utility.yul\":2092:2098   */\n      dup2\n        /* \"#utility.yul\":2070:2099   */\n      tag_335\n      jump\t// in\n    tag_421:\n        /* \"#utility.yul\":2065:2068   */\n      dup5\n        /* \"#utility.yul\":2061:2100   */\n      add\n        /* \"#utility.yul\":2054:2100   */\n      swap2\n      pop\n        /* \"#utility.yul\":1821:2106   */\n      pop\n        /* \"#utility.yul\":1729:2106   */\n      swap3\n      swap2\n      pop\n      pop\n      jump\t// out\n        /* \"#utility.yul\":2112:2425   */\n    tag_43:\n        /* \"#utility.yul\":2225:2229   */\n      0x00\n        /* \"#utility.yul\":2263:2265   */\n      0x20\n        /* \"#utility.yul\":2252:2261   */\n      dup3\n        /* \"#utility.yul\":2248:2266   */\n      add\n        /* \"#utility.yul\":2240:2266   */\n      swap1\n      pop\n        /* \"#utility.yul\":2312:2321   */\n      dup2\n        /* \"#utility.yul\":2306:2310   */\n      dup2\n        /* \"#utility.yul\":2302:2322   */\n      sub\n        /* \"#utility.yul\":2298:2299   */\n      0x00\n        /* \"#utility.yul\":2287:2296   */\n      dup4\n        /* \"#utility.yul\":2283:2300   */\n      add\n        /* \"#utility.yul\":2276:2323   */\n      mstore\n        /* \"#utility.yul\":2340:2418   */\n      tag_423\n        /* \"#utility.yul\":2413:2417   */\n      dup2\n        /* \"#utility.yul\":2404:2410   */\n      dup5\n        /* \"#utility.yul\":2340:2418   */\n      tag_336\n      jump\t// in\n    tag_423:\n        /* \"#utility.yul\":2332:2418   */\n      swap1\n      pop\n        /* \"#utility.yul\":2112:2425   */\n      swap3\n      swap2\n      pop\n      pop\n      jump\t// out\n        /* \"#utility.yul\":2431:2506   */\n    tag_337:\n        /* \"#utility.yul\":2464:2470   */\n      0x00\n        /* \"#utility.yul\":2497:2499   */\n      0x40\n        /* \"#utility.yul\":2491:2500   */\n      mload\n        /* \"#utility.yul\":2481:2500   */\n      swap1\n      pop\n        /* \"#utility.yul\":2431:2506   */\n      swap1\n      jump\t// out\n        /* \"#utility.yul\":2512:2629   */\n    tag_338:\n        /* \"#utility.yul\":2621:2622   */\n      0x00\n        /* \"#utility.yul\":2618:2619   */\n      dup1\n        /* \"#utility.yul\":2611:2623   */\n      revert\n        /* \"#utility.yul\":2635:2752   */\n    tag_339:\n        /* \"#utility.yul\":2744:2745   */\n      0x00\n        /* \"#utility.yul\":2741:2742   */\n      dup1\n        /* \"#utility.yul\":2734:2746   */\n      revert\n        /* \"#utility.yul\":2758:2884   */\n    tag_340:\n        /* \"#utility.yul\":2795:2802   */\n      0x00\n        /* \"#utility.yul\":2835:2877   */\n      0xffffffffffffffffffffffffffffffffffffffff\n        /* \"#utility.yul\":2828:2833   */\n      dup3\n        /* \"#utility.yul\":2824:2878   */\n      and\n        /* \"#utility.yul\":2813:2878   */\n      swap1\n      pop\n        /* \"#utility.yul\":2758:2884   */\n      swap2\n      swap1\n      pop\n      jump\t// out\n        /* \"#utility.yul\":2890:2986   */\n    tag_341:\n        /* \"#utility.yul\":2927:2934   */\n      0x00\n        /* \"#utility.yul\":2956:2980   */\n      tag_429\n        /* \"#utility.yul\":2974:2979   */\n      dup3\n        /* \"#utility.yul\":2956:2980   */\n      tag_340\n      jump\t// in\n    tag_429:\n        /* \"#utility.yul\":2945:2980   */\n      swap1\n      pop\n        /* \"#utility.yul\":2890:2986   */\n      swap2\n      swap1\n      pop\n      jump\t// out\n        /* \"#utility.yul\":2992:3114   */\n    tag_342:\n        /* \"#utility.yul\":3065:3089   */\n      tag_431\n        /* \"#utility.yul\":3083:3088   */\n      dup2\n        /* \"#utility.yul\":3065:3089   */\n      tag_341\n      jump\t// in\n    tag_431:\n        /* \"#utility.yul\":3058:3063   */\n      dup2\n        /* \"#utility.yul\":3055:3090   */\n      eq\n        /* \"#utility.yul\":3045:3108   */\n      tag_432\n      jumpi\n        /* \"#utility.yul\":3104:3105   */\n      0x00\n        /* \"#utility.yul\":3101:3102   */\n      dup1\n        /* \"#utility.yul\":3094:3106   */\n      revert\n        /* \"#utility.yul\":3045:3108   */\n    tag_432:\n        /* \"#utility.yul\":2992:3114   */\n      pop\n      jump\t// out\n        /* \"#utility.yul\":3120:3259   */\n    tag_343:\n        /* \"#utility.yul\":3166:3171   */\n      0x00\n        /* \"#utility.yul\":3204:3210   */\n      dup2\n        /* \"#utility.yul\":3191:3211   */\n      calldataload\n        /* \"#utility.yul\":3182:3211   */\n      swap1\n      pop\n        /* \"#utility.yul\":3220:3253   */\n      tag_434\n        /* \"#utility.yul\":3247:3252   */\n      dup2\n        /* \"#utility.yul\":3220:3253   */\n      tag_342\n      jump\t// in\n    tag_434:\n        /* \"#utility.yul\":3120:3259   */\n      swap3\n      swap2\n      pop\n      pop\n      jump\t// out\n        /* \"#utility.yul\":3265:3387   */\n    tag_344:\n        /* \"#utility.yul\":3338:3362   */\n      tag_436\n        /* \"#utility.yul\":3356:3361   */\n      dup2\n        /* \"#utility.yul\":3338:3362   */\n      tag_330\n      jump\t// in\n    tag_436:\n        /* \"#utility.yul\":3331:3336   */\n      dup2\n        /* \"#utility.yul\":3328:3363   */\n      eq\n        /* \"#utility.yul\":3318:3381   */\n      tag_437\n      jumpi\n        /* \"#utility.yul\":3377:3378   */\n      0x00\n        /* \"#utility.yul\":3374:3375   */\n      dup1\n        /* \"#utility.yul\":3367:3379   */\n      revert\n        /* \"#utility.yul\":3318:3381   */\n    tag_437:\n        /* \"#utility.yul\":3265:3387   */\n      pop\n      jump\t// out\n        /* \"#utility.yul\":3393:3532   */\n    tag_345:\n        /* \"#utility.yul\":3439:3444   */\n      0x00\n        /* \"#utility.yul\":3477:3483   */\n      dup2\n        /* \"#utility.yul\":3464:3484   */\n      calldataload\n        /* \"#utility.yul\":3455:3484   */\n      swap1\n      pop\n        /* \"#utility.yul\":3493:3526   */\n      tag_439\n        /* \"#utility.yul\":3520:3525   */\n      dup2\n        /* \"#utility.yul\":3493:3526   */\n      tag_344\n      jump\t// in\n    tag_439:\n        /* \"#utility.yul\":3393:3532   */\n      swap3\n      swap2\n      pop\n      pop\n      jump\t// out\n        /* \"#utility.yul\":3538:4012   */\n    tag_47:\n        /* \"#utility.yul\":3606:3612   */\n      0x00\n        /* \"#utility.yul\":3614:3620   */\n      dup1\n        /* \"#utility.yul\":3663:3665   */\n      0x40\n        /* \"#utility.yul\":3651:3660   */\n      dup4\n        /* \"#utility.yul\":3642:3649   */\n      dup6\n        /* \"#utility.yul\":3638:3661   */\n      sub\n        /* \"#utility.yul\":3634:3666   */\n      slt\n        /* \"#utility.yul\":3631:3750   */\n      iszero\n      tag_441\n      jumpi\n        /* \"#utility.yul\":3669:3748   */\n      tag_442\n      tag_338\n      jump\t// in\n    tag_442:\n        /* \"#utility.yul\":3631:3750   */\n    tag_441:\n        /* \"#utility.yul\":3789:3790   */\n      0x00\n        /* \"#utility.yul\":3814:3867   */\n      tag_443\n        /* \"#utility.yul\":3859:3866   */\n      dup6\n        /* \"#utility.yul\":3850:3856   */\n      dup3\n        /* \"#utility.yul\":3839:3848   */\n      dup7\n        /* \"#utility.yul\":3835:3857   */\n      add\n        /* \"#utility.yul\":3814:3867   */\n      tag_343\n      jump\t// in\n    tag_443:\n        /* \"#utility.yul\":3804:3867   */\n      swap3\n      pop\n        /* \"#utility.yul\":3760:3877   */\n      pop\n        /* \"#utility.yul\":3916:3918   */\n      0x20\n        /* \"#utility.yul\":3942:3995   */\n      tag_444\n        /* \"#utility.yul\":3987:3994   */\n      dup6\n        /* \"#utility.yul\":3978:3984   */\n      dup3\n        /* \"#utility.yul\":3967:3976   */\n      dup7\n        /* \"#utility.yul\":3963:3985   */\n      add\n        /* \"#utility.yul\":3942:3995   */\n      tag_345\n      jump\t// in\n    tag_444:\n        /* \"#utility.yul\":3932:3995   */\n      swap2\n      pop\n        /* \"#utility.yul\":3887:4005   */\n      pop\n        /* \"#utility.yul\":3538:4012   */\n      swap3\n      pop\n      swap3\n      swap1\n      pop\n      jump\t// out\n        /* \"#utility.yul\":4018:4108   */\n    tag_346:\n        /* \"#utility.yul\":4052:4059   */\n      0x00\n        /* \"#utility.yul\":4095:4100   */\n      dup2\n        /* \"#utility.yul\":4088:4101   */\n      iszero\n        /* \"#utility.yul\":4081:4102   */\n      iszero\n        /* \"#utility.yul\":4070:4102   */\n      swap1\n      pop\n        /* \"#utility.yul\":4018:4108   */\n      swap2\n      swap1\n      pop\n      jump\t// out\n        /* \"#utility.yul\":4114:4223   */\n    tag_347:\n        /* \"#utility.yul\":4195:4216   */\n      tag_447\n        /* \"#utility.yul\":4210:4215   */\n      dup2\n        /* \"#utility.yul\":4195:4216   */\n      tag_346\n      jump\t// in\n    tag_447:\n        /* \"#utility.yul\":4190:4193   */\n      dup3\n        /* \"#utility.yul\":4183:4217   */\n      mstore\n        /* \"#utility.yul\":4114:4223   */\n      pop\n      pop\n      jump\t// out\n        /* \"#utility.yul\":4229:4439   */\n    tag_50:\n        /* \"#utility.yul\":4316:4320   */\n      0x00\n        /* \"#utility.yul\":4354:4356   */\n      0x20\n        /* \"#utility.yul\":4343:4352   */\n      dup3\n        /* \"#utility.yul\":4339:4357   */\n      add\n        /* \"#utility.yul\":4331:4357   */\n      swap1\n      pop\n        /* \"#utility.yul\":4367:4432   */\n      tag_449\n        /* \"#utility.yul\":4429:4430   */\n      0x00\n        /* \"#utility.yul\":4418:4427   */\n      dup4\n        /* \"#utility.yul\":4414:4431   */\n      add\n        /* \"#utility.yul\":4405:4411   */\n      dup5\n        /* \"#utility.yul\":4367:4432   */\n      tag_347\n      jump\t// in\n    tag_449:\n        /* \"#utility.yul\":4229:4439   */\n      swap3\n      swap2\n      pop\n      pop\n      jump\t// out\n        /* \"#utility.yul\":4445:4563   */\n    tag_348:\n        /* \"#utility.yul\":4532:4556   */\n      tag_451\n        /* \"#utility.yul\":4550:4555   */\n      dup2\n        /* \"#utility.yul\":4532:4556   */\n      tag_330\n      jump\t// in\n    tag_451:\n        /* \"#utility.yul\":4527:4530   */\n      dup3\n        /* \"#utility.yul\":4520:4557   */\n      mstore\n        /* \"#utility.yul\":4445:4563   */\n      pop\n      pop\n      jump\t// out\n        /* \"#utility.yul\":4569:4791   */\n    tag_55:\n        /* \"#utility.yul\":4662:4666   */\n      0x00\n        /* \"#utility.yul\":4700:4702   */\n      0x20\n        /* \"#utility.yul\":4689:4698   */\n      dup3\n        /* \"#utility.yul\":4685:4703   */\n      add\n        /* \"#utility.yul\":4677:4703   */\n      swap1\n      pop\n        /* \"#utility.yul\":4713:4784   */\n      tag_453\n        /* \"#utility.yul\":4781:4782   */\n      0x00\n        /* \"#utility.yul\":4770:4779   */\n      dup4\n        /* \"#utility.yul\":4766:4783   */\n      add\n        /* \"#utility.yul\":4757:4763   */\n      dup5\n        /* \"#utility.yul\":4713:4784   */\n      tag_348\n      jump\t// in\n    tag_453:\n        /* \"#utility.yul\":4569:4791   */\n      swap3\n      swap2\n      pop\n      pop\n      jump\t// out\n        /* \"#utility.yul\":4797:5416   */\n    tag_59:\n        /* \"#utility.yul\":4874:4880   */\n      0x00\n        /* \"#utility.yul\":4882:4888   */\n      dup1\n        /* \"#utility.yul\":4890:4896   */\n      0x00\n        /* \"#utility.yul\":4939:4941   */\n      0x60\n        /* \"#utility.yul\":4927:4936   */\n      dup5\n        /* \"#utility.yul\":4918:4925   */\n      dup7\n        /* \"#utility.yul\":4914:4937   */\n      sub\n        /* \"#utility.yul\":4910:4942   */\n      slt\n        /* \"#utility.yul\":4907:5026   */\n      iszero\n      tag_455\n      jumpi\n        /* \"#utility.yul\":4945:5024   */\n      tag_456\n      tag_338\n      jump\t// in\n    tag_456:\n        /* \"#utility.yul\":4907:5026   */\n    tag_455:\n        /* \"#utility.yul\":5065:5066   */\n      0x00\n        /* \"#utility.yul\":5090:5143   */\n      tag_457\n        /* \"#utility.yul\":5135:5142   */\n      dup7\n        /* \"#utility.yul\":5126:5132   */\n      dup3\n        /* \"#utility.yul\":5115:5124   */\n      dup8\n        /* \"#utility.yul\":5111:5133   */\n      add\n        /* \"#utility.yul\":5090:5143   */\n      tag_343\n      jump\t// in\n    tag_457:\n        /* \"#utility.yul\":5080:5143   */\n      swap4\n      pop\n        /* \"#utility.yul\":5036:5153   */\n      pop\n        /* \"#utility.yul\":5192:5194   */\n      0x20\n        /* \"#utility.yul\":5218:5271   */\n      tag_458\n        /* \"#utility.yul\":5263:5270   */\n      dup7\n        /* \"#utility.yul\":5254:5260   */\n      dup3\n        /* \"#utility.yul\":5243:5252   */\n      dup8\n        /* \"#utility.yul\":5239:5261   */\n      add\n        /* \"#utility.yul\":5218:5271   */\n      tag_343\n      jump\t// in\n    tag_458:\n        /* \"#utility.yul\":5208:5271   */\n      swap3\n      pop\n        /* \"#utility.yul\":5163:5281   */\n      pop\n        /* \"#utility.yul\":5320:5322   */\n      0x40\n        /* \"#utility.yul\":5346:5399   */\n      tag_459\n        /* \"#utility.yul\":5391:5398   */\n      dup7\n        /* \"#utility.yul\":5382:5388   */\n      dup3\n        /* \"#utility.yul\":5371:5380   */\n      dup8\n        /* \"#utility.yul\":5367:5389   */\n      add\n        /* \"#utility.yul\":5346:5399   */\n      tag_345\n      jump\t// in\n    tag_459:\n        /* \"#utility.yul\":5336:5399   */\n      swap2\n      pop\n        /* \"#utility.yul\":5291:5409   */\n      pop\n        /* \"#utility.yul\":4797:5416   */\n      swap3\n      pop\n      swap3\n      pop\n      swap3\n      jump\t// out\n        /* \"#utility.yul\":5422:5751   */\n    tag_65:\n        /* \"#utility.yul\":5481:5487   */\n      0x00\n        /* \"#utility.yul\":5530:5532   */\n      0x20\n        /* \"#utility.yul\":5518:5527   */\n      dup3\n        /* \"#utility.yul\":5509:5516   */\n      dup5\n        /* \"#utility.yul\":5505:5528   */\n      sub\n        /* \"#utility.yul\":5501:5533   */\n      slt\n        /* \"#utility.yul\":5498:5617   */\n      iszero\n      tag_461\n      jumpi\n        /* \"#utility.yul\":5536:5615   */\n      tag_462\n      tag_338\n      jump\t// in\n    tag_462:\n        /* \"#utility.yul\":5498:5617   */\n    tag_461:\n        /* \"#utility.yul\":5656:5657   */\n      0x00\n        /* \"#utility.yul\":5681:5734   */\n      tag_463\n        /* \"#utility.yul\":5726:5733   */\n      dup5\n        /* \"#utility.yul\":5717:5723   */\n      dup3\n        /* \"#utility.yul\":5706:5715   */\n      dup6\n        /* \"#utility.yul\":5702:5724   */\n      add\n        /* \"#utility.yul\":5681:5734   */\n      tag_343\n      jump\t// in\n    tag_463:\n        /* \"#utility.yul\":5671:5734   */\n      swap2\n      pop\n        /* \"#utility.yul\":5627:5744   */\n      pop\n        /* \"#utility.yul\":5422:5751   */\n      swap3\n      swap2\n      pop\n      pop\n      jump\t// out\n        /* \"#utility.yul\":5757:6086   */\n    tag_71:\n        /* \"#utility.yul\":5816:5822   */\n      0x00\n        /* \"#utility.yul\":5865:5867   */\n      0x20\n        /* \"#utility.yul\":5853:5862   */\n      dup3\n        /* \"#utility.yul\":5844:5851   */\n      dup5\n        /* \"#utility.yul\":5840:5863   */\n      sub\n        /* \"#utility.yul\":5836:5868   */\n      slt\n        /* \"#utility.yul\":5833:5952   */\n      iszero\n      tag_465\n      jumpi\n        /* \"#utility.yul\":5871:5950   */\n      tag_466\n      tag_338\n      jump\t// in\n    tag_466:\n        /* \"#utility.yul\":5833:5952   */\n    tag_465:\n        /* \"#utility.yul\":5991:5992   */\n      0x00\n        /* \"#utility.yul\":6016:6069   */\n      tag_467\n        /* \"#utility.yul\":6061:6068   */\n      dup5\n        /* \"#utility.yul\":6052:6058   */\n      dup3\n        /* \"#utility.yul\":6041:6050   */\n      dup6\n        /* \"#utility.yul\":6037:6059   */\n      add\n        /* \"#utility.yul\":6016:6069   */\n      tag_345\n      jump\t// in\n    tag_467:\n        /* \"#utility.yul\":6006:6069   */\n      swap2\n      pop\n        /* \"#utility.yul\":5962:6079   */\n      pop\n        /* \"#utility.yul\":5757:6086   */\n      swap3\n      swap2\n      pop\n      pop\n      jump\t// out\n        /* \"#utility.yul\":6092:6210   */\n    tag_349:\n        /* \"#utility.yul\":6179:6203   */\n      tag_469\n        /* \"#utility.yul\":6197:6202   */\n      dup2\n        /* \"#utility.yul\":6179:6203   */\n      tag_341\n      jump\t// in\n    tag_469:\n        /* \"#utility.yul\":6174:6177   */\n      dup3\n        /* \"#utility.yul\":6167:6204   */\n      mstore\n        /* \"#utility.yul\":6092:6210   */\n      pop\n      pop\n      jump\t// out\n        /* \"#utility.yul\":6216:6951   */\n    tag_74:\n        /* \"#utility.yul\":6433:6437   */\n      0x00\n        /* \"#utility.yul\":6471:6474   */\n      0x80\n        /* \"#utility.yul\":6460:6469   */\n      dup3\n        /* \"#utility.yul\":6456:6475   */\n      add\n        /* \"#utility.yul\":6448:6475   */\n      swap1\n      pop\n        /* \"#utility.yul\":6521:6530   */\n      dup2\n        /* \"#utility.yul\":6515:6519   */\n      dup2\n        /* \"#utility.yul\":6511:6531   */\n      sub\n        /* \"#utility.yul\":6507:6508   */\n      0x00\n        /* \"#utility.yul\":6496:6505   */\n      dup4\n        /* \"#utility.yul\":6492:6509   */\n      add\n        /* \"#utility.yul\":6485:6532   */\n      mstore\n        /* \"#utility.yul\":6549:6627   */\n      tag_471\n        /* \"#utility.yul\":6622:6626   */\n      dup2\n        /* \"#utility.yul\":6613:6619   */\n      dup8\n        /* \"#utility.yul\":6549:6627   */\n      tag_336\n      jump\t// in\n    tag_471:\n        /* \"#utility.yul\":6541:6627   */\n      swap1\n      pop\n        /* \"#utility.yul\":6674:6683   */\n      dup2\n        /* \"#utility.yul\":6668:6672   */\n      dup2\n        /* \"#utility.yul\":6664:6684   */\n      sub\n        /* \"#utility.yul\":6659:6661   */\n      0x20\n        /* \"#utility.yul\":6648:6657   */\n      dup4\n        /* \"#utility.yul\":6644:6662   */\n      add\n        /* \"#utility.yul\":6637:6685   */\n      mstore\n        /* \"#utility.yul\":6702:6780   */\n      tag_472\n        /* \"#utility.yul\":6775:6779   */\n      dup2\n        /* \"#utility.yul\":6766:6772   */\n      dup7\n        /* \"#utility.yul\":6702:6780   */\n      tag_336\n      jump\t// in\n    tag_472:\n        /* \"#utility.yul\":6694:6780   */\n      swap1\n      pop\n        /* \"#utility.yul\":6790:6862   */\n      tag_473\n        /* \"#utility.yul\":6858:6860   */\n      0x40\n        /* \"#utility.yul\":6847:6856   */\n      dup4\n        /* \"#utility.yul\":6843:6861   */\n      add\n        /* \"#utility.yul\":6834:6840   */\n      dup6\n        /* \"#utility.yul\":6790:6862   */\n      tag_348\n      jump\t// in\n    tag_473:\n        /* \"#utility.yul\":6872:6944   */\n      tag_474\n        /* \"#utility.yul\":6940:6942   */\n      0x60\n        /* \"#utility.yul\":6929:6938   */\n      dup4\n        /* \"#utility.yul\":6925:6943   */\n      add\n        /* \"#utility.yul\":6916:6922   */\n      dup5\n        /* \"#utility.yul\":6872:6944   */\n      tag_349\n      jump\t// in\n    tag_474:\n        /* \"#utility.yul\":6216:6951   */\n      swap6\n      swap5\n      pop\n      pop\n      pop\n      pop\n      pop\n      jump\t// out\n        /* \"#utility.yul\":6957:7043   */\n    tag_350:\n        /* \"#utility.yul\":6992:6999   */\n      0x00\n        /* \"#utility.yul\":7032:7036   */\n      0xff\n        /* \"#utility.yul\":7025:7030   */\n      dup3\n        /* \"#utility.yul\":7021:7037   */\n      and\n        /* \"#utility.yul\":7010:7037   */\n      swap1\n      pop\n        /* \"#utility.yul\":6957:7043   */\n      swap2\n      swap1\n      pop\n      jump\t// out\n        /* \"#utility.yul\":7049:7161   */\n    tag_351:\n        /* \"#utility.yul\":7132:7154   */\n      tag_477\n        /* \"#utility.yul\":7148:7153   */\n      dup2\n        /* \"#utility.yul\":7132:7154   */\n      tag_350\n      jump\t// in\n    tag_477:\n        /* \"#utility.yul\":7127:7130   */\n      dup3\n        /* \"#utility.yul\":7120:7155   */\n      mstore\n        /* \"#utility.yul\":7049:7161   */\n      pop\n      pop\n      jump\t// out\n        /* \"#utility.yul\":7167:7381   */\n    tag_79:\n        /* \"#utility.yul\":7256:7260   */\n      0x00\n        /* \"#utility.yul\":7294:7296   */\n      0x20\n        /* \"#utility.yul\":7283:7292   */\n      dup3\n        /* \"#utility.yul\":7279:7297   */\n      add\n        /* \"#utility.yul\":7271:7297   */\n      swap1\n      pop\n        /* \"#utility.yul\":7307:7374   */\n      tag_479\n        /* \"#utility.yul\":7371:7372   */\n      0x00\n        /* \"#utility.yul\":7360:7369   */\n      dup4\n        /* \"#utility.yul\":7356:7373   */\n      add\n        /* \"#utility.yul\":7347:7353   */\n      dup5\n        /* \"#utility.yul\":7307:7374   */\n      tag_351\n      jump\t// in\n    tag_479:\n        /* \"#utility.yul\":7167:7381   */\n      swap3\n      swap2\n      pop\n      pop\n      jump\t// out\n        /* \"#utility.yul\":7387:7523   */\n    tag_352:\n        /* \"#utility.yul\":7476:7482   */\n      0x00\n        /* \"#utility.yul\":7510:7515   */\n      dup2\n        /* \"#utility.yul\":7504:7516   */\n      mload\n        /* \"#utility.yul\":7494:7516   */\n      swap1\n      pop\n        /* \"#utility.yul\":7387:7523   */\n      swap2\n      swap1\n      pop\n      jump\t// out\n        /* \"#utility.yul\":7529:7735   */\n    tag_353:\n        /* \"#utility.yul\":7650:7661   */\n      0x00\n        /* \"#utility.yul\":7684:7690   */\n      dup3\n        /* \"#utility.yul\":7679:7682   */\n      dup3\n        /* \"#utility.yul\":7672:7691   */\n      mstore\n        /* \"#utility.yul\":7724:7728   */\n      0x20\n        /* \"#utility.yul\":7719:7722   */\n      dup3\n        /* \"#utility.yul\":7715:7729   */\n      add\n        /* \"#utility.yul\":7700:7729   */\n      swap1\n      pop\n        /* \"#utility.yul\":7529:7735   */\n      swap3\n      swap2\n      pop\n      pop\n      jump\t// out\n        /* \"#utility.yul\":7741:7895   */\n    tag_354:\n        /* \"#utility.yul\":7830:7834   */\n      0x00\n        /* \"#utility.yul\":7853:7856   */\n      dup2\n        /* \"#utility.yul\":7845:7856   */\n      swap1\n      pop\n        /* \"#utility.yul\":7883:7887   */\n      0x20\n        /* \"#utility.yul\":7878:7881   */\n      dup3\n        /* \"#utility.yul\":7874:7888   */\n      add\n        /* \"#utility.yul\":7866:7888   */\n      swap1\n      pop\n        /* \"#utility.yul\":7741:7895   */\n      swap2\n      swap1\n      pop\n      jump\t// out\n        /* \"#utility.yul\":7901:8060   */\n    tag_355:\n        /* \"#utility.yul\":7975:7986   */\n      0x00\n        /* \"#utility.yul\":8009:8015   */\n      dup3\n        /* \"#utility.yul\":8004:8007   */\n      dup3\n        /* \"#utility.yul\":7997:8016   */\n      mstore\n        /* \"#utility.yul\":8049:8053   */\n      0x20\n        /* \"#utility.yul\":8044:8047   */\n      dup3\n        /* \"#utility.yul\":8040:8054   */\n      add\n        /* \"#utility.yul\":8025:8054   */\n      swap1\n      pop\n        /* \"#utility.yul\":7901:8060   */\n      swap3\n      swap2\n      pop\n      pop\n      jump\t// out\n        /* \"#utility.yul\":8066:8423   */\n    tag_356:\n        /* \"#utility.yul\":8144:8147   */\n      0x00\n        /* \"#utility.yul\":8172:8211   */\n      tag_485\n        /* \"#utility.yul\":8205:8210   */\n      dup3\n        /* \"#utility.yul\":8172:8211   */\n      tag_332\n      jump\t// in\n    tag_485:\n        /* \"#utility.yul\":8227:8288   */\n      tag_486\n        /* \"#utility.yul\":8281:8287   */\n      dup2\n        /* \"#utility.yul\":8276:8279   */\n      dup6\n        /* \"#utility.yul\":8227:8288   */\n      tag_355\n      jump\t// in\n    tag_486:\n        /* \"#utility.yul\":8220:8288   */\n      swap4\n      pop\n        /* \"#utility.yul\":8297:8362   */\n      tag_487\n        /* \"#utility.yul\":8355:8361   */\n      dup2\n        /* \"#utility.yul\":8350:8353   */\n      dup6\n        /* \"#utility.yul\":8343:8347   */\n      0x20\n        /* \"#utility.yul\":8336:8341   */\n      dup7\n        /* \"#utility.yul\":8332:8348   */\n      add\n        /* \"#utility.yul\":8297:8362   */\n      tag_334\n      jump\t// in\n    tag_487:\n        /* \"#utility.yul\":8387:8416   */\n      tag_488\n        /* \"#utility.yul\":8409:8415   */\n      dup2\n        /* \"#utility.yul\":8387:8416   */\n      tag_335\n      jump\t// in\n    tag_488:\n        /* \"#utility.yul\":8382:8385   */\n      dup5\n        /* \"#utility.yul\":8378:8417   */\n      add\n        /* \"#utility.yul\":8371:8417   */\n      swap2\n      pop\n        /* \"#utility.yul\":8148:8423   */\n      pop\n        /* \"#utility.yul\":8066:8423   */\n      swap3\n      swap2\n      pop\n      pop\n      jump\t// out\n        /* \"#utility.yul\":8429:8537   */\n    tag_357:\n        /* \"#utility.yul\":8506:8530   */\n      tag_490\n        /* \"#utility.yul\":8524:8529   */\n      dup2\n        /* \"#utility.yul\":8506:8530   */\n      tag_330\n      jump\t// in\n    tag_490:\n        /* \"#utility.yul\":8501:8504   */\n      dup3\n        /* \"#utility.yul\":8494:8531   */\n      mstore\n        /* \"#utility.yul\":8429:8537   */\n      pop\n      pop\n      jump\t// out\n        /* \"#utility.yul\":8543:8651   */\n    tag_358:\n        /* \"#utility.yul\":8620:8644   */\n      tag_492\n        /* \"#utility.yul\":8638:8643   */\n      dup2\n        /* \"#utility.yul\":8620:8644   */\n      tag_341\n      jump\t// in\n    tag_492:\n        /* \"#utility.yul\":8615:8618   */\n      dup3\n        /* \"#utility.yul\":8608:8645   */\n      mstore\n        /* \"#utility.yul\":8543:8651   */\n      pop\n      pop\n      jump\t// out\n        /* \"#utility.yul\":8705:9716   */\n    tag_359:\n        /* \"#utility.yul\":8808:8811   */\n      0x00\n        /* \"#utility.yul\":8844:8848   */\n      0x80\n        /* \"#utility.yul\":8839:8842   */\n      dup4\n        /* \"#utility.yul\":8835:8849   */\n      add\n        /* \"#utility.yul\":8930:8934   */\n      0x00\n        /* \"#utility.yul\":8923:8928   */\n      dup4\n        /* \"#utility.yul\":8919:8935   */\n      add\n        /* \"#utility.yul\":8913:8936   */\n      mload\n        /* \"#utility.yul\":8983:8986   */\n      dup5\n        /* \"#utility.yul\":8977:8981   */\n      dup3\n        /* \"#utility.yul\":8973:8987   */\n      sub\n        /* \"#utility.yul\":8966:8970   */\n      0x00\n        /* \"#utility.yul\":8961:8964   */\n      dup7\n        /* \"#utility.yul\":8957:8971   */\n      add\n        /* \"#utility.yul\":8950:8988   */\n      mstore\n        /* \"#utility.yul\":9009:9082   */\n      tag_494\n        /* \"#utility.yul\":9077:9081   */\n      dup3\n        /* \"#utility.yul\":9063:9075   */\n      dup3\n        /* \"#utility.yul\":9009:9082   */\n      tag_356\n      jump\t// in\n    tag_494:\n        /* \"#utility.yul\":9001:9082   */\n      swap2\n      pop\n        /* \"#utility.yul\":8859:9093   */\n      pop\n        /* \"#utility.yul\":9175:9179   */\n      0x20\n        /* \"#utility.yul\":9168:9173   */\n      dup4\n        /* \"#utility.yul\":9164:9180   */\n      add\n        /* \"#utility.yul\":9158:9181   */\n      mload\n        /* \"#utility.yul\":9228:9231   */\n      dup5\n        /* \"#utility.yul\":9222:9226   */\n      dup3\n        /* \"#utility.yul\":9218:9232   */\n      sub\n        /* \"#utility.yul\":9211:9215   */\n      0x20\n        /* \"#utility.yul\":9206:9209   */\n      dup7\n        /* \"#utility.yul\":9202:9216   */\n      add\n        /* \"#utility.yul\":9195:9233   */\n      mstore\n        /* \"#utility.yul\":9254:9327   */\n      tag_495\n        /* \"#utility.yul\":9322:9326   */\n      dup3\n        /* \"#utility.yul\":9308:9320   */\n      dup3\n        /* \"#utility.yul\":9254:9327   */\n      tag_356\n      jump\t// in\n    tag_495:\n        /* \"#utility.yul\":9246:9327   */\n      swap2\n      pop\n        /* \"#utility.yul\":9103:9338   */\n      pop\n        /* \"#utility.yul\":9421:9425   */\n      0x40\n        /* \"#utility.yul\":9414:9419   */\n      dup4\n        /* \"#utility.yul\":9410:9426   */\n      add\n        /* \"#utility.yul\":9404:9427   */\n      mload\n        /* \"#utility.yul\":9440:9503   */\n      tag_496\n        /* \"#utility.yul\":9497:9501   */\n      0x40\n        /* \"#utility.yul\":9492:9495   */\n      dup7\n        /* \"#utility.yul\":9488:9502   */\n      add\n        /* \"#utility.yul\":9474:9486   */\n      dup3\n        /* \"#utility.yul\":9440:9503   */\n      tag_357\n      jump\t// in\n    tag_496:\n        /* \"#utility.yul\":9348:9513   */\n      pop\n        /* \"#utility.yul\":9597:9601   */\n      0x60\n        /* \"#utility.yul\":9590:9595   */\n      dup4\n        /* \"#utility.yul\":9586:9602   */\n      add\n        /* \"#utility.yul\":9580:9603   */\n      mload\n        /* \"#utility.yul\":9616:9679   */\n      tag_497\n        /* \"#utility.yul\":9673:9677   */\n      0x60\n        /* \"#utility.yul\":9668:9671   */\n      dup7\n        /* \"#utility.yul\":9664:9678   */\n      add\n        /* \"#utility.yul\":9650:9662   */\n      dup3\n        /* \"#utility.yul\":9616:9679   */\n      tag_358\n      jump\t// in\n    tag_497:\n        /* \"#utility.yul\":9523:9689   */\n      pop\n        /* \"#utility.yul\":9706:9710   */\n      dup1\n        /* \"#utility.yul\":9699:9710   */\n      swap2\n      pop\n        /* \"#utility.yul\":8813:9716   */\n      pop\n        /* \"#utility.yul\":8705:9716   */\n      swap3\n      swap2\n      pop\n      pop\n      jump\t// out\n        /* \"#utility.yul\":9722:9966   */\n    tag_360:\n        /* \"#utility.yul\":9835:9845   */\n      0x00\n        /* \"#utility.yul\":9870:9960   */\n      tag_499\n        /* \"#utility.yul\":9956:9959   */\n      dup4\n        /* \"#utility.yul\":9948:9954   */\n      dup4\n        /* \"#utility.yul\":9870:9960   */\n      tag_359\n      jump\t// in\n    tag_499:\n        /* \"#utility.yul\":9856:9960   */\n      swap1\n      pop\n        /* \"#utility.yul\":9722:9966   */\n      swap3\n      swap2\n      pop\n      pop\n      jump\t// out\n        /* \"#utility.yul\":9972:10107   */\n    tag_361:\n        /* \"#utility.yul\":10064:10068   */\n      0x00\n        /* \"#utility.yul\":10096:10100   */\n      0x20\n        /* \"#utility.yul\":10091:10094   */\n      dup3\n        /* \"#utility.yul\":10087:10101   */\n      add\n        /* \"#utility.yul\":10079:10101   */\n      swap1\n      pop\n        /* \"#utility.yul\":9972:10107   */\n      swap2\n      swap1\n      pop\n      jump\t// out\n        /* \"#utility.yul\":10165:11252   */\n    tag_362:\n        /* \"#utility.yul\":10328:10331   */\n      0x00\n        /* \"#utility.yul\":10357:10433   */\n      tag_502\n        /* \"#utility.yul\":10427:10432   */\n      dup3\n        /* \"#utility.yul\":10357:10433   */\n      tag_352\n      jump\t// in\n    tag_502:\n        /* \"#utility.yul\":10449:10557   */\n      tag_503\n        /* \"#utility.yul\":10550:10556   */\n      dup2\n        /* \"#utility.yul\":10545:10548   */\n      dup6\n        /* \"#utility.yul\":10449:10557   */\n      tag_353\n      jump\t// in\n    tag_503:\n        /* \"#utility.yul\":10442:10557   */\n      swap4\n      pop\n        /* \"#utility.yul\":10583:10586   */\n      dup4\n        /* \"#utility.yul\":10628:10632   */\n      0x20\n        /* \"#utility.yul\":10620:10626   */\n      dup3\n        /* \"#utility.yul\":10616:10633   */\n      mul\n        /* \"#utility.yul\":10611:10614   */\n      dup6\n        /* \"#utility.yul\":10607:10634   */\n      add\n        /* \"#utility.yul\":10658:10736   */\n      tag_504\n        /* \"#utility.yul\":10730:10735   */\n      dup6\n        /* \"#utility.yul\":10658:10736   */\n      tag_354\n      jump\t// in\n    tag_504:\n        /* \"#utility.yul\":10759:10766   */\n      dup1\n        /* \"#utility.yul\":10790:10791   */\n      0x00\n        /* \"#utility.yul\":10775:11207   */\n    tag_505:\n        /* \"#utility.yul\":10800:10806   */\n      dup6\n        /* \"#utility.yul\":10797:10798   */\n      dup2\n        /* \"#utility.yul\":10794:10807   */\n      lt\n        /* \"#utility.yul\":10775:11207   */\n      iszero\n      tag_507\n      jumpi\n        /* \"#utility.yul\":10871:10880   */\n      dup5\n        /* \"#utility.yul\":10865:10869   */\n      dup5\n        /* \"#utility.yul\":10861:10881   */\n      sub\n        /* \"#utility.yul\":10856:10859   */\n      dup10\n        /* \"#utility.yul\":10849:10882   */\n      mstore\n        /* \"#utility.yul\":10922:10928   */\n      dup2\n        /* \"#utility.yul\":10916:10929   */\n      mload\n        /* \"#utility.yul\":10950:11058   */\n      tag_508\n        /* \"#utility.yul\":11053:11057   */\n      dup6\n        /* \"#utility.yul\":11038:11051   */\n      dup3\n        /* \"#utility.yul\":10950:11058   */\n      tag_360\n      jump\t// in\n    tag_508:\n        /* \"#utility.yul\":10942:11058   */\n      swap5\n      pop\n        /* \"#utility.yul\":11081:11163   */\n      tag_509\n        /* \"#utility.yul\":11156:11162   */\n      dup4\n        /* \"#utility.yul\":11081:11163   */\n      tag_361\n      jump\t// in\n    tag_509:\n        /* \"#utility.yul\":11071:11163   */\n      swap3\n      pop\n        /* \"#utility.yul\":11192:11196   */\n      0x20\n        /* \"#utility.yul\":11187:11190   */\n      dup11\n        /* \"#utility.yul\":11183:11197   */\n      add\n        /* \"#utility.yul\":11176:11197   */\n      swap10\n      pop\n        /* \"#utility.yul\":10835:11207   */\n      pop\n        /* \"#utility.yul\":10822:10823   */\n      0x01\n        /* \"#utility.yul\":10819:10820   */\n      dup2\n        /* \"#utility.yul\":10815:10824   */\n      add\n        /* \"#utility.yul\":10810:10824   */\n      swap1\n      pop\n        /* \"#utility.yul\":10775:11207   */\n      jump(tag_505)\n    tag_507:\n        /* \"#utility.yul\":10779:10793   */\n      pop\n        /* \"#utility.yul\":11223:11227   */\n      dup3\n        /* \"#utility.yul\":11216:11227   */\n      swap8\n      pop\n        /* \"#utility.yul\":11243:11246   */\n      dup8\n        /* \"#utility.yul\":11236:11246   */\n      swap6\n      pop\n        /* \"#utility.yul\":10333:11252   */\n      pop\n      pop\n      pop\n      pop\n      pop\n        /* \"#utility.yul\":10165:11252   */\n      swap3\n      swap2\n      pop\n      pop\n      jump\t// out\n        /* \"#utility.yul\":11258:11719   */\n    tag_92:\n        /* \"#utility.yul\":11445:11449   */\n      0x00\n        /* \"#utility.yul\":11483:11485   */\n      0x20\n        /* \"#utility.yul\":11472:11481   */\n      dup3\n        /* \"#utility.yul\":11468:11486   */\n      add\n        /* \"#utility.yul\":11460:11486   */\n      swap1\n      pop\n        /* \"#utility.yul\":11532:11541   */\n      dup2\n        /* \"#utility.yul\":11526:11530   */\n      dup2\n        /* \"#utility.yul\":11522:11542   */\n      sub\n        /* \"#utility.yul\":11518:11519   */\n      0x00\n        /* \"#utility.yul\":11507:11516   */\n      dup4\n        /* \"#utility.yul\":11503:11520   */\n      add\n        /* \"#utility.yul\":11496:11543   */\n      mstore\n        /* \"#utility.yul\":11560:11712   */\n      tag_511\n        /* \"#utility.yul\":11707:11711   */\n      dup2\n        /* \"#utility.yul\":11698:11704   */\n      dup5\n        /* \"#utility.yul\":11560:11712   */\n      tag_362\n      jump\t// in\n    tag_511:\n        /* \"#utility.yul\":11552:11712   */\n      swap1\n      pop\n        /* \"#utility.yul\":11258:11719   */\n      swap3\n      swap2\n      pop\n      pop\n      jump\t// out\n        /* \"#utility.yul\":11725:11842   */\n    tag_363:\n        /* \"#utility.yul\":11834:11835   */\n      0x00\n        /* \"#utility.yul\":11831:11832   */\n      dup1\n        /* \"#utility.yul\":11824:11836   */\n      revert\n        /* \"#utility.yul\":11848:11965   */\n    tag_364:\n        /* \"#utility.yul\":11957:11958   */\n      0x00\n        /* \"#utility.yul\":11954:11955   */\n      dup1\n        /* \"#utility.yul\":11947:11959   */\n      revert\n        /* \"#utility.yul\":11971:12151   */\n    tag_365:\n        /* \"#utility.yul\":12019:12096   */\n      0x4e487b7100000000000000000000000000000000000000000000000000000000\n        /* \"#utility.yul\":12016:12017   */\n      0x00\n        /* \"#utility.yul\":12009:12097   */\n      mstore\n        /* \"#utility.yul\":12116:12120   */\n      0x41\n        /* \"#utility.yul\":12113:12114   */\n      0x04\n        /* \"#utility.yul\":12106:12121   */\n      mstore\n        /* \"#utility.yul\":12140:12144   */\n      0x24\n        /* \"#utility.yul\":12137:12138   */\n      0x00\n        /* \"#utility.yul\":12130:12145   */\n      revert\n        /* \"#utility.yul\":12157:12438   */\n    tag_366:\n        /* \"#utility.yul\":12240:12267   */\n      tag_516\n        /* \"#utility.yul\":12262:12266   */\n      dup3\n        /* \"#utility.yul\":12240:12267   */\n      tag_335\n      jump\t// in\n    tag_516:\n        /* \"#utility.yul\":12232:12238   */\n      dup2\n        /* \"#utility.yul\":12228:12268   */\n      add\n        /* \"#utility.yul\":12370:12376   */\n      dup2\n        /* \"#utility.yul\":12358:12368   */\n      dup2\n        /* \"#utility.yul\":12355:12377   */\n      lt\n        /* \"#utility.yul\":12334:12352   */\n      0xffffffffffffffff\n        /* \"#utility.yul\":12322:12332   */\n      dup3\n        /* \"#utility.yul\":12319:12353   */\n      gt\n        /* \"#utility.yul\":12316:12378   */\n      or\n        /* \"#utility.yul\":12313:12401   */\n      iszero\n      tag_517\n      jumpi\n        /* \"#utility.yul\":12381:12399   */\n      tag_518\n      tag_365\n      jump\t// in\n    tag_518:\n        /* \"#utility.yul\":12313:12401   */\n    tag_517:\n        /* \"#utility.yul\":12421:12431   */\n      dup1\n        /* \"#utility.yul\":12417:12419   */\n      0x40\n        /* \"#utility.yul\":12410:12432   */\n      mstore\n        /* \"#utility.yul\":12200:12438   */\n      pop\n        /* \"#utility.yul\":12157:12438   */\n      pop\n      pop\n      jump\t// out\n        /* \"#utility.yul\":12444:12573   */\n    tag_367:\n        /* \"#utility.yul\":12478:12484   */\n      0x00\n        /* \"#utility.yul\":12505:12525   */\n      tag_520\n      tag_337\n      jump\t// in\n    tag_520:\n        /* \"#utility.yul\":12495:12525   */\n      swap1\n      pop\n        /* \"#utility.yul\":12534:12567   */\n      tag_521\n        /* \"#utility.yul\":12562:12566   */\n      dup3\n        /* \"#utility.yul\":12554:12560   */\n      dup3\n        /* \"#utility.yul\":12534:12567   */\n      tag_366\n      jump\t// in\n    tag_521:\n        /* \"#utility.yul\":12444:12573   */\n      swap2\n      swap1\n      pop\n      jump\t// out\n        /* \"#utility.yul\":12579:12887   */\n    tag_368:\n        /* \"#utility.yul\":12641:12645   */\n      0x00\n        /* \"#utility.yul\":12731:12749   */\n      0xffffffffffffffff\n        /* \"#utility.yul\":12723:12729   */\n      dup3\n        /* \"#utility.yul\":12720:12750   */\n      gt\n        /* \"#utility.yul\":12717:12773   */\n      iszero\n      tag_523\n      jumpi\n        /* \"#utility.yul\":12753:12771   */\n      tag_524\n      tag_365\n      jump\t// in\n    tag_524:\n        /* \"#utility.yul\":12717:12773   */\n    tag_523:\n        /* \"#utility.yul\":12791:12820   */\n      tag_525\n        /* \"#utility.yul\":12813:12819   */\n      dup3\n        /* \"#utility.yul\":12791:12820   */\n      tag_335\n      jump\t// in\n    tag_525:\n        /* \"#utility.yul\":12783:12820   */\n      swap1\n      pop\n        /* \"#utility.yul\":12875:12879   */\n      0x20\n        /* \"#utility.yul\":12869:12873   */\n      dup2\n        /* \"#utility.yul\":12865:12880   */\n      add\n        /* \"#utility.yul\":12857:12880   */\n      swap1\n      pop\n        /* \"#utility.yul\":12579:12887   */\n      swap2\n      swap1\n      pop\n      jump\t// out\n        /* \"#utility.yul\":12893:13039   */\n    tag_369:\n        /* \"#utility.yul\":12990:12996   */\n      dup3\n        /* \"#utility.yul\":12985:12988   */\n      dup2\n        /* \"#utility.yul\":12980:12983   */\n      dup4\n        /* \"#utility.yul\":12967:12997   */\n      calldatacopy\n        /* \"#utility.yul\":13031:13032   */\n      0x00\n        /* \"#utility.yul\":13022:13028   */\n      dup4\n        /* \"#utility.yul\":13017:13020   */\n      dup4\n        /* \"#utility.yul\":13013:13029   */\n      add\n        /* \"#utility.yul\":13006:13033   */\n      mstore\n        /* \"#utility.yul\":12893:13039   */\n      pop\n      pop\n      pop\n      jump\t// out\n        /* \"#utility.yul\":13045:13470   */\n    tag_370:\n        /* \"#utility.yul\":13123:13128   */\n      0x00\n        /* \"#utility.yul\":13148:13214   */\n      tag_528\n        /* \"#utility.yul\":13164:13213   */\n      tag_529\n        /* \"#utility.yul\":13206:13212   */\n      dup5\n        /* \"#utility.yul\":13164:13213   */\n      tag_368\n      jump\t// in\n    tag_529:\n        /* \"#utility.yul\":13148:13214   */\n      tag_367\n      jump\t// in\n    tag_528:\n        /* \"#utility.yul\":13139:13214   */\n      swap1\n      pop\n        /* \"#utility.yul\":13237:13243   */\n      dup3\n        /* \"#utility.yul\":13230:13235   */\n      dup2\n        /* \"#utility.yul\":13223:13244   */\n      mstore\n        /* \"#utility.yul\":13275:13279   */\n      0x20\n        /* \"#utility.yul\":13268:13273   */\n      dup2\n        /* \"#utility.yul\":13264:13280   */\n      add\n        /* \"#utility.yul\":13313:13316   */\n      dup5\n        /* \"#utility.yul\":13304:13310   */\n      dup5\n        /* \"#utility.yul\":13299:13302   */\n      dup5\n        /* \"#utility.yul\":13295:13311   */\n      add\n        /* \"#utility.yul\":13292:13317   */\n      gt\n        /* \"#utility.yul\":13289:13401   */\n      iszero\n      tag_530\n      jumpi\n        /* \"#utility.yul\":13320:13399   */\n      tag_531\n      tag_364\n      jump\t// in\n    tag_531:\n        /* \"#utility.yul\":13289:13401   */\n    tag_530:\n        /* \"#utility.yul\":13410:13464   */\n      tag_532\n        /* \"#utility.yul\":13457:13463   */\n      dup5\n        /* \"#utility.yul\":13452:13455   */\n      dup3\n        /* \"#utility.yul\":13447:13450   */\n      dup6\n        /* \"#utility.yul\":13410:13464   */\n      tag_369\n      jump\t// in\n    tag_532:\n        /* \"#utility.yul\":13129:13470   */\n      pop\n        /* \"#utility.yul\":13045:13470   */\n      swap4\n      swap3\n      pop\n      pop\n      pop\n      jump\t// out\n        /* \"#utility.yul\":13490:13830   */\n    tag_371:\n        /* \"#utility.yul\":13546:13551   */\n      0x00\n        /* \"#utility.yul\":13595:13598   */\n      dup3\n        /* \"#utility.yul\":13588:13592   */\n      0x1f\n        /* \"#utility.yul\":13580:13586   */\n      dup4\n        /* \"#utility.yul\":13576:13593   */\n      add\n        /* \"#utility.yul\":13572:13599   */\n      slt\n        /* \"#utility.yul\":13562:13684   */\n      tag_534\n      jumpi\n        /* \"#utility.yul\":13603:13682   */\n      tag_535\n      tag_363\n      jump\t// in\n    tag_535:\n        /* \"#utility.yul\":13562:13684   */\n    tag_534:\n        /* \"#utility.yul\":13720:13726   */\n      dup2\n        /* \"#utility.yul\":13707:13727   */\n      calldataload\n        /* \"#utility.yul\":13745:13824   */\n      tag_536\n        /* \"#utility.yul\":13820:13823   */\n      dup5\n        /* \"#utility.yul\":13812:13818   */\n      dup3\n        /* \"#utility.yul\":13805:13809   */\n      0x20\n        /* \"#utility.yul\":13797:13803   */\n      dup7\n        /* \"#utility.yul\":13793:13810   */\n      add\n        /* \"#utility.yul\":13745:13824   */\n      tag_370\n      jump\t// in\n    tag_536:\n        /* \"#utility.yul\":13736:13824   */\n      swap2\n      pop\n        /* \"#utility.yul\":13552:13830   */\n      pop\n        /* \"#utility.yul\":13490:13830   */\n      swap3\n      swap2\n      pop\n      pop\n      jump\t// out\n        /* \"#utility.yul\":13836:14815   */\n    tag_122:\n        /* \"#utility.yul\":13933:13939   */\n      0x00\n        /* \"#utility.yul\":13941:13947   */\n      dup1\n        /* \"#utility.yul\":13949:13955   */\n      0x00\n        /* \"#utility.yul\":13998:14000   */\n      0x60\n        /* \"#utility.yul\":13986:13995   */\n      dup5\n        /* \"#utility.yul\":13977:13984   */\n      dup7\n        /* \"#utility.yul\":13973:13996   */\n      sub\n        /* \"#utility.yul\":13969:14001   */\n      slt\n        /* \"#utility.yul\":13966:14085   */\n      iszero\n      tag_538\n      jumpi\n        /* \"#utility.yul\":14004:14083   */\n      tag_539\n      tag_338\n      jump\t// in\n    tag_539:\n        /* \"#utility.yul\":13966:14085   */\n    tag_538:\n        /* \"#utility.yul\":14152:14153   */\n      0x00\n        /* \"#utility.yul\":14141:14150   */\n      dup5\n        /* \"#utility.yul\":14137:14154   */\n      add\n        /* \"#utility.yul\":14124:14155   */\n      calldataload\n        /* \"#utility.yul\":14182:14200   */\n      0xffffffffffffffff\n        /* \"#utility.yul\":14174:14180   */\n      dup2\n        /* \"#utility.yul\":14171:14201   */\n      gt\n        /* \"#utility.yul\":14168:14285   */\n      iszero\n      tag_540\n      jumpi\n        /* \"#utility.yul\":14204:14283   */\n      tag_541\n      tag_339\n      jump\t// in\n    tag_541:\n        /* \"#utility.yul\":14168:14285   */\n    tag_540:\n        /* \"#utility.yul\":14309:14372   */\n      tag_542\n        /* \"#utility.yul\":14364:14371   */\n      dup7\n        /* \"#utility.yul\":14355:14361   */\n      dup3\n        /* \"#utility.yul\":14344:14353   */\n      dup8\n        /* \"#utility.yul\":14340:14362   */\n      add\n        /* \"#utility.yul\":14309:14372   */\n      tag_371\n      jump\t// in\n    tag_542:\n        /* \"#utility.yul\":14299:14372   */\n      swap4\n      pop\n        /* \"#utility.yul\":14095:14382   */\n      pop\n        /* \"#utility.yul\":14449:14451   */\n      0x20\n        /* \"#utility.yul\":14438:14447   */\n      dup5\n        /* \"#utility.yul\":14434:14452   */\n      add\n        /* \"#utility.yul\":14421:14453   */\n      calldataload\n        /* \"#utility.yul\":14480:14498   */\n      0xffffffffffffffff\n        /* \"#utility.yul\":14472:14478   */\n      dup2\n        /* \"#utility.yul\":14469:14499   */\n      gt\n        /* \"#utility.yul\":14466:14583   */\n      iszero\n      tag_543\n      jumpi\n        /* \"#utility.yul\":14502:14581   */\n      tag_544\n      tag_339\n      jump\t// in\n    tag_544:\n        /* \"#utility.yul\":14466:14583   */\n    tag_543:\n        /* \"#utility.yul\":14607:14670   */\n      tag_545\n        /* \"#utility.yul\":14662:14669   */\n      dup7\n        /* \"#utility.yul\":14653:14659   */\n      dup3\n        /* \"#utility.yul\":14642:14651   */\n      dup8\n        /* \"#utility.yul\":14638:14660   */\n      add\n        /* \"#utility.yul\":14607:14670   */\n      tag_371\n      jump\t// in\n    tag_545:\n        /* \"#utility.yul\":14597:14670   */\n      swap3\n      pop\n        /* \"#utility.yul\":14392:14680   */\n      pop\n        /* \"#utility.yul\":14719:14721   */\n      0x40\n        /* \"#utility.yul\":14745:14798   */\n      tag_546\n        /* \"#utility.yul\":14790:14797   */\n      dup7\n        /* \"#utility.yul\":14781:14787   */\n      dup3\n        /* \"#utility.yul\":14770:14779   */\n      dup8\n        /* \"#utility.yul\":14766:14788   */\n      add\n        /* \"#utility.yul\":14745:14798   */\n      tag_345\n      jump\t// in\n    tag_546:\n        /* \"#utility.yul\":14735:14798   */\n      swap2\n      pop\n        /* \"#utility.yul\":14690:14808   */\n      pop\n        /* \"#utility.yul\":13836:14815   */\n      swap3\n      pop\n      swap3\n      pop\n      swap3\n      jump\t// out\n        /* \"#utility.yul\":14821:15295   */\n    tag_136:\n        /* \"#utility.yul\":14889:14895   */\n      0x00\n        /* \"#utility.yul\":14897:14903   */\n      dup1\n        /* \"#utility.yul\":14946:14948   */\n      0x40\n        /* \"#utility.yul\":14934:14943   */\n      dup4\n        /* \"#utility.yul\":14925:14932   */\n      dup6\n        /* \"#utility.yul\":14921:14944   */\n      sub\n        /* \"#utility.yul\":14917:14949   */\n      slt\n        /* \"#utility.yul\":14914:15033   */\n      iszero\n      tag_548\n      jumpi\n        /* \"#utility.yul\":14952:15031   */\n      tag_549\n      tag_338\n      jump\t// in\n    tag_549:\n        /* \"#utility.yul\":14914:15033   */\n    tag_548:\n        /* \"#utility.yul\":15072:15073   */\n      0x00\n        /* \"#utility.yul\":15097:15150   */\n      tag_550\n        /* \"#utility.yul\":15142:15149   */\n      dup6\n        /* \"#utility.yul\":15133:15139   */\n      dup3\n        /* \"#utility.yul\":15122:15131   */\n      dup7\n        /* \"#utility.yul\":15118:15140   */\n      add\n        /* \"#utility.yul\":15097:15150   */\n      tag_343\n      jump\t// in\n    tag_550:\n        /* \"#utility.yul\":15087:15150   */\n      swap3\n      pop\n        /* \"#utility.yul\":15043:15160   */\n      pop\n        /* \"#utility.yul\":15199:15201   */\n      0x20\n        /* \"#utility.yul\":15225:15278   */\n      tag_551\n        /* \"#utility.yul\":15270:15277   */\n      dup6\n        /* \"#utility.yul\":15261:15267   */\n      dup3\n        /* \"#utility.yul\":15250:15259   */\n      dup7\n        /* \"#utility.yul\":15246:15268   */\n      add\n        /* \"#utility.yul\":15225:15278   */\n      tag_343\n      jump\t// in\n    tag_551:\n        /* \"#utility.yul\":15215:15278   */\n      swap2\n      pop\n        /* \"#utility.yul\":15170:15288   */\n      pop\n        /* \"#utility.yul\":14821:15295   */\n      swap3\n      pop\n      swap3\n      swap1\n      pop\n      jump\t// out\n        /* \"#utility.yul\":15301:15481   */\n    tag_372:\n        /* \"#utility.yul\":15349:15426   */\n      0x4e487b7100000000000000000000000000000000000000000000000000000000\n        /* \"#utility.yul\":15346:15347   */\n      0x00\n        /* \"#utility.yul\":15339:15427   */\n      mstore\n        /* \"#utility.yul\":15446:15450   */\n      0x22\n        /* \"#utility.yul\":15443:15444   */\n      0x04\n        /* \"#utility.yul\":15436:15451   */\n      mstore\n        /* \"#utility.yul\":15470:15474   */\n      0x24\n        /* \"#utility.yul\":15467:15468   */\n      0x00\n        /* \"#utility.yul\":15460:15475   */\n      revert\n        /* \"#utility.yul\":15487:15807   */\n    tag_148:\n        /* \"#utility.yul\":15531:15537   */\n      0x00\n        /* \"#utility.yul\":15568:15569   */\n      0x02\n        /* \"#utility.yul\":15562:15566   */\n      dup3\n        /* \"#utility.yul\":15558:15570   */\n      div\n        /* \"#utility.yul\":15548:15570   */\n      swap1\n      pop\n        /* \"#utility.yul\":15615:15616   */\n      0x01\n        /* \"#utility.yul\":15609:15613   */\n      dup3\n        /* \"#utility.yul\":15605:15617   */\n      and\n        /* \"#utility.yul\":15636:15654   */\n      dup1\n        /* \"#utility.yul\":15626:15707   */\n      tag_554\n      jumpi\n        /* \"#utility.yul\":15692:15696   */\n      0x7f\n        /* \"#utility.yul\":15684:15690   */\n      dup3\n        /* \"#utility.yul\":15680:15697   */\n      and\n        /* \"#utility.yul\":15670:15697   */\n      swap2\n      pop\n        /* \"#utility.yul\":15626:15707   */\n    tag_554:\n        /* \"#utility.yul\":15754:15756   */\n      0x20\n        /* \"#utility.yul\":15746:15752   */\n      dup3\n        /* \"#utility.yul\":15743:15757   */\n      lt\n        /* \"#utility.yul\":15723:15741   */\n      dup2\n        /* \"#utility.yul\":15720:15758   */\n      sub\n        /* \"#utility.yul\":15717:15801   */\n      tag_555\n      jumpi\n        /* \"#utility.yul\":15773:15791   */\n      tag_556\n      tag_372\n      jump\t// in\n    tag_556:\n        /* \"#utility.yul\":15717:15801   */\n    tag_555:\n        /* \"#utility.yul\":15538:15807   */\n      pop\n        /* \"#utility.yul\":15487:15807   */\n      swap2\n      swap1\n      pop\n      jump\t// out\n        /* \"#utility.yul\":15813:15993   */\n    tag_174:\n        /* \"#utility.yul\":15861:15938   */\n      0x4e487b7100000000000000000000000000000000000000000000000000000000\n        /* \"#utility.yul\":15858:15859   */\n      0x00\n        /* \"#utility.yul\":15851:15939   */\n      mstore\n        /* \"#utility.yul\":15958:15962   */\n      0x32\n        /* \"#utility.yul\":15955:15956   */\n      0x04\n        /* \"#utility.yul\":15948:15963   */\n      mstore\n        /* \"#utility.yul\":15982:15986   */\n      0x24\n        /* \"#utility.yul\":15979:15980   */\n      0x00\n        /* \"#utility.yul\":15972:15987   */\n      revert\n        /* \"#utility.yul\":15999:16148   */\n    tag_373:\n        /* \"#utility.yul\":16048:16054   */\n      0x00\n        /* \"#utility.yul\":16082:16087   */\n      dup2\n        /* \"#utility.yul\":16076:16088   */\n      sload\n        /* \"#utility.yul\":16066:16088   */\n      swap1\n      pop\n        /* \"#utility.yul\":16108:16141   */\n      tag_559\n        /* \"#utility.yul\":16134:16140   */\n      dup2\n        /* \"#utility.yul\":16108:16141   */\n      tag_148\n      jump\t// in\n    tag_559:\n        /* \"#utility.yul\":16098:16141   */\n      swap1\n      pop\n        /* \"#utility.yul\":15999:16148   */\n      swap2\n      swap1\n      pop\n      jump\t// out\n        /* \"#utility.yul\":16154:16295   */\n    tag_374:\n        /* \"#utility.yul\":16203:16207   */\n      0x00\n        /* \"#utility.yul\":16226:16229   */\n      dup2\n        /* \"#utility.yul\":16218:16229   */\n      swap1\n      pop\n        /* \"#utility.yul\":16249:16252   */\n      dup2\n        /* \"#utility.yul\":16246:16247   */\n      0x00\n        /* \"#utility.yul\":16239:16253   */\n      mstore\n        /* \"#utility.yul\":16283:16287   */\n      0x20\n        /* \"#utility.yul\":16280:16281   */\n      0x00\n        /* \"#utility.yul\":16270:16288   */\n      keccak256\n        /* \"#utility.yul\":16262:16288   */\n      swap1\n      pop\n        /* \"#utility.yul\":16154:16295   */\n      swap2\n      swap1\n      pop\n      jump\t// out\n        /* \"#utility.yul\":16301:16394   */\n    tag_375:\n        /* \"#utility.yul\":16338:16344   */\n      0x00\n        /* \"#utility.yul\":16385:16387   */\n      0x20\n        /* \"#utility.yul\":16380:16382   */\n      0x1f\n        /* \"#utility.yul\":16373:16378   */\n      dup4\n        /* \"#utility.yul\":16369:16383   */\n      add\n        /* \"#utility.yul\":16365:16388   */\n      div\n        /* \"#utility.yul\":16355:16388   */\n      swap1\n      pop\n        /* \"#utility.yul\":16301:16394   */\n      swap2\n      swap1\n      pop\n      jump\t// out\n        /* \"#utility.yul\":16400:16507   */\n    tag_376:\n        /* \"#utility.yul\":16444:16452   */\n      0x00\n        /* \"#utility.yul\":16494:16499   */\n      dup3\n        /* \"#utility.yul\":16488:16492   */\n      dup3\n        /* \"#utility.yul\":16484:16500   */\n      shl\n        /* \"#utility.yul\":16463:16500   */\n      swap1\n      pop\n        /* \"#utility.yul\":16400:16507   */\n      swap3\n      swap2\n      pop\n      pop\n      jump\t// out\n        /* \"#utility.yul\":16513:16906   */\n    tag_377:\n        /* \"#utility.yul\":16582:16588   */\n      0x00\n        /* \"#utility.yul\":16632:16633   */\n      0x08\n        /* \"#utility.yul\":16620:16630   */\n      dup4\n        /* \"#utility.yul\":16616:16634   */\n      mul\n        /* \"#utility.yul\":16655:16752   */\n      tag_564\n        /* \"#utility.yul\":16685:16751   */\n      0xffffffffffffffffffffffffffffffffffffffffffffffffffffffffffffffff\n        /* \"#utility.yul\":16674:16683   */\n      dup3\n        /* \"#utility.yul\":16655:16752   */\n      tag_376\n      jump\t// in\n    tag_564:\n        /* \"#utility.yul\":16773:16812   */\n      tag_565\n        /* \"#utility.yul\":16803:16811   */\n      dup7\n        /* \"#utility.yul\":16792:16801   */\n      dup4\n        /* \"#utility.yul\":16773:16812   */\n      tag_376\n      jump\t// in\n    tag_565:\n        /* \"#utility.yul\":16761:16812   */\n      swap6\n      pop\n        /* \"#utility.yul\":16845:16849   */\n      dup1\n        /* \"#utility.yul\":16841:16850   */\n      not\n        /* \"#utility.yul\":16834:16839   */\n      dup5\n        /* \"#utility.yul\":16830:16851   */\n      and\n        /* \"#utility.yul\":16821:16851   */\n      swap4\n      pop\n        /* \"#utility.yul\":16894:16898   */\n      dup1\n        /* \"#utility.yul\":16884:16892   */\n      dup7\n        /* \"#utility.yul\":16880:16899   */\n      and\n        /* \"#utility.yul\":16873:16878   */\n      dup5\n        /* \"#utility.yul\":16870:16900   */\n      or\n        /* \"#utility.yul\":16860:16900   */\n      swap3\n      pop\n        /* \"#utility.yul\":16589:16906   */\n      pop\n      pop\n        /* \"#utility.yul\":16513:16906   */\n      swap4\n      swap3\n      pop\n      pop\n      pop\n      jump\t// out\n        /* \"#utility.yul\":16912:16972   */\n    tag_378:\n        /* \"#utility.yul\":16940:16943   */\n      0x00\n        /* \"#utility.yul\":16961:16966   */\n      dup2\n        /* \"#utility.yul\":16954:16966   */\n      swap1\n      pop\n        /* \"#utility.yul\":16912:16972   */\n      swap2\n      swap1\n      pop\n      jump\t// out\n        /* \"#utility.yul\":16978:17120   */\n    tag_379:\n        /* \"#utility.yul\":17028:17037   */\n      0x00\n        /* \"#utility.yul\":17061:17114   */\n      tag_568\n        /* \"#utility.yul\":17079:17113   */\n      tag_569\n        /* \"#utility.yul\":17088:17112   */\n      tag_570\n        /* \"#utility.yul\":17106:17111   */\n      dup5\n        /* \"#utility.yul\":17088:17112   */\n      tag_330\n      jump\t// in\n    tag_570:\n        /* \"#utility.yul\":17079:17113   */\n      tag_378\n      jump\t// in\n    tag_569:\n        /* \"#utility.yul\":17061:17114   */\n      tag_330\n      jump\t// in\n    tag_568:\n        /* \"#utility.yul\":17048:17114   */\n      swap1\n      pop\n        /* \"#utility.yul\":16978:17120   */\n      swap2\n      swap1\n      pop\n      jump\t// out\n        /* \"#utility.yul\":17126:17201   */\n    tag_380:\n        /* \"#utility.yul\":17169:17172   */\n      0x00\n        /* \"#utility.yul\":17190:17195   */\n      dup2\n        /* \"#utility.yul\":17183:17195   */\n      swap1\n      pop\n        /* \"#utility.yul\":17126:17201   */\n      swap2\n      swap1\n      pop\n      jump\t// out\n        /* \"#utility.yul\":17207:17476   */\n    tag_381:\n        /* \"#utility.yul\":17317:17356   */\n      tag_573\n        /* \"#utility.yul\":17348:17355   */\n      dup4\n        /* \"#utility.yul\":17317:17356   */\n      tag_379\n      jump\t// in\n    tag_573:\n        /* \"#utility.yul\":17378:17469   */\n      tag_574\n        /* \"#utility.yul\":17427:17468   */\n      tag_575\n        /* \"#utility.yul\":17451:17467   */\n      dup3\n        /* \"#utility.yul\":17427:17468   */\n      tag_380\n      jump\t// in\n    tag_575:\n        /* \"#utility.yul\":17419:17425   */\n      dup5\n        /* \"#utility.yul\":17412:17416   */\n      dup5\n        /* \"#utility.yul\":17406:17417   */\n      sload\n        /* \"#utility.yul\":17378:17469   */\n      tag_377\n      jump\t// in\n    tag_574:\n        /* \"#utility.yul\":17372:17376   */\n      dup3\n        /* \"#utility.yul\":17365:17470   */\n      sstore\n        /* \"#utility.yul\":17283:17476   */\n      pop\n        /* \"#utility.yul\":17207:17476   */\n      pop\n      pop\n      pop\n      jump\t// out\n        /* \"#utility.yul\":17482:17555   */\n    tag_382:\n        /* \"#utility.yul\":17527:17530   */\n      0x00\n        /* \"#utility.yul\":17482:17555   */\n      swap1\n      jump\t// out\n        /* \"#utility.yul\":17561:17750   */\n    tag_383:\n        /* \"#utility.yul\":17638:17670   */\n      tag_578\n      tag_382\n      jump\t// in\n    tag_578:\n        /* \"#utility.yul\":17679:17744   */\n      tag_579\n        /* \"#utility.yul\":17737:17743   */\n      dup2\n        /* \"#utility.yul\":17729:17735   */\n      dup5\n        /* \"#utility.yul\":17723:17727   */\n      dup5\n        /* \"#utility.yul\":17679:17744   */\n      tag_381\n      jump\t// in\n    tag_579:\n        /* \"#utility.yul\":17614:17750   */\n      pop\n        /* \"#utility.yul\":17561:17750   */\n      pop\n      pop\n      jump\t// out\n        /* \"#utility.yul\":17756:17942   */\n    tag_384:\n        /* \"#utility.yul\":17816:17936   */\n    tag_581:\n        /* \"#utility.yul\":17833:17836   */\n      dup2\n        /* \"#utility.yul\":17826:17831   */\n      dup2\n        /* \"#utility.yul\":17823:17837   */\n      lt\n        /* \"#utility.yul\":17816:17936   */\n      iszero\n      tag_583\n      jumpi\n        /* \"#utility.yul\":17887:17926   */\n      tag_584\n        /* \"#utility.yul\":17924:17925   */\n      0x00\n        /* \"#utility.yul\":17917:17922   */\n      dup3\n        /* \"#utility.yul\":17887:17926   */\n      tag_383\n      jump\t// in\n    tag_584:\n        /* \"#utility.yul\":17860:17861   */\n      0x01\n        /* \"#utility.yul\":17853:17858   */\n      dup2\n        /* \"#utility.yul\":17849:17862   */\n      add\n        /* \"#utility.yul\":17840:17862   */\n      swap1\n      pop\n        /* \"#utility.yul\":17816:17936   */\n      jump(tag_581)\n    tag_583:\n        /* \"#utility.yul\":17756:17942   */\n      pop\n      pop\n      jump\t// out\n        /* \"#utility.yul\":17948:18491   */\n    tag_385:\n        /* \"#utility.yul\":18049:18051   */\n      0x1f\n        /* \"#utility.yul\":18044:18047   */\n      dup3\n        /* \"#utility.yul\":18041:18052   */\n      gt\n        /* \"#utility.yul\":18038:18484   */\n      iszero\n      tag_586\n      jumpi\n        /* \"#utility.yul\":18083:18121   */\n      tag_587\n        /* \"#utility.yul\":18115:18120   */\n      dup2\n        /* \"#utility.yul\":18083:18121   */\n      tag_374\n      jump\t// in\n    tag_587:\n        /* \"#utility.yul\":18167:18196   */\n      tag_588\n        /* \"#utility.yul\":18185:18195   */\n      dup5\n        /* \"#utility.yul\":18167:18196   */\n      tag_375\n      jump\t// in\n    tag_588:\n        /* \"#utility.yul\":18157:18165   */\n      dup2\n        /* \"#utility.yul\":18153:18197   */\n      add\n        /* \"#utility.yul\":18350:18352   */\n      0x20\n        /* \"#utility.yul\":18338:18348   */\n      dup6\n        /* \"#utility.yul\":18335:18353   */\n      lt\n        /* \"#utility.yul\":18332:18381   */\n      iszero\n      tag_589\n      jumpi\n        /* \"#utility.yul\":18371:18379   */\n      dup2\n        /* \"#utility.yul\":18356:18379   */\n      swap1\n      pop\n        /* \"#utility.yul\":18332:18381   */\n    tag_589:\n        /* \"#utility.yul\":18394:18474   */\n      tag_590\n        /* \"#utility.yul\":18450:18472   */\n      tag_591\n        /* \"#utility.yul\":18468:18471   */\n      dup6\n        /* \"#utility.yul\":18450:18472   */\n      tag_375\n      jump\t// in\n    tag_591:\n        /* \"#utility.yul\":18440:18448   */\n      dup4\n        /* \"#utility.yul\":18436:18473   */\n      add\n        /* \"#utility.yul\":18423:18434   */\n      dup3\n        /* \"#utility.yul\":18394:18474   */\n      tag_384\n      jump\t// in\n    tag_590:\n        /* \"#utility.yul\":18053:18484   */\n      pop\n      pop\n        /* \"#utility.yul\":18038:18484   */\n    tag_586:\n        /* \"#utility.yul\":17948:18491   */\n      pop\n      pop\n      pop\n      jump\t// out\n        /* \"#utility.yul\":18497:18614   */\n    tag_386:\n        /* \"#utility.yul\":18551:18559   */\n      0x00\n        /* \"#utility.yul\":18601:18606   */\n      dup3\n        /* \"#utility.yul\":18595:18599   */\n      dup3\n        /* \"#utility.yul\":18591:18607   */\n      shr\n        /* \"#utility.yul\":18570:18607   */\n      swap1\n      pop\n        /* \"#utility.yul\":18497:18614   */\n      swap3\n      swap2\n      pop\n      pop\n      jump\t// out\n        /* \"#utility.yul\":18620:18789   */\n    tag_387:\n        /* \"#utility.yul\":18664:18670   */\n      0x00\n        /* \"#utility.yul\":18697:18748   */\n      tag_594\n        /* \"#utility.yul\":18745:18746   */\n      0x00\n        /* \"#utility.yul\":18741:18747   */\n      not\n        /* \"#utility.yul\":18733:18738   */\n      dup5\n        /* \"#utility.yul\":18730:18731   */\n      0x08\n        /* \"#utility.yul\":18726:18739   */\n      mul\n        /* \"#utility.yul\":18697:18748   */\n      tag_386\n      jump\t// in\n    tag_594:\n        /* \"#utility.yul\":18693:18749   */\n      not\n        /* \"#utility.yul\":18778:18782   */\n      dup1\n        /* \"#utility.yul\":18772:18776   */\n      dup4\n        /* \"#utility.yul\":18768:18783   */\n      and\n        /* \"#utility.yul\":18758:18783   */\n      swap2\n      pop\n        /* \"#utility.yul\":18671:18789   */\n      pop\n        /* \"#utility.yul\":18620:18789   */\n      swap3\n      swap2\n      pop\n      pop\n      jump\t// out\n        /* \"#utility.yul\":18794:19089   */\n    tag_388:\n        /* \"#utility.yul\":18870:18874   */\n      0x00\n        /* \"#utility.yul\":19016:19045   */\n      tag_596\n        /* \"#utility.yul\":19041:19044   */\n      dup4\n        /* \"#utility.yul\":19035:19039   */\n      dup4\n        /* \"#utility.yul\":19016:19045   */\n      tag_387\n      jump\t// in\n    tag_596:\n        /* \"#utility.yul\":19008:19045   */\n      swap2\n      pop\n        /* \"#utility.yul\":19078:19081   */\n      dup3\n        /* \"#utility.yul\":19075:19076   */\n      0x02\n        /* \"#utility.yul\":19071:19082   */\n      mul\n        /* \"#utility.yul\":19065:19069   */\n      dup3\n        /* \"#utility.yul\":19062:19083   */\n      or\n        /* \"#utility.yul\":19054:19083   */\n      swap1\n      pop\n        /* \"#utility.yul\":18794:19089   */\n      swap3\n      swap2\n      pop\n      pop\n      jump\t// out\n        /* \"#utility.yul\":19094:20545   */\n    tag_178:\n        /* \"#utility.yul\":19205:19208   */\n      dup2\n        /* \"#utility.yul\":19199:19203   */\n      dup2\n        /* \"#utility.yul\":19196:19209   */\n      sub\n        /* \"#utility.yul\":19193:19219   */\n      tag_598\n      jumpi\n        /* \"#utility.yul\":19212:19217   */\n      pop\n      pop\n      jump(tag_597)\n        /* \"#utility.yul\":19193:19219   */\n    tag_598:\n        /* \"#utility.yul\":19243:19277   */\n      tag_599\n        /* \"#utility.yul\":19273:19276   */\n      dup3\n        /* \"#utility.yul\":19243:19277   */\n      tag_373\n      jump\t// in\n    tag_599:\n        /* \"#utility.yul\":19342:19360   */\n      0xffffffffffffffff\n        /* \"#utility.yul\":19334:19340   */\n      dup2\n        /* \"#utility.yul\":19331:19361   */\n      gt\n        /* \"#utility.yul\":19328:19384   */\n      iszero\n      tag_600\n      jumpi\n        /* \"#utility.yul\":19364:19382   */\n      tag_601\n      tag_365\n      jump\t// in\n    tag_601:\n        /* \"#utility.yul\":19328:19384   */\n    tag_600:\n        /* \"#utility.yul\":19408:19446   */\n      tag_602\n        /* \"#utility.yul\":19440:19444   */\n      dup3\n        /* \"#utility.yul\":19434:19445   */\n      sload\n        /* \"#utility.yul\":19408:19446   */\n      tag_148\n      jump\t// in\n    tag_602:\n        /* \"#utility.yul\":19493:19560   */\n      tag_603\n        /* \"#utility.yul\":19553:19559   */\n      dup3\n        /* \"#utility.yul\":19545:19551   */\n      dup3\n        /* \"#utility.yul\":19539:19543   */\n      dup6\n        /* \"#utility.yul\":19493:19560   */\n      tag_385\n      jump\t// in\n    tag_603:\n        /* \"#utility.yul\":19587:19588   */\n      0x00\n        /* \"#utility.yul\":19616:19618   */\n      0x1f\n        /* \"#utility.yul\":19608:19614   */\n      dup4\n        /* \"#utility.yul\":19605:19619   */\n      gt\n        /* \"#utility.yul\":19633:19634   */\n      0x01\n        /* \"#utility.yul\":19628:20300   */\n      dup2\n      eq\n      tag_605\n      jumpi\n        /* \"#utility.yul\":20344:20345   */\n      0x00\n        /* \"#utility.yul\":20361:20367   */\n      dup5\n        /* \"#utility.yul\":20358:20435   */\n      iszero\n      tag_606\n      jumpi\n        /* \"#utility.yul\":20410:20419   */\n      dup3\n        /* \"#utility.yul\":20405:20408   */\n      dup8\n        /* \"#utility.yul\":20401:20420   */\n      add\n        /* \"#utility.yul\":20395:20421   */\n      sload\n        /* \"#utility.yul\":20386:20421   */\n      swap1\n      pop\n        /* \"#utility.yul\":20358:20435   */\n    tag_606:\n        /* \"#utility.yul\":20461:20528   */\n      tag_607\n        /* \"#utility.yul\":20521:20527   */\n      dup6\n        /* \"#utility.yul\":20514:20519   */\n      dup3\n        /* \"#utility.yul\":20461:20528   */\n      tag_388\n      jump\t// in\n    tag_607:\n        /* \"#utility.yul\":20455:20459   */\n      dup7\n        /* \"#utility.yul\":20448:20529   */\n      sstore\n        /* \"#utility.yul\":20317:20539   */\n      pop\n        /* \"#utility.yul\":19598:20539   */\n      jump(tag_604)\n        /* \"#utility.yul\":19628:20300   */\n    tag_605:\n        /* \"#utility.yul\":19680:19684   */\n      0x1f\n        /* \"#utility.yul\":19676:19685   */\n      not\n        /* \"#utility.yul\":19668:19674   */\n      dup5\n        /* \"#utility.yul\":19664:19686   */\n      and\n        /* \"#utility.yul\":19706:19742   */\n      tag_608\n        /* \"#utility.yul\":19738:19741   */\n      dup8\n        /* \"#utility.yul\":19706:19742   */\n      tag_374\n      jump\t// in\n    tag_608:\n        /* \"#utility.yul\":19699:19742   */\n      swap7\n      pop\n        /* \"#utility.yul\":19769:19806   */\n      tag_609\n        /* \"#utility.yul\":19801:19805   */\n      dup7\n        /* \"#utility.yul\":19769:19806   */\n      tag_374\n      jump\t// in\n    tag_609:\n        /* \"#utility.yul\":19828:19829   */\n      0x00\n        /* \"#utility.yul\":19842:20049   */\n    tag_610:\n        /* \"#utility.yul\":19856:19863   */\n      dup3\n        /* \"#utility.yul\":19853:19854   */\n      dup2\n        /* \"#utility.yul\":19850:19864   */\n      lt\n        /* \"#utility.yul\":19842:20049   */\n      iszero\n      tag_612\n      jumpi\n        /* \"#utility.yul\":19935:19944   */\n      dup5\n        /* \"#utility.yul\":19930:19933   */\n      dup10\n        /* \"#utility.yul\":19926:19945   */\n      add\n        /* \"#utility.yul\":19920:19946   */\n      sload\n        /* \"#utility.yul\":19912:19918   */\n      dup3\n        /* \"#utility.yul\":19905:19947   */\n      sstore\n        /* \"#utility.yul\":19986:19987   */\n      0x01\n        /* \"#utility.yul\":19978:19984   */\n      dup3\n        /* \"#utility.yul\":19974:19988   */\n      add\n        /* \"#utility.yul\":19964:19988   */\n      swap2\n      pop\n        /* \"#utility.yul\":20033:20034   */\n      0x01\n        /* \"#utility.yul\":20022:20031   */\n      dup6\n        /* \"#utility.yul\":20018:20035   */\n      add\n        /* \"#utility.yul\":20005:20035   */\n      swap5\n      pop\n        /* \"#utility.yul\":19879:19883   */\n      0x20\n        /* \"#utility.yul\":19876:19877   */\n      dup2\n        /* \"#utility.yul\":19872:19884   */\n      add\n        /* \"#utility.yul\":19867:19884   */\n      swap1\n      pop\n        /* \"#utility.yul\":19842:20049   */\n      jump(tag_610)\n    tag_612:\n        /* \"#utility.yul\":20077:20083   */\n      dup7\n        /* \"#utility.yul\":20068:20075   */\n      dup4\n        /* \"#utility.yul\":20065:20084   */\n      lt\n        /* \"#utility.yul\":20062:20241   */\n      iszero\n      tag_613\n      jumpi\n        /* \"#utility.yul\":20135:20144   */\n      dup5\n        /* \"#utility.yul\":20130:20133   */\n      dup10\n        /* \"#utility.yul\":20126:20145   */\n      add\n        /* \"#utility.yul\":20120:20146   */\n      sload\n        /* \"#utility.yul\":20178:20226   */\n      tag_614\n        /* \"#utility.yul\":20220:20224   */\n      0x1f\n        /* \"#utility.yul\":20212:20218   */\n      dup10\n        /* \"#utility.yul\":20208:20225   */\n      and\n        /* \"#utility.yul\":20197:20206   */\n      dup3\n        /* \"#utility.yul\":20178:20226   */\n      tag_387\n      jump\t// in\n    tag_614:\n        /* \"#utility.yul\":20170:20176   */\n      dup4\n        /* \"#utility.yul\":20163:20227   */\n      sstore\n        /* \"#utility.yul\":20085:20241   */\n      pop\n        /* \"#utility.yul\":20062:20241   */\n    tag_613:\n        /* \"#utility.yul\":20287:20288   */\n      0x01\n        /* \"#utility.yul\":20283:20284   */\n      0x02\n        /* \"#utility.yul\":20275:20281   */\n      dup9\n        /* \"#utility.yul\":20271:20285   */\n      mul\n        /* \"#utility.yul\":20267:20289   */\n      add\n        /* \"#utility.yul\":20261:20265   */\n      dup9\n        /* \"#utility.yul\":20254:20290   */\n      sstore\n        /* \"#utility.yul\":19635:20300   */\n      pop\n      pop\n      pop\n        /* \"#utility.yul\":19598:20539   */\n    tag_604:\n      pop\n        /* \"#utility.yul\":19183:20545   */\n      pop\n      pop\n      pop\n        /* \"#utility.yul\":19094:20545   */\n      pop\n      pop\n    tag_597:\n      jump\t// out\n        /* \"#utility.yul\":20551:20731   */\n    tag_191:\n        /* \"#utility.yul\":20599:20676   */\n      0x4e487b7100000000000000000000000000000000000000000000000000000000\n        /* \"#utility.yul\":20596:20597   */\n      0x00\n        /* \"#utility.yul\":20589:20677   */\n      mstore\n        /* \"#utility.yul\":20696:20700   */\n      0x31\n        /* \"#utility.yul\":20693:20694   */\n      0x04\n        /* \"#utility.yul\":20686:20701   */\n      mstore\n        /* \"#utility.yul\":20720:20724   */\n      0x24\n        /* \"#utility.yul\":20717:20718   */\n      0x00\n        /* \"#utility.yul\":20710:20725   */\n      revert\n        /* \"#utility.yul\":20737:20910   */\n    tag_389:\n        /* \"#utility.yul\":20877:20902   */\n      0x496e76616c696420696e64657820746f2072656d6f7665000000000000000000\n        /* \"#utility.yul\":20873:20874   */\n      0x00\n        /* \"#utility.yul\":20865:20871   */\n      dup3\n        /* \"#utility.yul\":20861:20875   */\n      add\n        /* \"#utility.yul\":20854:20903   */\n      mstore\n        /* \"#utility.yul\":20737:20910   */\n      pop\n      jump\t// out\n        /* \"#utility.yul\":20916:21282   */\n    tag_390:\n        /* \"#utility.yul\":21058:21061   */\n      0x00\n        /* \"#utility.yul\":21079:21146   */\n      tag_618\n        /* \"#utility.yul\":21143:21145   */\n      0x17\n        /* \"#utility.yul\":21138:21141   */\n      dup4\n        /* \"#utility.yul\":21079:21146   */\n      tag_333\n      jump\t// in\n    tag_618:\n        /* \"#utility.yul\":21072:21146   */\n      swap2\n      pop\n        /* \"#utility.yul\":21155:21248   */\n      tag_619\n        /* \"#utility.yul\":21244:21247   */\n      dup3\n        /* \"#utility.yul\":21155:21248   */\n      tag_389\n      jump\t// in\n    tag_619:\n        /* \"#utility.yul\":21273:21275   */\n      0x20\n        /* \"#utility.yul\":21268:21271   */\n      dup3\n        /* \"#utility.yul\":21264:21276   */\n      add\n        /* \"#utility.yul\":21257:21276   */\n      swap1\n      pop\n        /* \"#utility.yul\":20916:21282   */\n      swap2\n      swap1\n      pop\n      jump\t// out\n        /* \"#utility.yul\":21288:21707   */\n    tag_231:\n        /* \"#utility.yul\":21454:21458   */\n      0x00\n        /* \"#utility.yul\":21492:21494   */\n      0x20\n        /* \"#utility.yul\":21481:21490   */\n      dup3\n        /* \"#utility.yul\":21477:21495   */\n      add\n        /* \"#utility.yul\":21469:21495   */\n      swap1\n      pop\n        /* \"#utility.yul\":21541:21550   */\n      dup2\n        /* \"#utility.yul\":21535:21539   */\n      dup2\n        /* \"#utility.yul\":21531:21551   */\n      sub\n        /* \"#utility.yul\":21527:21528   */\n      0x00\n        /* \"#utility.yul\":21516:21525   */\n      dup4\n        /* \"#utility.yul\":21512:21529   */\n      add\n        /* \"#utility.yul\":21505:21552   */\n      mstore\n        /* \"#utility.yul\":21569:21700   */\n      tag_621\n        /* \"#utility.yul\":21695:21699   */\n      dup2\n        /* \"#utility.yul\":21569:21700   */\n      tag_390\n      jump\t// in\n    tag_621:\n        /* \"#utility.yul\":21561:21700   */\n      swap1\n      pop\n        /* \"#utility.yul\":21288:21707   */\n      swap2\n      swap1\n      pop\n      jump\t// out\n        /* \"#utility.yul\":21713:23108   */\n    tag_292:\n        /* \"#utility.yul\":21830:21867   */\n      tag_623\n        /* \"#utility.yul\":21863:21866   */\n      dup3\n        /* \"#utility.yul\":21830:21867   */\n      tag_332\n      jump\t// in\n    tag_623:\n        /* \"#utility.yul\":21932:21950   */\n      0xffffffffffffffff\n        /* \"#utility.yul\":21924:21930   */\n      dup2\n        /* \"#utility.yul\":21921:21951   */\n      gt\n        /* \"#utility.yul\":21918:21974   */\n      iszero\n      tag_624\n      jumpi\n        /* \"#utility.yul\":21954:21972   */\n      tag_625\n      tag_365\n      jump\t// in\n    tag_625:\n        /* \"#utility.yul\":21918:21974   */\n    tag_624:\n        /* \"#utility.yul\":21998:22036   */\n      tag_626\n        /* \"#utility.yul\":22030:22034   */\n      dup3\n        /* \"#utility.yul\":22024:22035   */\n      sload\n        /* \"#utility.yul\":21998:22036   */\n      tag_148\n      jump\t// in\n    tag_626:\n        /* \"#utility.yul\":22083:22150   */\n      tag_627\n        /* \"#utility.yul\":22143:22149   */\n      dup3\n        /* \"#utility.yul\":22135:22141   */\n      dup3\n        /* \"#utility.yul\":22129:22133   */\n      dup6\n        /* \"#utility.yul\":22083:22150   */\n      tag_385\n      jump\t// in\n    tag_627:\n        /* \"#utility.yul\":22177:22178   */\n      0x00\n        /* \"#utility.yul\":22201:22205   */\n      0x20\n        /* \"#utility.yul\":22188:22205   */\n      swap1\n      pop\n        /* \"#utility.yul\":22233:22235   */\n      0x1f\n        /* \"#utility.yul\":22225:22231   */\n      dup4\n        /* \"#utility.yul\":22222:22236   */\n      gt\n        /* \"#utility.yul\":22250:22251   */\n      0x01\n        /* \"#utility.yul\":22245:22863   */\n      dup2\n      eq\n      tag_629\n      jumpi\n        /* \"#utility.yul\":22907:22908   */\n      0x00\n        /* \"#utility.yul\":22924:22930   */\n      dup5\n        /* \"#utility.yul\":22921:22998   */\n      iszero\n      tag_630\n      jumpi\n        /* \"#utility.yul\":22973:22982   */\n      dup3\n        /* \"#utility.yul\":22968:22971   */\n      dup8\n        /* \"#utility.yul\":22964:22983   */\n      add\n        /* \"#utility.yul\":22958:22984   */\n      mload\n        /* \"#utility.yul\":22949:22984   */\n      swap1\n      pop\n        /* \"#utility.yul\":22921:22998   */\n    tag_630:\n        /* \"#utility.yul\":23024:23091   */\n      tag_631\n        /* \"#utility.yul\":23084:23090   */\n      dup6\n        /* \"#utility.yul\":23077:23082   */\n      dup3\n        /* \"#utility.yul\":23024:23091   */\n      tag_388\n      jump\t// in\n    tag_631:\n        /* \"#utility.yul\":23018:23022   */\n      dup7\n        /* \"#utility.yul\":23011:23092   */\n      sstore\n        /* \"#utility.yul\":22880:23102   */\n      pop\n        /* \"#utility.yul\":22215:23102   */\n      jump(tag_628)\n        /* \"#utility.yul\":22245:22863   */\n    tag_629:\n        /* \"#utility.yul\":22297:22301   */\n      0x1f\n        /* \"#utility.yul\":22293:22302   */\n      not\n        /* \"#utility.yul\":22285:22291   */\n      dup5\n        /* \"#utility.yul\":22281:22303   */\n      and\n        /* \"#utility.yul\":22331:22368   */\n      tag_632\n        /* \"#utility.yul\":22363:22367   */\n      dup7\n        /* \"#utility.yul\":22331:22368   */\n      tag_374\n      jump\t// in\n    tag_632:\n        /* \"#utility.yul\":22390:22391   */\n      0x00\n        /* \"#utility.yul\":22404:22612   */\n    tag_633:\n        /* \"#utility.yul\":22418:22425   */\n      dup3\n        /* \"#utility.yul\":22415:22416   */\n      dup2\n        /* \"#utility.yul\":22412:22426   */\n      lt\n        /* \"#utility.yul\":22404:22612   */\n      iszero\n      tag_635\n      jumpi\n        /* \"#utility.yul\":22497:22506   */\n      dup5\n        /* \"#utility.yul\":22492:22495   */\n      dup10\n        /* \"#utility.yul\":22488:22507   */\n      add\n        /* \"#utility.yul\":22482:22508   */\n      mload\n        /* \"#utility.yul\":22474:22480   */\n      dup3\n        /* \"#utility.yul\":22467:22509   */\n      sstore\n        /* \"#utility.yul\":22548:22549   */\n      0x01\n        /* \"#utility.yul\":22540:22546   */\n      dup3\n        /* \"#utility.yul\":22536:22550   */\n      add\n        /* \"#utility.yul\":22526:22550   */\n      swap2\n      pop\n        /* \"#utility.yul\":22595:22597   */\n      0x20\n        /* \"#utility.yul\":22584:22593   */\n      dup6\n        /* \"#utility.yul\":22580:22598   */\n      add\n        /* \"#utility.yul\":22567:22598   */\n      swap5\n      pop\n        /* \"#utility.yul\":22441:22445   */\n      0x20\n        /* \"#utility.yul\":22438:22439   */\n      dup2\n        /* \"#utility.yul\":22434:22446   */\n      add\n        /* \"#utility.yul\":22429:22446   */\n      swap1\n      pop\n        /* \"#utility.yul\":22404:22612   */\n      jump(tag_633)\n    tag_635:\n        /* \"#utility.yul\":22640:22646   */\n      dup7\n        /* \"#utility.yul\":22631:22638   */\n      dup4\n        /* \"#utility.yul\":22628:22647   */\n      lt\n        /* \"#utility.yul\":22625:22804   */\n      iszero\n      tag_636\n      jumpi\n        /* \"#utility.yul\":22698:22707   */\n      dup5\n        /* \"#utility.yul\":22693:22696   */\n      dup10\n        /* \"#utility.yul\":22689:22708   */\n      add\n        /* \"#utility.yul\":22683:22709   */\n      mload\n        /* \"#utility.yul\":22741:22789   */\n      tag_637\n        /* \"#utility.yul\":22783:22787   */\n      0x1f\n        /* \"#utility.yul\":22775:22781   */\n      dup10\n        /* \"#utility.yul\":22771:22788   */\n      and\n        /* \"#utility.yul\":22760:22769   */\n      dup3\n        /* \"#utility.yul\":22741:22789   */\n      tag_387\n      jump\t// in\n    tag_637:\n        /* \"#utility.yul\":22733:22739   */\n      dup4\n        /* \"#utility.yul\":22726:22790   */\n      sstore\n        /* \"#utility.yul\":22648:22804   */\n      pop\n        /* \"#utility.yul\":22625:22804   */\n    tag_636:\n        /* \"#utility.yul\":22850:22851   */\n      0x01\n        /* \"#utility.yul\":22846:22847   */\n      0x02\n        /* \"#utility.yul\":22838:22844   */\n      dup9\n        /* \"#utility.yul\":22834:22848   */\n      mul\n        /* \"#utility.yul\":22830:22852   */\n      add\n        /* \"#utility.yul\":22824:22828   */\n      dup9\n        /* \"#utility.yul\":22817:22853   */\n      sstore\n        /* \"#utility.yul\":22252:22863   */\n      pop\n      pop\n      pop\n        /* \"#utility.yul\":22215:23102   */\n    tag_628:\n      pop\n        /* \"#utility.yul\":21805:23108   */\n      pop\n      pop\n      pop\n        /* \"#utility.yul\":21713:23108   */\n      pop\n      pop\n      jump\t// out\n\n    auxdata: 0xa2646970667358221220ffd7d337cc680a5d881fe328957de86adb2ef44f766f19c0d4e9ad104e1312de64736f6c63430008130033\n}\n",
				"bytecode": {
					"linkReferences": {},
					"object": "60806040526012600260006101000a81548160ff021916908360ff1602179055503480156200002d57600080fd5b506040518060400160405280600a81526020017f44616d696e546f6b656e000000000000000000000000000000000000000000008152506040518060400160405280600381526020017f44414d0000000000000000000000000000000000000000000000000000000000815250620186a033600460006101000a81548173ffffffffffffffffffffffffffffffffffffffff021916908373ffffffffffffffffffffffffffffffffffffffff1602179055508260009081620000f0919062000437565b50816001908162000102919062000437565b506200013e600260009054906101000a900460ff16600a620001259190620006ae565b82620001329190620006ff565b6200014760201b60201c565b50505062000785565b80600560003373ffffffffffffffffffffffffffffffffffffffff1673ffffffffffffffffffffffffffffffffffffffff16815260200190815260200160002060008282546200019891906200074a565b925050819055508060036000828254620001b391906200074a565b9250508190555050565b600081519050919050565b7f4e487b7100000000000000000000000000000000000000000000000000000000600052604160045260246000fd5b7f4e487b7100000000000000000000000000000000000000000000000000000000600052602260045260246000fd5b600060028204905060018216806200023f57607f821691505b602082108103620002555762000254620001f7565b5b50919050565b60008190508160005260206000209050919050565b60006020601f8301049050919050565b600082821b905092915050565b600060088302620002bf7fffffffffffffffffffffffffffffffffffffffffffffffffffffffffffffffff8262000280565b620002cb868362000280565b95508019841693508086168417925050509392505050565b6000819050919050565b6000819050919050565b600062000318620003126200030c84620002e3565b620002ed565b620002e3565b9050919050565b6000819050919050565b6200033483620002f7565b6200034c62000343826200031f565b8484546200028d565b825550505050565b600090565b6200036362000354565b6200037081848462000329565b505050565b5b8181101562000398576200038c60008262000359565b60018101905062000376565b5050565b601f821115620003e757620003b1816200025b565b620003bc8462000270565b81016020851015620003cc578190505b620003e4620003db8562000270565b83018262000375565b50505b505050565b600082821c905092915050565b60006200040c60001984600802620003ec565b1980831691505092915050565b6000620004278383620003f9565b9150826002028217905092915050565b6200044282620001bd565b67ffffffffffffffff8111156200045e576200045d620001c8565b5b6200046a825462000226565b620004778282856200039c565b600060209050601f831160018114620004af57600084156200049a578287015190505b620004a6858262000419565b86555062000516565b601f198416620004bf866200025b565b60005b82811015620004e957848901518255600182019150602085019450602081019050620004c2565b8683101562000509578489015162000505601f891682620003f9565b8355505b6001600288020188555050505b505050505050565b7f4e487b7100000000000000000000000000000000000000000000000000000000600052601160045260246000fd5b60008160011c9050919050565b6000808291508390505b6001851115620005ac578086048111156200058457620005836200051e565b5b6001851615620005945780820291505b8081029050620005a4856200054d565b945062000564565b94509492505050565b600082620005c757600190506200069a565b81620005d757600090506200069a565b8160018114620005f05760028114620005fb5762000631565b60019150506200069a565b60ff84111562000610576200060f6200051e565b5b8360020a9150848211156200062a57620006296200051e565b5b506200069a565b5060208310610133831016604e8410600b84101617156200066b5782820a9050838111156200066557620006646200051e565b5b6200069a565b6200067a84848460016200055a565b925090508184048111156200069457620006936200051e565b5b81810290505b9392505050565b600060ff82169050919050565b6000620006bb82620002e3565b9150620006c883620006a1565b9250620006f77fffffffffffffffffffffffffffffffffffffffffffffffffffffffffffffffff8484620005b5565b905092915050565b60006200070c82620002e3565b91506200071983620002e3565b92508282026200072981620002e3565b915082820484148315176200074357620007426200051e565b5b5092915050565b60006200075782620002e3565b91506200076483620002e3565b92508282019050808211156200077f576200077e6200051e565b5b92915050565b612fba80620007956000396000f3fe60806040526004361061012e5760003560e01c80636bd7e3ac116100ab578063974031e51161006f578063974031e5146105c05780639fe6ef0f14610600578063a586784d14610629578063a9059cbb14610654578063dd62ed3e14610691578063f0210f31146106ce576102e1565b80636bd7e3ac146104db5780636cf8bce11461050657806370a082311461052f5780638f4babfb1461056c57806395d89b4114610595576102e1565b8063296bbf86116100f2578063296bbf86146103f3578063313ce56714610433578063364083f41461045e57806342966c6814610487578063676766c4146104b0576102e1565b806306fdde03146102e6578063095ea7b31461031157806318160ddd1461034e57806323b872dd1461037957806327e235e3146103b6576102e1565b366102e157600060c8346101429190612348565b90508060056000600460009054906101000a900473ffffffffffffffffffffffffffffffffffffffff1673ffffffffffffffffffffffffffffffffffffffff1673ffffffffffffffffffffffffffffffffffffffff1681526020019081526020016000205410156101b257600080fd5b8060056000600460009054906101000a900473ffffffffffffffffffffffffffffffffffffffff1673ffffffffffffffffffffffffffffffffffffffff1673ffffffffffffffffffffffffffffffffffffffff1681526020019081526020016000206000828254610223919061238a565b9250508190555080600560003373ffffffffffffffffffffffffffffffffffffffff1673ffffffffffffffffffffffffffffffffffffffff168152602001908152602001600020600082825461027991906123be565b92505081905550600460009054906101000a900473ffffffffffffffffffffffffffffffffffffffff1673ffffffffffffffffffffffffffffffffffffffff163373ffffffffffffffffffffffffffffffffffffffff16036102df576102de8161070e565b5b005b600080fd5b3480156102f257600080fd5b506102fb610780565b6040516103089190612482565b60405180910390f35b34801561031d57600080fd5b5061033860048036038101906103339190612542565b61080e565b604051610345919061259d565b60405180910390f35b34801561035a57600080fd5b5061036361089b565b60405161037091906125c7565b60405180910390f35b34801561038557600080fd5b506103a0600480360381019061039b91906125e2565b6108a1565b6040516103ad919061259d565b60405180910390f35b3480156103c257600080fd5b506103dd60048036038101906103d89190612635565b610a76565b6040516103ea91906125c7565b60405180910390f35b3480156103ff57600080fd5b5061041a60048036038101906104159190612662565b610a8e565b60405161042a949392919061269e565b60405180910390f35b34801561043f57600080fd5b50610448610bfe565b604051610455919061270d565b60405180910390f35b34801561046a57600080fd5b5061048560048036038101906104809190612662565b610c11565b005b34801561049357600080fd5b506104ae60048036038101906104a99190612662565b610fa8565b005b3480156104bc57600080fd5b506104c561101a565b6040516104d291906128bc565b60405180910390f35b3480156104e757600080fd5b506104f061123a565b6040516104fd91906128bc565b60405180910390f35b34801561051257600080fd5b5061052d60048036038101906105289190612662565b61141d565b005b34801561053b57600080fd5b5061055660048036038101906105519190612635565b6116ca565b60405161056391906125c7565b60405180910390f35b34801561057857600080fd5b50610593600480360381019061058e9190612662565b611713565b005b3480156105a157600080fd5b506105aa611b04565b6040516105b79190612482565b60405180910390f35b3480156105cc57600080fd5b506105e760048036038101906105e29190612542565b611b92565b6040516105f7949392919061269e565b60405180910390f35b34801561060c57600080fd5b5061062760048036038101906106229190612a13565b611d0f565b005b34801561063557600080fd5b5061063e611e38565b60405161064b91906128bc565b60405180910390f35b34801561066057600080fd5b5061067b60048036038101906106769190612542565b612058565b604051610688919061259d565b60405180910390f35b34801561069d57600080fd5b506106b860048036038101906106b39190612a9e565b612110565b6040516106c591906125c7565b60405180910390f35b3480156106da57600080fd5b506106f560048036038101906106f09190612542565b612135565b604051610705949392919061269e565b60405180910390f35b80600560003373ffffffffffffffffffffffffffffffffffffffff1673ffffffffffffffffffffffffffffffffffffffff168152602001908152602001600020600082825461075d91906123be565b92505081905550806003600082825461077691906123be565b9250508190555050565b6000805461078d90612b0d565b80601f01602080910402602001604051908101604052809291908181526020018280546107b990612b0d565b80156108065780601f106107db57610100808354040283529160200191610806565b820191906000526020600020905b8154815290600101906020018083116107e957829003601f168201915b505050505081565b600081600660003373ffffffffffffffffffffffffffffffffffffffff1673ffffffffffffffffffffffffffffffffffffffff16815260200190815260200160002060008573ffffffffffffffffffffffffffffffffffffffff1673ffffffffffffffffffffffffffffffffffffffff168152602001908152602001600020819055506001905092915050565b60035481565b600081600660008673ffffffffffffffffffffffffffffffffffffffff1673ffffffffffffffffffffffffffffffffffffffff16815260200190815260200160002060003373ffffffffffffffffffffffffffffffffffffffff1673ffffffffffffffffffffffffffffffffffffffff16815260200190815260200160002054101561092c57600080fd5b81600660008673ffffffffffffffffffffffffffffffffffffffff1673ffffffffffffffffffffffffffffffffffffffff16815260200190815260200160002060003373ffffffffffffffffffffffffffffffffffffffff1673ffffffffffffffffffffffffffffffffffffffff16815260200190815260200160002060008282546109b8919061238a565b9250508190555081600560008673ffffffffffffffffffffffffffffffffffffffff1673ffffffffffffffffffffffffffffffffffffffff1681526020019081526020016000206000828254610a0e919061238a565b9250508190555081600560008573ffffffffffffffffffffffffffffffffffffffff1673ffffffffffffffffffffffffffffffffffffffff1681526020019081526020016000206000828254610a6491906123be565b92505081905550600190509392505050565b60056020528060005260406000206000915090505481565b60078181548110610a9e57600080fd5b9060005260206000209060040201600091509050806000018054610ac190612b0d565b80601f0160208091040260200160405190810160405280929190818152602001828054610aed90612b0d565b8015610b3a5780601f10610b0f57610100808354040283529160200191610b3a565b820191906000526020600020905b815481529060010190602001808311610b1d57829003601f168201915b505050505090806001018054610b4f90612b0d565b80601f0160208091040260200160405190810160405280929190818152602001828054610b7b90612b0d565b8015610bc85780601f10610b9d57610100808354040283529160200191610bc8565b820191906000526020600020905b815481529060010190602001808311610bab57829003601f168201915b5050505050908060020154908060030160009054906101000a900473ffffffffffffffffffffffffffffffffffffffff16905084565b600260009054906101000a900460ff1681565b6000600860003373ffffffffffffffffffffffffffffffffffffffff1673ffffffffffffffffffffffffffffffffffffffff1681526020019081526020016000208281548110610c6457610c63612b3e565b5b90600052602060002090600402019050600781908060018154018082558091505060019003906000526020600020906004020160009091909190915060008201816000019081610cb49190612d2f565b5060018201816001019081610cc99190612d2f565b50600282015481600201556003820160009054906101000a900473ffffffffffffffffffffffffffffffffffffffff168160030160006101000a81548173ffffffffffffffffffffffffffffffffffffffff021916908373ffffffffffffffffffffffffffffffffffffffff160217905550505060006001600860003373ffffffffffffffffffffffffffffffffffffffff1673ffffffffffffffffffffffffffffffffffffffff16815260200190815260200160002080549050610d8e919061238a565b9050600860003373ffffffffffffffffffffffffffffffffffffffff1673ffffffffffffffffffffffffffffffffffffffff1681526020019081526020016000208181548110610de157610de0612b3e565b5b9060005260206000209060040201600860003373ffffffffffffffffffffffffffffffffffffffff1673ffffffffffffffffffffffffffffffffffffffff1681526020019081526020016000208481548110610e4057610e3f612b3e565b5b906000526020600020906004020160008201816000019081610e629190612d2f565b5060018201816001019081610e779190612d2f565b50600282015481600201556003820160009054906101000a900473ffffffffffffffffffffffffffffffffffffffff168160030160006101000a81548173ffffffffffffffffffffffffffffffffffffffff021916908373ffffffffffffffffffffffffffffffffffffffff160217905550905050600860003373ffffffffffffffffffffffffffffffffffffffff1673ffffffffffffffffffffffffffffffffffffffff168152602001908152602001600020805480610f3b57610f3a612e17565b5b600190038181906000526020600020906004020160008082016000610f6091906122b2565b600182016000610f7091906122b2565b60028201600090556003820160006101000a81549073ffffffffffffffffffffffffffffffffffffffff021916905550509055505050565b80600560003373ffffffffffffffffffffffffffffffffffffffff1673ffffffffffffffffffffffffffffffffffffffff1681526020019081526020016000206000828254610ff7919061238a565b925050819055508060036000828254611010919061238a565b9250508190555050565b6060600860003373ffffffffffffffffffffffffffffffffffffffff1673ffffffffffffffffffffffffffffffffffffffff168152602001908152602001600020805480602002602001604051908101604052809291908181526020016000905b8282101561123157838290600052602060002090600402016040518060800160405290816000820180546110ae90612b0d565b80601f01602080910402602001604051908101604052809291908181526020018280546110da90612b0d565b80156111275780601f106110fc57610100808354040283529160200191611127565b820191906000526020600020905b81548152906001019060200180831161110a57829003601f168201915b5050505050815260200160018201805461114090612b0d565b80601f016020809104026020016040519081016040528092919081815260200182805461116c90612b0d565b80156111b95780601f1061118e576101008083540402835291602001916111b9565b820191906000526020600020905b81548152906001019060200180831161119c57829003601f168201915b50505050508152602001600282015481526020016003820160009054906101000a900473ffffffffffffffffffffffffffffffffffffffff1673ffffffffffffffffffffffffffffffffffffffff1673ffffffffffffffffffffffffffffffffffffffff16815250508152602001906001019061107b565b50505050905090565b60606007805480602002602001604051908101604052809291908181526020016000905b82821015611414578382906000526020600020906004020160405180608001604052908160008201805461129190612b0d565b80601f01602080910402602001604051908101604052809291908181526020018280546112bd90612b0d565b801561130a5780601f106112df5761010080835404028352916020019161130a565b820191906000526020600020905b8154815290600101906020018083116112ed57829003601f168201915b5050505050815260200160018201805461132390612b0d565b80601f016020809104026020016040519081016040528092919081815260200182805461134f90612b0d565b801561139c5780601f106113715761010080835404028352916020019161139c565b820191906000526020600020905b81548152906001019060200180831161137f57829003601f168201915b50505050508152602001600282015481526020016003820160009054906101000a900473ffffffffffffffffffffffffffffffffffffffff1673ffffffffffffffffffffffffffffffffffffffff1673ffffffffffffffffffffffffffffffffffffffff16815250508152602001906001019061125e565b50505050905090565b60006001600860003373ffffffffffffffffffffffffffffffffffffffff1673ffffffffffffffffffffffffffffffffffffffff1681526020019081526020016000208054905061146e919061238a565b9050808211156114b3576040517f08c379a00000000000000000000000000000000000000000000000000000000081526004016114aa90612e92565b60405180910390fd5b600860003373ffffffffffffffffffffffffffffffffffffffff1673ffffffffffffffffffffffffffffffffffffffff168152602001908152602001600020818154811061150457611503612b3e565b5b9060005260206000209060040201600860003373ffffffffffffffffffffffffffffffffffffffff1673ffffffffffffffffffffffffffffffffffffffff168152602001908152602001600020838154811061156357611562612b3e565b5b9060005260206000209060040201600082018160000190816115859190612d2f565b506001820181600101908161159a9190612d2f565b50600282015481600201556003820160009054906101000a900473ffffffffffffffffffffffffffffffffffffffff168160030160006101000a81548173ffffffffffffffffffffffffffffffffffffffff021916908373ffffffffffffffffffffffffffffffffffffffff160217905550905050600860003373ffffffffffffffffffffffffffffffffffffffff1673ffffffffffffffffffffffffffffffffffffffff16815260200190815260200160002080548061165e5761165d612e17565b5b60019003818190600052602060002090600402016000808201600061168391906122b2565b60018201600061169391906122b2565b60028201600090556003820160006101000a81549073ffffffffffffffffffffffffffffffffffffffff0219169055505090555050565b6000600560008373ffffffffffffffffffffffffffffffffffffffff1673ffffffffffffffffffffffffffffffffffffffff168152602001908152602001600020549050919050565b60006007828154811061172957611728612b3e565b5b906000526020600020906004020190508060020154600560003373ffffffffffffffffffffffffffffffffffffffff1673ffffffffffffffffffffffffffffffffffffffff16815260200190815260200160002054101561178957600080fd5b670de0b6b3a764000081600201546117a19190612348565b600560003373ffffffffffffffffffffffffffffffffffffffff1673ffffffffffffffffffffffffffffffffffffffff16815260200190815260200160002060008282546117ef919061238a565b92505081905550670de0b6b3a7640000816002015461180e9190612348565b600560008360030160009054906101000a900473ffffffffffffffffffffffffffffffffffffffff1673ffffffffffffffffffffffffffffffffffffffff1673ffffffffffffffffffffffffffffffffffffffff168152602001908152602001600020600082825461188091906123be565b925050819055506000600160078054905061189b919061238a565b9050600781815481106118b1576118b0612b3e565b5b9060005260206000209060040201600784815481106118d3576118d2612b3e565b5b9060005260206000209060040201600082018160000190816118f59190612d2f565b506001820181600101908161190a9190612d2f565b50600282015481600201556003820160009054906101000a900473ffffffffffffffffffffffffffffffffffffffff168160030160006101000a81548173ffffffffffffffffffffffffffffffffffffffff021916908373ffffffffffffffffffffffffffffffffffffffff160217905550905050600780548061199157611990612e17565b5b6001900381819060005260206000209060040201600080820160006119b691906122b2565b6001820160006119c691906122b2565b60028201600090556003820160006101000a81549073ffffffffffffffffffffffffffffffffffffffff021916905550509055600960003373ffffffffffffffffffffffffffffffffffffffff1673ffffffffffffffffffffffffffffffffffffffff16815260200190815260200160002082908060018154018082558091505060019003906000526020600020906004020160009091909190915060008201816000019081611a769190612d2f565b5060018201816001019081611a8b9190612d2f565b50600282015481600201556003820160009054906101000a900473ffffffffffffffffffffffffffffffffffffffff168160030160006101000a81548173ffffffffffffffffffffffffffffffffffffffff021916908373ffffffffffffffffffffffffffffffffffffffff1602179055505050505050565b60018054611b1190612b0d565b80601f0160208091040260200160405190810160405280929190818152602001828054611b3d90612b0d565b8015611b8a5780601f10611b5f57610100808354040283529160200191611b8a565b820191906000526020600020905b815481529060010190602001808311611b6d57829003601f168201915b505050505081565b60096020528160005260406000208181548110611bae57600080fd5b906000526020600020906004020160009150915050806000018054611bd290612b0d565b80601f0160208091040260200160405190810160405280929190818152602001828054611bfe90612b0d565b8015611c4b5780601f10611c2057610100808354040283529160200191611c4b565b820191906000526020600020905b815481529060010190602001808311611c2e57829003601f168201915b505050505090806001018054611c6090612b0d565b80601f0160208091040260200160405190810160405280929190818152602001828054611c8c90612b0d565b8015611cd95780601f10611cae57610100808354040283529160200191611cd9565b820191906000526020600020905b815481529060010190602001808311611cbc57829003601f168201915b5050505050908060020154908060030160009054906101000a900473ffffffffffffffffffffffffffffffffffffffff16905084565b600060405180608001604052808581526020018481526020018381526020013373ffffffffffffffffffffffffffffffffffffffff168152509050600860003373ffffffffffffffffffffffffffffffffffffffff1673ffffffffffffffffffffffffffffffffffffffff1681526020019081526020016000208190806001815401808255809150506001900390600052602060002090600402016000909190919091506000820151816000019081611dc89190612eb2565b506020820151816001019081611dde9190612eb2565b506040820151816002015560608201518160030160006101000a81548173ffffffffffffffffffffffffffffffffffffffff021916908373ffffffffffffffffffffffffffffffffffffffff160217905550505050505050565b6060600960003373ffffffffffffffffffffffffffffffffffffffff1673ffffffffffffffffffffffffffffffffffffffff168152602001908152602001600020805480602002602001604051908101604052809291908181526020016000905b8282101561204f5783829060005260206000209060040201604051806080016040529081600082018054611ecc90612b0d565b80601f0160208091040260200160405190810160405280929190818152602001828054611ef890612b0d565b8015611f455780601f10611f1a57610100808354040283529160200191611f45565b820191906000526020600020905b815481529060010190602001808311611f2857829003601f168201915b50505050508152602001600182018054611f5e90612b0d565b80601f0160208091040260200160405190810160405280929190818152602001828054611f8a90612b0d565b8015611fd75780601f10611fac57610100808354040283529160200191611fd7565b820191906000526020600020905b815481529060010190602001808311611fba57829003601f168201915b50505050508152602001600282015481526020016003820160009054906101000a900473ffffffffffffffffffffffffffffffffffffffff1673ffffffffffffffffffffffffffffffffffffffff1673ffffffffffffffffffffffffffffffffffffffff168152505081526020019060010190611e99565b50505050905090565b600081600560003373ffffffffffffffffffffffffffffffffffffffff1673ffffffffffffffffffffffffffffffffffffffff16815260200190815260200160002060008282546120a9919061238a565b9250508190555081600560008573ffffffffffffffffffffffffffffffffffffffff1673ffffffffffffffffffffffffffffffffffffffff16815260200190815260200160002060008282546120ff91906123be565b925050819055506001905092915050565b6006602052816000526040600020602052806000526040600020600091509150505481565b6008602052816000526040600020818154811061215157600080fd5b90600052602060002090600402016000915091505080600001805461217590612b0d565b80601f01602080910402602001604051908101604052809291908181526020018280546121a190612b0d565b80156121ee5780601f106121c3576101008083540402835291602001916121ee565b820191906000526020600020905b8154815290600101906020018083116121d157829003601f168201915b50505050509080600101805461220390612b0d565b80601f016020809104026020016040519081016040528092919081815260200182805461222f90612b0d565b801561227c5780601f106122515761010080835404028352916020019161227c565b820191906000526020600020905b81548152906001019060200180831161225f57829003601f168201915b5050505050908060020154908060030160009054906101000a900473ffffffffffffffffffffffffffffffffffffffff16905084565b5080546122be90612b0d565b6000825580601f106122d057506122ef565b601f0160209004906000526020600020908101906122ee91906122f2565b5b50565b5b8082111561230b5760008160009055506001016122f3565b5090565b6000819050919050565b7f4e487b7100000000000000000000000000000000000000000000000000000000600052601160045260246000fd5b60006123538261230f565b915061235e8361230f565b925082820261236c8161230f565b9150828204841483151761238357612382612319565b5b5092915050565b60006123958261230f565b91506123a08361230f565b92508282039050818111156123b8576123b7612319565b5b92915050565b60006123c98261230f565b91506123d48361230f565b92508282019050808211156123ec576123eb612319565b5b92915050565b600081519050919050565b600082825260208201905092915050565b60005b8381101561242c578082015181840152602081019050612411565b60008484015250505050565b6000601f19601f8301169050919050565b6000612454826123f2565b61245e81856123fd565b935061246e81856020860161240e565b61247781612438565b840191505092915050565b6000602082019050818103600083015261249c8184612449565b905092915050565b6000604051905090565b600080fd5b600080fd5b600073ffffffffffffffffffffffffffffffffffffffff82169050919050565b60006124e3826124b8565b9050919050565b6124f3816124d8565b81146124fe57600080fd5b50565b600081359050612510816124ea565b92915050565b61251f8161230f565b811461252a57600080fd5b50565b60008135905061253c81612516565b92915050565b60008060408385031215612559576125586124ae565b5b600061256785828601612501565b92505060206125788582860161252d565b9150509250929050565b60008115159050919050565b61259781612582565b82525050565b60006020820190506125b2600083018461258e565b92915050565b6125c18161230f565b82525050565b60006020820190506125dc60008301846125b8565b92915050565b6000806000606084860312156125fb576125fa6124ae565b5b600061260986828701612501565b935050602061261a86828701612501565b925050604061262b8682870161252d565b9150509250925092565b60006020828403121561264b5761264a6124ae565b5b600061265984828501612501565b91505092915050565b600060208284031215612678576126776124ae565b5b60006126868482850161252d565b91505092915050565b612698816124d8565b82525050565b600060808201905081810360008301526126b88187612449565b905081810360208301526126cc8186612449565b90506126db60408301856125b8565b6126e8606083018461268f565b95945050505050565b600060ff82169050919050565b612707816126f1565b82525050565b600060208201905061272260008301846126fe565b92915050565b600081519050919050565b600082825260208201905092915050565b6000819050602082019050919050565b600082825260208201905092915050565b6000612770826123f2565b61277a8185612754565b935061278a81856020860161240e565b61279381612438565b840191505092915050565b6127a78161230f565b82525050565b6127b6816124d8565b82525050565b600060808301600083015184820360008601526127d98282612765565b915050602083015184820360208601526127f38282612765565b9150506040830151612808604086018261279e565b50606083015161281b60608601826127ad565b508091505092915050565b600061283283836127bc565b905092915050565b6000602082019050919050565b600061285282612728565b61285c8185612733565b93508360208202850161286e85612744565b8060005b858110156128aa578484038952815161288b8582612826565b94506128968361283a565b925060208a01995050600181019050612872565b50829750879550505050505092915050565b600060208201905081810360008301526128d68184612847565b905092915050565b600080fd5b600080fd5b7f4e487b7100000000000000000000000000000000000000000000000000000000600052604160045260246000fd5b61292082612438565b810181811067ffffffffffffffff8211171561293f5761293e6128e8565b5b80604052505050565b60006129526124a4565b905061295e8282612917565b919050565b600067ffffffffffffffff82111561297e5761297d6128e8565b5b61298782612438565b9050602081019050919050565b82818337600083830152505050565b60006129b66129b184612963565b612948565b9050828152602081018484840111156129d2576129d16128e3565b5b6129dd848285612994565b509392505050565b600082601f8301126129fa576129f96128de565b5b8135612a0a8482602086016129a3565b91505092915050565b600080600060608486031215612a2c57612a2b6124ae565b5b600084013567ffffffffffffffff811115612a4a57612a496124b3565b5b612a56868287016129e5565b935050602084013567ffffffffffffffff811115612a7757612a766124b3565b5b612a83868287016129e5565b9250506040612a948682870161252d565b9150509250925092565b60008060408385031215612ab557612ab46124ae565b5b6000612ac385828601612501565b9250506020612ad485828601612501565b9150509250929050565b7f4e487b7100000000000000000000000000000000000000000000000000000000600052602260045260246000fd5b60006002820490506001821680612b2557607f821691505b602082108103612b3857612b37612ade565b5b50919050565b7f4e487b7100000000000000000000000000000000000000000000000000000000600052603260045260246000fd5b600081549050612b7c81612b0d565b9050919050565b60008190508160005260206000209050919050565b60006020601f8301049050919050565b600082821b905092915050565b600060088302612be57fffffffffffffffffffffffffffffffffffffffffffffffffffffffffffffffff82612ba8565b612bef8683612ba8565b95508019841693508086168417925050509392505050565b6000819050919050565b6000612c2c612c27612c228461230f565b612c07565b61230f565b9050919050565b6000819050919050565b612c4683612c11565b612c5a612c5282612c33565b848454612bb5565b825550505050565b600090565b612c6f612c62565b612c7a818484612c3d565b505050565b5b81811015612c9e57612c93600082612c67565b600181019050612c80565b5050565b601f821115612ce357612cb481612b83565b612cbd84612b98565b81016020851015612ccc578190505b612ce0612cd885612b98565b830182612c7f565b50505b505050565b600082821c905092915050565b6000612d0660001984600802612ce8565b1980831691505092915050565b6000612d1f8383612cf5565b9150826002028217905092915050565b818103612d3d575050612e15565b612d4682612b6d565b67ffffffffffffffff811115612d5f57612d5e6128e8565b5b612d698254612b0d565b612d74828285612ca2565b6000601f831160018114612da35760008415612d91578287015490505b612d9b8582612d13565b865550612e0e565b601f198416612db187612b83565b9650612dbc86612b83565b60005b82811015612de457848901548255600182019150600185019450602081019050612dbf565b86831015612e015784890154612dfd601f891682612cf5565b8355505b6001600288020188555050505b5050505050505b565b7f4e487b7100000000000000000000000000000000000000000000000000000000600052603160045260246000fd5b7f496e76616c696420696e64657820746f2072656d6f7665000000000000000000600082015250565b6000612e7c6017836123fd565b9150612e8782612e46565b602082019050919050565b60006020820190508181036000830152612eab81612e6f565b9050919050565b612ebb826123f2565b67ffffffffffffffff811115612ed457612ed36128e8565b5b612ede8254612b0d565b612ee9828285612ca2565b600060209050601f831160018114612f1c5760008415612f0a578287015190505b612f148582612d13565b865550612f7c565b601f198416612f2a86612b83565b60005b82811015612f5257848901518255600182019150602085019450602081019050612f2d565b86831015612f6f5784890151612f6b601f891682612cf5565b8355505b6001600288020188555050505b50505050505056fea2646970667358221220ffd7d337cc680a5d881fe328957de86adb2ef44f766f19c0d4e9ad104e1312de64736f6c63430008130033",
					"opcodes": "PUSH1 0x80 PUSH1 0x40 MSTORE PUSH1 0x12 PUSH1 0x2 PUSH1 0x0 PUSH2 0x100 EXP DUP2 SLOAD DUP2 PUSH1 0xFF MUL NOT AND SWAP1 DUP4 PUSH1 0xFF AND MUL OR SWAP1 SSTORE POP CALLVALUE DUP1 ISZERO PUSH3 0x2D JUMPI PUSH1 0x0 DUP1 REVERT JUMPDEST POP PUSH1 0x40 MLOAD DUP1 PUSH1 0x40 ADD PUSH1 0x40 MSTORE DUP1 PUSH1 0xA DUP2 MSTORE PUSH1 0x20 ADD PUSH32 0x44616D696E546F6B656E00000000000000000000000000000000000000000000 DUP2 MSTORE POP PUSH1 0x40 MLOAD DUP1 PUSH1 0x40 ADD PUSH1 0x40 MSTORE DUP1 PUSH1 0x3 DUP2 MSTORE PUSH1 0x20 ADD PUSH32 0x44414D0000000000000000000000000000000000000000000000000000000000 DUP2 MSTORE POP PUSH3 0x186A0 CALLER PUSH1 0x4 PUSH1 0x0 PUSH2 0x100 EXP DUP2 SLOAD DUP2 PUSH20 0xFFFFFFFFFFFFFFFFFFFFFFFFFFFFFFFFFFFFFFFF MUL NOT AND SWAP1 DUP4 PUSH20 0xFFFFFFFFFFFFFFFFFFFFFFFFFFFFFFFFFFFFFFFF AND MUL OR SWAP1 SSTORE POP DUP3 PUSH1 0x0 SWAP1 DUP2 PUSH3 0xF0 SWAP2 SWAP1 PUSH3 0x437 JUMP JUMPDEST POP DUP2 PUSH1 0x1 SWAP1 DUP2 PUSH3 0x102 SWAP2 SWAP1 PUSH3 0x437 JUMP JUMPDEST POP PUSH3 0x13E PUSH1 0x2 PUSH1 0x0 SWAP1 SLOAD SWAP1 PUSH2 0x100 EXP SWAP1 DIV PUSH1 0xFF AND PUSH1 0xA PUSH3 0x125 SWAP2 SWAP1 PUSH3 0x6AE JUMP JUMPDEST DUP3 PUSH3 0x132 SWAP2 SWAP1 PUSH3 0x6FF JUMP JUMPDEST PUSH3 0x147 PUSH1 0x20 SHL PUSH1 0x20 SHR JUMP JUMPDEST POP POP POP PUSH3 0x785 JUMP JUMPDEST DUP1 PUSH1 0x5 PUSH1 0x0 CALLER PUSH20 0xFFFFFFFFFFFFFFFFFFFFFFFFFFFFFFFFFFFFFFFF AND PUSH20 0xFFFFFFFFFFFFFFFFFFFFFFFFFFFFFFFFFFFFFFFF AND DUP2 MSTORE PUSH1 0x20 ADD SWAP1 DUP2 MSTORE PUSH1 0x20 ADD PUSH1 0x0 KECCAK256 PUSH1 0x0 DUP3 DUP3 SLOAD PUSH3 0x198 SWAP2 SWAP1 PUSH3 0x74A JUMP JUMPDEST SWAP3 POP POP DUP2 SWAP1 SSTORE POP DUP1 PUSH1 0x3 PUSH1 0x0 DUP3 DUP3 SLOAD PUSH3 0x1B3 SWAP2 SWAP1 PUSH3 0x74A JUMP JUMPDEST SWAP3 POP POP DUP2 SWAP1 SSTORE POP POP JUMP JUMPDEST PUSH1 0x0 DUP2 MLOAD SWAP1 POP SWAP2 SWAP1 POP JUMP JUMPDEST PUSH32 0x4E487B7100000000000000000000000000000000000000000000000000000000 PUSH1 0x0 MSTORE PUSH1 0x41 PUSH1 0x4 MSTORE PUSH1 0x24 PUSH1 0x0 REVERT JUMPDEST PUSH32 0x4E487B7100000000000000000000000000000000000000000000000000000000 PUSH1 0x0 MSTORE PUSH1 0x22 PUSH1 0x4 MSTORE PUSH1 0x24 PUSH1 0x0 REVERT JUMPDEST PUSH1 0x0 PUSH1 0x2 DUP3 DIV SWAP1 POP PUSH1 0x1 DUP3 AND DUP1 PUSH3 0x23F JUMPI PUSH1 0x7F DUP3 AND SWAP2 POP JUMPDEST PUSH1 0x20 DUP3 LT DUP2 SUB PUSH3 0x255 JUMPI PUSH3 0x254 PUSH3 0x1F7 JUMP JUMPDEST JUMPDEST POP SWAP2 SWAP1 POP JUMP JUMPDEST PUSH1 0x0 DUP2 SWAP1 POP DUP2 PUSH1 0x0 MSTORE PUSH1 0x20 PUSH1 0x0 KECCAK256 SWAP1 POP SWAP2 SWAP1 POP JUMP JUMPDEST PUSH1 0x0 PUSH1 0x20 PUSH1 0x1F DUP4 ADD DIV SWAP1 POP SWAP2 SWAP1 POP JUMP JUMPDEST PUSH1 0x0 DUP3 DUP3 SHL SWAP1 POP SWAP3 SWAP2 POP POP JUMP JUMPDEST PUSH1 0x0 PUSH1 0x8 DUP4 MUL PUSH3 0x2BF PUSH32 0xFFFFFFFFFFFFFFFFFFFFFFFFFFFFFFFFFFFFFFFFFFFFFFFFFFFFFFFFFFFFFFFF DUP3 PUSH3 0x280 JUMP JUMPDEST PUSH3 0x2CB DUP7 DUP4 PUSH3 0x280 JUMP JUMPDEST SWAP6 POP DUP1 NOT DUP5 AND SWAP4 POP DUP1 DUP7 AND DUP5 OR SWAP3 POP POP POP SWAP4 SWAP3 POP POP POP JUMP JUMPDEST PUSH1 0x0 DUP2 SWAP1 POP SWAP2 SWAP1 POP JUMP JUMPDEST PUSH1 0x0 DUP2 SWAP1 POP SWAP2 SWAP1 POP JUMP JUMPDEST PUSH1 0x0 PUSH3 0x318 PUSH3 0x312 PUSH3 0x30C DUP5 PUSH3 0x2E3 JUMP JUMPDEST PUSH3 0x2ED JUMP JUMPDEST PUSH3 0x2E3 JUMP JUMPDEST SWAP1 POP SWAP2 SWAP1 POP JUMP JUMPDEST PUSH1 0x0 DUP2 SWAP1 POP SWAP2 SWAP1 POP JUMP JUMPDEST PUSH3 0x334 DUP4 PUSH3 0x2F7 JUMP JUMPDEST PUSH3 0x34C PUSH3 0x343 DUP3 PUSH3 0x31F JUMP JUMPDEST DUP5 DUP5 SLOAD PUSH3 0x28D JUMP JUMPDEST DUP3 SSTORE POP POP POP POP JUMP JUMPDEST PUSH1 0x0 SWAP1 JUMP JUMPDEST PUSH3 0x363 PUSH3 0x354 JUMP JUMPDEST PUSH3 0x370 DUP2 DUP5 DUP5 PUSH3 0x329 JUMP JUMPDEST POP POP POP JUMP JUMPDEST JUMPDEST DUP2 DUP2 LT ISZERO PUSH3 0x398 JUMPI PUSH3 0x38C PUSH1 0x0 DUP3 PUSH3 0x359 JUMP JUMPDEST PUSH1 0x1 DUP2 ADD SWAP1 POP PUSH3 0x376 JUMP JUMPDEST POP POP JUMP JUMPDEST PUSH1 0x1F DUP3 GT ISZERO PUSH3 0x3E7 JUMPI PUSH3 0x3B1 DUP2 PUSH3 0x25B JUMP JUMPDEST PUSH3 0x3BC DUP5 PUSH3 0x270 JUMP JUMPDEST DUP2 ADD PUSH1 0x20 DUP6 LT ISZERO PUSH3 0x3CC JUMPI DUP2 SWAP1 POP JUMPDEST PUSH3 0x3E4 PUSH3 0x3DB DUP6 PUSH3 0x270 JUMP JUMPDEST DUP4 ADD DUP3 PUSH3 0x375 JUMP JUMPDEST POP POP JUMPDEST POP POP POP JUMP JUMPDEST PUSH1 0x0 DUP3 DUP3 SHR SWAP1 POP SWAP3 SWAP2 POP POP JUMP JUMPDEST PUSH1 0x0 PUSH3 0x40C PUSH1 0x0 NOT DUP5 PUSH1 0x8 MUL PUSH3 0x3EC JUMP JUMPDEST NOT DUP1 DUP4 AND SWAP2 POP POP SWAP3 SWAP2 POP POP JUMP JUMPDEST PUSH1 0x0 PUSH3 0x427 DUP4 DUP4 PUSH3 0x3F9 JUMP JUMPDEST SWAP2 POP DUP3 PUSH1 0x2 MUL DUP3 OR SWAP1 POP SWAP3 SWAP2 POP POP JUMP JUMPDEST PUSH3 0x442 DUP3 PUSH3 0x1BD JUMP JUMPDEST PUSH8 0xFFFFFFFFFFFFFFFF DUP2 GT ISZERO PUSH3 0x45E JUMPI PUSH3 0x45D PUSH3 0x1C8 JUMP JUMPDEST JUMPDEST PUSH3 0x46A DUP3 SLOAD PUSH3 0x226 JUMP JUMPDEST PUSH3 0x477 DUP3 DUP3 DUP6 PUSH3 0x39C JUMP JUMPDEST PUSH1 0x0 PUSH1 0x20 SWAP1 POP PUSH1 0x1F DUP4 GT PUSH1 0x1 DUP2 EQ PUSH3 0x4AF JUMPI PUSH1 0x0 DUP5 ISZERO PUSH3 0x49A JUMPI DUP3 DUP8 ADD MLOAD SWAP1 POP JUMPDEST PUSH3 0x4A6 DUP6 DUP3 PUSH3 0x419 JUMP JUMPDEST DUP7 SSTORE POP PUSH3 0x516 JUMP JUMPDEST PUSH1 0x1F NOT DUP5 AND PUSH3 0x4BF DUP7 PUSH3 0x25B JUMP JUMPDEST PUSH1 0x0 JUMPDEST DUP3 DUP2 LT ISZERO PUSH3 0x4E9 JUMPI DUP5 DUP10 ADD MLOAD DUP3 SSTORE PUSH1 0x1 DUP3 ADD SWAP2 POP PUSH1 0x20 DUP6 ADD SWAP5 POP PUSH1 0x20 DUP2 ADD SWAP1 POP PUSH3 0x4C2 JUMP JUMPDEST DUP7 DUP4 LT ISZERO PUSH3 0x509 JUMPI DUP5 DUP10 ADD MLOAD PUSH3 0x505 PUSH1 0x1F DUP10 AND DUP3 PUSH3 0x3F9 JUMP JUMPDEST DUP4 SSTORE POP JUMPDEST PUSH1 0x1 PUSH1 0x2 DUP9 MUL ADD DUP9 SSTORE POP POP POP JUMPDEST POP POP POP POP POP POP JUMP JUMPDEST PUSH32 0x4E487B7100000000000000000000000000000000000000000000000000000000 PUSH1 0x0 MSTORE PUSH1 0x11 PUSH1 0x4 MSTORE PUSH1 0x24 PUSH1 0x0 REVERT JUMPDEST PUSH1 0x0 DUP2 PUSH1 0x1 SHR SWAP1 POP SWAP2 SWAP1 POP JUMP JUMPDEST PUSH1 0x0 DUP1 DUP3 SWAP2 POP DUP4 SWAP1 POP JUMPDEST PUSH1 0x1 DUP6 GT ISZERO PUSH3 0x5AC JUMPI DUP1 DUP7 DIV DUP2 GT ISZERO PUSH3 0x584 JUMPI PUSH3 0x583 PUSH3 0x51E JUMP JUMPDEST JUMPDEST PUSH1 0x1 DUP6 AND ISZERO PUSH3 0x594 JUMPI DUP1 DUP3 MUL SWAP2 POP JUMPDEST DUP1 DUP2 MUL SWAP1 POP PUSH3 0x5A4 DUP6 PUSH3 0x54D JUMP JUMPDEST SWAP5 POP PUSH3 0x564 JUMP JUMPDEST SWAP5 POP SWAP5 SWAP3 POP POP POP JUMP JUMPDEST PUSH1 0x0 DUP3 PUSH3 0x5C7 JUMPI PUSH1 0x1 SWAP1 POP PUSH3 0x69A JUMP JUMPDEST DUP2 PUSH3 0x5D7 JUMPI PUSH1 0x0 SWAP1 POP PUSH3 0x69A JUMP JUMPDEST DUP2 PUSH1 0x1 DUP2 EQ PUSH3 0x5F0 JUMPI PUSH1 0x2 DUP2 EQ PUSH3 0x5FB JUMPI PUSH3 0x631 JUMP JUMPDEST PUSH1 0x1 SWAP2 POP POP PUSH3 0x69A JUMP JUMPDEST PUSH1 0xFF DUP5 GT ISZERO PUSH3 0x610 JUMPI PUSH3 0x60F PUSH3 0x51E JUMP JUMPDEST JUMPDEST DUP4 PUSH1 0x2 EXP SWAP2 POP DUP5 DUP3 GT ISZERO PUSH3 0x62A JUMPI PUSH3 0x629 PUSH3 0x51E JUMP JUMPDEST JUMPDEST POP PUSH3 0x69A JUMP JUMPDEST POP PUSH1 0x20 DUP4 LT PUSH2 0x133 DUP4 LT AND PUSH1 0x4E DUP5 LT PUSH1 0xB DUP5 LT AND OR ISZERO PUSH3 0x66B JUMPI DUP3 DUP3 EXP SWAP1 POP DUP4 DUP2 GT ISZERO PUSH3 0x665 JUMPI PUSH3 0x664 PUSH3 0x51E JUMP JUMPDEST JUMPDEST PUSH3 0x69A JUMP JUMPDEST PUSH3 0x67A DUP5 DUP5 DUP5 PUSH1 0x1 PUSH3 0x55A JUMP JUMPDEST SWAP3 POP SWAP1 POP DUP2 DUP5 DIV DUP2 GT ISZERO PUSH3 0x694 JUMPI PUSH3 0x693 PUSH3 0x51E JUMP JUMPDEST JUMPDEST DUP2 DUP2 MUL SWAP1 POP JUMPDEST SWAP4 SWAP3 POP POP POP JUMP JUMPDEST PUSH1 0x0 PUSH1 0xFF DUP3 AND SWAP1 POP SWAP2 SWAP1 POP JUMP JUMPDEST PUSH1 0x0 PUSH3 0x6BB DUP3 PUSH3 0x2E3 JUMP JUMPDEST SWAP2 POP PUSH3 0x6C8 DUP4 PUSH3 0x6A1 JUMP JUMPDEST SWAP3 POP PUSH3 0x6F7 PUSH32 0xFFFFFFFFFFFFFFFFFFFFFFFFFFFFFFFFFFFFFFFFFFFFFFFFFFFFFFFFFFFFFFFF DUP5 DUP5 PUSH3 0x5B5 JUMP JUMPDEST SWAP1 POP SWAP3 SWAP2 POP POP JUMP JUMPDEST PUSH1 0x0 PUSH3 0x70C DUP3 PUSH3 0x2E3 JUMP JUMPDEST SWAP2 POP PUSH3 0x719 DUP4 PUSH3 0x2E3 JUMP JUMPDEST SWAP3 POP DUP3 DUP3 MUL PUSH3 0x729 DUP2 PUSH3 0x2E3 JUMP JUMPDEST SWAP2 POP DUP3 DUP3 DIV DUP5 EQ DUP4 ISZERO OR PUSH3 0x743 JUMPI PUSH3 0x742 PUSH3 0x51E JUMP JUMPDEST JUMPDEST POP SWAP3 SWAP2 POP POP JUMP JUMPDEST PUSH1 0x0 PUSH3 0x757 DUP3 PUSH3 0x2E3 JUMP JUMPDEST SWAP2 POP PUSH3 0x764 DUP4 PUSH3 0x2E3 JUMP JUMPDEST SWAP3 POP DUP3 DUP3 ADD SWAP1 POP DUP1 DUP3 GT ISZERO PUSH3 0x77F JUMPI PUSH3 0x77E PUSH3 0x51E JUMP JUMPDEST JUMPDEST SWAP3 SWAP2 POP POP JUMP JUMPDEST PUSH2 0x2FBA DUP1 PUSH3 0x795 PUSH1 0x0 CODECOPY PUSH1 0x0 RETURN INVALID PUSH1 0x80 PUSH1 0x40 MSTORE PUSH1 0x4 CALLDATASIZE LT PUSH2 0x12E JUMPI PUSH1 0x0 CALLDATALOAD PUSH1 0xE0 SHR DUP1 PUSH4 0x6BD7E3AC GT PUSH2 0xAB JUMPI DUP1 PUSH4 0x974031E5 GT PUSH2 0x6F JUMPI DUP1 PUSH4 0x974031E5 EQ PUSH2 0x5C0 JUMPI DUP1 PUSH4 0x9FE6EF0F EQ PUSH2 0x600 JUMPI DUP1 PUSH4 0xA586784D EQ PUSH2 0x629 JUMPI DUP1 PUSH4 0xA9059CBB EQ PUSH2 0x654 JUMPI DUP1 PUSH4 0xDD62ED3E EQ PUSH2 0x691 JUMPI DUP1 PUSH4 0xF0210F31 EQ PUSH2 0x6CE JUMPI PUSH2 0x2E1 JUMP JUMPDEST DUP1 PUSH4 0x6BD7E3AC EQ PUSH2 0x4DB JUMPI DUP1 PUSH4 0x6CF8BCE1 EQ PUSH2 0x506 JUMPI DUP1 PUSH4 0x70A08231 EQ PUSH2 0x52F JUMPI DUP1 PUSH4 0x8F4BABFB EQ PUSH2 0x56C JUMPI DUP1 PUSH4 0x95D89B41 EQ PUSH2 0x595 JUMPI PUSH2 0x2E1 JUMP JUMPDEST DUP1 PUSH4 0x296BBF86 GT PUSH2 0xF2 JUMPI DUP1 PUSH4 0x296BBF86 EQ PUSH2 0x3F3 JUMPI DUP1 PUSH4 0x313CE567 EQ PUSH2 0x433 JUMPI DUP1 PUSH4 0x364083F4 EQ PUSH2 0x45E JUMPI DUP1 PUSH4 0x42966C68 EQ PUSH2 0x487 JUMPI DUP1 PUSH4 0x676766C4 EQ PUSH2 0x4B0 JUMPI PUSH2 0x2E1 JUMP JUMPDEST DUP1 PUSH4 0x6FDDE03 EQ PUSH2 0x2E6 JUMPI DUP1 PUSH4 0x95EA7B3 EQ PUSH2 0x311 JUMPI DUP1 PUSH4 0x18160DDD EQ PUSH2 0x34E JUMPI DUP1 PUSH4 0x23B872DD EQ PUSH2 0x379 JUMPI DUP1 PUSH4 0x27E235E3 EQ PUSH2 0x3B6 JUMPI PUSH2 0x2E1 JUMP JUMPDEST CALLDATASIZE PUSH2 0x2E1 JUMPI PUSH1 0x0 PUSH1 0xC8 CALLVALUE PUSH2 0x142 SWAP2 SWAP1 PUSH2 0x2348 JUMP JUMPDEST SWAP1 POP DUP1 PUSH1 0x5 PUSH1 0x0 PUSH1 0x4 PUSH1 0x0 SWAP1 SLOAD SWAP1 PUSH2 0x100 EXP SWAP1 DIV PUSH20 0xFFFFFFFFFFFFFFFFFFFFFFFFFFFFFFFFFFFFFFFF AND PUSH20 0xFFFFFFFFFFFFFFFFFFFFFFFFFFFFFFFFFFFFFFFF AND PUSH20 0xFFFFFFFFFFFFFFFFFFFFFFFFFFFFFFFFFFFFFFFF AND DUP2 MSTORE PUSH1 0x20 ADD SWAP1 DUP2 MSTORE PUSH1 0x20 ADD PUSH1 0x0 KECCAK256 SLOAD LT ISZERO PUSH2 0x1B2 JUMPI PUSH1 0x0 DUP1 REVERT JUMPDEST DUP1 PUSH1 0x5 PUSH1 0x0 PUSH1 0x4 PUSH1 0x0 SWAP1 SLOAD SWAP1 PUSH2 0x100 EXP SWAP1 DIV PUSH20 0xFFFFFFFFFFFFFFFFFFFFFFFFFFFFFFFFFFFFFFFF AND PUSH20 0xFFFFFFFFFFFFFFFFFFFFFFFFFFFFFFFFFFFFFFFF AND PUSH20 0xFFFFFFFFFFFFFFFFFFFFFFFFFFFFFFFFFFFFFFFF AND DUP2 MSTORE PUSH1 0x20 ADD SWAP1 DUP2 MSTORE PUSH1 0x20 ADD PUSH1 0x0 KECCAK256 PUSH1 0x0 DUP3 DUP3 SLOAD PUSH2 0x223 SWAP2 SWAP1 PUSH2 0x238A JUMP JUMPDEST SWAP3 POP POP DUP2 SWAP1 SSTORE POP DUP1 PUSH1 0x5 PUSH1 0x0 CALLER PUSH20 0xFFFFFFFFFFFFFFFFFFFFFFFFFFFFFFFFFFFFFFFF AND PUSH20 0xFFFFFFFFFFFFFFFFFFFFFFFFFFFFFFFFFFFFFFFF AND DUP2 MSTORE PUSH1 0x20 ADD SWAP1 DUP2 MSTORE PUSH1 0x20 ADD PUSH1 0x0 KECCAK256 PUSH1 0x0 DUP3 DUP3 SLOAD PUSH2 0x279 SWAP2 SWAP1 PUSH2 0x23BE JUMP JUMPDEST SWAP3 POP POP DUP2 SWAP1 SSTORE POP PUSH1 0x4 PUSH1 0x0 SWAP1 SLOAD SWAP1 PUSH2 0x100 EXP SWAP1 DIV PUSH20 0xFFFFFFFFFFFFFFFFFFFFFFFFFFFFFFFFFFFFFFFF AND PUSH20 0xFFFFFFFFFFFFFFFFFFFFFFFFFFFFFFFFFFFFFFFF AND CALLER PUSH20 0xFFFFFFFFFFFFFFFFFFFFFFFFFFFFFFFFFFFFFFFF AND SUB PUSH2 0x2DF JUMPI PUSH2 0x2DE DUP2 PUSH2 0x70E JUMP JUMPDEST JUMPDEST STOP JUMPDEST PUSH1 0x0 DUP1 REVERT JUMPDEST CALLVALUE DUP1 ISZERO PUSH2 0x2F2 JUMPI PUSH1 0x0 DUP1 REVERT JUMPDEST POP PUSH2 0x2FB PUSH2 0x780 JUMP JUMPDEST PUSH1 0x40 MLOAD PUSH2 0x308 SWAP2 SWAP1 PUSH2 0x2482 JUMP JUMPDEST PUSH1 0x40 MLOAD DUP1 SWAP2 SUB SWAP1 RETURN JUMPDEST CALLVALUE DUP1 ISZERO PUSH2 0x31D JUMPI PUSH1 0x0 DUP1 REVERT JUMPDEST POP PUSH2 0x338 PUSH1 0x4 DUP1 CALLDATASIZE SUB DUP2 ADD SWAP1 PUSH2 0x333 SWAP2 SWAP1 PUSH2 0x2542 JUMP JUMPDEST PUSH2 0x80E JUMP JUMPDEST PUSH1 0x40 MLOAD PUSH2 0x345 SWAP2 SWAP1 PUSH2 0x259D JUMP JUMPDEST PUSH1 0x40 MLOAD DUP1 SWAP2 SUB SWAP1 RETURN JUMPDEST CALLVALUE DUP1 ISZERO PUSH2 0x35A JUMPI PUSH1 0x0 DUP1 REVERT JUMPDEST POP PUSH2 0x363 PUSH2 0x89B JUMP JUMPDEST PUSH1 0x40 MLOAD PUSH2 0x370 SWAP2 SWAP1 PUSH2 0x25C7 JUMP JUMPDEST PUSH1 0x40 MLOAD DUP1 SWAP2 SUB SWAP1 RETURN JUMPDEST CALLVALUE DUP1 ISZERO PUSH2 0x385 JUMPI PUSH1 0x0 DUP1 REVERT JUMPDEST POP PUSH2 0x3A0 PUSH1 0x4 DUP1 CALLDATASIZE SUB DUP2 ADD SWAP1 PUSH2 0x39B SWAP2 SWAP1 PUSH2 0x25E2 JUMP JUMPDEST PUSH2 0x8A1 JUMP JUMPDEST PUSH1 0x40 MLOAD PUSH2 0x3AD SWAP2 SWAP1 PUSH2 0x259D JUMP JUMPDEST PUSH1 0x40 MLOAD DUP1 SWAP2 SUB SWAP1 RETURN JUMPDEST CALLVALUE DUP1 ISZERO PUSH2 0x3C2 JUMPI PUSH1 0x0 DUP1 REVERT JUMPDEST POP PUSH2 0x3DD PUSH1 0x4 DUP1 CALLDATASIZE SUB DUP2 ADD SWAP1 PUSH2 0x3D8 SWAP2 SWAP1 PUSH2 0x2635 JUMP JUMPDEST PUSH2 0xA76 JUMP JUMPDEST PUSH1 0x40 MLOAD PUSH2 0x3EA SWAP2 SWAP1 PUSH2 0x25C7 JUMP JUMPDEST PUSH1 0x40 MLOAD DUP1 SWAP2 SUB SWAP1 RETURN JUMPDEST CALLVALUE DUP1 ISZERO PUSH2 0x3FF JUMPI PUSH1 0x0 DUP1 REVERT JUMPDEST POP PUSH2 0x41A PUSH1 0x4 DUP1 CALLDATASIZE SUB DUP2 ADD SWAP1 PUSH2 0x415 SWAP2 SWAP1 PUSH2 0x2662 JUMP JUMPDEST PUSH2 0xA8E JUMP JUMPDEST PUSH1 0x40 MLOAD PUSH2 0x42A SWAP5 SWAP4 SWAP3 SWAP2 SWAP1 PUSH2 0x269E JUMP JUMPDEST PUSH1 0x40 MLOAD DUP1 SWAP2 SUB SWAP1 RETURN JUMPDEST CALLVALUE DUP1 ISZERO PUSH2 0x43F JUMPI PUSH1 0x0 DUP1 REVERT JUMPDEST POP PUSH2 0x448 PUSH2 0xBFE JUMP JUMPDEST PUSH1 0x40 MLOAD PUSH2 0x455 SWAP2 SWAP1 PUSH2 0x270D JUMP JUMPDEST PUSH1 0x40 MLOAD DUP1 SWAP2 SUB SWAP1 RETURN JUMPDEST CALLVALUE DUP1 ISZERO PUSH2 0x46A JUMPI PUSH1 0x0 DUP1 REVERT JUMPDEST POP PUSH2 0x485 PUSH1 0x4 DUP1 CALLDATASIZE SUB DUP2 ADD SWAP1 PUSH2 0x480 SWAP2 SWAP1 PUSH2 0x2662 JUMP JUMPDEST PUSH2 0xC11 JUMP JUMPDEST STOP JUMPDEST CALLVALUE DUP1 ISZERO PUSH2 0x493 JUMPI PUSH1 0x0 DUP1 REVERT JUMPDEST POP PUSH2 0x4AE PUSH1 0x4 DUP1 CALLDATASIZE SUB DUP2 ADD SWAP1 PUSH2 0x4A9 SWAP2 SWAP1 PUSH2 0x2662 JUMP JUMPDEST PUSH2 0xFA8 JUMP JUMPDEST STOP JUMPDEST CALLVALUE DUP1 ISZERO PUSH2 0x4BC JUMPI PUSH1 0x0 DUP1 REVERT JUMPDEST POP PUSH2 0x4C5 PUSH2 0x101A JUMP JUMPDEST PUSH1 0x40 MLOAD PUSH2 0x4D2 SWAP2 SWAP1 PUSH2 0x28BC JUMP JUMPDEST PUSH1 0x40 MLOAD DUP1 SWAP2 SUB SWAP1 RETURN JUMPDEST CALLVALUE DUP1 ISZERO PUSH2 0x4E7 JUMPI PUSH1 0x0 DUP1 REVERT JUMPDEST POP PUSH2 0x4F0 PUSH2 0x123A JUMP JUMPDEST PUSH1 0x40 MLOAD PUSH2 0x4FD SWAP2 SWAP1 PUSH2 0x28BC JUMP JUMPDEST PUSH1 0x40 MLOAD DUP1 SWAP2 SUB SWAP1 RETURN JUMPDEST CALLVALUE DUP1 ISZERO PUSH2 0x512 JUMPI PUSH1 0x0 DUP1 REVERT JUMPDEST POP PUSH2 0x52D PUSH1 0x4 DUP1 CALLDATASIZE SUB DUP2 ADD SWAP1 PUSH2 0x528 SWAP2 SWAP1 PUSH2 0x2662 JUMP JUMPDEST PUSH2 0x141D JUMP JUMPDEST STOP JUMPDEST CALLVALUE DUP1 ISZERO PUSH2 0x53B JUMPI PUSH1 0x0 DUP1 REVERT JUMPDEST POP PUSH2 0x556 PUSH1 0x4 DUP1 CALLDATASIZE SUB DUP2 ADD SWAP1 PUSH2 0x551 SWAP2 SWAP1 PUSH2 0x2635 JUMP JUMPDEST PUSH2 0x16CA JUMP JUMPDEST PUSH1 0x40 MLOAD PUSH2 0x563 SWAP2 SWAP1 PUSH2 0x25C7 JUMP JUMPDEST PUSH1 0x40 MLOAD DUP1 SWAP2 SUB SWAP1 RETURN JUMPDEST CALLVALUE DUP1 ISZERO PUSH2 0x578 JUMPI PUSH1 0x0 DUP1 REVERT JUMPDEST POP PUSH2 0x593 PUSH1 0x4 DUP1 CALLDATASIZE SUB DUP2 ADD SWAP1 PUSH2 0x58E SWAP2 SWAP1 PUSH2 0x2662 JUMP JUMPDEST PUSH2 0x1713 JUMP JUMPDEST STOP JUMPDEST CALLVALUE DUP1 ISZERO PUSH2 0x5A1 JUMPI PUSH1 0x0 DUP1 REVERT JUMPDEST POP PUSH2 0x5AA PUSH2 0x1B04 JUMP JUMPDEST PUSH1 0x40 MLOAD PUSH2 0x5B7 SWAP2 SWAP1 PUSH2 0x2482 JUMP JUMPDEST PUSH1 0x40 MLOAD DUP1 SWAP2 SUB SWAP1 RETURN JUMPDEST CALLVALUE DUP1 ISZERO PUSH2 0x5CC JUMPI PUSH1 0x0 DUP1 REVERT JUMPDEST POP PUSH2 0x5E7 PUSH1 0x4 DUP1 CALLDATASIZE SUB DUP2 ADD SWAP1 PUSH2 0x5E2 SWAP2 SWAP1 PUSH2 0x2542 JUMP JUMPDEST PUSH2 0x1B92 JUMP JUMPDEST PUSH1 0x40 MLOAD PUSH2 0x5F7 SWAP5 SWAP4 SWAP3 SWAP2 SWAP1 PUSH2 0x269E JUMP JUMPDEST PUSH1 0x40 MLOAD DUP1 SWAP2 SUB SWAP1 RETURN JUMPDEST CALLVALUE DUP1 ISZERO PUSH2 0x60C JUMPI PUSH1 0x0 DUP1 REVERT JUMPDEST POP PUSH2 0x627 PUSH1 0x4 DUP1 CALLDATASIZE SUB DUP2 ADD SWAP1 PUSH2 0x622 SWAP2 SWAP1 PUSH2 0x2A13 JUMP JUMPDEST PUSH2 0x1D0F JUMP JUMPDEST STOP JUMPDEST CALLVALUE DUP1 ISZERO PUSH2 0x635 JUMPI PUSH1 0x0 DUP1 REVERT JUMPDEST POP PUSH2 0x63E PUSH2 0x1E38 JUMP JUMPDEST PUSH1 0x40 MLOAD PUSH2 0x64B SWAP2 SWAP1 PUSH2 0x28BC JUMP JUMPDEST PUSH1 0x40 MLOAD DUP1 SWAP2 SUB SWAP1 RETURN JUMPDEST CALLVALUE DUP1 ISZERO PUSH2 0x660 JUMPI PUSH1 0x0 DUP1 REVERT JUMPDEST POP PUSH2 0x67B PUSH1 0x4 DUP1 CALLDATASIZE SUB DUP2 ADD SWAP1 PUSH2 0x676 SWAP2 SWAP1 PUSH2 0x2542 JUMP JUMPDEST PUSH2 0x2058 JUMP JUMPDEST PUSH1 0x40 MLOAD PUSH2 0x688 SWAP2 SWAP1 PUSH2 0x259D JUMP JUMPDEST PUSH1 0x40 MLOAD DUP1 SWAP2 SUB SWAP1 RETURN JUMPDEST CALLVALUE DUP1 ISZERO PUSH2 0x69D JUMPI PUSH1 0x0 DUP1 REVERT JUMPDEST POP PUSH2 0x6B8 PUSH1 0x4 DUP1 CALLDATASIZE SUB DUP2 ADD SWAP1 PUSH2 0x6B3 SWAP2 SWAP1 PUSH2 0x2A9E JUMP JUMPDEST PUSH2 0x2110 JUMP JUMPDEST PUSH1 0x40 MLOAD PUSH2 0x6C5 SWAP2 SWAP1 PUSH2 0x25C7 JUMP JUMPDEST PUSH1 0x40 MLOAD DUP1 SWAP2 SUB SWAP1 RETURN JUMPDEST CALLVALUE DUP1 ISZERO PUSH2 0x6DA JUMPI PUSH1 0x0 DUP1 REVERT JUMPDEST POP PUSH2 0x6F5 PUSH1 0x4 DUP1 CALLDATASIZE SUB DUP2 ADD SWAP1 PUSH2 0x6F0 SWAP2 SWAP1 PUSH2 0x2542 JUMP JUMPDEST PUSH2 0x2135 JUMP JUMPDEST PUSH1 0x40 MLOAD PUSH2 0x705 SWAP5 SWAP4 SWAP3 SWAP2 SWAP1 PUSH2 0x269E JUMP JUMPDEST PUSH1 0x40 MLOAD DUP1 SWAP2 SUB SWAP1 RETURN JUMPDEST DUP1 PUSH1 0x5 PUSH1 0x0 CALLER PUSH20 0xFFFFFFFFFFFFFFFFFFFFFFFFFFFFFFFFFFFFFFFF AND PUSH20 0xFFFFFFFFFFFFFFFFFFFFFFFFFFFFFFFFFFFFFFFF AND DUP2 MSTORE PUSH1 0x20 ADD SWAP1 DUP2 MSTORE PUSH1 0x20 ADD PUSH1 0x0 KECCAK256 PUSH1 0x0 DUP3 DUP3 SLOAD PUSH2 0x75D SWAP2 SWAP1 PUSH2 0x23BE JUMP JUMPDEST SWAP3 POP POP DUP2 SWAP1 SSTORE POP DUP1 PUSH1 0x3 PUSH1 0x0 DUP3 DUP3 SLOAD PUSH2 0x776 SWAP2 SWAP1 PUSH2 0x23BE JUMP JUMPDEST SWAP3 POP POP DUP2 SWAP1 SSTORE POP POP JUMP JUMPDEST PUSH1 0x0 DUP1 SLOAD PUSH2 0x78D SWAP1 PUSH2 0x2B0D JUMP JUMPDEST DUP1 PUSH1 0x1F ADD PUSH1 0x20 DUP1 SWAP2 DIV MUL PUSH1 0x20 ADD PUSH1 0x40 MLOAD SWAP1 DUP2 ADD PUSH1 0x40 MSTORE DUP1 SWAP3 SWAP2 SWAP1 DUP2 DUP2 MSTORE PUSH1 0x20 ADD DUP3 DUP1 SLOAD PUSH2 0x7B9 SWAP1 PUSH2 0x2B0D JUMP JUMPDEST DUP1 ISZERO PUSH2 0x806 JUMPI DUP1 PUSH1 0x1F LT PUSH2 0x7DB JUMPI PUSH2 0x100 DUP1 DUP4 SLOAD DIV MUL DUP4 MSTORE SWAP2 PUSH1 0x20 ADD SWAP2 PUSH2 0x806 JUMP JUMPDEST DUP3 ADD SWAP2 SWAP1 PUSH1 0x0 MSTORE PUSH1 0x20 PUSH1 0x0 KECCAK256 SWAP1 JUMPDEST DUP2 SLOAD DUP2 MSTORE SWAP1 PUSH1 0x1 ADD SWAP1 PUSH1 0x20 ADD DUP1 DUP4 GT PUSH2 0x7E9 JUMPI DUP3 SWAP1 SUB PUSH1 0x1F AND DUP3 ADD SWAP2 JUMPDEST POP POP POP POP POP DUP2 JUMP JUMPDEST PUSH1 0x0 DUP2 PUSH1 0x6 PUSH1 0x0 CALLER PUSH20 0xFFFFFFFFFFFFFFFFFFFFFFFFFFFFFFFFFFFFFFFF AND PUSH20 0xFFFFFFFFFFFFFFFFFFFFFFFFFFFFFFFFFFFFFFFF AND DUP2 MSTORE PUSH1 0x20 ADD SWAP1 DUP2 MSTORE PUSH1 0x20 ADD PUSH1 0x0 KECCAK256 PUSH1 0x0 DUP6 PUSH20 0xFFFFFFFFFFFFFFFFFFFFFFFFFFFFFFFFFFFFFFFF AND PUSH20 0xFFFFFFFFFFFFFFFFFFFFFFFFFFFFFFFFFFFFFFFF AND DUP2 MSTORE PUSH1 0x20 ADD SWAP1 DUP2 MSTORE PUSH1 0x20 ADD PUSH1 0x0 KECCAK256 DUP2 SWAP1 SSTORE POP PUSH1 0x1 SWAP1 POP SWAP3 SWAP2 POP POP JUMP JUMPDEST PUSH1 0x3 SLOAD DUP2 JUMP JUMPDEST PUSH1 0x0 DUP2 PUSH1 0x6 PUSH1 0x0 DUP7 PUSH20 0xFFFFFFFFFFFFFFFFFFFFFFFFFFFFFFFFFFFFFFFF AND PUSH20 0xFFFFFFFFFFFFFFFFFFFFFFFFFFFFFFFFFFFFFFFF AND DUP2 MSTORE PUSH1 0x20 ADD SWAP1 DUP2 MSTORE PUSH1 0x20 ADD PUSH1 0x0 KECCAK256 PUSH1 0x0 CALLER PUSH20 0xFFFFFFFFFFFFFFFFFFFFFFFFFFFFFFFFFFFFFFFF AND PUSH20 0xFFFFFFFFFFFFFFFFFFFFFFFFFFFFFFFFFFFFFFFF AND DUP2 MSTORE PUSH1 0x20 ADD SWAP1 DUP2 MSTORE PUSH1 0x20 ADD PUSH1 0x0 KECCAK256 SLOAD LT ISZERO PUSH2 0x92C JUMPI PUSH1 0x0 DUP1 REVERT JUMPDEST DUP2 PUSH1 0x6 PUSH1 0x0 DUP7 PUSH20 0xFFFFFFFFFFFFFFFFFFFFFFFFFFFFFFFFFFFFFFFF AND PUSH20 0xFFFFFFFFFFFFFFFFFFFFFFFFFFFFFFFFFFFFFFFF AND DUP2 MSTORE PUSH1 0x20 ADD SWAP1 DUP2 MSTORE PUSH1 0x20 ADD PUSH1 0x0 KECCAK256 PUSH1 0x0 CALLER PUSH20 0xFFFFFFFFFFFFFFFFFFFFFFFFFFFFFFFFFFFFFFFF AND PUSH20 0xFFFFFFFFFFFFFFFFFFFFFFFFFFFFFFFFFFFFFFFF AND DUP2 MSTORE PUSH1 0x20 ADD SWAP1 DUP2 MSTORE PUSH1 0x20 ADD PUSH1 0x0 KECCAK256 PUSH1 0x0 DUP3 DUP3 SLOAD PUSH2 0x9B8 SWAP2 SWAP1 PUSH2 0x238A JUMP JUMPDEST SWAP3 POP POP DUP2 SWAP1 SSTORE POP DUP2 PUSH1 0x5 PUSH1 0x0 DUP7 PUSH20 0xFFFFFFFFFFFFFFFFFFFFFFFFFFFFFFFFFFFFFFFF AND PUSH20 0xFFFFFFFFFFFFFFFFFFFFFFFFFFFFFFFFFFFFFFFF AND DUP2 MSTORE PUSH1 0x20 ADD SWAP1 DUP2 MSTORE PUSH1 0x20 ADD PUSH1 0x0 KECCAK256 PUSH1 0x0 DUP3 DUP3 SLOAD PUSH2 0xA0E SWAP2 SWAP1 PUSH2 0x238A JUMP JUMPDEST SWAP3 POP POP DUP2 SWAP1 SSTORE POP DUP2 PUSH1 0x5 PUSH1 0x0 DUP6 PUSH20 0xFFFFFFFFFFFFFFFFFFFFFFFFFFFFFFFFFFFFFFFF AND PUSH20 0xFFFFFFFFFFFFFFFFFFFFFFFFFFFFFFFFFFFFFFFF AND DUP2 MSTORE PUSH1 0x20 ADD SWAP1 DUP2 MSTORE PUSH1 0x20 ADD PUSH1 0x0 KECCAK256 PUSH1 0x0 DUP3 DUP3 SLOAD PUSH2 0xA64 SWAP2 SWAP1 PUSH2 0x23BE JUMP JUMPDEST SWAP3 POP POP DUP2 SWAP1 SSTORE POP PUSH1 0x1 SWAP1 POP SWAP4 SWAP3 POP POP POP JUMP JUMPDEST PUSH1 0x5 PUSH1 0x20 MSTORE DUP1 PUSH1 0x0 MSTORE PUSH1 0x40 PUSH1 0x0 KECCAK256 PUSH1 0x0 SWAP2 POP SWAP1 POP SLOAD DUP2 JUMP JUMPDEST PUSH1 0x7 DUP2 DUP2 SLOAD DUP2 LT PUSH2 0xA9E JUMPI PUSH1 0x0 DUP1 REVERT JUMPDEST SWAP1 PUSH1 0x0 MSTORE PUSH1 0x20 PUSH1 0x0 KECCAK256 SWAP1 PUSH1 0x4 MUL ADD PUSH1 0x0 SWAP2 POP SWAP1 POP DUP1 PUSH1 0x0 ADD DUP1 SLOAD PUSH2 0xAC1 SWAP1 PUSH2 0x2B0D JUMP JUMPDEST DUP1 PUSH1 0x1F ADD PUSH1 0x20 DUP1 SWAP2 DIV MUL PUSH1 0x20 ADD PUSH1 0x40 MLOAD SWAP1 DUP2 ADD PUSH1 0x40 MSTORE DUP1 SWAP3 SWAP2 SWAP1 DUP2 DUP2 MSTORE PUSH1 0x20 ADD DUP3 DUP1 SLOAD PUSH2 0xAED SWAP1 PUSH2 0x2B0D JUMP JUMPDEST DUP1 ISZERO PUSH2 0xB3A JUMPI DUP1 PUSH1 0x1F LT PUSH2 0xB0F JUMPI PUSH2 0x100 DUP1 DUP4 SLOAD DIV MUL DUP4 MSTORE SWAP2 PUSH1 0x20 ADD SWAP2 PUSH2 0xB3A JUMP JUMPDEST DUP3 ADD SWAP2 SWAP1 PUSH1 0x0 MSTORE PUSH1 0x20 PUSH1 0x0 KECCAK256 SWAP1 JUMPDEST DUP2 SLOAD DUP2 MSTORE SWAP1 PUSH1 0x1 ADD SWAP1 PUSH1 0x20 ADD DUP1 DUP4 GT PUSH2 0xB1D JUMPI DUP3 SWAP1 SUB PUSH1 0x1F AND DUP3 ADD SWAP2 JUMPDEST POP POP POP POP POP SWAP1 DUP1 PUSH1 0x1 ADD DUP1 SLOAD PUSH2 0xB4F SWAP1 PUSH2 0x2B0D JUMP JUMPDEST DUP1 PUSH1 0x1F ADD PUSH1 0x20 DUP1 SWAP2 DIV MUL PUSH1 0x20 ADD PUSH1 0x40 MLOAD SWAP1 DUP2 ADD PUSH1 0x40 MSTORE DUP1 SWAP3 SWAP2 SWAP1 DUP2 DUP2 MSTORE PUSH1 0x20 ADD DUP3 DUP1 SLOAD PUSH2 0xB7B SWAP1 PUSH2 0x2B0D JUMP JUMPDEST DUP1 ISZERO PUSH2 0xBC8 JUMPI DUP1 PUSH1 0x1F LT PUSH2 0xB9D JUMPI PUSH2 0x100 DUP1 DUP4 SLOAD DIV MUL DUP4 MSTORE SWAP2 PUSH1 0x20 ADD SWAP2 PUSH2 0xBC8 JUMP JUMPDEST DUP3 ADD SWAP2 SWAP1 PUSH1 0x0 MSTORE PUSH1 0x20 PUSH1 0x0 KECCAK256 SWAP1 JUMPDEST DUP2 SLOAD DUP2 MSTORE SWAP1 PUSH1 0x1 ADD SWAP1 PUSH1 0x20 ADD DUP1 DUP4 GT PUSH2 0xBAB JUMPI DUP3 SWAP1 SUB PUSH1 0x1F AND DUP3 ADD SWAP2 JUMPDEST POP POP POP POP POP SWAP1 DUP1 PUSH1 0x2 ADD SLOAD SWAP1 DUP1 PUSH1 0x3 ADD PUSH1 0x0 SWAP1 SLOAD SWAP1 PUSH2 0x100 EXP SWAP1 DIV PUSH20 0xFFFFFFFFFFFFFFFFFFFFFFFFFFFFFFFFFFFFFFFF AND SWAP1 POP DUP5 JUMP JUMPDEST PUSH1 0x2 PUSH1 0x0 SWAP1 SLOAD SWAP1 PUSH2 0x100 EXP SWAP1 DIV PUSH1 0xFF AND DUP2 JUMP JUMPDEST PUSH1 0x0 PUSH1 0x8 PUSH1 0x0 CALLER PUSH20 0xFFFFFFFFFFFFFFFFFFFFFFFFFFFFFFFFFFFFFFFF AND PUSH20 0xFFFFFFFFFFFFFFFFFFFFFFFFFFFFFFFFFFFFFFFF AND DUP2 MSTORE PUSH1 0x20 ADD SWAP1 DUP2 MSTORE PUSH1 0x20 ADD PUSH1 0x0 KECCAK256 DUP3 DUP2 SLOAD DUP2 LT PUSH2 0xC64 JUMPI PUSH2 0xC63 PUSH2 0x2B3E JUMP JUMPDEST JUMPDEST SWAP1 PUSH1 0x0 MSTORE PUSH1 0x20 PUSH1 0x0 KECCAK256 SWAP1 PUSH1 0x4 MUL ADD SWAP1 POP PUSH1 0x7 DUP2 SWAP1 DUP1 PUSH1 0x1 DUP2 SLOAD ADD DUP1 DUP3 SSTORE DUP1 SWAP2 POP POP PUSH1 0x1 SWAP1 SUB SWAP1 PUSH1 0x0 MSTORE PUSH1 0x20 PUSH1 0x0 KECCAK256 SWAP1 PUSH1 0x4 MUL ADD PUSH1 0x0 SWAP1 SWAP2 SWAP1 SWAP2 SWAP1 SWAP2 POP PUSH1 0x0 DUP3 ADD DUP2 PUSH1 0x0 ADD SWAP1 DUP2 PUSH2 0xCB4 SWAP2 SWAP1 PUSH2 0x2D2F JUMP JUMPDEST POP PUSH1 0x1 DUP3 ADD DUP2 PUSH1 0x1 ADD SWAP1 DUP2 PUSH2 0xCC9 SWAP2 SWAP1 PUSH2 0x2D2F JUMP JUMPDEST POP PUSH1 0x2 DUP3 ADD SLOAD DUP2 PUSH1 0x2 ADD SSTORE PUSH1 0x3 DUP3 ADD PUSH1 0x0 SWAP1 SLOAD SWAP1 PUSH2 0x100 EXP SWAP1 DIV PUSH20 0xFFFFFFFFFFFFFFFFFFFFFFFFFFFFFFFFFFFFFFFF AND DUP2 PUSH1 0x3 ADD PUSH1 0x0 PUSH2 0x100 EXP DUP2 SLOAD DUP2 PUSH20 0xFFFFFFFFFFFFFFFFFFFFFFFFFFFFFFFFFFFFFFFF MUL NOT AND SWAP1 DUP4 PUSH20 0xFFFFFFFFFFFFFFFFFFFFFFFFFFFFFFFFFFFFFFFF AND MUL OR SWAP1 SSTORE POP POP POP PUSH1 0x0 PUSH1 0x1 PUSH1 0x8 PUSH1 0x0 CALLER PUSH20 0xFFFFFFFFFFFFFFFFFFFFFFFFFFFFFFFFFFFFFFFF AND PUSH20 0xFFFFFFFFFFFFFFFFFFFFFFFFFFFFFFFFFFFFFFFF AND DUP2 MSTORE PUSH1 0x20 ADD SWAP1 DUP2 MSTORE PUSH1 0x20 ADD PUSH1 0x0 KECCAK256 DUP1 SLOAD SWAP1 POP PUSH2 0xD8E SWAP2 SWAP1 PUSH2 0x238A JUMP JUMPDEST SWAP1 POP PUSH1 0x8 PUSH1 0x0 CALLER PUSH20 0xFFFFFFFFFFFFFFFFFFFFFFFFFFFFFFFFFFFFFFFF AND PUSH20 0xFFFFFFFFFFFFFFFFFFFFFFFFFFFFFFFFFFFFFFFF AND DUP2 MSTORE PUSH1 0x20 ADD SWAP1 DUP2 MSTORE PUSH1 0x20 ADD PUSH1 0x0 KECCAK256 DUP2 DUP2 SLOAD DUP2 LT PUSH2 0xDE1 JUMPI PUSH2 0xDE0 PUSH2 0x2B3E JUMP JUMPDEST JUMPDEST SWAP1 PUSH1 0x0 MSTORE PUSH1 0x20 PUSH1 0x0 KECCAK256 SWAP1 PUSH1 0x4 MUL ADD PUSH1 0x8 PUSH1 0x0 CALLER PUSH20 0xFFFFFFFFFFFFFFFFFFFFFFFFFFFFFFFFFFFFFFFF AND PUSH20 0xFFFFFFFFFFFFFFFFFFFFFFFFFFFFFFFFFFFFFFFF AND DUP2 MSTORE PUSH1 0x20 ADD SWAP1 DUP2 MSTORE PUSH1 0x20 ADD PUSH1 0x0 KECCAK256 DUP5 DUP2 SLOAD DUP2 LT PUSH2 0xE40 JUMPI PUSH2 0xE3F PUSH2 0x2B3E JUMP JUMPDEST JUMPDEST SWAP1 PUSH1 0x0 MSTORE PUSH1 0x20 PUSH1 0x0 KECCAK256 SWAP1 PUSH1 0x4 MUL ADD PUSH1 0x0 DUP3 ADD DUP2 PUSH1 0x0 ADD SWAP1 DUP2 PUSH2 0xE62 SWAP2 SWAP1 PUSH2 0x2D2F JUMP JUMPDEST POP PUSH1 0x1 DUP3 ADD DUP2 PUSH1 0x1 ADD SWAP1 DUP2 PUSH2 0xE77 SWAP2 SWAP1 PUSH2 0x2D2F JUMP JUMPDEST POP PUSH1 0x2 DUP3 ADD SLOAD DUP2 PUSH1 0x2 ADD SSTORE PUSH1 0x3 DUP3 ADD PUSH1 0x0 SWAP1 SLOAD SWAP1 PUSH2 0x100 EXP SWAP1 DIV PUSH20 0xFFFFFFFFFFFFFFFFFFFFFFFFFFFFFFFFFFFFFFFF AND DUP2 PUSH1 0x3 ADD PUSH1 0x0 PUSH2 0x100 EXP DUP2 SLOAD DUP2 PUSH20 0xFFFFFFFFFFFFFFFFFFFFFFFFFFFFFFFFFFFFFFFF MUL NOT AND SWAP1 DUP4 PUSH20 0xFFFFFFFFFFFFFFFFFFFFFFFFFFFFFFFFFFFFFFFF AND MUL OR SWAP1 SSTORE POP SWAP1 POP POP PUSH1 0x8 PUSH1 0x0 CALLER PUSH20 0xFFFFFFFFFFFFFFFFFFFFFFFFFFFFFFFFFFFFFFFF AND PUSH20 0xFFFFFFFFFFFFFFFFFFFFFFFFFFFFFFFFFFFFFFFF AND DUP2 MSTORE PUSH1 0x20 ADD SWAP1 DUP2 MSTORE PUSH1 0x20 ADD PUSH1 0x0 KECCAK256 DUP1 SLOAD DUP1 PUSH2 0xF3B JUMPI PUSH2 0xF3A PUSH2 0x2E17 JUMP JUMPDEST JUMPDEST PUSH1 0x1 SWAP1 SUB DUP2 DUP2 SWAP1 PUSH1 0x0 MSTORE PUSH1 0x20 PUSH1 0x0 KECCAK256 SWAP1 PUSH1 0x4 MUL ADD PUSH1 0x0 DUP1 DUP3 ADD PUSH1 0x0 PUSH2 0xF60 SWAP2 SWAP1 PUSH2 0x22B2 JUMP JUMPDEST PUSH1 0x1 DUP3 ADD PUSH1 0x0 PUSH2 0xF70 SWAP2 SWAP1 PUSH2 0x22B2 JUMP JUMPDEST PUSH1 0x2 DUP3 ADD PUSH1 0x0 SWAP1 SSTORE PUSH1 0x3 DUP3 ADD PUSH1 0x0 PUSH2 0x100 EXP DUP2 SLOAD SWAP1 PUSH20 0xFFFFFFFFFFFFFFFFFFFFFFFFFFFFFFFFFFFFFFFF MUL NOT AND SWAP1 SSTORE POP POP SWAP1 SSTORE POP POP POP JUMP JUMPDEST DUP1 PUSH1 0x5 PUSH1 0x0 CALLER PUSH20 0xFFFFFFFFFFFFFFFFFFFFFFFFFFFFFFFFFFFFFFFF AND PUSH20 0xFFFFFFFFFFFFFFFFFFFFFFFFFFFFFFFFFFFFFFFF AND DUP2 MSTORE PUSH1 0x20 ADD SWAP1 DUP2 MSTORE PUSH1 0x20 ADD PUSH1 0x0 KECCAK256 PUSH1 0x0 DUP3 DUP3 SLOAD PUSH2 0xFF7 SWAP2 SWAP1 PUSH2 0x238A JUMP JUMPDEST SWAP3 POP POP DUP2 SWAP1 SSTORE POP DUP1 PUSH1 0x3 PUSH1 0x0 DUP3 DUP3 SLOAD PUSH2 0x1010 SWAP2 SWAP1 PUSH2 0x238A JUMP JUMPDEST SWAP3 POP POP DUP2 SWAP1 SSTORE POP POP JUMP JUMPDEST PUSH1 0x60 PUSH1 0x8 PUSH1 0x0 CALLER PUSH20 0xFFFFFFFFFFFFFFFFFFFFFFFFFFFFFFFFFFFFFFFF AND PUSH20 0xFFFFFFFFFFFFFFFFFFFFFFFFFFFFFFFFFFFFFFFF AND DUP2 MSTORE PUSH1 0x20 ADD SWAP1 DUP2 MSTORE PUSH1 0x20 ADD PUSH1 0x0 KECCAK256 DUP1 SLOAD DUP1 PUSH1 0x20 MUL PUSH1 0x20 ADD PUSH1 0x40 MLOAD SWAP1 DUP2 ADD PUSH1 0x40 MSTORE DUP1 SWAP3 SWAP2 SWAP1 DUP2 DUP2 MSTORE PUSH1 0x20 ADD PUSH1 0x0 SWAP1 JUMPDEST DUP3 DUP3 LT ISZERO PUSH2 0x1231 JUMPI DUP4 DUP3 SWAP1 PUSH1 0x0 MSTORE PUSH1 0x20 PUSH1 0x0 KECCAK256 SWAP1 PUSH1 0x4 MUL ADD PUSH1 0x40 MLOAD DUP1 PUSH1 0x80 ADD PUSH1 0x40 MSTORE SWAP1 DUP2 PUSH1 0x0 DUP3 ADD DUP1 SLOAD PUSH2 0x10AE SWAP1 PUSH2 0x2B0D JUMP JUMPDEST DUP1 PUSH1 0x1F ADD PUSH1 0x20 DUP1 SWAP2 DIV MUL PUSH1 0x20 ADD PUSH1 0x40 MLOAD SWAP1 DUP2 ADD PUSH1 0x40 MSTORE DUP1 SWAP3 SWAP2 SWAP1 DUP2 DUP2 MSTORE PUSH1 0x20 ADD DUP3 DUP1 SLOAD PUSH2 0x10DA SWAP1 PUSH2 0x2B0D JUMP JUMPDEST DUP1 ISZERO PUSH2 0x1127 JUMPI DUP1 PUSH1 0x1F LT PUSH2 0x10FC JUMPI PUSH2 0x100 DUP1 DUP4 SLOAD DIV MUL DUP4 MSTORE SWAP2 PUSH1 0x20 ADD SWAP2 PUSH2 0x1127 JUMP JUMPDEST DUP3 ADD SWAP2 SWAP1 PUSH1 0x0 MSTORE PUSH1 0x20 PUSH1 0x0 KECCAK256 SWAP1 JUMPDEST DUP2 SLOAD DUP2 MSTORE SWAP1 PUSH1 0x1 ADD SWAP1 PUSH1 0x20 ADD DUP1 DUP4 GT PUSH2 0x110A JUMPI DUP3 SWAP1 SUB PUSH1 0x1F AND DUP3 ADD SWAP2 JUMPDEST POP POP POP POP POP DUP2 MSTORE PUSH1 0x20 ADD PUSH1 0x1 DUP3 ADD DUP1 SLOAD PUSH2 0x1140 SWAP1 PUSH2 0x2B0D JUMP JUMPDEST DUP1 PUSH1 0x1F ADD PUSH1 0x20 DUP1 SWAP2 DIV MUL PUSH1 0x20 ADD PUSH1 0x40 MLOAD SWAP1 DUP2 ADD PUSH1 0x40 MSTORE DUP1 SWAP3 SWAP2 SWAP1 DUP2 DUP2 MSTORE PUSH1 0x20 ADD DUP3 DUP1 SLOAD PUSH2 0x116C SWAP1 PUSH2 0x2B0D JUMP JUMPDEST DUP1 ISZERO PUSH2 0x11B9 JUMPI DUP1 PUSH1 0x1F LT PUSH2 0x118E JUMPI PUSH2 0x100 DUP1 DUP4 SLOAD DIV MUL DUP4 MSTORE SWAP2 PUSH1 0x20 ADD SWAP2 PUSH2 0x11B9 JUMP JUMPDEST DUP3 ADD SWAP2 SWAP1 PUSH1 0x0 MSTORE PUSH1 0x20 PUSH1 0x0 KECCAK256 SWAP1 JUMPDEST DUP2 SLOAD DUP2 MSTORE SWAP1 PUSH1 0x1 ADD SWAP1 PUSH1 0x20 ADD DUP1 DUP4 GT PUSH2 0x119C JUMPI DUP3 SWAP1 SUB PUSH1 0x1F AND DUP3 ADD SWAP2 JUMPDEST POP POP POP POP POP DUP2 MSTORE PUSH1 0x20 ADD PUSH1 0x2 DUP3 ADD SLOAD DUP2 MSTORE PUSH1 0x20 ADD PUSH1 0x3 DUP3 ADD PUSH1 0x0 SWAP1 SLOAD SWAP1 PUSH2 0x100 EXP SWAP1 DIV PUSH20 0xFFFFFFFFFFFFFFFFFFFFFFFFFFFFFFFFFFFFFFFF AND PUSH20 0xFFFFFFFFFFFFFFFFFFFFFFFFFFFFFFFFFFFFFFFF AND PUSH20 0xFFFFFFFFFFFFFFFFFFFFFFFFFFFFFFFFFFFFFFFF AND DUP2 MSTORE POP POP DUP2 MSTORE PUSH1 0x20 ADD SWAP1 PUSH1 0x1 ADD SWAP1 PUSH2 0x107B JUMP JUMPDEST POP POP POP POP SWAP1 POP SWAP1 JUMP JUMPDEST PUSH1 0x60 PUSH1 0x7 DUP1 SLOAD DUP1 PUSH1 0x20 MUL PUSH1 0x20 ADD PUSH1 0x40 MLOAD SWAP1 DUP2 ADD PUSH1 0x40 MSTORE DUP1 SWAP3 SWAP2 SWAP1 DUP2 DUP2 MSTORE PUSH1 0x20 ADD PUSH1 0x0 SWAP1 JUMPDEST DUP3 DUP3 LT ISZERO PUSH2 0x1414 JUMPI DUP4 DUP3 SWAP1 PUSH1 0x0 MSTORE PUSH1 0x20 PUSH1 0x0 KECCAK256 SWAP1 PUSH1 0x4 MUL ADD PUSH1 0x40 MLOAD DUP1 PUSH1 0x80 ADD PUSH1 0x40 MSTORE SWAP1 DUP2 PUSH1 0x0 DUP3 ADD DUP1 SLOAD PUSH2 0x1291 SWAP1 PUSH2 0x2B0D JUMP JUMPDEST DUP1 PUSH1 0x1F ADD PUSH1 0x20 DUP1 SWAP2 DIV MUL PUSH1 0x20 ADD PUSH1 0x40 MLOAD SWAP1 DUP2 ADD PUSH1 0x40 MSTORE DUP1 SWAP3 SWAP2 SWAP1 DUP2 DUP2 MSTORE PUSH1 0x20 ADD DUP3 DUP1 SLOAD PUSH2 0x12BD SWAP1 PUSH2 0x2B0D JUMP JUMPDEST DUP1 ISZERO PUSH2 0x130A JUMPI DUP1 PUSH1 0x1F LT PUSH2 0x12DF JUMPI PUSH2 0x100 DUP1 DUP4 SLOAD DIV MUL DUP4 MSTORE SWAP2 PUSH1 0x20 ADD SWAP2 PUSH2 0x130A JUMP JUMPDEST DUP3 ADD SWAP2 SWAP1 PUSH1 0x0 MSTORE PUSH1 0x20 PUSH1 0x0 KECCAK256 SWAP1 JUMPDEST DUP2 SLOAD DUP2 MSTORE SWAP1 PUSH1 0x1 ADD SWAP1 PUSH1 0x20 ADD DUP1 DUP4 GT PUSH2 0x12ED JUMPI DUP3 SWAP1 SUB PUSH1 0x1F AND DUP3 ADD SWAP2 JUMPDEST POP POP POP POP POP DUP2 MSTORE PUSH1 0x20 ADD PUSH1 0x1 DUP3 ADD DUP1 SLOAD PUSH2 0x1323 SWAP1 PUSH2 0x2B0D JUMP JUMPDEST DUP1 PUSH1 0x1F ADD PUSH1 0x20 DUP1 SWAP2 DIV MUL PUSH1 0x20 ADD PUSH1 0x40 MLOAD SWAP1 DUP2 ADD PUSH1 0x40 MSTORE DUP1 SWAP3 SWAP2 SWAP1 DUP2 DUP2 MSTORE PUSH1 0x20 ADD DUP3 DUP1 SLOAD PUSH2 0x134F SWAP1 PUSH2 0x2B0D JUMP JUMPDEST DUP1 ISZERO PUSH2 0x139C JUMPI DUP1 PUSH1 0x1F LT PUSH2 0x1371 JUMPI PUSH2 0x100 DUP1 DUP4 SLOAD DIV MUL DUP4 MSTORE SWAP2 PUSH1 0x20 ADD SWAP2 PUSH2 0x139C JUMP JUMPDEST DUP3 ADD SWAP2 SWAP1 PUSH1 0x0 MSTORE PUSH1 0x20 PUSH1 0x0 KECCAK256 SWAP1 JUMPDEST DUP2 SLOAD DUP2 MSTORE SWAP1 PUSH1 0x1 ADD SWAP1 PUSH1 0x20 ADD DUP1 DUP4 GT PUSH2 0x137F JUMPI DUP3 SWAP1 SUB PUSH1 0x1F AND DUP3 ADD SWAP2 JUMPDEST POP POP POP POP POP DUP2 MSTORE PUSH1 0x20 ADD PUSH1 0x2 DUP3 ADD SLOAD DUP2 MSTORE PUSH1 0x20 ADD PUSH1 0x3 DUP3 ADD PUSH1 0x0 SWAP1 SLOAD SWAP1 PUSH2 0x100 EXP SWAP1 DIV PUSH20 0xFFFFFFFFFFFFFFFFFFFFFFFFFFFFFFFFFFFFFFFF AND PUSH20 0xFFFFFFFFFFFFFFFFFFFFFFFFFFFFFFFFFFFFFFFF AND PUSH20 0xFFFFFFFFFFFFFFFFFFFFFFFFFFFFFFFFFFFFFFFF AND DUP2 MSTORE POP POP DUP2 MSTORE PUSH1 0x20 ADD SWAP1 PUSH1 0x1 ADD SWAP1 PUSH2 0x125E JUMP JUMPDEST POP POP POP POP SWAP1 POP SWAP1 JUMP JUMPDEST PUSH1 0x0 PUSH1 0x1 PUSH1 0x8 PUSH1 0x0 CALLER PUSH20 0xFFFFFFFFFFFFFFFFFFFFFFFFFFFFFFFFFFFFFFFF AND PUSH20 0xFFFFFFFFFFFFFFFFFFFFFFFFFFFFFFFFFFFFFFFF AND DUP2 MSTORE PUSH1 0x20 ADD SWAP1 DUP2 MSTORE PUSH1 0x20 ADD PUSH1 0x0 KECCAK256 DUP1 SLOAD SWAP1 POP PUSH2 0x146E SWAP2 SWAP1 PUSH2 0x238A JUMP JUMPDEST SWAP1 POP DUP1 DUP3 GT ISZERO PUSH2 0x14B3 JUMPI PUSH1 0x40 MLOAD PUSH32 0x8C379A000000000000000000000000000000000000000000000000000000000 DUP2 MSTORE PUSH1 0x4 ADD PUSH2 0x14AA SWAP1 PUSH2 0x2E92 JUMP JUMPDEST PUSH1 0x40 MLOAD DUP1 SWAP2 SUB SWAP1 REVERT JUMPDEST PUSH1 0x8 PUSH1 0x0 CALLER PUSH20 0xFFFFFFFFFFFFFFFFFFFFFFFFFFFFFFFFFFFFFFFF AND PUSH20 0xFFFFFFFFFFFFFFFFFFFFFFFFFFFFFFFFFFFFFFFF AND DUP2 MSTORE PUSH1 0x20 ADD SWAP1 DUP2 MSTORE PUSH1 0x20 ADD PUSH1 0x0 KECCAK256 DUP2 DUP2 SLOAD DUP2 LT PUSH2 0x1504 JUMPI PUSH2 0x1503 PUSH2 0x2B3E JUMP JUMPDEST JUMPDEST SWAP1 PUSH1 0x0 MSTORE PUSH1 0x20 PUSH1 0x0 KECCAK256 SWAP1 PUSH1 0x4 MUL ADD PUSH1 0x8 PUSH1 0x0 CALLER PUSH20 0xFFFFFFFFFFFFFFFFFFFFFFFFFFFFFFFFFFFFFFFF AND PUSH20 0xFFFFFFFFFFFFFFFFFFFFFFFFFFFFFFFFFFFFFFFF AND DUP2 MSTORE PUSH1 0x20 ADD SWAP1 DUP2 MSTORE PUSH1 0x20 ADD PUSH1 0x0 KECCAK256 DUP4 DUP2 SLOAD DUP2 LT PUSH2 0x1563 JUMPI PUSH2 0x1562 PUSH2 0x2B3E JUMP JUMPDEST JUMPDEST SWAP1 PUSH1 0x0 MSTORE PUSH1 0x20 PUSH1 0x0 KECCAK256 SWAP1 PUSH1 0x4 MUL ADD PUSH1 0x0 DUP3 ADD DUP2 PUSH1 0x0 ADD SWAP1 DUP2 PUSH2 0x1585 SWAP2 SWAP1 PUSH2 0x2D2F JUMP JUMPDEST POP PUSH1 0x1 DUP3 ADD DUP2 PUSH1 0x1 ADD SWAP1 DUP2 PUSH2 0x159A SWAP2 SWAP1 PUSH2 0x2D2F JUMP JUMPDEST POP PUSH1 0x2 DUP3 ADD SLOAD DUP2 PUSH1 0x2 ADD SSTORE PUSH1 0x3 DUP3 ADD PUSH1 0x0 SWAP1 SLOAD SWAP1 PUSH2 0x100 EXP SWAP1 DIV PUSH20 0xFFFFFFFFFFFFFFFFFFFFFFFFFFFFFFFFFFFFFFFF AND DUP2 PUSH1 0x3 ADD PUSH1 0x0 PUSH2 0x100 EXP DUP2 SLOAD DUP2 PUSH20 0xFFFFFFFFFFFFFFFFFFFFFFFFFFFFFFFFFFFFFFFF MUL NOT AND SWAP1 DUP4 PUSH20 0xFFFFFFFFFFFFFFFFFFFFFFFFFFFFFFFFFFFFFFFF AND MUL OR SWAP1 SSTORE POP SWAP1 POP POP PUSH1 0x8 PUSH1 0x0 CALLER PUSH20 0xFFFFFFFFFFFFFFFFFFFFFFFFFFFFFFFFFFFFFFFF AND PUSH20 0xFFFFFFFFFFFFFFFFFFFFFFFFFFFFFFFFFFFFFFFF AND DUP2 MSTORE PUSH1 0x20 ADD SWAP1 DUP2 MSTORE PUSH1 0x20 ADD PUSH1 0x0 KECCAK256 DUP1 SLOAD DUP1 PUSH2 0x165E JUMPI PUSH2 0x165D PUSH2 0x2E17 JUMP JUMPDEST JUMPDEST PUSH1 0x1 SWAP1 SUB DUP2 DUP2 SWAP1 PUSH1 0x0 MSTORE PUSH1 0x20 PUSH1 0x0 KECCAK256 SWAP1 PUSH1 0x4 MUL ADD PUSH1 0x0 DUP1 DUP3 ADD PUSH1 0x0 PUSH2 0x1683 SWAP2 SWAP1 PUSH2 0x22B2 JUMP JUMPDEST PUSH1 0x1 DUP3 ADD PUSH1 0x0 PUSH2 0x1693 SWAP2 SWAP1 PUSH2 0x22B2 JUMP JUMPDEST PUSH1 0x2 DUP3 ADD PUSH1 0x0 SWAP1 SSTORE PUSH1 0x3 DUP3 ADD PUSH1 0x0 PUSH2 0x100 EXP DUP2 SLOAD SWAP1 PUSH20 0xFFFFFFFFFFFFFFFFFFFFFFFFFFFFFFFFFFFFFFFF MUL NOT AND SWAP1 SSTORE POP POP SWAP1 SSTORE POP POP JUMP JUMPDEST PUSH1 0x0 PUSH1 0x5 PUSH1 0x0 DUP4 PUSH20 0xFFFFFFFFFFFFFFFFFFFFFFFFFFFFFFFFFFFFFFFF AND PUSH20 0xFFFFFFFFFFFFFFFFFFFFFFFFFFFFFFFFFFFFFFFF AND DUP2 MSTORE PUSH1 0x20 ADD SWAP1 DUP2 MSTORE PUSH1 0x20 ADD PUSH1 0x0 KECCAK256 SLOAD SWAP1 POP SWAP2 SWAP1 POP JUMP JUMPDEST PUSH1 0x0 PUSH1 0x7 DUP3 DUP2 SLOAD DUP2 LT PUSH2 0x1729 JUMPI PUSH2 0x1728 PUSH2 0x2B3E JUMP JUMPDEST JUMPDEST SWAP1 PUSH1 0x0 MSTORE PUSH1 0x20 PUSH1 0x0 KECCAK256 SWAP1 PUSH1 0x4 MUL ADD SWAP1 POP DUP1 PUSH1 0x2 ADD SLOAD PUSH1 0x5 PUSH1 0x0 CALLER PUSH20 0xFFFFFFFFFFFFFFFFFFFFFFFFFFFFFFFFFFFFFFFF AND PUSH20 0xFFFFFFFFFFFFFFFFFFFFFFFFFFFFFFFFFFFFFFFF AND DUP2 MSTORE PUSH1 0x20 ADD SWAP1 DUP2 MSTORE PUSH1 0x20 ADD PUSH1 0x0 KECCAK256 SLOAD LT ISZERO PUSH2 0x1789 JUMPI PUSH1 0x0 DUP1 REVERT JUMPDEST PUSH8 0xDE0B6B3A7640000 DUP2 PUSH1 0x2 ADD SLOAD PUSH2 0x17A1 SWAP2 SWAP1 PUSH2 0x2348 JUMP JUMPDEST PUSH1 0x5 PUSH1 0x0 CALLER PUSH20 0xFFFFFFFFFFFFFFFFFFFFFFFFFFFFFFFFFFFFFFFF AND PUSH20 0xFFFFFFFFFFFFFFFFFFFFFFFFFFFFFFFFFFFFFFFF AND DUP2 MSTORE PUSH1 0x20 ADD SWAP1 DUP2 MSTORE PUSH1 0x20 ADD PUSH1 0x0 KECCAK256 PUSH1 0x0 DUP3 DUP3 SLOAD PUSH2 0x17EF SWAP2 SWAP1 PUSH2 0x238A JUMP JUMPDEST SWAP3 POP POP DUP2 SWAP1 SSTORE POP PUSH8 0xDE0B6B3A7640000 DUP2 PUSH1 0x2 ADD SLOAD PUSH2 0x180E SWAP2 SWAP1 PUSH2 0x2348 JUMP JUMPDEST PUSH1 0x5 PUSH1 0x0 DUP4 PUSH1 0x3 ADD PUSH1 0x0 SWAP1 SLOAD SWAP1 PUSH2 0x100 EXP SWAP1 DIV PUSH20 0xFFFFFFFFFFFFFFFFFFFFFFFFFFFFFFFFFFFFFFFF AND PUSH20 0xFFFFFFFFFFFFFFFFFFFFFFFFFFFFFFFFFFFFFFFF AND PUSH20 0xFFFFFFFFFFFFFFFFFFFFFFFFFFFFFFFFFFFFFFFF AND DUP2 MSTORE PUSH1 0x20 ADD SWAP1 DUP2 MSTORE PUSH1 0x20 ADD PUSH1 0x0 KECCAK256 PUSH1 0x0 DUP3 DUP3 SLOAD PUSH2 0x1880 SWAP2 SWAP1 PUSH2 0x23BE JUMP JUMPDEST SWAP3 POP POP DUP2 SWAP1 SSTORE POP PUSH1 0x0 PUSH1 0x1 PUSH1 0x7 DUP1 SLOAD SWAP1 POP PUSH2 0x189B SWAP2 SWAP1 PUSH2 0x238A JUMP JUMPDEST SWAP1 POP PUSH1 0x7 DUP2 DUP2 SLOAD DUP2 LT PUSH2 0x18B1 JUMPI PUSH2 0x18B0 PUSH2 0x2B3E JUMP JUMPDEST JUMPDEST SWAP1 PUSH1 0x0 MSTORE PUSH1 0x20 PUSH1 0x0 KECCAK256 SWAP1 PUSH1 0x4 MUL ADD PUSH1 0x7 DUP5 DUP2 SLOAD DUP2 LT PUSH2 0x18D3 JUMPI PUSH2 0x18D2 PUSH2 0x2B3E JUMP JUMPDEST JUMPDEST SWAP1 PUSH1 0x0 MSTORE PUSH1 0x20 PUSH1 0x0 KECCAK256 SWAP1 PUSH1 0x4 MUL ADD PUSH1 0x0 DUP3 ADD DUP2 PUSH1 0x0 ADD SWAP1 DUP2 PUSH2 0x18F5 SWAP2 SWAP1 PUSH2 0x2D2F JUMP JUMPDEST POP PUSH1 0x1 DUP3 ADD DUP2 PUSH1 0x1 ADD SWAP1 DUP2 PUSH2 0x190A SWAP2 SWAP1 PUSH2 0x2D2F JUMP JUMPDEST POP PUSH1 0x2 DUP3 ADD SLOAD DUP2 PUSH1 0x2 ADD SSTORE PUSH1 0x3 DUP3 ADD PUSH1 0x0 SWAP1 SLOAD SWAP1 PUSH2 0x100 EXP SWAP1 DIV PUSH20 0xFFFFFFFFFFFFFFFFFFFFFFFFFFFFFFFFFFFFFFFF AND DUP2 PUSH1 0x3 ADD PUSH1 0x0 PUSH2 0x100 EXP DUP2 SLOAD DUP2 PUSH20 0xFFFFFFFFFFFFFFFFFFFFFFFFFFFFFFFFFFFFFFFF MUL NOT AND SWAP1 DUP4 PUSH20 0xFFFFFFFFFFFFFFFFFFFFFFFFFFFFFFFFFFFFFFFF AND MUL OR SWAP1 SSTORE POP SWAP1 POP POP PUSH1 0x7 DUP1 SLOAD DUP1 PUSH2 0x1991 JUMPI PUSH2 0x1990 PUSH2 0x2E17 JUMP JUMPDEST JUMPDEST PUSH1 0x1 SWAP1 SUB DUP2 DUP2 SWAP1 PUSH1 0x0 MSTORE PUSH1 0x20 PUSH1 0x0 KECCAK256 SWAP1 PUSH1 0x4 MUL ADD PUSH1 0x0 DUP1 DUP3 ADD PUSH1 0x0 PUSH2 0x19B6 SWAP2 SWAP1 PUSH2 0x22B2 JUMP JUMPDEST PUSH1 0x1 DUP3 ADD PUSH1 0x0 PUSH2 0x19C6 SWAP2 SWAP1 PUSH2 0x22B2 JUMP JUMPDEST PUSH1 0x2 DUP3 ADD PUSH1 0x0 SWAP1 SSTORE PUSH1 0x3 DUP3 ADD PUSH1 0x0 PUSH2 0x100 EXP DUP2 SLOAD SWAP1 PUSH20 0xFFFFFFFFFFFFFFFFFFFFFFFFFFFFFFFFFFFFFFFF MUL NOT AND SWAP1 SSTORE POP POP SWAP1 SSTORE PUSH1 0x9 PUSH1 0x0 CALLER PUSH20 0xFFFFFFFFFFFFFFFFFFFFFFFFFFFFFFFFFFFFFFFF AND PUSH20 0xFFFFFFFFFFFFFFFFFFFFFFFFFFFFFFFFFFFFFFFF AND DUP2 MSTORE PUSH1 0x20 ADD SWAP1 DUP2 MSTORE PUSH1 0x20 ADD PUSH1 0x0 KECCAK256 DUP3 SWAP1 DUP1 PUSH1 0x1 DUP2 SLOAD ADD DUP1 DUP3 SSTORE DUP1 SWAP2 POP POP PUSH1 0x1 SWAP1 SUB SWAP1 PUSH1 0x0 MSTORE PUSH1 0x20 PUSH1 0x0 KECCAK256 SWAP1 PUSH1 0x4 MUL ADD PUSH1 0x0 SWAP1 SWAP2 SWAP1 SWAP2 SWAP1 SWAP2 POP PUSH1 0x0 DUP3 ADD DUP2 PUSH1 0x0 ADD SWAP1 DUP2 PUSH2 0x1A76 SWAP2 SWAP1 PUSH2 0x2D2F JUMP JUMPDEST POP PUSH1 0x1 DUP3 ADD DUP2 PUSH1 0x1 ADD SWAP1 DUP2 PUSH2 0x1A8B SWAP2 SWAP1 PUSH2 0x2D2F JUMP JUMPDEST POP PUSH1 0x2 DUP3 ADD SLOAD DUP2 PUSH1 0x2 ADD SSTORE PUSH1 0x3 DUP3 ADD PUSH1 0x0 SWAP1 SLOAD SWAP1 PUSH2 0x100 EXP SWAP1 DIV PUSH20 0xFFFFFFFFFFFFFFFFFFFFFFFFFFFFFFFFFFFFFFFF AND DUP2 PUSH1 0x3 ADD PUSH1 0x0 PUSH2 0x100 EXP DUP2 SLOAD DUP2 PUSH20 0xFFFFFFFFFFFFFFFFFFFFFFFFFFFFFFFFFFFFFFFF MUL NOT AND SWAP1 DUP4 PUSH20 0xFFFFFFFFFFFFFFFFFFFFFFFFFFFFFFFFFFFFFFFF AND MUL OR SWAP1 SSTORE POP POP POP POP POP POP JUMP JUMPDEST PUSH1 0x1 DUP1 SLOAD PUSH2 0x1B11 SWAP1 PUSH2 0x2B0D JUMP JUMPDEST DUP1 PUSH1 0x1F ADD PUSH1 0x20 DUP1 SWAP2 DIV MUL PUSH1 0x20 ADD PUSH1 0x40 MLOAD SWAP1 DUP2 ADD PUSH1 0x40 MSTORE DUP1 SWAP3 SWAP2 SWAP1 DUP2 DUP2 MSTORE PUSH1 0x20 ADD DUP3 DUP1 SLOAD PUSH2 0x1B3D SWAP1 PUSH2 0x2B0D JUMP JUMPDEST DUP1 ISZERO PUSH2 0x1B8A JUMPI DUP1 PUSH1 0x1F LT PUSH2 0x1B5F JUMPI PUSH2 0x100 DUP1 DUP4 SLOAD DIV MUL DUP4 MSTORE SWAP2 PUSH1 0x20 ADD SWAP2 PUSH2 0x1B8A JUMP JUMPDEST DUP3 ADD SWAP2 SWAP1 PUSH1 0x0 MSTORE PUSH1 0x20 PUSH1 0x0 KECCAK256 SWAP1 JUMPDEST DUP2 SLOAD DUP2 MSTORE SWAP1 PUSH1 0x1 ADD SWAP1 PUSH1 0x20 ADD DUP1 DUP4 GT PUSH2 0x1B6D JUMPI DUP3 SWAP1 SUB PUSH1 0x1F AND DUP3 ADD SWAP2 JUMPDEST POP POP POP POP POP DUP2 JUMP JUMPDEST PUSH1 0x9 PUSH1 0x20 MSTORE DUP2 PUSH1 0x0 MSTORE PUSH1 0x40 PUSH1 0x0 KECCAK256 DUP2 DUP2 SLOAD DUP2 LT PUSH2 0x1BAE JUMPI PUSH1 0x0 DUP1 REVERT JUMPDEST SWAP1 PUSH1 0x0 MSTORE PUSH1 0x20 PUSH1 0x0 KECCAK256 SWAP1 PUSH1 0x4 MUL ADD PUSH1 0x0 SWAP2 POP SWAP2 POP POP DUP1 PUSH1 0x0 ADD DUP1 SLOAD PUSH2 0x1BD2 SWAP1 PUSH2 0x2B0D JUMP JUMPDEST DUP1 PUSH1 0x1F ADD PUSH1 0x20 DUP1 SWAP2 DIV MUL PUSH1 0x20 ADD PUSH1 0x40 MLOAD SWAP1 DUP2 ADD PUSH1 0x40 MSTORE DUP1 SWAP3 SWAP2 SWAP1 DUP2 DUP2 MSTORE PUSH1 0x20 ADD DUP3 DUP1 SLOAD PUSH2 0x1BFE SWAP1 PUSH2 0x2B0D JUMP JUMPDEST DUP1 ISZERO PUSH2 0x1C4B JUMPI DUP1 PUSH1 0x1F LT PUSH2 0x1C20 JUMPI PUSH2 0x100 DUP1 DUP4 SLOAD DIV MUL DUP4 MSTORE SWAP2 PUSH1 0x20 ADD SWAP2 PUSH2 0x1C4B JUMP JUMPDEST DUP3 ADD SWAP2 SWAP1 PUSH1 0x0 MSTORE PUSH1 0x20 PUSH1 0x0 KECCAK256 SWAP1 JUMPDEST DUP2 SLOAD DUP2 MSTORE SWAP1 PUSH1 0x1 ADD SWAP1 PUSH1 0x20 ADD DUP1 DUP4 GT PUSH2 0x1C2E JUMPI DUP3 SWAP1 SUB PUSH1 0x1F AND DUP3 ADD SWAP2 JUMPDEST POP POP POP POP POP SWAP1 DUP1 PUSH1 0x1 ADD DUP1 SLOAD PUSH2 0x1C60 SWAP1 PUSH2 0x2B0D JUMP JUMPDEST DUP1 PUSH1 0x1F ADD PUSH1 0x20 DUP1 SWAP2 DIV MUL PUSH1 0x20 ADD PUSH1 0x40 MLOAD SWAP1 DUP2 ADD PUSH1 0x40 MSTORE DUP1 SWAP3 SWAP2 SWAP1 DUP2 DUP2 MSTORE PUSH1 0x20 ADD DUP3 DUP1 SLOAD PUSH2 0x1C8C SWAP1 PUSH2 0x2B0D JUMP JUMPDEST DUP1 ISZERO PUSH2 0x1CD9 JUMPI DUP1 PUSH1 0x1F LT PUSH2 0x1CAE JUMPI PUSH2 0x100 DUP1 DUP4 SLOAD DIV MUL DUP4 MSTORE SWAP2 PUSH1 0x20 ADD SWAP2 PUSH2 0x1CD9 JUMP JUMPDEST DUP3 ADD SWAP2 SWAP1 PUSH1 0x0 MSTORE PUSH1 0x20 PUSH1 0x0 KECCAK256 SWAP1 JUMPDEST DUP2 SLOAD DUP2 MSTORE SWAP1 PUSH1 0x1 ADD SWAP1 PUSH1 0x20 ADD DUP1 DUP4 GT PUSH2 0x1CBC JUMPI DUP3 SWAP1 SUB PUSH1 0x1F AND DUP3 ADD SWAP2 JUMPDEST POP POP POP POP POP SWAP1 DUP1 PUSH1 0x2 ADD SLOAD SWAP1 DUP1 PUSH1 0x3 ADD PUSH1 0x0 SWAP1 SLOAD SWAP1 PUSH2 0x100 EXP SWAP1 DIV PUSH20 0xFFFFFFFFFFFFFFFFFFFFFFFFFFFFFFFFFFFFFFFF AND SWAP1 POP DUP5 JUMP JUMPDEST PUSH1 0x0 PUSH1 0x40 MLOAD DUP1 PUSH1 0x80 ADD PUSH1 0x40 MSTORE DUP1 DUP6 DUP2 MSTORE PUSH1 0x20 ADD DUP5 DUP2 MSTORE PUSH1 0x20 ADD DUP4 DUP2 MSTORE PUSH1 0x20 ADD CALLER PUSH20 0xFFFFFFFFFFFFFFFFFFFFFFFFFFFFFFFFFFFFFFFF AND DUP2 MSTORE POP SWAP1 POP PUSH1 0x8 PUSH1 0x0 CALLER PUSH20 0xFFFFFFFFFFFFFFFFFFFFFFFFFFFFFFFFFFFFFFFF AND PUSH20 0xFFFFFFFFFFFFFFFFFFFFFFFFFFFFFFFFFFFFFFFF AND DUP2 MSTORE PUSH1 0x20 ADD SWAP1 DUP2 MSTORE PUSH1 0x20 ADD PUSH1 0x0 KECCAK256 DUP2 SWAP1 DUP1 PUSH1 0x1 DUP2 SLOAD ADD DUP1 DUP3 SSTORE DUP1 SWAP2 POP POP PUSH1 0x1 SWAP1 SUB SWAP1 PUSH1 0x0 MSTORE PUSH1 0x20 PUSH1 0x0 KECCAK256 SWAP1 PUSH1 0x4 MUL ADD PUSH1 0x0 SWAP1 SWAP2 SWAP1 SWAP2 SWAP1 SWAP2 POP PUSH1 0x0 DUP3 ADD MLOAD DUP2 PUSH1 0x0 ADD SWAP1 DUP2 PUSH2 0x1DC8 SWAP2 SWAP1 PUSH2 0x2EB2 JUMP JUMPDEST POP PUSH1 0x20 DUP3 ADD MLOAD DUP2 PUSH1 0x1 ADD SWAP1 DUP2 PUSH2 0x1DDE SWAP2 SWAP1 PUSH2 0x2EB2 JUMP JUMPDEST POP PUSH1 0x40 DUP3 ADD MLOAD DUP2 PUSH1 0x2 ADD SSTORE PUSH1 0x60 DUP3 ADD MLOAD DUP2 PUSH1 0x3 ADD PUSH1 0x0 PUSH2 0x100 EXP DUP2 SLOAD DUP2 PUSH20 0xFFFFFFFFFFFFFFFFFFFFFFFFFFFFFFFFFFFFFFFF MUL NOT AND SWAP1 DUP4 PUSH20 0xFFFFFFFFFFFFFFFFFFFFFFFFFFFFFFFFFFFFFFFF AND MUL OR SWAP1 SSTORE POP POP POP POP POP POP POP JUMP JUMPDEST PUSH1 0x60 PUSH1 0x9 PUSH1 0x0 CALLER PUSH20 0xFFFFFFFFFFFFFFFFFFFFFFFFFFFFFFFFFFFFFFFF AND PUSH20 0xFFFFFFFFFFFFFFFFFFFFFFFFFFFFFFFFFFFFFFFF AND DUP2 MSTORE PUSH1 0x20 ADD SWAP1 DUP2 MSTORE PUSH1 0x20 ADD PUSH1 0x0 KECCAK256 DUP1 SLOAD DUP1 PUSH1 0x20 MUL PUSH1 0x20 ADD PUSH1 0x40 MLOAD SWAP1 DUP2 ADD PUSH1 0x40 MSTORE DUP1 SWAP3 SWAP2 SWAP1 DUP2 DUP2 MSTORE PUSH1 0x20 ADD PUSH1 0x0 SWAP1 JUMPDEST DUP3 DUP3 LT ISZERO PUSH2 0x204F JUMPI DUP4 DUP3 SWAP1 PUSH1 0x0 MSTORE PUSH1 0x20 PUSH1 0x0 KECCAK256 SWAP1 PUSH1 0x4 MUL ADD PUSH1 0x40 MLOAD DUP1 PUSH1 0x80 ADD PUSH1 0x40 MSTORE SWAP1 DUP2 PUSH1 0x0 DUP3 ADD DUP1 SLOAD PUSH2 0x1ECC SWAP1 PUSH2 0x2B0D JUMP JUMPDEST DUP1 PUSH1 0x1F ADD PUSH1 0x20 DUP1 SWAP2 DIV MUL PUSH1 0x20 ADD PUSH1 0x40 MLOAD SWAP1 DUP2 ADD PUSH1 0x40 MSTORE DUP1 SWAP3 SWAP2 SWAP1 DUP2 DUP2 MSTORE PUSH1 0x20 ADD DUP3 DUP1 SLOAD PUSH2 0x1EF8 SWAP1 PUSH2 0x2B0D JUMP JUMPDEST DUP1 ISZERO PUSH2 0x1F45 JUMPI DUP1 PUSH1 0x1F LT PUSH2 0x1F1A JUMPI PUSH2 0x100 DUP1 DUP4 SLOAD DIV MUL DUP4 MSTORE SWAP2 PUSH1 0x20 ADD SWAP2 PUSH2 0x1F45 JUMP JUMPDEST DUP3 ADD SWAP2 SWAP1 PUSH1 0x0 MSTORE PUSH1 0x20 PUSH1 0x0 KECCAK256 SWAP1 JUMPDEST DUP2 SLOAD DUP2 MSTORE SWAP1 PUSH1 0x1 ADD SWAP1 PUSH1 0x20 ADD DUP1 DUP4 GT PUSH2 0x1F28 JUMPI DUP3 SWAP1 SUB PUSH1 0x1F AND DUP3 ADD SWAP2 JUMPDEST POP POP POP POP POP DUP2 MSTORE PUSH1 0x20 ADD PUSH1 0x1 DUP3 ADD DUP1 SLOAD PUSH2 0x1F5E SWAP1 PUSH2 0x2B0D JUMP JUMPDEST DUP1 PUSH1 0x1F ADD PUSH1 0x20 DUP1 SWAP2 DIV MUL PUSH1 0x20 ADD PUSH1 0x40 MLOAD SWAP1 DUP2 ADD PUSH1 0x40 MSTORE DUP1 SWAP3 SWAP2 SWAP1 DUP2 DUP2 MSTORE PUSH1 0x20 ADD DUP3 DUP1 SLOAD PUSH2 0x1F8A SWAP1 PUSH2 0x2B0D JUMP JUMPDEST DUP1 ISZERO PUSH2 0x1FD7 JUMPI DUP1 PUSH1 0x1F LT PUSH2 0x1FAC JUMPI PUSH2 0x100 DUP1 DUP4 SLOAD DIV MUL DUP4 MSTORE SWAP2 PUSH1 0x20 ADD SWAP2 PUSH2 0x1FD7 JUMP JUMPDEST DUP3 ADD SWAP2 SWAP1 PUSH1 0x0 MSTORE PUSH1 0x20 PUSH1 0x0 KECCAK256 SWAP1 JUMPDEST DUP2 SLOAD DUP2 MSTORE SWAP1 PUSH1 0x1 ADD SWAP1 PUSH1 0x20 ADD DUP1 DUP4 GT PUSH2 0x1FBA JUMPI DUP3 SWAP1 SUB PUSH1 0x1F AND DUP3 ADD SWAP2 JUMPDEST POP POP POP POP POP DUP2 MSTORE PUSH1 0x20 ADD PUSH1 0x2 DUP3 ADD SLOAD DUP2 MSTORE PUSH1 0x20 ADD PUSH1 0x3 DUP3 ADD PUSH1 0x0 SWAP1 SLOAD SWAP1 PUSH2 0x100 EXP SWAP1 DIV PUSH20 0xFFFFFFFFFFFFFFFFFFFFFFFFFFFFFFFFFFFFFFFF AND PUSH20 0xFFFFFFFFFFFFFFFFFFFFFFFFFFFFFFFFFFFFFFFF AND PUSH20 0xFFFFFFFFFFFFFFFFFFFFFFFFFFFFFFFFFFFFFFFF AND DUP2 MSTORE POP POP DUP2 MSTORE PUSH1 0x20 ADD SWAP1 PUSH1 0x1 ADD SWAP1 PUSH2 0x1E99 JUMP JUMPDEST POP POP POP POP SWAP1 POP SWAP1 JUMP JUMPDEST PUSH1 0x0 DUP2 PUSH1 0x5 PUSH1 0x0 CALLER PUSH20 0xFFFFFFFFFFFFFFFFFFFFFFFFFFFFFFFFFFFFFFFF AND PUSH20 0xFFFFFFFFFFFFFFFFFFFFFFFFFFFFFFFFFFFFFFFF AND DUP2 MSTORE PUSH1 0x20 ADD SWAP1 DUP2 MSTORE PUSH1 0x20 ADD PUSH1 0x0 KECCAK256 PUSH1 0x0 DUP3 DUP3 SLOAD PUSH2 0x20A9 SWAP2 SWAP1 PUSH2 0x238A JUMP JUMPDEST SWAP3 POP POP DUP2 SWAP1 SSTORE POP DUP2 PUSH1 0x5 PUSH1 0x0 DUP6 PUSH20 0xFFFFFFFFFFFFFFFFFFFFFFFFFFFFFFFFFFFFFFFF AND PUSH20 0xFFFFFFFFFFFFFFFFFFFFFFFFFFFFFFFFFFFFFFFF AND DUP2 MSTORE PUSH1 0x20 ADD SWAP1 DUP2 MSTORE PUSH1 0x20 ADD PUSH1 0x0 KECCAK256 PUSH1 0x0 DUP3 DUP3 SLOAD PUSH2 0x20FF SWAP2 SWAP1 PUSH2 0x23BE JUMP JUMPDEST SWAP3 POP POP DUP2 SWAP1 SSTORE POP PUSH1 0x1 SWAP1 POP SWAP3 SWAP2 POP POP JUMP JUMPDEST PUSH1 0x6 PUSH1 0x20 MSTORE DUP2 PUSH1 0x0 MSTORE PUSH1 0x40 PUSH1 0x0 KECCAK256 PUSH1 0x20 MSTORE DUP1 PUSH1 0x0 MSTORE PUSH1 0x40 PUSH1 0x0 KECCAK256 PUSH1 0x0 SWAP2 POP SWAP2 POP POP SLOAD DUP2 JUMP JUMPDEST PUSH1 0x8 PUSH1 0x20 MSTORE DUP2 PUSH1 0x0 MSTORE PUSH1 0x40 PUSH1 0x0 KECCAK256 DUP2 DUP2 SLOAD DUP2 LT PUSH2 0x2151 JUMPI PUSH1 0x0 DUP1 REVERT JUMPDEST SWAP1 PUSH1 0x0 MSTORE PUSH1 0x20 PUSH1 0x0 KECCAK256 SWAP1 PUSH1 0x4 MUL ADD PUSH1 0x0 SWAP2 POP SWAP2 POP POP DUP1 PUSH1 0x0 ADD DUP1 SLOAD PUSH2 0x2175 SWAP1 PUSH2 0x2B0D JUMP JUMPDEST DUP1 PUSH1 0x1F ADD PUSH1 0x20 DUP1 SWAP2 DIV MUL PUSH1 0x20 ADD PUSH1 0x40 MLOAD SWAP1 DUP2 ADD PUSH1 0x40 MSTORE DUP1 SWAP3 SWAP2 SWAP1 DUP2 DUP2 MSTORE PUSH1 0x20 ADD DUP3 DUP1 SLOAD PUSH2 0x21A1 SWAP1 PUSH2 0x2B0D JUMP JUMPDEST DUP1 ISZERO PUSH2 0x21EE JUMPI DUP1 PUSH1 0x1F LT PUSH2 0x21C3 JUMPI PUSH2 0x100 DUP1 DUP4 SLOAD DIV MUL DUP4 MSTORE SWAP2 PUSH1 0x20 ADD SWAP2 PUSH2 0x21EE JUMP JUMPDEST DUP3 ADD SWAP2 SWAP1 PUSH1 0x0 MSTORE PUSH1 0x20 PUSH1 0x0 KECCAK256 SWAP1 JUMPDEST DUP2 SLOAD DUP2 MSTORE SWAP1 PUSH1 0x1 ADD SWAP1 PUSH1 0x20 ADD DUP1 DUP4 GT PUSH2 0x21D1 JUMPI DUP3 SWAP1 SUB PUSH1 0x1F AND DUP3 ADD SWAP2 JUMPDEST POP POP POP POP POP SWAP1 DUP1 PUSH1 0x1 ADD DUP1 SLOAD PUSH2 0x2203 SWAP1 PUSH2 0x2B0D JUMP JUMPDEST DUP1 PUSH1 0x1F ADD PUSH1 0x20 DUP1 SWAP2 DIV MUL PUSH1 0x20 ADD PUSH1 0x40 MLOAD SWAP1 DUP2 ADD PUSH1 0x40 MSTORE DUP1 SWAP3 SWAP2 SWAP1 DUP2 DUP2 MSTORE PUSH1 0x20 ADD DUP3 DUP1 SLOAD PUSH2 0x222F SWAP1 PUSH2 0x2B0D JUMP JUMPDEST DUP1 ISZERO PUSH2 0x227C JUMPI DUP1 PUSH1 0x1F LT PUSH2 0x2251 JUMPI PUSH2 0x100 DUP1 DUP4 SLOAD DIV MUL DUP4 MSTORE SWAP2 PUSH1 0x20 ADD SWAP2 PUSH2 0x227C JUMP JUMPDEST DUP3 ADD SWAP2 SWAP1 PUSH1 0x0 MSTORE PUSH1 0x20 PUSH1 0x0 KECCAK256 SWAP1 JUMPDEST DUP2 SLOAD DUP2 MSTORE SWAP1 PUSH1 0x1 ADD SWAP1 PUSH1 0x20 ADD DUP1 DUP4 GT PUSH2 0x225F JUMPI DUP3 SWAP1 SUB PUSH1 0x1F AND DUP3 ADD SWAP2 JUMPDEST POP POP POP POP POP SWAP1 DUP1 PUSH1 0x2 ADD SLOAD SWAP1 DUP1 PUSH1 0x3 ADD PUSH1 0x0 SWAP1 SLOAD SWAP1 PUSH2 0x100 EXP SWAP1 DIV PUSH20 0xFFFFFFFFFFFFFFFFFFFFFFFFFFFFFFFFFFFFFFFF AND SWAP1 POP DUP5 JUMP JUMPDEST POP DUP1 SLOAD PUSH2 0x22BE SWAP1 PUSH2 0x2B0D JUMP JUMPDEST PUSH1 0x0 DUP3 SSTORE DUP1 PUSH1 0x1F LT PUSH2 0x22D0 JUMPI POP PUSH2 0x22EF JUMP JUMPDEST PUSH1 0x1F ADD PUSH1 0x20 SWAP1 DIV SWAP1 PUSH1 0x0 MSTORE PUSH1 0x20 PUSH1 0x0 KECCAK256 SWAP1 DUP2 ADD SWAP1 PUSH2 0x22EE SWAP2 SWAP1 PUSH2 0x22F2 JUMP JUMPDEST JUMPDEST POP JUMP JUMPDEST JUMPDEST DUP1 DUP3 GT ISZERO PUSH2 0x230B JUMPI PUSH1 0x0 DUP2 PUSH1 0x0 SWAP1 SSTORE POP PUSH1 0x1 ADD PUSH2 0x22F3 JUMP JUMPDEST POP SWAP1 JUMP JUMPDEST PUSH1 0x0 DUP2 SWAP1 POP SWAP2 SWAP1 POP JUMP JUMPDEST PUSH32 0x4E487B7100000000000000000000000000000000000000000000000000000000 PUSH1 0x0 MSTORE PUSH1 0x11 PUSH1 0x4 MSTORE PUSH1 0x24 PUSH1 0x0 REVERT JUMPDEST PUSH1 0x0 PUSH2 0x2353 DUP3 PUSH2 0x230F JUMP JUMPDEST SWAP2 POP PUSH2 0x235E DUP4 PUSH2 0x230F JUMP JUMPDEST SWAP3 POP DUP3 DUP3 MUL PUSH2 0x236C DUP2 PUSH2 0x230F JUMP JUMPDEST SWAP2 POP DUP3 DUP3 DIV DUP5 EQ DUP4 ISZERO OR PUSH2 0x2383 JUMPI PUSH2 0x2382 PUSH2 0x2319 JUMP JUMPDEST JUMPDEST POP SWAP3 SWAP2 POP POP JUMP JUMPDEST PUSH1 0x0 PUSH2 0x2395 DUP3 PUSH2 0x230F JUMP JUMPDEST SWAP2 POP PUSH2 0x23A0 DUP4 PUSH2 0x230F JUMP JUMPDEST SWAP3 POP DUP3 DUP3 SUB SWAP1 POP DUP2 DUP2 GT ISZERO PUSH2 0x23B8 JUMPI PUSH2 0x23B7 PUSH2 0x2319 JUMP JUMPDEST JUMPDEST SWAP3 SWAP2 POP POP JUMP JUMPDEST PUSH1 0x0 PUSH2 0x23C9 DUP3 PUSH2 0x230F JUMP JUMPDEST SWAP2 POP PUSH2 0x23D4 DUP4 PUSH2 0x230F JUMP JUMPDEST SWAP3 POP DUP3 DUP3 ADD SWAP1 POP DUP1 DUP3 GT ISZERO PUSH2 0x23EC JUMPI PUSH2 0x23EB PUSH2 0x2319 JUMP JUMPDEST JUMPDEST SWAP3 SWAP2 POP POP JUMP JUMPDEST PUSH1 0x0 DUP2 MLOAD SWAP1 POP SWAP2 SWAP1 POP JUMP JUMPDEST PUSH1 0x0 DUP3 DUP3 MSTORE PUSH1 0x20 DUP3 ADD SWAP1 POP SWAP3 SWAP2 POP POP JUMP JUMPDEST PUSH1 0x0 JUMPDEST DUP4 DUP2 LT ISZERO PUSH2 0x242C JUMPI DUP1 DUP3 ADD MLOAD DUP2 DUP5 ADD MSTORE PUSH1 0x20 DUP2 ADD SWAP1 POP PUSH2 0x2411 JUMP JUMPDEST PUSH1 0x0 DUP5 DUP5 ADD MSTORE POP POP POP POP JUMP JUMPDEST PUSH1 0x0 PUSH1 0x1F NOT PUSH1 0x1F DUP4 ADD AND SWAP1 POP SWAP2 SWAP1 POP JUMP JUMPDEST PUSH1 0x0 PUSH2 0x2454 DUP3 PUSH2 0x23F2 JUMP JUMPDEST PUSH2 0x245E DUP2 DUP6 PUSH2 0x23FD JUMP JUMPDEST SWAP4 POP PUSH2 0x246E DUP2 DUP6 PUSH1 0x20 DUP7 ADD PUSH2 0x240E JUMP JUMPDEST PUSH2 0x2477 DUP2 PUSH2 0x2438 JUMP JUMPDEST DUP5 ADD SWAP2 POP POP SWAP3 SWAP2 POP POP JUMP JUMPDEST PUSH1 0x0 PUSH1 0x20 DUP3 ADD SWAP1 POP DUP2 DUP2 SUB PUSH1 0x0 DUP4 ADD MSTORE PUSH2 0x249C DUP2 DUP5 PUSH2 0x2449 JUMP JUMPDEST SWAP1 POP SWAP3 SWAP2 POP POP JUMP JUMPDEST PUSH1 0x0 PUSH1 0x40 MLOAD SWAP1 POP SWAP1 JUMP JUMPDEST PUSH1 0x0 DUP1 REVERT JUMPDEST PUSH1 0x0 DUP1 REVERT JUMPDEST PUSH1 0x0 PUSH20 0xFFFFFFFFFFFFFFFFFFFFFFFFFFFFFFFFFFFFFFFF DUP3 AND SWAP1 POP SWAP2 SWAP1 POP JUMP JUMPDEST PUSH1 0x0 PUSH2 0x24E3 DUP3 PUSH2 0x24B8 JUMP JUMPDEST SWAP1 POP SWAP2 SWAP1 POP JUMP JUMPDEST PUSH2 0x24F3 DUP2 PUSH2 0x24D8 JUMP JUMPDEST DUP2 EQ PUSH2 0x24FE JUMPI PUSH1 0x0 DUP1 REVERT JUMPDEST POP JUMP JUMPDEST PUSH1 0x0 DUP2 CALLDATALOAD SWAP1 POP PUSH2 0x2510 DUP2 PUSH2 0x24EA JUMP JUMPDEST SWAP3 SWAP2 POP POP JUMP JUMPDEST PUSH2 0x251F DUP2 PUSH2 0x230F JUMP JUMPDEST DUP2 EQ PUSH2 0x252A JUMPI PUSH1 0x0 DUP1 REVERT JUMPDEST POP JUMP JUMPDEST PUSH1 0x0 DUP2 CALLDATALOAD SWAP1 POP PUSH2 0x253C DUP2 PUSH2 0x2516 JUMP JUMPDEST SWAP3 SWAP2 POP POP JUMP JUMPDEST PUSH1 0x0 DUP1 PUSH1 0x40 DUP4 DUP6 SUB SLT ISZERO PUSH2 0x2559 JUMPI PUSH2 0x2558 PUSH2 0x24AE JUMP JUMPDEST JUMPDEST PUSH1 0x0 PUSH2 0x2567 DUP6 DUP3 DUP7 ADD PUSH2 0x2501 JUMP JUMPDEST SWAP3 POP POP PUSH1 0x20 PUSH2 0x2578 DUP6 DUP3 DUP7 ADD PUSH2 0x252D JUMP JUMPDEST SWAP2 POP POP SWAP3 POP SWAP3 SWAP1 POP JUMP JUMPDEST PUSH1 0x0 DUP2 ISZERO ISZERO SWAP1 POP SWAP2 SWAP1 POP JUMP JUMPDEST PUSH2 0x2597 DUP2 PUSH2 0x2582 JUMP JUMPDEST DUP3 MSTORE POP POP JUMP JUMPDEST PUSH1 0x0 PUSH1 0x20 DUP3 ADD SWAP1 POP PUSH2 0x25B2 PUSH1 0x0 DUP4 ADD DUP5 PUSH2 0x258E JUMP JUMPDEST SWAP3 SWAP2 POP POP JUMP JUMPDEST PUSH2 0x25C1 DUP2 PUSH2 0x230F JUMP JUMPDEST DUP3 MSTORE POP POP JUMP JUMPDEST PUSH1 0x0 PUSH1 0x20 DUP3 ADD SWAP1 POP PUSH2 0x25DC PUSH1 0x0 DUP4 ADD DUP5 PUSH2 0x25B8 JUMP JUMPDEST SWAP3 SWAP2 POP POP JUMP JUMPDEST PUSH1 0x0 DUP1 PUSH1 0x0 PUSH1 0x60 DUP5 DUP7 SUB SLT ISZERO PUSH2 0x25FB JUMPI PUSH2 0x25FA PUSH2 0x24AE JUMP JUMPDEST JUMPDEST PUSH1 0x0 PUSH2 0x2609 DUP7 DUP3 DUP8 ADD PUSH2 0x2501 JUMP JUMPDEST SWAP4 POP POP PUSH1 0x20 PUSH2 0x261A DUP7 DUP3 DUP8 ADD PUSH2 0x2501 JUMP JUMPDEST SWAP3 POP POP PUSH1 0x40 PUSH2 0x262B DUP7 DUP3 DUP8 ADD PUSH2 0x252D JUMP JUMPDEST SWAP2 POP POP SWAP3 POP SWAP3 POP SWAP3 JUMP JUMPDEST PUSH1 0x0 PUSH1 0x20 DUP3 DUP5 SUB SLT ISZERO PUSH2 0x264B JUMPI PUSH2 0x264A PUSH2 0x24AE JUMP JUMPDEST JUMPDEST PUSH1 0x0 PUSH2 0x2659 DUP5 DUP3 DUP6 ADD PUSH2 0x2501 JUMP JUMPDEST SWAP2 POP POP SWAP3 SWAP2 POP POP JUMP JUMPDEST PUSH1 0x0 PUSH1 0x20 DUP3 DUP5 SUB SLT ISZERO PUSH2 0x2678 JUMPI PUSH2 0x2677 PUSH2 0x24AE JUMP JUMPDEST JUMPDEST PUSH1 0x0 PUSH2 0x2686 DUP5 DUP3 DUP6 ADD PUSH2 0x252D JUMP JUMPDEST SWAP2 POP POP SWAP3 SWAP2 POP POP JUMP JUMPDEST PUSH2 0x2698 DUP2 PUSH2 0x24D8 JUMP JUMPDEST DUP3 MSTORE POP POP JUMP JUMPDEST PUSH1 0x0 PUSH1 0x80 DUP3 ADD SWAP1 POP DUP2 DUP2 SUB PUSH1 0x0 DUP4 ADD MSTORE PUSH2 0x26B8 DUP2 DUP8 PUSH2 0x2449 JUMP JUMPDEST SWAP1 POP DUP2 DUP2 SUB PUSH1 0x20 DUP4 ADD MSTORE PUSH2 0x26CC DUP2 DUP7 PUSH2 0x2449 JUMP JUMPDEST SWAP1 POP PUSH2 0x26DB PUSH1 0x40 DUP4 ADD DUP6 PUSH2 0x25B8 JUMP JUMPDEST PUSH2 0x26E8 PUSH1 0x60 DUP4 ADD DUP5 PUSH2 0x268F JUMP JUMPDEST SWAP6 SWAP5 POP POP POP POP POP JUMP JUMPDEST PUSH1 0x0 PUSH1 0xFF DUP3 AND SWAP1 POP SWAP2 SWAP1 POP JUMP JUMPDEST PUSH2 0x2707 DUP2 PUSH2 0x26F1 JUMP JUMPDEST DUP3 MSTORE POP POP JUMP JUMPDEST PUSH1 0x0 PUSH1 0x20 DUP3 ADD SWAP1 POP PUSH2 0x2722 PUSH1 0x0 DUP4 ADD DUP5 PUSH2 0x26FE JUMP JUMPDEST SWAP3 SWAP2 POP POP JUMP JUMPDEST PUSH1 0x0 DUP2 MLOAD SWAP1 POP SWAP2 SWAP1 POP JUMP JUMPDEST PUSH1 0x0 DUP3 DUP3 MSTORE PUSH1 0x20 DUP3 ADD SWAP1 POP SWAP3 SWAP2 POP POP JUMP JUMPDEST PUSH1 0x0 DUP2 SWAP1 POP PUSH1 0x20 DUP3 ADD SWAP1 POP SWAP2 SWAP1 POP JUMP JUMPDEST PUSH1 0x0 DUP3 DUP3 MSTORE PUSH1 0x20 DUP3 ADD SWAP1 POP SWAP3 SWAP2 POP POP JUMP JUMPDEST PUSH1 0x0 PUSH2 0x2770 DUP3 PUSH2 0x23F2 JUMP JUMPDEST PUSH2 0x277A DUP2 DUP6 PUSH2 0x2754 JUMP JUMPDEST SWAP4 POP PUSH2 0x278A DUP2 DUP6 PUSH1 0x20 DUP7 ADD PUSH2 0x240E JUMP JUMPDEST PUSH2 0x2793 DUP2 PUSH2 0x2438 JUMP JUMPDEST DUP5 ADD SWAP2 POP POP SWAP3 SWAP2 POP POP JUMP JUMPDEST PUSH2 0x27A7 DUP2 PUSH2 0x230F JUMP JUMPDEST DUP3 MSTORE POP POP JUMP JUMPDEST PUSH2 0x27B6 DUP2 PUSH2 0x24D8 JUMP JUMPDEST DUP3 MSTORE POP POP JUMP JUMPDEST PUSH1 0x0 PUSH1 0x80 DUP4 ADD PUSH1 0x0 DUP4 ADD MLOAD DUP5 DUP3 SUB PUSH1 0x0 DUP7 ADD MSTORE PUSH2 0x27D9 DUP3 DUP3 PUSH2 0x2765 JUMP JUMPDEST SWAP2 POP POP PUSH1 0x20 DUP4 ADD MLOAD DUP5 DUP3 SUB PUSH1 0x20 DUP7 ADD MSTORE PUSH2 0x27F3 DUP3 DUP3 PUSH2 0x2765 JUMP JUMPDEST SWAP2 POP POP PUSH1 0x40 DUP4 ADD MLOAD PUSH2 0x2808 PUSH1 0x40 DUP7 ADD DUP3 PUSH2 0x279E JUMP JUMPDEST POP PUSH1 0x60 DUP4 ADD MLOAD PUSH2 0x281B PUSH1 0x60 DUP7 ADD DUP3 PUSH2 0x27AD JUMP JUMPDEST POP DUP1 SWAP2 POP POP SWAP3 SWAP2 POP POP JUMP JUMPDEST PUSH1 0x0 PUSH2 0x2832 DUP4 DUP4 PUSH2 0x27BC JUMP JUMPDEST SWAP1 POP SWAP3 SWAP2 POP POP JUMP JUMPDEST PUSH1 0x0 PUSH1 0x20 DUP3 ADD SWAP1 POP SWAP2 SWAP1 POP JUMP JUMPDEST PUSH1 0x0 PUSH2 0x2852 DUP3 PUSH2 0x2728 JUMP JUMPDEST PUSH2 0x285C DUP2 DUP6 PUSH2 0x2733 JUMP JUMPDEST SWAP4 POP DUP4 PUSH1 0x20 DUP3 MUL DUP6 ADD PUSH2 0x286E DUP6 PUSH2 0x2744 JUMP JUMPDEST DUP1 PUSH1 0x0 JUMPDEST DUP6 DUP2 LT ISZERO PUSH2 0x28AA JUMPI DUP5 DUP5 SUB DUP10 MSTORE DUP2 MLOAD PUSH2 0x288B DUP6 DUP3 PUSH2 0x2826 JUMP JUMPDEST SWAP5 POP PUSH2 0x2896 DUP4 PUSH2 0x283A JUMP JUMPDEST SWAP3 POP PUSH1 0x20 DUP11 ADD SWAP10 POP POP PUSH1 0x1 DUP2 ADD SWAP1 POP PUSH2 0x2872 JUMP JUMPDEST POP DUP3 SWAP8 POP DUP8 SWAP6 POP POP POP POP POP POP SWAP3 SWAP2 POP POP JUMP JUMPDEST PUSH1 0x0 PUSH1 0x20 DUP3 ADD SWAP1 POP DUP2 DUP2 SUB PUSH1 0x0 DUP4 ADD MSTORE PUSH2 0x28D6 DUP2 DUP5 PUSH2 0x2847 JUMP JUMPDEST SWAP1 POP SWAP3 SWAP2 POP POP JUMP JUMPDEST PUSH1 0x0 DUP1 REVERT JUMPDEST PUSH1 0x0 DUP1 REVERT JUMPDEST PUSH32 0x4E487B7100000000000000000000000000000000000000000000000000000000 PUSH1 0x0 MSTORE PUSH1 0x41 PUSH1 0x4 MSTORE PUSH1 0x24 PUSH1 0x0 REVERT JUMPDEST PUSH2 0x2920 DUP3 PUSH2 0x2438 JUMP JUMPDEST DUP2 ADD DUP2 DUP2 LT PUSH8 0xFFFFFFFFFFFFFFFF DUP3 GT OR ISZERO PUSH2 0x293F JUMPI PUSH2 0x293E PUSH2 0x28E8 JUMP JUMPDEST JUMPDEST DUP1 PUSH1 0x40 MSTORE POP POP POP JUMP JUMPDEST PUSH1 0x0 PUSH2 0x2952 PUSH2 0x24A4 JUMP JUMPDEST SWAP1 POP PUSH2 0x295E DUP3 DUP3 PUSH2 0x2917 JUMP JUMPDEST SWAP2 SWAP1 POP JUMP JUMPDEST PUSH1 0x0 PUSH8 0xFFFFFFFFFFFFFFFF DUP3 GT ISZERO PUSH2 0x297E JUMPI PUSH2 0x297D PUSH2 0x28E8 JUMP JUMPDEST JUMPDEST PUSH2 0x2987 DUP3 PUSH2 0x2438 JUMP JUMPDEST SWAP1 POP PUSH1 0x20 DUP2 ADD SWAP1 POP SWAP2 SWAP1 POP JUMP JUMPDEST DUP3 DUP2 DUP4 CALLDATACOPY PUSH1 0x0 DUP4 DUP4 ADD MSTORE POP POP POP JUMP JUMPDEST PUSH1 0x0 PUSH2 0x29B6 PUSH2 0x29B1 DUP5 PUSH2 0x2963 JUMP JUMPDEST PUSH2 0x2948 JUMP JUMPDEST SWAP1 POP DUP3 DUP2 MSTORE PUSH1 0x20 DUP2 ADD DUP5 DUP5 DUP5 ADD GT ISZERO PUSH2 0x29D2 JUMPI PUSH2 0x29D1 PUSH2 0x28E3 JUMP JUMPDEST JUMPDEST PUSH2 0x29DD DUP5 DUP3 DUP6 PUSH2 0x2994 JUMP JUMPDEST POP SWAP4 SWAP3 POP POP POP JUMP JUMPDEST PUSH1 0x0 DUP3 PUSH1 0x1F DUP4 ADD SLT PUSH2 0x29FA JUMPI PUSH2 0x29F9 PUSH2 0x28DE JUMP JUMPDEST JUMPDEST DUP2 CALLDATALOAD PUSH2 0x2A0A DUP5 DUP3 PUSH1 0x20 DUP7 ADD PUSH2 0x29A3 JUMP JUMPDEST SWAP2 POP POP SWAP3 SWAP2 POP POP JUMP JUMPDEST PUSH1 0x0 DUP1 PUSH1 0x0 PUSH1 0x60 DUP5 DUP7 SUB SLT ISZERO PUSH2 0x2A2C JUMPI PUSH2 0x2A2B PUSH2 0x24AE JUMP JUMPDEST JUMPDEST PUSH1 0x0 DUP5 ADD CALLDATALOAD PUSH8 0xFFFFFFFFFFFFFFFF DUP2 GT ISZERO PUSH2 0x2A4A JUMPI PUSH2 0x2A49 PUSH2 0x24B3 JUMP JUMPDEST JUMPDEST PUSH2 0x2A56 DUP7 DUP3 DUP8 ADD PUSH2 0x29E5 JUMP JUMPDEST SWAP4 POP POP PUSH1 0x20 DUP5 ADD CALLDATALOAD PUSH8 0xFFFFFFFFFFFFFFFF DUP2 GT ISZERO PUSH2 0x2A77 JUMPI PUSH2 0x2A76 PUSH2 0x24B3 JUMP JUMPDEST JUMPDEST PUSH2 0x2A83 DUP7 DUP3 DUP8 ADD PUSH2 0x29E5 JUMP JUMPDEST SWAP3 POP POP PUSH1 0x40 PUSH2 0x2A94 DUP7 DUP3 DUP8 ADD PUSH2 0x252D JUMP JUMPDEST SWAP2 POP POP SWAP3 POP SWAP3 POP SWAP3 JUMP JUMPDEST PUSH1 0x0 DUP1 PUSH1 0x40 DUP4 DUP6 SUB SLT ISZERO PUSH2 0x2AB5 JUMPI PUSH2 0x2AB4 PUSH2 0x24AE JUMP JUMPDEST JUMPDEST PUSH1 0x0 PUSH2 0x2AC3 DUP6 DUP3 DUP7 ADD PUSH2 0x2501 JUMP JUMPDEST SWAP3 POP POP PUSH1 0x20 PUSH2 0x2AD4 DUP6 DUP3 DUP7 ADD PUSH2 0x2501 JUMP JUMPDEST SWAP2 POP POP SWAP3 POP SWAP3 SWAP1 POP JUMP JUMPDEST PUSH32 0x4E487B7100000000000000000000000000000000000000000000000000000000 PUSH1 0x0 MSTORE PUSH1 0x22 PUSH1 0x4 MSTORE PUSH1 0x24 PUSH1 0x0 REVERT JUMPDEST PUSH1 0x0 PUSH1 0x2 DUP3 DIV SWAP1 POP PUSH1 0x1 DUP3 AND DUP1 PUSH2 0x2B25 JUMPI PUSH1 0x7F DUP3 AND SWAP2 POP JUMPDEST PUSH1 0x20 DUP3 LT DUP2 SUB PUSH2 0x2B38 JUMPI PUSH2 0x2B37 PUSH2 0x2ADE JUMP JUMPDEST JUMPDEST POP SWAP2 SWAP1 POP JUMP JUMPDEST PUSH32 0x4E487B7100000000000000000000000000000000000000000000000000000000 PUSH1 0x0 MSTORE PUSH1 0x32 PUSH1 0x4 MSTORE PUSH1 0x24 PUSH1 0x0 REVERT JUMPDEST PUSH1 0x0 DUP2 SLOAD SWAP1 POP PUSH2 0x2B7C DUP2 PUSH2 0x2B0D JUMP JUMPDEST SWAP1 POP SWAP2 SWAP1 POP JUMP JUMPDEST PUSH1 0x0 DUP2 SWAP1 POP DUP2 PUSH1 0x0 MSTORE PUSH1 0x20 PUSH1 0x0 KECCAK256 SWAP1 POP SWAP2 SWAP1 POP JUMP JUMPDEST PUSH1 0x0 PUSH1 0x20 PUSH1 0x1F DUP4 ADD DIV SWAP1 POP SWAP2 SWAP1 POP JUMP JUMPDEST PUSH1 0x0 DUP3 DUP3 SHL SWAP1 POP SWAP3 SWAP2 POP POP JUMP JUMPDEST PUSH1 0x0 PUSH1 0x8 DUP4 MUL PUSH2 0x2BE5 PUSH32 0xFFFFFFFFFFFFFFFFFFFFFFFFFFFFFFFFFFFFFFFFFFFFFFFFFFFFFFFFFFFFFFFF DUP3 PUSH2 0x2BA8 JUMP JUMPDEST PUSH2 0x2BEF DUP7 DUP4 PUSH2 0x2BA8 JUMP JUMPDEST SWAP6 POP DUP1 NOT DUP5 AND SWAP4 POP DUP1 DUP7 AND DUP5 OR SWAP3 POP POP POP SWAP4 SWAP3 POP POP POP JUMP JUMPDEST PUSH1 0x0 DUP2 SWAP1 POP SWAP2 SWAP1 POP JUMP JUMPDEST PUSH1 0x0 PUSH2 0x2C2C PUSH2 0x2C27 PUSH2 0x2C22 DUP5 PUSH2 0x230F JUMP JUMPDEST PUSH2 0x2C07 JUMP JUMPDEST PUSH2 0x230F JUMP JUMPDEST SWAP1 POP SWAP2 SWAP1 POP JUMP JUMPDEST PUSH1 0x0 DUP2 SWAP1 POP SWAP2 SWAP1 POP JUMP JUMPDEST PUSH2 0x2C46 DUP4 PUSH2 0x2C11 JUMP JUMPDEST PUSH2 0x2C5A PUSH2 0x2C52 DUP3 PUSH2 0x2C33 JUMP JUMPDEST DUP5 DUP5 SLOAD PUSH2 0x2BB5 JUMP JUMPDEST DUP3 SSTORE POP POP POP POP JUMP JUMPDEST PUSH1 0x0 SWAP1 JUMP JUMPDEST PUSH2 0x2C6F PUSH2 0x2C62 JUMP JUMPDEST PUSH2 0x2C7A DUP2 DUP5 DUP5 PUSH2 0x2C3D JUMP JUMPDEST POP POP POP JUMP JUMPDEST JUMPDEST DUP2 DUP2 LT ISZERO PUSH2 0x2C9E JUMPI PUSH2 0x2C93 PUSH1 0x0 DUP3 PUSH2 0x2C67 JUMP JUMPDEST PUSH1 0x1 DUP2 ADD SWAP1 POP PUSH2 0x2C80 JUMP JUMPDEST POP POP JUMP JUMPDEST PUSH1 0x1F DUP3 GT ISZERO PUSH2 0x2CE3 JUMPI PUSH2 0x2CB4 DUP2 PUSH2 0x2B83 JUMP JUMPDEST PUSH2 0x2CBD DUP5 PUSH2 0x2B98 JUMP JUMPDEST DUP2 ADD PUSH1 0x20 DUP6 LT ISZERO PUSH2 0x2CCC JUMPI DUP2 SWAP1 POP JUMPDEST PUSH2 0x2CE0 PUSH2 0x2CD8 DUP6 PUSH2 0x2B98 JUMP JUMPDEST DUP4 ADD DUP3 PUSH2 0x2C7F JUMP JUMPDEST POP POP JUMPDEST POP POP POP JUMP JUMPDEST PUSH1 0x0 DUP3 DUP3 SHR SWAP1 POP SWAP3 SWAP2 POP POP JUMP JUMPDEST PUSH1 0x0 PUSH2 0x2D06 PUSH1 0x0 NOT DUP5 PUSH1 0x8 MUL PUSH2 0x2CE8 JUMP JUMPDEST NOT DUP1 DUP4 AND SWAP2 POP POP SWAP3 SWAP2 POP POP JUMP JUMPDEST PUSH1 0x0 PUSH2 0x2D1F DUP4 DUP4 PUSH2 0x2CF5 JUMP JUMPDEST SWAP2 POP DUP3 PUSH1 0x2 MUL DUP3 OR SWAP1 POP SWAP3 SWAP2 POP POP JUMP JUMPDEST DUP2 DUP2 SUB PUSH2 0x2D3D JUMPI POP POP PUSH2 0x2E15 JUMP JUMPDEST PUSH2 0x2D46 DUP3 PUSH2 0x2B6D JUMP JUMPDEST PUSH8 0xFFFFFFFFFFFFFFFF DUP2 GT ISZERO PUSH2 0x2D5F JUMPI PUSH2 0x2D5E PUSH2 0x28E8 JUMP JUMPDEST JUMPDEST PUSH2 0x2D69 DUP3 SLOAD PUSH2 0x2B0D JUMP JUMPDEST PUSH2 0x2D74 DUP3 DUP3 DUP6 PUSH2 0x2CA2 JUMP JUMPDEST PUSH1 0x0 PUSH1 0x1F DUP4 GT PUSH1 0x1 DUP2 EQ PUSH2 0x2DA3 JUMPI PUSH1 0x0 DUP5 ISZERO PUSH2 0x2D91 JUMPI DUP3 DUP8 ADD SLOAD SWAP1 POP JUMPDEST PUSH2 0x2D9B DUP6 DUP3 PUSH2 0x2D13 JUMP JUMPDEST DUP7 SSTORE POP PUSH2 0x2E0E JUMP JUMPDEST PUSH1 0x1F NOT DUP5 AND PUSH2 0x2DB1 DUP8 PUSH2 0x2B83 JUMP JUMPDEST SWAP7 POP PUSH2 0x2DBC DUP7 PUSH2 0x2B83 JUMP JUMPDEST PUSH1 0x0 JUMPDEST DUP3 DUP2 LT ISZERO PUSH2 0x2DE4 JUMPI DUP5 DUP10 ADD SLOAD DUP3 SSTORE PUSH1 0x1 DUP3 ADD SWAP2 POP PUSH1 0x1 DUP6 ADD SWAP5 POP PUSH1 0x20 DUP2 ADD SWAP1 POP PUSH2 0x2DBF JUMP JUMPDEST DUP7 DUP4 LT ISZERO PUSH2 0x2E01 JUMPI DUP5 DUP10 ADD SLOAD PUSH2 0x2DFD PUSH1 0x1F DUP10 AND DUP3 PUSH2 0x2CF5 JUMP JUMPDEST DUP4 SSTORE POP JUMPDEST PUSH1 0x1 PUSH1 0x2 DUP9 MUL ADD DUP9 SSTORE POP POP POP JUMPDEST POP POP POP POP POP POP JUMPDEST JUMP JUMPDEST PUSH32 0x4E487B7100000000000000000000000000000000000000000000000000000000 PUSH1 0x0 MSTORE PUSH1 0x31 PUSH1 0x4 MSTORE PUSH1 0x24 PUSH1 0x0 REVERT JUMPDEST PUSH32 0x496E76616C696420696E64657820746F2072656D6F7665000000000000000000 PUSH1 0x0 DUP3 ADD MSTORE POP JUMP JUMPDEST PUSH1 0x0 PUSH2 0x2E7C PUSH1 0x17 DUP4 PUSH2 0x23FD JUMP JUMPDEST SWAP2 POP PUSH2 0x2E87 DUP3 PUSH2 0x2E46 JUMP JUMPDEST PUSH1 0x20 DUP3 ADD SWAP1 POP SWAP2 SWAP1 POP JUMP JUMPDEST PUSH1 0x0 PUSH1 0x20 DUP3 ADD SWAP1 POP DUP2 DUP2 SUB PUSH1 0x0 DUP4 ADD MSTORE PUSH2 0x2EAB DUP2 PUSH2 0x2E6F JUMP JUMPDEST SWAP1 POP SWAP2 SWAP1 POP JUMP JUMPDEST PUSH2 0x2EBB DUP3 PUSH2 0x23F2 JUMP JUMPDEST PUSH8 0xFFFFFFFFFFFFFFFF DUP2 GT ISZERO PUSH2 0x2ED4 JUMPI PUSH2 0x2ED3 PUSH2 0x28E8 JUMP JUMPDEST JUMPDEST PUSH2 0x2EDE DUP3 SLOAD PUSH2 0x2B0D JUMP JUMPDEST PUSH2 0x2EE9 DUP3 DUP3 DUP6 PUSH2 0x2CA2 JUMP JUMPDEST PUSH1 0x0 PUSH1 0x20 SWAP1 POP PUSH1 0x1F DUP4 GT PUSH1 0x1 DUP2 EQ PUSH2 0x2F1C JUMPI PUSH1 0x0 DUP5 ISZERO PUSH2 0x2F0A JUMPI DUP3 DUP8 ADD MLOAD SWAP1 POP JUMPDEST PUSH2 0x2F14 DUP6 DUP3 PUSH2 0x2D13 JUMP JUMPDEST DUP7 SSTORE POP PUSH2 0x2F7C JUMP JUMPDEST PUSH1 0x1F NOT DUP5 AND PUSH2 0x2F2A DUP7 PUSH2 0x2B83 JUMP JUMPDEST PUSH1 0x0 JUMPDEST DUP3 DUP2 LT ISZERO PUSH2 0x2F52 JUMPI DUP5 DUP10 ADD MLOAD DUP3 SSTORE PUSH1 0x1 DUP3 ADD SWAP2 POP PUSH1 0x20 DUP6 ADD SWAP5 POP PUSH1 0x20 DUP2 ADD SWAP1 POP PUSH2 0x2F2D JUMP JUMPDEST DUP7 DUP4 LT ISZERO PUSH2 0x2F6F JUMPI DUP5 DUP10 ADD MLOAD PUSH2 0x2F6B PUSH1 0x1F DUP10 AND DUP3 PUSH2 0x2CF5 JUMP JUMPDEST DUP4 SSTORE POP JUMPDEST PUSH1 0x1 PUSH1 0x2 DUP9 MUL ADD DUP9 SSTORE POP POP POP JUMPDEST POP POP POP POP POP POP JUMP INVALID LOG2 PUSH5 0x6970667358 0x22 SLT KECCAK256 SELFDESTRUCT 0xD7 0xD3 CALLDATACOPY 0xCC PUSH9 0xA5D881FE328957DE8 PUSH11 0xDB2EF44F766F19C0D4E9AD LT 0x4E SGT SLT 0xDE PUSH5 0x736F6C6343 STOP ADDMOD SGT STOP CALLER "
				},
				"gasEstimates": {
					"creation": {
						"codeDepositCost": "2443600",
						"executionCost": "infinite",
						"totalCost": "infinite"
					},
					"external": {
						"allowance(address,address)": "infinite",
						"approve(address,uint256)": "23169",
						"balanceOf(address)": "2908",
						"balances(address)": "2926",
						"burn(uint256)": "infinite",
						"buyGoods(uint256)": "infinite",
						"decimals()": "2516",
						"goodsForSale(uint256)": "infinite",
						"goodsUserBuy(address,uint256)": "infinite",
						"goodsUserRegister(address,uint256)": "infinite",
						"makeSale(uint256)": "infinite",
						"mypageGoods()": "infinite",
						"name()": "infinite",
						"registerGoods(string,string,uint256)": "infinite",
						"removeMyGoods(uint256)": "infinite",
						"showAllGoods()": "infinite",
						"showMyGoods()": "infinite",
						"symbol()": "infinite",
						"totalSupply()": "2497",
						"transfer(address,uint256)": "infinite",
						"transferFrom(address,address,uint256)": "infinite"
					}
				},
				"methodIdentifiers": {
					"allowance(address,address)": "dd62ed3e",
					"approve(address,uint256)": "095ea7b3",
					"balanceOf(address)": "70a08231",
					"balances(address)": "27e235e3",
					"burn(uint256)": "42966c68",
					"buyGoods(uint256)": "8f4babfb",
					"decimals()": "313ce567",
					"goodsForSale(uint256)": "296bbf86",
					"goodsUserBuy(address,uint256)": "974031e5",
					"goodsUserRegister(address,uint256)": "f0210f31",
					"makeSale(uint256)": "364083f4",
					"mypageGoods()": "a586784d",
					"name()": "06fdde03",
					"registerGoods(string,string,uint256)": "9fe6ef0f",
					"removeMyGoods(uint256)": "6cf8bce1",
					"showAllGoods()": "6bd7e3ac",
					"showMyGoods()": "676766c4",
					"symbol()": "95d89b41",
					"totalSupply()": "18160ddd",
					"transfer(address,uint256)": "a9059cbb",
					"transferFrom(address,address,uint256)": "23b872dd"
				}
			},
			"storageLayout": {
				"storage": [
					{
						"astId": 6,
						"contract": "contracts/Store.sol:Store",
						"label": "name",
						"offset": 0,
						"slot": "0",
						"type": "t_string_storage"
					},
					{
						"astId": 8,
						"contract": "contracts/Store.sol:Store",
						"label": "symbol",
						"offset": 0,
						"slot": "1",
						"type": "t_string_storage"
					},
					{
						"astId": 11,
						"contract": "contracts/Store.sol:Store",
						"label": "decimals",
						"offset": 0,
						"slot": "2",
						"type": "t_uint8"
					},
					{
						"astId": 14,
						"contract": "contracts/Store.sol:Store",
						"label": "totalSupply",
						"offset": 0,
						"slot": "3",
						"type": "t_uint256"
					},
					{
						"astId": 16,
						"contract": "contracts/Store.sol:Store",
						"label": "owner",
						"offset": 0,
						"slot": "4",
						"type": "t_address"
					},
					{
						"astId": 20,
						"contract": "contracts/Store.sol:Store",
						"label": "balances",
						"offset": 0,
						"slot": "5",
						"type": "t_mapping(t_address,t_uint256)"
					},
					{
						"astId": 27,
						"contract": "contracts/Store.sol:Store",
						"label": "allowance",
						"offset": 0,
						"slot": "6",
						"type": "t_mapping(t_address,t_mapping(t_address,t_uint256))"
					},
					{
						"astId": 327,
						"contract": "contracts/Store.sol:Store",
						"label": "goodsForSale",
						"offset": 0,
						"slot": "7",
						"type": "t_array(t_struct(Goods)320_storage)dyn_storage"
					},
					{
						"astId": 333,
						"contract": "contracts/Store.sol:Store",
						"label": "goodsUserRegister",
						"offset": 0,
						"slot": "8",
						"type": "t_mapping(t_address,t_array(t_struct(Goods)320_storage)dyn_storage)"
					},
					{
						"astId": 339,
						"contract": "contracts/Store.sol:Store",
						"label": "goodsUserBuy",
						"offset": 0,
						"slot": "9",
						"type": "t_mapping(t_address,t_array(t_struct(Goods)320_storage)dyn_storage)"
					}
				],
				"types": {
					"t_address": {
						"encoding": "inplace",
						"label": "address",
						"numberOfBytes": "20"
					},
					"t_array(t_struct(Goods)320_storage)dyn_storage": {
						"base": "t_struct(Goods)320_storage",
						"encoding": "dynamic_array",
						"label": "struct Store.Goods[]",
						"numberOfBytes": "32"
					},
					"t_mapping(t_address,t_array(t_struct(Goods)320_storage)dyn_storage)": {
						"encoding": "mapping",
						"key": "t_address",
						"label": "mapping(address => struct Store.Goods[])",
						"numberOfBytes": "32",
						"value": "t_array(t_struct(Goods)320_storage)dyn_storage"
					},
					"t_mapping(t_address,t_mapping(t_address,t_uint256))": {
						"encoding": "mapping",
						"key": "t_address",
						"label": "mapping(address => mapping(address => uint256))",
						"numberOfBytes": "32",
						"value": "t_mapping(t_address,t_uint256)"
					},
					"t_mapping(t_address,t_uint256)": {
						"encoding": "mapping",
						"key": "t_address",
						"label": "mapping(address => uint256)",
						"numberOfBytes": "32",
						"value": "t_uint256"
					},
					"t_string_storage": {
						"encoding": "bytes",
						"label": "string",
						"numberOfBytes": "32"
					},
					"t_struct(Goods)320_storage": {
						"encoding": "inplace",
						"label": "struct Store.Goods",
						"members": [
							{
								"astId": 313,
								"contract": "contracts/Store.sol:Store",
								"label": "url",
								"offset": 0,
								"slot": "0",
								"type": "t_string_storage"
							},
							{
								"astId": 315,
								"contract": "contracts/Store.sol:Store",
								"label": "name",
								"offset": 0,
								"slot": "1",
								"type": "t_string_storage"
							},
							{
								"astId": 317,
								"contract": "contracts/Store.sol:Store",
								"label": "price",
								"offset": 0,
								"slot": "2",
								"type": "t_uint256"
							},
							{
								"astId": 319,
								"contract": "contracts/Store.sol:Store",
								"label": "seller",
								"offset": 0,
								"slot": "3",
								"type": "t_address"
							}
						],
						"numberOfBytes": "128"
					},
					"t_uint256": {
						"encoding": "inplace",
						"label": "uint256",
						"numberOfBytes": "32"
					},
					"t_uint8": {
						"encoding": "inplace",
						"label": "uint8",
						"numberOfBytes": "1"
					}
				}
			},
			"userdoc": {
				"kind": "user",
				"methods": {},
				"version": 1
			}
		}
	}
}