{
	"contracts/Pokemon.sol": {
		"Pokemon": {
			"abi": [
				{
					"inputs": [],
					"stateMutability": "nonpayable",
					"type": "constructor"
				},
				{
					"inputs": [
						{
							"internalType": "address",
							"name": "",
							"type": "address"
						},
						{
							"internalType": "address",
							"name": "",
							"type": "address"
						}
					],
					"name": "allowance",
					"outputs": [
						{
							"internalType": "uint256",
							"name": "",
							"type": "uint256"
						}
					],
					"stateMutability": "view",
					"type": "function"
				},
				{
					"inputs": [
						{
							"internalType": "address",
							"name": "spender",
							"type": "address"
						},
						{
							"internalType": "uint256",
							"name": "amount",
							"type": "uint256"
						}
					],
					"name": "approve",
					"outputs": [
						{
							"internalType": "bool",
							"name": "",
							"type": "bool"
						}
					],
					"stateMutability": "nonpayable",
					"type": "function"
				},
				{
					"inputs": [
						{
							"internalType": "address",
							"name": "account",
							"type": "address"
						}
					],
					"name": "balanceOf",
					"outputs": [
						{
							"internalType": "uint256",
							"name": "",
							"type": "uint256"
						}
					],
					"stateMutability": "view",
					"type": "function"
				},
				{
					"inputs": [
						{
							"internalType": "address",
							"name": "",
							"type": "address"
						}
					],
					"name": "balances",
					"outputs": [
						{
							"internalType": "uint256",
							"name": "",
							"type": "uint256"
						}
					],
					"stateMutability": "view",
					"type": "function"
				},
				{
					"inputs": [
						{
							"internalType": "uint256",
							"name": "amount",
							"type": "uint256"
						}
					],
					"name": "burn",
					"outputs": [],
					"stateMutability": "nonpayable",
					"type": "function"
				},
				{
					"inputs": [],
					"name": "buyPokemon",
					"outputs": [],
					"stateMutability": "nonpayable",
					"type": "function"
				},
				{
					"inputs": [],
					"name": "decimals",
					"outputs": [
						{
							"internalType": "uint8",
							"name": "",
							"type": "uint8"
						}
					],
					"stateMutability": "view",
					"type": "function"
				},
				{
					"inputs": [],
					"name": "getPokemon",
					"outputs": [
						{
							"components": [
								{
									"internalType": "string",
									"name": "url",
									"type": "string"
								},
								{
									"internalType": "string",
									"name": "name",
									"type": "string"
								}
							],
							"internalType": "struct Pokemon.Poke[]",
							"name": "",
							"type": "tuple[]"
						}
					],
					"stateMutability": "view",
					"type": "function"
				},
				{
					"inputs": [],
					"name": "getPokemonUsers",
					"outputs": [
						{
							"components": [
								{
									"internalType": "address",
									"name": "account",
									"type": "address"
								}
							],
							"internalType": "struct Pokemon.User[]",
							"name": "",
							"type": "tuple[]"
						}
					],
					"stateMutability": "view",
					"type": "function"
				},
				{
					"inputs": [
						{
							"internalType": "address",
							"name": "who",
							"type": "address"
						},
						{
							"internalType": "uint256",
							"name": "which",
							"type": "uint256"
						}
					],
					"name": "movePokemon",
					"outputs": [],
					"stateMutability": "nonpayable",
					"type": "function"
				},
				{
					"inputs": [],
					"name": "name",
					"outputs": [
						{
							"internalType": "string",
							"name": "",
							"type": "string"
						}
					],
					"stateMutability": "view",
					"type": "function"
				},
				{
					"inputs": [
						{
							"internalType": "address",
							"name": "",
							"type": "address"
						},
						{
							"internalType": "uint256",
							"name": "",
							"type": "uint256"
						}
					],
					"name": "pokemons",
					"outputs": [
						{
							"internalType": "string",
							"name": "url",
							"type": "string"
						},
						{
							"internalType": "string",
							"name": "name",
							"type": "string"
						}
					],
					"stateMutability": "view",
					"type": "function"
				},
				{
					"inputs": [],
					"name": "symbol",
					"outputs": [
						{
							"internalType": "string",
							"name": "",
							"type": "string"
						}
					],
					"stateMutability": "view",
					"type": "function"
				},
				{
					"inputs": [],
					"name": "totalSupply",
					"outputs": [
						{
							"internalType": "uint256",
							"name": "",
							"type": "uint256"
						}
					],
					"stateMutability": "view",
					"type": "function"
				},
				{
					"inputs": [
						{
							"internalType": "address",
							"name": "to",
							"type": "address"
						},
						{
							"internalType": "uint256",
							"name": "amount",
							"type": "uint256"
						}
					],
					"name": "transfer",
					"outputs": [
						{
							"internalType": "bool",
							"name": "",
							"type": "bool"
						}
					],
					"stateMutability": "nonpayable",
					"type": "function"
				},
				{
					"inputs": [
						{
							"internalType": "address",
							"name": "sender",
							"type": "address"
						},
						{
							"internalType": "address",
							"name": "to",
							"type": "address"
						},
						{
							"internalType": "uint256",
							"name": "amount",
							"type": "uint256"
						}
					],
					"name": "transferFrom",
					"outputs": [
						{
							"internalType": "bool",
							"name": "",
							"type": "bool"
						}
					],
					"stateMutability": "nonpayable",
					"type": "function"
				},
				{
					"inputs": [
						{
							"internalType": "uint256",
							"name": "",
							"type": "uint256"
						}
					],
					"name": "users",
					"outputs": [
						{
							"internalType": "address",
							"name": "account",
							"type": "address"
						}
					],
					"stateMutability": "view",
					"type": "function"
				},
				{
					"stateMutability": "payable",
					"type": "receive"
				}
			],
			"devdoc": {
				"kind": "dev",
				"methods": {},
				"version": 1
			},
			"evm": {
				"assembly": "    /* \"contracts/Pokemon.sol\":81:3405  contract Pokemon is ERC20 {... */\n  mstore(0x40, 0x80)\n    /* \"contracts/ERC20.sol\":221:223  18 */\n  0x12\n    /* \"contracts/ERC20.sol\":197:223  uint8 public decimals = 18 */\n  0x02\n  exp(0x0100, 0x00)\n  dup2\n  sload\n  dup2\n  0xff\n  mul\n  not\n  and\n  swap1\n  dup4\n  0xff\n  and\n  mul\n  or\n  swap1\n  sstore\n  pop\n    /* \"contracts/Pokemon.sol\":438:448  1000 ether */\n  0x3635c9adc5dea00000\n    /* \"contracts/Pokemon.sol\":409:448  uint256 private tokenPrice = 1000 ether */\n  0x07\n  sstore\n    /* \"contracts/Pokemon.sol\":499:556  string[] pokemonName = [\"Pikachu\", \"Kobuk\", \"Charmander\"] */\n  mload(0x40)\n  dup1\n  0x60\n  add\n  0x40\n  mstore\n  dup1\n  mload(0x40)\n  dup1\n  0x40\n  add\n  0x40\n  mstore\n  dup1\n  0x07\n  dup2\n  mstore\n  0x20\n  add\n  0x50696b6163687500000000000000000000000000000000000000000000000000\n  dup2\n  mstore\n  pop\n  dup2\n  mstore\n  0x20\n  add\n  mload(0x40)\n  dup1\n  0x40\n  add\n  0x40\n  mstore\n  dup1\n  0x05\n  dup2\n  mstore\n  0x20\n  add\n  0x4b6f62756b000000000000000000000000000000000000000000000000000000\n  dup2\n  mstore\n  pop\n  dup2\n  mstore\n  0x20\n  add\n  mload(0x40)\n  dup1\n  0x40\n  add\n  0x40\n  mstore\n  dup1\n  0x0a\n  dup2\n  mstore\n  0x20\n  add\n  0x436861726d616e64657200000000000000000000000000000000000000000000\n  dup2\n  mstore\n  pop\n  dup2\n  mstore\n  pop\n  0x08\n  swap1\n  0x03\n  tag_1\n  swap3\n  swap2\n  swap1\n  tag_2\n  jump\t// in\ntag_1:\n  pop\n    /* \"contracts/Pokemon.sol\":587:995  string[] pokemonUrl = [... */\n  mload(0x40)\n  dup1\n  0x60\n  add\n  0x40\n  mstore\n  dup1\n  mload(0x40)\n  dup1\n  0xa0\n  add\n  0x40\n  mstore\n  dup1\n  0x63\n  dup2\n  mstore\n  0x20\n  add\n  data_1dd082851ac00d66e692260203b9ee20f7b22e309ba09a410aaba0d5a993b73f\n  0x63\n  swap2\n  codecopy\n  dup2\n  mstore\n  0x20\n  add\n  mload(0x40)\n  dup1\n  0xc0\n  add\n  0x40\n  mstore\n  dup1\n  0x84\n  dup2\n  mstore\n  0x20\n  add\n  data_dbb830ec745000e961660c5a5fdcfc26de15a97e1bffef2d2ac15546d92de13a\n  0x84\n  swap2\n  codecopy\n  dup2\n  mstore\n  0x20\n  add\n  mload(0x40)\n  dup1\n  0xa0\n  add\n  0x40\n  mstore\n  dup1\n  0x71\n  dup2\n  mstore\n  0x20\n  add\n  data_6c58f914793591484bd99eb2cb7aceafc84f7cf0e80c95f3c9c65fa4b831c9e3\n  0x71\n  swap2\n  codecopy\n  dup2\n  mstore\n  pop\n  0x09\n  swap1\n  0x03\n  tag_3\n  swap3\n  swap2\n  swap1\n  tag_2\n  jump\t// in\ntag_3:\n  pop\n    /* \"contracts/Pokemon.sol\":113:165  constructor() ERC20(\"Pokemon\", \"POK\", 10000) {... */\n  callvalue\n  dup1\n  iszero\n  tag_4\n  jumpi\n  0x00\n  dup1\n  revert\ntag_4:\n  pop\n    /* \"contracts/ERC20.sol\":1273:1473  constructor(string memory _name, string memory _symbol, uint256 _amount) {... */\n  mload(0x40)\n  dup1\n  0x40\n  add\n  0x40\n  mstore\n  dup1\n  0x07\n  dup2\n  mstore\n  0x20\n  add\n  0x506f6b656d6f6e00000000000000000000000000000000000000000000000000\n  dup2\n  mstore\n  pop\n  mload(0x40)\n  dup1\n  0x40\n  add\n  0x40\n  mstore\n  dup1\n  0x03\n  dup2\n  mstore\n  0x20\n  add\n  0x504f4b0000000000000000000000000000000000000000000000000000000000\n  dup2\n  mstore\n  pop\n    /* \"contracts/Pokemon.sol\":151:156  10000 */\n  0x2710\n    /* \"contracts/ERC20.sol\":1364:1374  msg.sender */\n  caller\n    /* \"contracts/ERC20.sol\":1356:1361  owner */\n  0x04\n  0x00\n    /* \"contracts/ERC20.sol\":1356:1374  owner = msg.sender */\n  0x0100\n  exp\n  dup2\n  sload\n  dup2\n  0xffffffffffffffffffffffffffffffffffffffff\n  mul\n  not\n  and\n  swap1\n  dup4\n  0xffffffffffffffffffffffffffffffffffffffff\n  and\n  mul\n  or\n  swap1\n  sstore\n  pop\n    /* \"contracts/ERC20.sol\":1391:1396  _name */\n  dup3\n    /* \"contracts/ERC20.sol\":1384:1388  name */\n  0x00\n    /* \"contracts/ERC20.sol\":1384:1396  name = _name */\n  swap1\n  dup2\n  tag_8\n  swap2\n  swap1\n  tag_9\n  jump\t// in\ntag_8:\n  pop\n    /* \"contracts/ERC20.sol\":1415:1422  _symbol */\n  dup2\n    /* \"contracts/ERC20.sol\":1406:1412  symbol */\n  0x01\n    /* \"contracts/ERC20.sol\":1406:1422  symbol = _symbol */\n  swap1\n  dup2\n  tag_10\n  swap2\n  swap1\n  tag_9\n  jump\t// in\ntag_10:\n  pop\n    /* \"contracts/ERC20.sol\":1433:1466  _mint(_amount * (10 ** decimals)) */\n  tag_11\n    /* \"contracts/ERC20.sol\":1456:1464  decimals */\n  0x02\n  0x00\n  swap1\n  sload\n  swap1\n  0x0100\n  exp\n  swap1\n  div\n  0xff\n  and\n    /* \"contracts/ERC20.sol\":1450:1452  10 */\n  0x0a\n    /* \"contracts/ERC20.sol\":1450:1464  10 ** decimals */\n  tag_12\n  swap2\n  swap1\n  tag_13\n  jump\t// in\ntag_12:\n    /* \"contracts/ERC20.sol\":1439:1446  _amount */\n  dup3\n    /* \"contracts/ERC20.sol\":1439:1465  _amount * (10 ** decimals) */\n  tag_14\n  swap2\n  swap1\n  tag_15\n  jump\t// in\ntag_14:\n    /* \"contracts/ERC20.sol\":1433:1438  _mint */\n  shl(0x20, tag_16)\n    /* \"contracts/ERC20.sol\":1433:1466  _mint(_amount * (10 ** decimals)) */\n  0x20\n  shr\n  jump\t// in\ntag_11:\n    /* \"contracts/ERC20.sol\":1273:1473  constructor(string memory _name, string memory _symbol, uint256 _amount) {... */\n  pop\n  pop\n  pop\n    /* \"contracts/Pokemon.sol\":81:3405  contract Pokemon is ERC20 {... */\n  jump(tag_18)\n    /* \"contracts/ERC20.sol\":1500:1615  function _mint(uint amount) internal {... */\ntag_16:\n    /* \"contracts/ERC20.sol\":1571:1577  amount */\n  dup1\n    /* \"contracts/ERC20.sol\":1547:1555  balances */\n  0x05\n    /* \"contracts/ERC20.sol\":1547:1567  balances[msg.sender] */\n  0x00\n    /* \"contracts/ERC20.sol\":1556:1566  msg.sender */\n  caller\n    /* \"contracts/ERC20.sol\":1547:1567  balances[msg.sender] */\n  0xffffffffffffffffffffffffffffffffffffffff\n  and\n  0xffffffffffffffffffffffffffffffffffffffff\n  and\n  dup2\n  mstore\n  0x20\n  add\n  swap1\n  dup2\n  mstore\n  0x20\n  add\n  0x00\n  keccak256\n  0x00\n    /* \"contracts/ERC20.sol\":1547:1577  balances[msg.sender] += amount */\n  dup3\n  dup3\n  sload\n  tag_20\n  swap2\n  swap1\n  tag_21\n  jump\t// in\ntag_20:\n  swap3\n  pop\n  pop\n  dup2\n  swap1\n  sstore\n  pop\n    /* \"contracts/ERC20.sol\":1602:1608  amount */\n  dup1\n    /* \"contracts/ERC20.sol\":1587:1598  totalSupply */\n  0x03\n  0x00\n    /* \"contracts/ERC20.sol\":1587:1608  totalSupply += amount */\n  dup3\n  dup3\n  sload\n  tag_22\n  swap2\n  swap1\n  tag_21\n  jump\t// in\ntag_22:\n  swap3\n  pop\n  pop\n  dup2\n  swap1\n  sstore\n  pop\n    /* \"contracts/ERC20.sol\":1500:1615  function _mint(uint amount) internal {... */\n  pop\n  jump\t// out\n    /* \"contracts/Pokemon.sol\":81:3405  contract Pokemon is ERC20 {... */\ntag_2:\n  dup3\n  dup1\n  sload\n  dup3\n  dup3\n  sstore\n  swap1\n  0x00\n  mstore\n  keccak256(0x00, 0x20)\n  swap1\n  dup2\n  add\n  swap3\n  dup3\n  iszero\n  tag_23\n  jumpi\n  swap2\n  0x20\n  mul\n  dup3\n  add\ntag_24:\n  dup3\n  dup2\n  gt\n  iszero\n  tag_25\n  jumpi\n  dup3\n  mload\n  dup3\n  swap1\n  dup2\n  tag_26\n  swap2\n  swap1\n  tag_9\n  jump\t// in\ntag_26:\n  pop\n  swap2\n  0x20\n  add\n  swap2\n  swap1\n  0x01\n  add\n  swap1\n  jump(tag_24)\ntag_25:\ntag_23:\n  pop\n  swap1\n  pop\n  tag_27\n  swap2\n  swap1\n  tag_28\n  jump\t// in\ntag_27:\n  pop\n  swap1\n  jump\t// out\ntag_28:\ntag_29:\n  dup1\n  dup3\n  gt\n  iszero\n  tag_30\n  jumpi\n  0x00\n  dup2\n  dup2\n  tag_31\n  swap2\n  swap1\n  tag_32\n  jump\t// in\ntag_31:\n  pop\n  0x01\n  add\n  jump(tag_29)\ntag_30:\n  pop\n  swap1\n  jump\t// out\ntag_32:\n  pop\n  dup1\n  sload\n  tag_33\n  swap1\n  tag_34\n  jump\t// in\ntag_33:\n  0x00\n  dup3\n  sstore\n  dup1\n  0x1f\n  lt\n  tag_36\n  jumpi\n  pop\n  jump(tag_35)\ntag_36:\n  0x1f\n  add\n  0x20\n  swap1\n  div\n  swap1\n  0x00\n  mstore\n  keccak256(0x00, 0x20)\n  swap1\n  dup2\n  add\n  swap1\n  tag_37\n  swap2\n  swap1\n  tag_38\n  jump\t// in\ntag_37:\ntag_35:\n  pop\n  jump\t// out\ntag_38:\ntag_39:\n  dup1\n  dup3\n  gt\n  iszero\n  tag_40\n  jumpi\n  0x00\n  dup2\n  0x00\n  swap1\n  sstore\n  pop\n  0x01\n  add\n  jump(tag_39)\ntag_40:\n  pop\n  swap1\n  jump\t// out\n    /* \"#utility.yul\":7:106   */\ntag_41:\n    /* \"#utility.yul\":59:65   */\n  0x00\n    /* \"#utility.yul\":93:98   */\n  dup2\n    /* \"#utility.yul\":87:99   */\n  mload\n    /* \"#utility.yul\":77:99   */\n  swap1\n  pop\n    /* \"#utility.yul\":7:106   */\n  swap2\n  swap1\n  pop\n  jump\t// out\n    /* \"#utility.yul\":112:292   */\ntag_42:\n    /* \"#utility.yul\":160:237   */\n  0x4e487b7100000000000000000000000000000000000000000000000000000000\n    /* \"#utility.yul\":157:158   */\n  0x00\n    /* \"#utility.yul\":150:238   */\n  mstore\n    /* \"#utility.yul\":257:261   */\n  0x41\n    /* \"#utility.yul\":254:255   */\n  0x04\n    /* \"#utility.yul\":247:262   */\n  mstore\n    /* \"#utility.yul\":281:285   */\n  0x24\n    /* \"#utility.yul\":278:279   */\n  0x00\n    /* \"#utility.yul\":271:286   */\n  revert\n    /* \"#utility.yul\":298:478   */\ntag_43:\n    /* \"#utility.yul\":346:423   */\n  0x4e487b7100000000000000000000000000000000000000000000000000000000\n    /* \"#utility.yul\":343:344   */\n  0x00\n    /* \"#utility.yul\":336:424   */\n  mstore\n    /* \"#utility.yul\":443:447   */\n  0x22\n    /* \"#utility.yul\":440:441   */\n  0x04\n    /* \"#utility.yul\":433:448   */\n  mstore\n    /* \"#utility.yul\":467:471   */\n  0x24\n    /* \"#utility.yul\":464:465   */\n  0x00\n    /* \"#utility.yul\":457:472   */\n  revert\n    /* \"#utility.yul\":484:804   */\ntag_34:\n    /* \"#utility.yul\":528:534   */\n  0x00\n    /* \"#utility.yul\":565:566   */\n  0x02\n    /* \"#utility.yul\":559:563   */\n  dup3\n    /* \"#utility.yul\":555:567   */\n  div\n    /* \"#utility.yul\":545:567   */\n  swap1\n  pop\n    /* \"#utility.yul\":612:613   */\n  0x01\n    /* \"#utility.yul\":606:610   */\n  dup3\n    /* \"#utility.yul\":602:614   */\n  and\n    /* \"#utility.yul\":633:651   */\n  dup1\n    /* \"#utility.yul\":623:704   */\n  tag_70\n  jumpi\n    /* \"#utility.yul\":689:693   */\n  0x7f\n    /* \"#utility.yul\":681:687   */\n  dup3\n    /* \"#utility.yul\":677:694   */\n  and\n    /* \"#utility.yul\":667:694   */\n  swap2\n  pop\n    /* \"#utility.yul\":623:704   */\ntag_70:\n    /* \"#utility.yul\":751:753   */\n  0x20\n    /* \"#utility.yul\":743:749   */\n  dup3\n    /* \"#utility.yul\":740:754   */\n  lt\n    /* \"#utility.yul\":720:738   */\n  dup2\n    /* \"#utility.yul\":717:755   */\n  sub\n    /* \"#utility.yul\":714:798   */\n  tag_71\n  jumpi\n    /* \"#utility.yul\":770:788   */\n  tag_72\n  tag_43\n  jump\t// in\ntag_72:\n    /* \"#utility.yul\":714:798   */\ntag_71:\n    /* \"#utility.yul\":535:804   */\n  pop\n    /* \"#utility.yul\":484:804   */\n  swap2\n  swap1\n  pop\n  jump\t// out\n    /* \"#utility.yul\":810:951   */\ntag_44:\n    /* \"#utility.yul\":859:863   */\n  0x00\n    /* \"#utility.yul\":882:885   */\n  dup2\n    /* \"#utility.yul\":874:885   */\n  swap1\n  pop\n    /* \"#utility.yul\":905:908   */\n  dup2\n    /* \"#utility.yul\":902:903   */\n  0x00\n    /* \"#utility.yul\":895:909   */\n  mstore\n    /* \"#utility.yul\":939:943   */\n  0x20\n    /* \"#utility.yul\":936:937   */\n  0x00\n    /* \"#utility.yul\":926:944   */\n  keccak256\n    /* \"#utility.yul\":918:944   */\n  swap1\n  pop\n    /* \"#utility.yul\":810:951   */\n  swap2\n  swap1\n  pop\n  jump\t// out\n    /* \"#utility.yul\":957:1050   */\ntag_45:\n    /* \"#utility.yul\":994:1000   */\n  0x00\n    /* \"#utility.yul\":1041:1043   */\n  0x20\n    /* \"#utility.yul\":1036:1038   */\n  0x1f\n    /* \"#utility.yul\":1029:1034   */\n  dup4\n    /* \"#utility.yul\":1025:1039   */\n  add\n    /* \"#utility.yul\":1021:1044   */\n  div\n    /* \"#utility.yul\":1011:1044   */\n  swap1\n  pop\n    /* \"#utility.yul\":957:1050   */\n  swap2\n  swap1\n  pop\n  jump\t// out\n    /* \"#utility.yul\":1056:1163   */\ntag_46:\n    /* \"#utility.yul\":1100:1108   */\n  0x00\n    /* \"#utility.yul\":1150:1155   */\n  dup3\n    /* \"#utility.yul\":1144:1148   */\n  dup3\n    /* \"#utility.yul\":1140:1156   */\n  shl\n    /* \"#utility.yul\":1119:1156   */\n  swap1\n  pop\n    /* \"#utility.yul\":1056:1163   */\n  swap3\n  swap2\n  pop\n  pop\n  jump\t// out\n    /* \"#utility.yul\":1169:1562   */\ntag_47:\n    /* \"#utility.yul\":1238:1244   */\n  0x00\n    /* \"#utility.yul\":1288:1289   */\n  0x08\n    /* \"#utility.yul\":1276:1286   */\n  dup4\n    /* \"#utility.yul\":1272:1290   */\n  mul\n    /* \"#utility.yul\":1311:1408   */\n  tag_77\n    /* \"#utility.yul\":1341:1407   */\n  0xffffffffffffffffffffffffffffffffffffffffffffffffffffffffffffffff\n    /* \"#utility.yul\":1330:1339   */\n  dup3\n    /* \"#utility.yul\":1311:1408   */\n  tag_46\n  jump\t// in\ntag_77:\n    /* \"#utility.yul\":1429:1468   */\n  tag_78\n    /* \"#utility.yul\":1459:1467   */\n  dup7\n    /* \"#utility.yul\":1448:1457   */\n  dup4\n    /* \"#utility.yul\":1429:1468   */\n  tag_46\n  jump\t// in\ntag_78:\n    /* \"#utility.yul\":1417:1468   */\n  swap6\n  pop\n    /* \"#utility.yul\":1501:1505   */\n  dup1\n    /* \"#utility.yul\":1497:1506   */\n  not\n    /* \"#utility.yul\":1490:1495   */\n  dup5\n    /* \"#utility.yul\":1486:1507   */\n  and\n    /* \"#utility.yul\":1477:1507   */\n  swap4\n  pop\n    /* \"#utility.yul\":1550:1554   */\n  dup1\n    /* \"#utility.yul\":1540:1548   */\n  dup7\n    /* \"#utility.yul\":1536:1555   */\n  and\n    /* \"#utility.yul\":1529:1534   */\n  dup5\n    /* \"#utility.yul\":1526:1556   */\n  or\n    /* \"#utility.yul\":1516:1556   */\n  swap3\n  pop\n    /* \"#utility.yul\":1245:1562   */\n  pop\n  pop\n    /* \"#utility.yul\":1169:1562   */\n  swap4\n  swap3\n  pop\n  pop\n  pop\n  jump\t// out\n    /* \"#utility.yul\":1568:1645   */\ntag_48:\n    /* \"#utility.yul\":1605:1612   */\n  0x00\n    /* \"#utility.yul\":1634:1639   */\n  dup2\n    /* \"#utility.yul\":1623:1639   */\n  swap1\n  pop\n    /* \"#utility.yul\":1568:1645   */\n  swap2\n  swap1\n  pop\n  jump\t// out\n    /* \"#utility.yul\":1651:1711   */\ntag_49:\n    /* \"#utility.yul\":1679:1682   */\n  0x00\n    /* \"#utility.yul\":1700:1705   */\n  dup2\n    /* \"#utility.yul\":1693:1705   */\n  swap1\n  pop\n    /* \"#utility.yul\":1651:1711   */\n  swap2\n  swap1\n  pop\n  jump\t// out\n    /* \"#utility.yul\":1717:1859   */\ntag_50:\n    /* \"#utility.yul\":1767:1776   */\n  0x00\n    /* \"#utility.yul\":1800:1853   */\n  tag_82\n    /* \"#utility.yul\":1818:1852   */\n  tag_83\n    /* \"#utility.yul\":1827:1851   */\n  tag_84\n    /* \"#utility.yul\":1845:1850   */\n  dup5\n    /* \"#utility.yul\":1827:1851   */\n  tag_48\n  jump\t// in\ntag_84:\n    /* \"#utility.yul\":1818:1852   */\n  tag_49\n  jump\t// in\ntag_83:\n    /* \"#utility.yul\":1800:1853   */\n  tag_48\n  jump\t// in\ntag_82:\n    /* \"#utility.yul\":1787:1853   */\n  swap1\n  pop\n    /* \"#utility.yul\":1717:1859   */\n  swap2\n  swap1\n  pop\n  jump\t// out\n    /* \"#utility.yul\":1865:1940   */\ntag_51:\n    /* \"#utility.yul\":1908:1911   */\n  0x00\n    /* \"#utility.yul\":1929:1934   */\n  dup2\n    /* \"#utility.yul\":1922:1934   */\n  swap1\n  pop\n    /* \"#utility.yul\":1865:1940   */\n  swap2\n  swap1\n  pop\n  jump\t// out\n    /* \"#utility.yul\":1946:2215   */\ntag_52:\n    /* \"#utility.yul\":2056:2095   */\n  tag_87\n    /* \"#utility.yul\":2087:2094   */\n  dup4\n    /* \"#utility.yul\":2056:2095   */\n  tag_50\n  jump\t// in\ntag_87:\n    /* \"#utility.yul\":2117:2208   */\n  tag_88\n    /* \"#utility.yul\":2166:2207   */\n  tag_89\n    /* \"#utility.yul\":2190:2206   */\n  dup3\n    /* \"#utility.yul\":2166:2207   */\n  tag_51\n  jump\t// in\ntag_89:\n    /* \"#utility.yul\":2158:2164   */\n  dup5\n    /* \"#utility.yul\":2151:2155   */\n  dup5\n    /* \"#utility.yul\":2145:2156   */\n  sload\n    /* \"#utility.yul\":2117:2208   */\n  tag_47\n  jump\t// in\ntag_88:\n    /* \"#utility.yul\":2111:2115   */\n  dup3\n    /* \"#utility.yul\":2104:2209   */\n  sstore\n    /* \"#utility.yul\":2022:2215   */\n  pop\n    /* \"#utility.yul\":1946:2215   */\n  pop\n  pop\n  pop\n  jump\t// out\n    /* \"#utility.yul\":2221:2294   */\ntag_53:\n    /* \"#utility.yul\":2266:2269   */\n  0x00\n    /* \"#utility.yul\":2221:2294   */\n  swap1\n  jump\t// out\n    /* \"#utility.yul\":2300:2489   */\ntag_54:\n    /* \"#utility.yul\":2377:2409   */\n  tag_92\n  tag_53\n  jump\t// in\ntag_92:\n    /* \"#utility.yul\":2418:2483   */\n  tag_93\n    /* \"#utility.yul\":2476:2482   */\n  dup2\n    /* \"#utility.yul\":2468:2474   */\n  dup5\n    /* \"#utility.yul\":2462:2466   */\n  dup5\n    /* \"#utility.yul\":2418:2483   */\n  tag_52\n  jump\t// in\ntag_93:\n    /* \"#utility.yul\":2353:2489   */\n  pop\n    /* \"#utility.yul\":2300:2489   */\n  pop\n  pop\n  jump\t// out\n    /* \"#utility.yul\":2495:2681   */\ntag_55:\n    /* \"#utility.yul\":2555:2675   */\ntag_95:\n    /* \"#utility.yul\":2572:2575   */\n  dup2\n    /* \"#utility.yul\":2565:2570   */\n  dup2\n    /* \"#utility.yul\":2562:2576   */\n  lt\n    /* \"#utility.yul\":2555:2675   */\n  iszero\n  tag_97\n  jumpi\n    /* \"#utility.yul\":2626:2665   */\n  tag_98\n    /* \"#utility.yul\":2663:2664   */\n  0x00\n    /* \"#utility.yul\":2656:2661   */\n  dup3\n    /* \"#utility.yul\":2626:2665   */\n  tag_54\n  jump\t// in\ntag_98:\n    /* \"#utility.yul\":2599:2600   */\n  0x01\n    /* \"#utility.yul\":2592:2597   */\n  dup2\n    /* \"#utility.yul\":2588:2601   */\n  add\n    /* \"#utility.yul\":2579:2601   */\n  swap1\n  pop\n    /* \"#utility.yul\":2555:2675   */\n  jump(tag_95)\ntag_97:\n    /* \"#utility.yul\":2495:2681   */\n  pop\n  pop\n  jump\t// out\n    /* \"#utility.yul\":2687:3230   */\ntag_56:\n    /* \"#utility.yul\":2788:2790   */\n  0x1f\n    /* \"#utility.yul\":2783:2786   */\n  dup3\n    /* \"#utility.yul\":2780:2791   */\n  gt\n    /* \"#utility.yul\":2777:3223   */\n  iszero\n  tag_100\n  jumpi\n    /* \"#utility.yul\":2822:2860   */\n  tag_101\n    /* \"#utility.yul\":2854:2859   */\n  dup2\n    /* \"#utility.yul\":2822:2860   */\n  tag_44\n  jump\t// in\ntag_101:\n    /* \"#utility.yul\":2906:2935   */\n  tag_102\n    /* \"#utility.yul\":2924:2934   */\n  dup5\n    /* \"#utility.yul\":2906:2935   */\n  tag_45\n  jump\t// in\ntag_102:\n    /* \"#utility.yul\":2896:2904   */\n  dup2\n    /* \"#utility.yul\":2892:2936   */\n  add\n    /* \"#utility.yul\":3089:3091   */\n  0x20\n    /* \"#utility.yul\":3077:3087   */\n  dup6\n    /* \"#utility.yul\":3074:3092   */\n  lt\n    /* \"#utility.yul\":3071:3120   */\n  iszero\n  tag_103\n  jumpi\n    /* \"#utility.yul\":3110:3118   */\n  dup2\n    /* \"#utility.yul\":3095:3118   */\n  swap1\n  pop\n    /* \"#utility.yul\":3071:3120   */\ntag_103:\n    /* \"#utility.yul\":3133:3213   */\n  tag_104\n    /* \"#utility.yul\":3189:3211   */\n  tag_105\n    /* \"#utility.yul\":3207:3210   */\n  dup6\n    /* \"#utility.yul\":3189:3211   */\n  tag_45\n  jump\t// in\ntag_105:\n    /* \"#utility.yul\":3179:3187   */\n  dup4\n    /* \"#utility.yul\":3175:3212   */\n  add\n    /* \"#utility.yul\":3162:3173   */\n  dup3\n    /* \"#utility.yul\":3133:3213   */\n  tag_55\n  jump\t// in\ntag_104:\n    /* \"#utility.yul\":2792:3223   */\n  pop\n  pop\n    /* \"#utility.yul\":2777:3223   */\ntag_100:\n    /* \"#utility.yul\":2687:3230   */\n  pop\n  pop\n  pop\n  jump\t// out\n    /* \"#utility.yul\":3236:3353   */\ntag_57:\n    /* \"#utility.yul\":3290:3298   */\n  0x00\n    /* \"#utility.yul\":3340:3345   */\n  dup3\n    /* \"#utility.yul\":3334:3338   */\n  dup3\n    /* \"#utility.yul\":3330:3346   */\n  shr\n    /* \"#utility.yul\":3309:3346   */\n  swap1\n  pop\n    /* \"#utility.yul\":3236:3353   */\n  swap3\n  swap2\n  pop\n  pop\n  jump\t// out\n    /* \"#utility.yul\":3359:3528   */\ntag_58:\n    /* \"#utility.yul\":3403:3409   */\n  0x00\n    /* \"#utility.yul\":3436:3487   */\n  tag_108\n    /* \"#utility.yul\":3484:3485   */\n  0x00\n    /* \"#utility.yul\":3480:3486   */\n  not\n    /* \"#utility.yul\":3472:3477   */\n  dup5\n    /* \"#utility.yul\":3469:3470   */\n  0x08\n    /* \"#utility.yul\":3465:3478   */\n  mul\n    /* \"#utility.yul\":3436:3487   */\n  tag_57\n  jump\t// in\ntag_108:\n    /* \"#utility.yul\":3432:3488   */\n  not\n    /* \"#utility.yul\":3517:3521   */\n  dup1\n    /* \"#utility.yul\":3511:3515   */\n  dup4\n    /* \"#utility.yul\":3507:3522   */\n  and\n    /* \"#utility.yul\":3497:3522   */\n  swap2\n  pop\n    /* \"#utility.yul\":3410:3528   */\n  pop\n    /* \"#utility.yul\":3359:3528   */\n  swap3\n  swap2\n  pop\n  pop\n  jump\t// out\n    /* \"#utility.yul\":3533:3828   */\ntag_59:\n    /* \"#utility.yul\":3609:3613   */\n  0x00\n    /* \"#utility.yul\":3755:3784   */\n  tag_110\n    /* \"#utility.yul\":3780:3783   */\n  dup4\n    /* \"#utility.yul\":3774:3778   */\n  dup4\n    /* \"#utility.yul\":3755:3784   */\n  tag_58\n  jump\t// in\ntag_110:\n    /* \"#utility.yul\":3747:3784   */\n  swap2\n  pop\n    /* \"#utility.yul\":3817:3820   */\n  dup3\n    /* \"#utility.yul\":3814:3815   */\n  0x02\n    /* \"#utility.yul\":3810:3821   */\n  mul\n    /* \"#utility.yul\":3804:3808   */\n  dup3\n    /* \"#utility.yul\":3801:3822   */\n  or\n    /* \"#utility.yul\":3793:3822   */\n  swap1\n  pop\n    /* \"#utility.yul\":3533:3828   */\n  swap3\n  swap2\n  pop\n  pop\n  jump\t// out\n    /* \"#utility.yul\":3833:5228   */\ntag_9:\n    /* \"#utility.yul\":3950:3987   */\n  tag_112\n    /* \"#utility.yul\":3983:3986   */\n  dup3\n    /* \"#utility.yul\":3950:3987   */\n  tag_41\n  jump\t// in\ntag_112:\n    /* \"#utility.yul\":4052:4070   */\n  0xffffffffffffffff\n    /* \"#utility.yul\":4044:4050   */\n  dup2\n    /* \"#utility.yul\":4041:4071   */\n  gt\n    /* \"#utility.yul\":4038:4094   */\n  iszero\n  tag_113\n  jumpi\n    /* \"#utility.yul\":4074:4092   */\n  tag_114\n  tag_42\n  jump\t// in\ntag_114:\n    /* \"#utility.yul\":4038:4094   */\ntag_113:\n    /* \"#utility.yul\":4118:4156   */\n  tag_115\n    /* \"#utility.yul\":4150:4154   */\n  dup3\n    /* \"#utility.yul\":4144:4155   */\n  sload\n    /* \"#utility.yul\":4118:4156   */\n  tag_34\n  jump\t// in\ntag_115:\n    /* \"#utility.yul\":4203:4270   */\n  tag_116\n    /* \"#utility.yul\":4263:4269   */\n  dup3\n    /* \"#utility.yul\":4255:4261   */\n  dup3\n    /* \"#utility.yul\":4249:4253   */\n  dup6\n    /* \"#utility.yul\":4203:4270   */\n  tag_56\n  jump\t// in\ntag_116:\n    /* \"#utility.yul\":4297:4298   */\n  0x00\n    /* \"#utility.yul\":4321:4325   */\n  0x20\n    /* \"#utility.yul\":4308:4325   */\n  swap1\n  pop\n    /* \"#utility.yul\":4353:4355   */\n  0x1f\n    /* \"#utility.yul\":4345:4351   */\n  dup4\n    /* \"#utility.yul\":4342:4356   */\n  gt\n    /* \"#utility.yul\":4370:4371   */\n  0x01\n    /* \"#utility.yul\":4365:4983   */\n  dup2\n  eq\n  tag_118\n  jumpi\n    /* \"#utility.yul\":5027:5028   */\n  0x00\n    /* \"#utility.yul\":5044:5050   */\n  dup5\n    /* \"#utility.yul\":5041:5118   */\n  iszero\n  tag_119\n  jumpi\n    /* \"#utility.yul\":5093:5102   */\n  dup3\n    /* \"#utility.yul\":5088:5091   */\n  dup8\n    /* \"#utility.yul\":5084:5103   */\n  add\n    /* \"#utility.yul\":5078:5104   */\n  mload\n    /* \"#utility.yul\":5069:5104   */\n  swap1\n  pop\n    /* \"#utility.yul\":5041:5118   */\ntag_119:\n    /* \"#utility.yul\":5144:5211   */\n  tag_120\n    /* \"#utility.yul\":5204:5210   */\n  dup6\n    /* \"#utility.yul\":5197:5202   */\n  dup3\n    /* \"#utility.yul\":5144:5211   */\n  tag_59\n  jump\t// in\ntag_120:\n    /* \"#utility.yul\":5138:5142   */\n  dup7\n    /* \"#utility.yul\":5131:5212   */\n  sstore\n    /* \"#utility.yul\":5000:5222   */\n  pop\n    /* \"#utility.yul\":4335:5222   */\n  jump(tag_117)\n    /* \"#utility.yul\":4365:4983   */\ntag_118:\n    /* \"#utility.yul\":4417:4421   */\n  0x1f\n    /* \"#utility.yul\":4413:4422   */\n  not\n    /* \"#utility.yul\":4405:4411   */\n  dup5\n    /* \"#utility.yul\":4401:4423   */\n  and\n    /* \"#utility.yul\":4451:4488   */\n  tag_121\n    /* \"#utility.yul\":4483:4487   */\n  dup7\n    /* \"#utility.yul\":4451:4488   */\n  tag_44\n  jump\t// in\ntag_121:\n    /* \"#utility.yul\":4510:4511   */\n  0x00\n    /* \"#utility.yul\":4524:4732   */\ntag_122:\n    /* \"#utility.yul\":4538:4545   */\n  dup3\n    /* \"#utility.yul\":4535:4536   */\n  dup2\n    /* \"#utility.yul\":4532:4546   */\n  lt\n    /* \"#utility.yul\":4524:4732   */\n  iszero\n  tag_124\n  jumpi\n    /* \"#utility.yul\":4617:4626   */\n  dup5\n    /* \"#utility.yul\":4612:4615   */\n  dup10\n    /* \"#utility.yul\":4608:4627   */\n  add\n    /* \"#utility.yul\":4602:4628   */\n  mload\n    /* \"#utility.yul\":4594:4600   */\n  dup3\n    /* \"#utility.yul\":4587:4629   */\n  sstore\n    /* \"#utility.yul\":4668:4669   */\n  0x01\n    /* \"#utility.yul\":4660:4666   */\n  dup3\n    /* \"#utility.yul\":4656:4670   */\n  add\n    /* \"#utility.yul\":4646:4670   */\n  swap2\n  pop\n    /* \"#utility.yul\":4715:4717   */\n  0x20\n    /* \"#utility.yul\":4704:4713   */\n  dup6\n    /* \"#utility.yul\":4700:4718   */\n  add\n    /* \"#utility.yul\":4687:4718   */\n  swap5\n  pop\n    /* \"#utility.yul\":4561:4565   */\n  0x20\n    /* \"#utility.yul\":4558:4559   */\n  dup2\n    /* \"#utility.yul\":4554:4566   */\n  add\n    /* \"#utility.yul\":4549:4566   */\n  swap1\n  pop\n    /* \"#utility.yul\":4524:4732   */\n  jump(tag_122)\ntag_124:\n    /* \"#utility.yul\":4760:4766   */\n  dup7\n    /* \"#utility.yul\":4751:4758   */\n  dup4\n    /* \"#utility.yul\":4748:4767   */\n  lt\n    /* \"#utility.yul\":4745:4924   */\n  iszero\n  tag_125\n  jumpi\n    /* \"#utility.yul\":4818:4827   */\n  dup5\n    /* \"#utility.yul\":4813:4816   */\n  dup10\n    /* \"#utility.yul\":4809:4828   */\n  add\n    /* \"#utility.yul\":4803:4829   */\n  mload\n    /* \"#utility.yul\":4861:4909   */\n  tag_126\n    /* \"#utility.yul\":4903:4907   */\n  0x1f\n    /* \"#utility.yul\":4895:4901   */\n  dup10\n    /* \"#utility.yul\":4891:4908   */\n  and\n    /* \"#utility.yul\":4880:4889   */\n  dup3\n    /* \"#utility.yul\":4861:4909   */\n  tag_58\n  jump\t// in\ntag_126:\n    /* \"#utility.yul\":4853:4859   */\n  dup4\n    /* \"#utility.yul\":4846:4910   */\n  sstore\n    /* \"#utility.yul\":4768:4924   */\n  pop\n    /* \"#utility.yul\":4745:4924   */\ntag_125:\n    /* \"#utility.yul\":4970:4971   */\n  0x01\n    /* \"#utility.yul\":4966:4967   */\n  0x02\n    /* \"#utility.yul\":4958:4964   */\n  dup9\n    /* \"#utility.yul\":4954:4968   */\n  mul\n    /* \"#utility.yul\":4950:4972   */\n  add\n    /* \"#utility.yul\":4944:4948   */\n  dup9\n    /* \"#utility.yul\":4937:4973   */\n  sstore\n    /* \"#utility.yul\":4372:4983   */\n  pop\n  pop\n  pop\n    /* \"#utility.yul\":4335:5222   */\ntag_117:\n  pop\n    /* \"#utility.yul\":3925:5228   */\n  pop\n  pop\n  pop\n    /* \"#utility.yul\":3833:5228   */\n  pop\n  pop\n  jump\t// out\n    /* \"#utility.yul\":5234:5414   */\ntag_60:\n    /* \"#utility.yul\":5282:5359   */\n  0x4e487b7100000000000000000000000000000000000000000000000000000000\n    /* \"#utility.yul\":5279:5280   */\n  0x00\n    /* \"#utility.yul\":5272:5360   */\n  mstore\n    /* \"#utility.yul\":5379:5383   */\n  0x11\n    /* \"#utility.yul\":5376:5377   */\n  0x04\n    /* \"#utility.yul\":5369:5384   */\n  mstore\n    /* \"#utility.yul\":5403:5407   */\n  0x24\n    /* \"#utility.yul\":5400:5401   */\n  0x00\n    /* \"#utility.yul\":5393:5408   */\n  revert\n    /* \"#utility.yul\":5420:5522   */\ntag_61:\n    /* \"#utility.yul\":5462:5470   */\n  0x00\n    /* \"#utility.yul\":5509:5514   */\n  dup2\n    /* \"#utility.yul\":5506:5507   */\n  0x01\n    /* \"#utility.yul\":5502:5515   */\n  shr\n    /* \"#utility.yul\":5481:5515   */\n  swap1\n  pop\n    /* \"#utility.yul\":5420:5522   */\n  swap2\n  swap1\n  pop\n  jump\t// out\n    /* \"#utility.yul\":5528:6376   */\ntag_62:\n    /* \"#utility.yul\":5589:5594   */\n  0x00\n    /* \"#utility.yul\":5596:5600   */\n  dup1\n    /* \"#utility.yul\":5620:5626   */\n  dup3\n    /* \"#utility.yul\":5611:5626   */\n  swap2\n  pop\n    /* \"#utility.yul\":5644:5649   */\n  dup4\n    /* \"#utility.yul\":5635:5649   */\n  swap1\n  pop\n    /* \"#utility.yul\":5658:6370   */\ntag_130:\n    /* \"#utility.yul\":5679:5680   */\n  0x01\n    /* \"#utility.yul\":5669:5677   */\n  dup6\n    /* \"#utility.yul\":5666:5681   */\n  gt\n    /* \"#utility.yul\":5658:6370   */\n  iszero\n  tag_132\n  jumpi\n    /* \"#utility.yul\":5774:5778   */\n  dup1\n    /* \"#utility.yul\":5769:5772   */\n  dup7\n    /* \"#utility.yul\":5765:5779   */\n  div\n    /* \"#utility.yul\":5759:5763   */\n  dup2\n    /* \"#utility.yul\":5756:5780   */\n  gt\n    /* \"#utility.yul\":5753:5803   */\n  iszero\n  tag_133\n  jumpi\n    /* \"#utility.yul\":5783:5801   */\n  tag_134\n  tag_60\n  jump\t// in\ntag_134:\n    /* \"#utility.yul\":5753:5803   */\ntag_133:\n    /* \"#utility.yul\":5833:5834   */\n  0x01\n    /* \"#utility.yul\":5823:5831   */\n  dup6\n    /* \"#utility.yul\":5819:5835   */\n  and\n    /* \"#utility.yul\":5816:6267   */\n  iszero\n  tag_135\n  jumpi\n    /* \"#utility.yul\":6248:6252   */\n  dup1\n    /* \"#utility.yul\":6241:6246   */\n  dup3\n    /* \"#utility.yul\":6237:6253   */\n  mul\n    /* \"#utility.yul\":6228:6253   */\n  swap2\n  pop\n    /* \"#utility.yul\":5816:6267   */\ntag_135:\n    /* \"#utility.yul\":6298:6302   */\n  dup1\n    /* \"#utility.yul\":6292:6296   */\n  dup2\n    /* \"#utility.yul\":6288:6303   */\n  mul\n    /* \"#utility.yul\":6280:6303   */\n  swap1\n  pop\n    /* \"#utility.yul\":6328:6360   */\n  tag_136\n    /* \"#utility.yul\":6351:6359   */\n  dup6\n    /* \"#utility.yul\":6328:6360   */\n  tag_61\n  jump\t// in\ntag_136:\n    /* \"#utility.yul\":6316:6360   */\n  swap5\n  pop\n    /* \"#utility.yul\":5658:6370   */\n  jump(tag_130)\ntag_132:\n    /* \"#utility.yul\":5528:6376   */\n  swap5\n  pop\n  swap5\n  swap3\n  pop\n  pop\n  pop\n  jump\t// out\n    /* \"#utility.yul\":6382:7455   */\ntag_63:\n    /* \"#utility.yul\":6436:6441   */\n  0x00\n    /* \"#utility.yul\":6627:6635   */\n  dup3\n    /* \"#utility.yul\":6617:6657   */\n  tag_138\n  jumpi\n    /* \"#utility.yul\":6648:6649   */\n  0x01\n    /* \"#utility.yul\":6639:6649   */\n  swap1\n  pop\n    /* \"#utility.yul\":6650:6655   */\n  jump(tag_137)\n    /* \"#utility.yul\":6617:6657   */\ntag_138:\n    /* \"#utility.yul\":6676:6680   */\n  dup2\n    /* \"#utility.yul\":6666:6702   */\n  tag_139\n  jumpi\n    /* \"#utility.yul\":6693:6694   */\n  0x00\n    /* \"#utility.yul\":6684:6694   */\n  swap1\n  pop\n    /* \"#utility.yul\":6695:6700   */\n  jump(tag_137)\n    /* \"#utility.yul\":6666:6702   */\ntag_139:\n    /* \"#utility.yul\":6762:6766   */\n  dup2\n    /* \"#utility.yul\":6810:6811   */\n  0x01\n    /* \"#utility.yul\":6805:6832   */\n  dup2\n  eq\n  tag_141\n  jumpi\n    /* \"#utility.yul\":6846:6847   */\n  0x02\n    /* \"#utility.yul\":6841:7032   */\n  dup2\n  eq\n  tag_142\n  jumpi\n    /* \"#utility.yul\":6755:7032   */\n  jump(tag_140)\n    /* \"#utility.yul\":6805:6832   */\ntag_141:\n    /* \"#utility.yul\":6823:6824   */\n  0x01\n    /* \"#utility.yul\":6814:6824   */\n  swap2\n  pop\n    /* \"#utility.yul\":6825:6830   */\n  pop\n  jump(tag_137)\n    /* \"#utility.yul\":6841:7032   */\ntag_142:\n    /* \"#utility.yul\":6886:6889   */\n  0xff\n    /* \"#utility.yul\":6876:6884   */\n  dup5\n    /* \"#utility.yul\":6873:6890   */\n  gt\n    /* \"#utility.yul\":6870:6913   */\n  iszero\n  tag_143\n  jumpi\n    /* \"#utility.yul\":6893:6911   */\n  tag_144\n  tag_60\n  jump\t// in\ntag_144:\n    /* \"#utility.yul\":6870:6913   */\ntag_143:\n    /* \"#utility.yul\":6942:6950   */\n  dup4\n    /* \"#utility.yul\":6939:6940   */\n  0x02\n    /* \"#utility.yul\":6935:6951   */\n  exp\n    /* \"#utility.yul\":6926:6951   */\n  swap2\n  pop\n    /* \"#utility.yul\":6977:6980   */\n  dup5\n    /* \"#utility.yul\":6970:6975   */\n  dup3\n    /* \"#utility.yul\":6967:6981   */\n  gt\n    /* \"#utility.yul\":6964:7004   */\n  iszero\n  tag_145\n  jumpi\n    /* \"#utility.yul\":6984:7002   */\n  tag_146\n  tag_60\n  jump\t// in\ntag_146:\n    /* \"#utility.yul\":6964:7004   */\ntag_145:\n    /* \"#utility.yul\":7017:7022   */\n  pop\n  jump(tag_137)\n    /* \"#utility.yul\":6755:7032   */\ntag_140:\n  pop\n    /* \"#utility.yul\":7141:7143   */\n  0x20\n    /* \"#utility.yul\":7131:7139   */\n  dup4\n    /* \"#utility.yul\":7128:7144   */\n  lt\n    /* \"#utility.yul\":7122:7125   */\n  0x0133\n    /* \"#utility.yul\":7116:7120   */\n  dup4\n    /* \"#utility.yul\":7113:7126   */\n  lt\n    /* \"#utility.yul\":7109:7145   */\n  and\n    /* \"#utility.yul\":7091:7093   */\n  0x4e\n    /* \"#utility.yul\":7081:7089   */\n  dup5\n    /* \"#utility.yul\":7078:7094   */\n  lt\n    /* \"#utility.yul\":7073:7075   */\n  0x0b\n    /* \"#utility.yul\":7067:7071   */\n  dup5\n    /* \"#utility.yul\":7064:7076   */\n  lt\n    /* \"#utility.yul\":7060:7095   */\n  and\n    /* \"#utility.yul\":7044:7155   */\n  or\n    /* \"#utility.yul\":7041:7287   */\n  iszero\n  tag_147\n  jumpi\n    /* \"#utility.yul\":7197:7205   */\n  dup3\n    /* \"#utility.yul\":7191:7195   */\n  dup3\n    /* \"#utility.yul\":7187:7206   */\n  exp\n    /* \"#utility.yul\":7178:7206   */\n  swap1\n  pop\n    /* \"#utility.yul\":7232:7235   */\n  dup4\n    /* \"#utility.yul\":7225:7230   */\n  dup2\n    /* \"#utility.yul\":7222:7236   */\n  gt\n    /* \"#utility.yul\":7219:7259   */\n  iszero\n  tag_148\n  jumpi\n    /* \"#utility.yul\":7239:7257   */\n  tag_149\n  tag_60\n  jump\t// in\ntag_149:\n    /* \"#utility.yul\":7219:7259   */\ntag_148:\n    /* \"#utility.yul\":7272:7277   */\n  jump(tag_137)\n    /* \"#utility.yul\":7041:7287   */\ntag_147:\n    /* \"#utility.yul\":7312:7354   */\n  tag_150\n    /* \"#utility.yul\":7350:7353   */\n  dup5\n    /* \"#utility.yul\":7340:7348   */\n  dup5\n    /* \"#utility.yul\":7334:7338   */\n  dup5\n    /* \"#utility.yul\":7331:7332   */\n  0x01\n    /* \"#utility.yul\":7312:7354   */\n  tag_62\n  jump\t// in\ntag_150:\n    /* \"#utility.yul\":7297:7354   */\n  swap3\n  pop\n  swap1\n  pop\n    /* \"#utility.yul\":7386:7390   */\n  dup2\n    /* \"#utility.yul\":7381:7384   */\n  dup5\n    /* \"#utility.yul\":7377:7391   */\n  div\n    /* \"#utility.yul\":7370:7375   */\n  dup2\n    /* \"#utility.yul\":7367:7392   */\n  gt\n    /* \"#utility.yul\":7364:7415   */\n  iszero\n  tag_151\n  jumpi\n    /* \"#utility.yul\":7395:7413   */\n  tag_152\n  tag_60\n  jump\t// in\ntag_152:\n    /* \"#utility.yul\":7364:7415   */\ntag_151:\n    /* \"#utility.yul\":7444:7448   */\n  dup2\n    /* \"#utility.yul\":7437:7442   */\n  dup2\n    /* \"#utility.yul\":7433:7449   */\n  mul\n    /* \"#utility.yul\":7424:7449   */\n  swap1\n  pop\n    /* \"#utility.yul\":6382:7455   */\ntag_137:\n  swap4\n  swap3\n  pop\n  pop\n  pop\n  jump\t// out\n    /* \"#utility.yul\":7461:7547   */\ntag_64:\n    /* \"#utility.yul\":7496:7503   */\n  0x00\n    /* \"#utility.yul\":7536:7540   */\n  0xff\n    /* \"#utility.yul\":7529:7534   */\n  dup3\n    /* \"#utility.yul\":7525:7541   */\n  and\n    /* \"#utility.yul\":7514:7541   */\n  swap1\n  pop\n    /* \"#utility.yul\":7461:7547   */\n  swap2\n  swap1\n  pop\n  jump\t// out\n    /* \"#utility.yul\":7553:7834   */\ntag_13:\n    /* \"#utility.yul\":7611:7616   */\n  0x00\n    /* \"#utility.yul\":7635:7658   */\n  tag_155\n    /* \"#utility.yul\":7653:7657   */\n  dup3\n    /* \"#utility.yul\":7635:7658   */\n  tag_48\n  jump\t// in\ntag_155:\n    /* \"#utility.yul\":7627:7658   */\n  swap2\n  pop\n    /* \"#utility.yul\":7679:7704   */\n  tag_156\n    /* \"#utility.yul\":7695:7703   */\n  dup4\n    /* \"#utility.yul\":7679:7704   */\n  tag_64\n  jump\t// in\ntag_156:\n    /* \"#utility.yul\":7667:7704   */\n  swap3\n  pop\n    /* \"#utility.yul\":7723:7827   */\n  tag_157\n    /* \"#utility.yul\":7760:7826   */\n  0xffffffffffffffffffffffffffffffffffffffffffffffffffffffffffffffff\n    /* \"#utility.yul\":7750:7758   */\n  dup5\n    /* \"#utility.yul\":7744:7748   */\n  dup5\n    /* \"#utility.yul\":7723:7827   */\n  tag_63\n  jump\t// in\ntag_157:\n    /* \"#utility.yul\":7714:7827   */\n  swap1\n  pop\n    /* \"#utility.yul\":7553:7834   */\n  swap3\n  swap2\n  pop\n  pop\n  jump\t// out\n    /* \"#utility.yul\":7840:8250   */\ntag_15:\n    /* \"#utility.yul\":7880:7887   */\n  0x00\n    /* \"#utility.yul\":7903:7923   */\n  tag_159\n    /* \"#utility.yul\":7921:7922   */\n  dup3\n    /* \"#utility.yul\":7903:7923   */\n  tag_48\n  jump\t// in\ntag_159:\n    /* \"#utility.yul\":7898:7923   */\n  swap2\n  pop\n    /* \"#utility.yul\":7937:7957   */\n  tag_160\n    /* \"#utility.yul\":7955:7956   */\n  dup4\n    /* \"#utility.yul\":7937:7957   */\n  tag_48\n  jump\t// in\ntag_160:\n    /* \"#utility.yul\":7932:7957   */\n  swap3\n  pop\n    /* \"#utility.yul\":7992:7993   */\n  dup3\n    /* \"#utility.yul\":7989:7990   */\n  dup3\n    /* \"#utility.yul\":7985:7994   */\n  mul\n    /* \"#utility.yul\":8014:8044   */\n  tag_161\n    /* \"#utility.yul\":8032:8043   */\n  dup2\n    /* \"#utility.yul\":8014:8044   */\n  tag_48\n  jump\t// in\ntag_161:\n    /* \"#utility.yul\":8003:8044   */\n  swap2\n  pop\n    /* \"#utility.yul\":8193:8194   */\n  dup3\n    /* \"#utility.yul\":8184:8191   */\n  dup3\n    /* \"#utility.yul\":8180:8195   */\n  div\n    /* \"#utility.yul\":8177:8178   */\n  dup5\n    /* \"#utility.yul\":8174:8196   */\n  eq\n    /* \"#utility.yul\":8154:8155   */\n  dup4\n    /* \"#utility.yul\":8147:8156   */\n  iszero\n    /* \"#utility.yul\":8127:8210   */\n  or\n    /* \"#utility.yul\":8104:8243   */\n  tag_162\n  jumpi\n    /* \"#utility.yul\":8223:8241   */\n  tag_163\n  tag_60\n  jump\t// in\ntag_163:\n    /* \"#utility.yul\":8104:8243   */\ntag_162:\n    /* \"#utility.yul\":7888:8250   */\n  pop\n    /* \"#utility.yul\":7840:8250   */\n  swap3\n  swap2\n  pop\n  pop\n  jump\t// out\n    /* \"#utility.yul\":8256:8447   */\ntag_21:\n    /* \"#utility.yul\":8296:8299   */\n  0x00\n    /* \"#utility.yul\":8315:8335   */\n  tag_165\n    /* \"#utility.yul\":8333:8334   */\n  dup3\n    /* \"#utility.yul\":8315:8335   */\n  tag_48\n  jump\t// in\ntag_165:\n    /* \"#utility.yul\":8310:8335   */\n  swap2\n  pop\n    /* \"#utility.yul\":8349:8369   */\n  tag_166\n    /* \"#utility.yul\":8367:8368   */\n  dup4\n    /* \"#utility.yul\":8349:8369   */\n  tag_48\n  jump\t// in\ntag_166:\n    /* \"#utility.yul\":8344:8369   */\n  swap3\n  pop\n    /* \"#utility.yul\":8392:8393   */\n  dup3\n    /* \"#utility.yul\":8389:8390   */\n  dup3\n    /* \"#utility.yul\":8385:8394   */\n  add\n    /* \"#utility.yul\":8378:8394   */\n  swap1\n  pop\n    /* \"#utility.yul\":8413:8416   */\n  dup1\n    /* \"#utility.yul\":8410:8411   */\n  dup3\n    /* \"#utility.yul\":8407:8417   */\n  gt\n    /* \"#utility.yul\":8404:8440   */\n  iszero\n  tag_167\n  jumpi\n    /* \"#utility.yul\":8420:8438   */\n  tag_168\n  tag_60\n  jump\t// in\ntag_168:\n    /* \"#utility.yul\":8404:8440   */\ntag_167:\n    /* \"#utility.yul\":8256:8447   */\n  swap3\n  swap2\n  pop\n  pop\n  jump\t// out\n    /* \"contracts/Pokemon.sol\":81:3405  contract Pokemon is ERC20 {... */\ntag_18:\n  dataSize(sub_0)\n  dup1\n  dataOffset(sub_0)\n  0x00\n  codecopy\n  0x00\n  return\nstop\ndata_1dd082851ac00d66e692260203b9ee20f7b22e309ba09a410aaba0d5a993b73f 68747470733a2f2f656e637279707465642d74626e302e677374617469632e636f6d2f696d616765733f713d74626e3a414e64394763512d4a66454343346f633163485239687a46345043437369677173344d30754a5f66526726757371703d434155\ndata_6c58f914793591484bd99eb2cb7aceafc84f7cf0e80c95f3c9c65fa4b831c9e3 68747470733a2f2f692e6e616d752e77696b692f692f776b7748626c3331397343466c5452367074395034416e686175576559743961323851744766353044625232684155725a3768636162647749334b765053484a64364a6f4c4a39505a4d4f4e4e5863644530734f71672e77656270\ndata_dbb830ec745000e961660c5a5fdcfc26de15a97e1bffef2d2ac15546d92de13a 68747470733a2f2f656e637279707465642d74626e302e677374617469632e636f6d2f696d616765733f713d74626e3a414e643947635161365f6176776c656e454e7752565954474a6d634863306a6a49486e6d44583462537a4c5230426f51596656484e645269784b744a75584b6c4135504f6558306450505926757371703d434155\n\nsub_0: assembly {\n        /* \"contracts/Pokemon.sol\":81:3405  contract Pokemon is ERC20 {... */\n      mstore(0x40, 0x80)\n      jumpi(tag_1, lt(calldatasize, 0x04))\n      shr(0xe0, calldataload(0x00))\n      dup1\n      0x42966c68\n      gt\n      tag_20\n      jumpi\n      dup1\n      0x95d89b41\n      gt\n      tag_21\n      jumpi\n      dup1\n      0x95d89b41\n      eq\n      tag_15\n      jumpi\n      dup1\n      0xa9059cbb\n      eq\n      tag_16\n      jumpi\n      dup1\n      0xc78bc15f\n      eq\n      tag_17\n      jumpi\n      dup1\n      0xd3beb5da\n      eq\n      tag_18\n      jumpi\n      dup1\n      0xdd62ed3e\n      eq\n      tag_19\n      jumpi\n      jump(tag_2)\n    tag_21:\n      dup1\n      0x42966c68\n      eq\n      tag_11\n      jumpi\n      dup1\n      0x70a08231\n      eq\n      tag_12\n      jumpi\n      dup1\n      0x868babb0\n      eq\n      tag_13\n      jumpi\n      dup1\n      0x87e24c72\n      eq\n      tag_14\n      jumpi\n      jump(tag_2)\n    tag_20:\n      dup1\n      0x27e235e3\n      gt\n      tag_22\n      jumpi\n      dup1\n      0x27e235e3\n      eq\n      tag_7\n      jumpi\n      dup1\n      0x313ce567\n      eq\n      tag_8\n      jumpi\n      dup1\n      0x365b98b2\n      eq\n      tag_9\n      jumpi\n      dup1\n      0x36e60477\n      eq\n      tag_10\n      jumpi\n      jump(tag_2)\n    tag_22:\n      dup1\n      0x06fdde03\n      eq\n      tag_3\n      jumpi\n      dup1\n      0x095ea7b3\n      eq\n      tag_4\n      jumpi\n      dup1\n      0x18160ddd\n      eq\n      tag_5\n      jumpi\n      dup1\n      0x23b872dd\n      eq\n      tag_6\n      jumpi\n      jump(tag_2)\n    tag_1:\n      jumpi(tag_2, calldatasize)\n        /* \"contracts/ERC20.sol\":878:889  uint amount */\n      0x00\n        /* \"contracts/ERC20.sol\":904:907  200 */\n      0xc8\n        /* \"contracts/ERC20.sol\":892:901  msg.value */\n      callvalue\n        /* \"contracts/ERC20.sol\":892:907  msg.value * 200 */\n      tag_25\n      swap2\n      swap1\n      tag_26\n      jump\t// in\n    tag_25:\n        /* \"contracts/ERC20.sol\":878:907  uint amount = msg.value * 200 */\n      swap1\n      pop\n        /* \"contracts/ERC20.sol\":965:971  amount */\n      dup1\n        /* \"contracts/ERC20.sol\":946:954  balances */\n      0x05\n        /* \"contracts/ERC20.sol\":946:961  balances[owner] */\n      0x00\n        /* \"contracts/ERC20.sol\":955:960  owner */\n      0x04\n      0x00\n      swap1\n      sload\n      swap1\n      0x0100\n      exp\n      swap1\n      div\n      0xffffffffffffffffffffffffffffffffffffffff\n      and\n        /* \"contracts/ERC20.sol\":946:961  balances[owner] */\n      0xffffffffffffffffffffffffffffffffffffffff\n      and\n      0xffffffffffffffffffffffffffffffffffffffff\n      and\n      dup2\n      mstore\n      0x20\n      add\n      swap1\n      dup2\n      mstore\n      0x20\n      add\n      0x00\n      keccak256\n      sload\n        /* \"contracts/ERC20.sol\":946:971  balances[owner] >= amount */\n      lt\n      iszero\n        /* \"contracts/ERC20.sol\":938:972  require(balances[owner] >= amount) */\n      tag_27\n      jumpi\n      0x00\n      dup1\n      revert\n    tag_27:\n        /* \"contracts/ERC20.sol\":1001:1007  amount */\n      dup1\n        /* \"contracts/ERC20.sol\":982:990  balances */\n      0x05\n        /* \"contracts/ERC20.sol\":982:997  balances[owner] */\n      0x00\n        /* \"contracts/ERC20.sol\":991:996  owner */\n      0x04\n      0x00\n      swap1\n      sload\n      swap1\n      0x0100\n      exp\n      swap1\n      div\n      0xffffffffffffffffffffffffffffffffffffffff\n      and\n        /* \"contracts/ERC20.sol\":982:997  balances[owner] */\n      0xffffffffffffffffffffffffffffffffffffffff\n      and\n      0xffffffffffffffffffffffffffffffffffffffff\n      and\n      dup2\n      mstore\n      0x20\n      add\n      swap1\n      dup2\n      mstore\n      0x20\n      add\n      0x00\n      keccak256\n      0x00\n        /* \"contracts/ERC20.sol\":982:1007  balances[owner] -= amount */\n      dup3\n      dup3\n      sload\n      tag_28\n      swap2\n      swap1\n      tag_29\n      jump\t// in\n    tag_28:\n      swap3\n      pop\n      pop\n      dup2\n      swap1\n      sstore\n      pop\n        /* \"contracts/ERC20.sol\":1041:1047  amount */\n      dup1\n        /* \"contracts/ERC20.sol\":1017:1025  balances */\n      0x05\n        /* \"contracts/ERC20.sol\":1017:1037  balances[msg.sender] */\n      0x00\n        /* \"contracts/ERC20.sol\":1026:1036  msg.sender */\n      caller\n        /* \"contracts/ERC20.sol\":1017:1037  balances[msg.sender] */\n      0xffffffffffffffffffffffffffffffffffffffff\n      and\n      0xffffffffffffffffffffffffffffffffffffffff\n      and\n      dup2\n      mstore\n      0x20\n      add\n      swap1\n      dup2\n      mstore\n      0x20\n      add\n      0x00\n      keccak256\n      0x00\n        /* \"contracts/ERC20.sol\":1017:1047  balances[msg.sender] += amount */\n      dup3\n      dup3\n      sload\n      tag_30\n      swap2\n      swap1\n      tag_31\n      jump\t// in\n    tag_30:\n      swap3\n      pop\n      pop\n      dup2\n      swap1\n      sstore\n      pop\n        /* \"contracts/ERC20.sol\":1216:1221  owner */\n      0x04\n      0x00\n      swap1\n      sload\n      swap1\n      0x0100\n      exp\n      swap1\n      div\n      0xffffffffffffffffffffffffffffffffffffffff\n      and\n        /* \"contracts/ERC20.sol\":1202:1221  msg.sender == owner */\n      0xffffffffffffffffffffffffffffffffffffffff\n      and\n        /* \"contracts/ERC20.sol\":1202:1212  msg.sender */\n      caller\n        /* \"contracts/ERC20.sol\":1202:1221  msg.sender == owner */\n      0xffffffffffffffffffffffffffffffffffffffff\n      and\n      sub\n        /* \"contracts/ERC20.sol\":1199:1261  if(msg.sender == owner) {... */\n      tag_32\n      jumpi\n        /* \"contracts/ERC20.sol\":1237:1250  _mint(amount) */\n      tag_33\n        /* \"contracts/ERC20.sol\":1243:1249  amount */\n      dup2\n        /* \"contracts/ERC20.sol\":1237:1242  _mint */\n      tag_34\n        /* \"contracts/ERC20.sol\":1237:1250  _mint(amount) */\n      jump\t// in\n    tag_33:\n        /* \"contracts/ERC20.sol\":1199:1261  if(msg.sender == owner) {... */\n    tag_32:\n        /* \"contracts/ERC20.sol\":695:1267  {... */\n      stop\n        /* \"contracts/Pokemon.sol\":81:3405  contract Pokemon is ERC20 {... */\n    tag_2:\n      0x00\n      dup1\n      revert\n        /* \"contracts/ERC20.sol\":113:131  string public name */\n    tag_3:\n      callvalue\n      dup1\n      iszero\n      tag_35\n      jumpi\n      0x00\n      dup1\n      revert\n    tag_35:\n      pop\n      tag_36\n      tag_37\n      jump\t// in\n    tag_36:\n      mload(0x40)\n      tag_38\n      swap2\n      swap1\n      tag_39\n      jump\t// in\n    tag_38:\n      mload(0x40)\n      dup1\n      swap2\n      sub\n      swap1\n      return\n        /* \"contracts/ERC20.sol\":2030:2187  function approve(address spender, uint amount) external override returns (bool) {... */\n    tag_4:\n      callvalue\n      dup1\n      iszero\n      tag_40\n      jumpi\n      0x00\n      dup1\n      revert\n    tag_40:\n      pop\n      tag_41\n      0x04\n      dup1\n      calldatasize\n      sub\n      dup2\n      add\n      swap1\n      tag_42\n      swap2\n      swap1\n      tag_43\n      jump\t// in\n    tag_42:\n      tag_44\n      jump\t// in\n    tag_41:\n      mload(0x40)\n      tag_45\n      swap2\n      swap1\n      tag_46\n      jump\t// in\n    tag_45:\n      mload(0x40)\n      dup1\n      swap2\n      sub\n      swap1\n      return\n        /* \"contracts/ERC20.sol\":249:281  uint public override totalSupply */\n    tag_5:\n      callvalue\n      dup1\n      iszero\n      tag_47\n      jumpi\n      0x00\n      dup1\n      revert\n    tag_47:\n      pop\n      tag_48\n      tag_49\n      jump\t// in\n    tag_48:\n      mload(0x40)\n      tag_50\n      swap2\n      swap1\n      tag_51\n      jump\t// in\n    tag_50:\n      mload(0x40)\n      dup1\n      swap2\n      sub\n      swap1\n      return\n        /* \"contracts/ERC20.sol\":2231:2841  function transferFrom(address sender, address to, uint amount) external override returns (bool) {... */\n    tag_6:\n      callvalue\n      dup1\n      iszero\n      tag_52\n      jumpi\n      0x00\n      dup1\n      revert\n    tag_52:\n      pop\n      tag_53\n      0x04\n      dup1\n      calldatasize\n      sub\n      dup2\n      add\n      swap1\n      tag_54\n      swap2\n      swap1\n      tag_55\n      jump\t// in\n    tag_54:\n      tag_56\n      jump\t// in\n    tag_53:\n      mload(0x40)\n      tag_57\n      swap2\n      swap1\n      tag_46\n      jump\t// in\n    tag_57:\n      mload(0x40)\n      dup1\n      swap2\n      sub\n      swap1\n      return\n        /* \"contracts/ERC20.sol\":357:397  mapping(address => uint) public balances */\n    tag_7:\n      callvalue\n      dup1\n      iszero\n      tag_58\n      jumpi\n      0x00\n      dup1\n      revert\n    tag_58:\n      pop\n      tag_59\n      0x04\n      dup1\n      calldatasize\n      sub\n      dup2\n      add\n      swap1\n      tag_60\n      swap2\n      swap1\n      tag_61\n      jump\t// in\n    tag_60:\n      tag_62\n      jump\t// in\n    tag_59:\n      mload(0x40)\n      tag_63\n      swap2\n      swap1\n      tag_51\n      jump\t// in\n    tag_63:\n      mload(0x40)\n      dup1\n      swap2\n      sub\n      swap1\n      return\n        /* \"contracts/ERC20.sol\":197:223  uint8 public decimals = 18 */\n    tag_8:\n      callvalue\n      dup1\n      iszero\n      tag_64\n      jumpi\n      0x00\n      dup1\n      revert\n    tag_64:\n      pop\n      tag_65\n      tag_66\n      jump\t// in\n    tag_65:\n      mload(0x40)\n      tag_67\n      swap2\n      swap1\n      tag_68\n      jump\t// in\n    tag_67:\n      mload(0x40)\n      dup1\n      swap2\n      sub\n      swap1\n      return\n        /* \"contracts/Pokemon.sol\":1172:1191  User[] public users */\n    tag_9:\n      callvalue\n      dup1\n      iszero\n      tag_69\n      jumpi\n      0x00\n      dup1\n      revert\n    tag_69:\n      pop\n      tag_70\n      0x04\n      dup1\n      calldatasize\n      sub\n      dup2\n      add\n      swap1\n      tag_71\n      swap2\n      swap1\n      tag_72\n      jump\t// in\n    tag_71:\n      tag_73\n      jump\t// in\n    tag_70:\n      mload(0x40)\n      tag_74\n      swap2\n      swap1\n      tag_75\n      jump\t// in\n    tag_74:\n      mload(0x40)\n      dup1\n      swap2\n      sub\n      swap1\n      return\n        /* \"contracts/Pokemon.sol\":1069:1111  mapping(address => Poke[]) public pokemons */\n    tag_10:\n      callvalue\n      dup1\n      iszero\n      tag_76\n      jumpi\n      0x00\n      dup1\n      revert\n    tag_76:\n      pop\n      tag_77\n      0x04\n      dup1\n      calldatasize\n      sub\n      dup2\n      add\n      swap1\n      tag_78\n      swap2\n      swap1\n      tag_43\n      jump\t// in\n    tag_78:\n      tag_79\n      jump\t// in\n    tag_77:\n      mload(0x40)\n      tag_80\n      swap3\n      swap2\n      swap1\n      tag_81\n      jump\t// in\n    tag_80:\n      mload(0x40)\n      dup1\n      swap2\n      sub\n      swap1\n      return\n        /* \"contracts/ERC20.sol\":2871:2985  function burn(uint amount) external {... */\n    tag_11:\n      callvalue\n      dup1\n      iszero\n      tag_82\n      jumpi\n      0x00\n      dup1\n      revert\n    tag_82:\n      pop\n      tag_83\n      0x04\n      dup1\n      calldatasize\n      sub\n      dup2\n      add\n      swap1\n      tag_84\n      swap2\n      swap1\n      tag_72\n      jump\t// in\n    tag_84:\n      tag_85\n      jump\t// in\n    tag_83:\n      stop\n        /* \"contracts/ERC20.sol\":1685:1800  function balanceOf(address account) external view override returns (uint) {... */\n    tag_12:\n      callvalue\n      dup1\n      iszero\n      tag_86\n      jumpi\n      0x00\n      dup1\n      revert\n    tag_86:\n      pop\n      tag_87\n      0x04\n      dup1\n      calldatasize\n      sub\n      dup2\n      add\n      swap1\n      tag_88\n      swap2\n      swap1\n      tag_61\n      jump\t// in\n    tag_88:\n      tag_89\n      jump\t// in\n    tag_87:\n      mload(0x40)\n      tag_90\n      swap2\n      swap1\n      tag_51\n      jump\t// in\n    tag_90:\n      mload(0x40)\n      dup1\n      swap2\n      sub\n      swap1\n      return\n        /* \"contracts/Pokemon.sol\":1407:1499  function getPokemonUsers() public view returns (User[] memory) {... */\n    tag_13:\n      callvalue\n      dup1\n      iszero\n      tag_91\n      jumpi\n      0x00\n      dup1\n      revert\n    tag_91:\n      pop\n      tag_92\n      tag_93\n      jump\t// in\n    tag_92:\n      mload(0x40)\n      tag_94\n      swap2\n      swap1\n      tag_95\n      jump\t// in\n    tag_94:\n      mload(0x40)\n      dup1\n      swap2\n      sub\n      swap1\n      return\n        /* \"contracts/Pokemon.sol\":1258:1360  function getPokemon() public view returns (Poke[] memory) {... */\n    tag_14:\n      callvalue\n      dup1\n      iszero\n      tag_96\n      jumpi\n      0x00\n      dup1\n      revert\n    tag_96:\n      pop\n      tag_97\n      tag_98\n      jump\t// in\n    tag_97:\n      mload(0x40)\n      tag_99\n      swap2\n      swap1\n      tag_100\n      jump\t// in\n    tag_99:\n      mload(0x40)\n      dup1\n      swap2\n      sub\n      swap1\n      return\n        /* \"contracts/ERC20.sol\":154:174  string public symbol */\n    tag_15:\n      callvalue\n      dup1\n      iszero\n      tag_101\n      jumpi\n      0x00\n      dup1\n      revert\n    tag_101:\n      pop\n      tag_102\n      tag_103\n      jump\t// in\n    tag_102:\n      mload(0x40)\n      tag_104\n      swap2\n      swap1\n      tag_39\n      jump\t// in\n    tag_104:\n      mload(0x40)\n      dup1\n      swap2\n      sub\n      swap1\n      return\n        /* \"contracts/ERC20.sol\":1827:2003  function transfer(address to, uint amount) external override returns (bool) {... */\n    tag_16:\n      callvalue\n      dup1\n      iszero\n      tag_105\n      jumpi\n      0x00\n      dup1\n      revert\n    tag_105:\n      pop\n      tag_106\n      0x04\n      dup1\n      calldatasize\n      sub\n      dup2\n      add\n      swap1\n      tag_107\n      swap2\n      swap1\n      tag_43\n      jump\t// in\n    tag_107:\n      tag_108\n      jump\t// in\n    tag_106:\n      mload(0x40)\n      tag_109\n      swap2\n      swap1\n      tag_46\n      jump\t// in\n    tag_109:\n      mload(0x40)\n      dup1\n      swap2\n      sub\n      swap1\n      return\n        /* \"contracts/Pokemon.sol\":1542:2475  function buyPokemon() public {... */\n    tag_17:\n      callvalue\n      dup1\n      iszero\n      tag_110\n      jumpi\n      0x00\n      dup1\n      revert\n    tag_110:\n      pop\n      tag_111\n      tag_112\n      jump\t// in\n    tag_111:\n      stop\n        /* \"contracts/Pokemon.sol\":2515:3403  function movePokemon(address who, uint which) public {... */\n    tag_18:\n      callvalue\n      dup1\n      iszero\n      tag_113\n      jumpi\n      0x00\n      dup1\n      revert\n    tag_113:\n      pop\n      tag_114\n      0x04\n      dup1\n      calldatasize\n      sub\n      dup2\n      add\n      swap1\n      tag_115\n      swap2\n      swap1\n      tag_43\n      jump\t// in\n    tag_115:\n      tag_116\n      jump\t// in\n    tag_114:\n      stop\n        /* \"contracts/ERC20.sol\":473:543  mapping(address => mapping(address => uint)) public override allowance */\n    tag_19:\n      callvalue\n      dup1\n      iszero\n      tag_117\n      jumpi\n      0x00\n      dup1\n      revert\n    tag_117:\n      pop\n      tag_118\n      0x04\n      dup1\n      calldatasize\n      sub\n      dup2\n      add\n      swap1\n      tag_119\n      swap2\n      swap1\n      tag_120\n      jump\t// in\n    tag_119:\n      tag_121\n      jump\t// in\n    tag_118:\n      mload(0x40)\n      tag_122\n      swap2\n      swap1\n      tag_51\n      jump\t// in\n    tag_122:\n      mload(0x40)\n      dup1\n      swap2\n      sub\n      swap1\n      return\n        /* \"contracts/ERC20.sol\":1500:1615  function _mint(uint amount) internal {... */\n    tag_34:\n        /* \"contracts/ERC20.sol\":1571:1577  amount */\n      dup1\n        /* \"contracts/ERC20.sol\":1547:1555  balances */\n      0x05\n        /* \"contracts/ERC20.sol\":1547:1567  balances[msg.sender] */\n      0x00\n        /* \"contracts/ERC20.sol\":1556:1566  msg.sender */\n      caller\n        /* \"contracts/ERC20.sol\":1547:1567  balances[msg.sender] */\n      0xffffffffffffffffffffffffffffffffffffffff\n      and\n      0xffffffffffffffffffffffffffffffffffffffff\n      and\n      dup2\n      mstore\n      0x20\n      add\n      swap1\n      dup2\n      mstore\n      0x20\n      add\n      0x00\n      keccak256\n      0x00\n        /* \"contracts/ERC20.sol\":1547:1577  balances[msg.sender] += amount */\n      dup3\n      dup3\n      sload\n      tag_124\n      swap2\n      swap1\n      tag_31\n      jump\t// in\n    tag_124:\n      swap3\n      pop\n      pop\n      dup2\n      swap1\n      sstore\n      pop\n        /* \"contracts/ERC20.sol\":1602:1608  amount */\n      dup1\n        /* \"contracts/ERC20.sol\":1587:1598  totalSupply */\n      0x03\n      0x00\n        /* \"contracts/ERC20.sol\":1587:1608  totalSupply += amount */\n      dup3\n      dup3\n      sload\n      tag_125\n      swap2\n      swap1\n      tag_31\n      jump\t// in\n    tag_125:\n      swap3\n      pop\n      pop\n      dup2\n      swap1\n      sstore\n      pop\n        /* \"contracts/ERC20.sol\":1500:1615  function _mint(uint amount) internal {... */\n      pop\n      jump\t// out\n        /* \"contracts/ERC20.sol\":113:131  string public name */\n    tag_37:\n      0x00\n      dup1\n      sload\n      tag_126\n      swap1\n      tag_127\n      jump\t// in\n    tag_126:\n      dup1\n      0x1f\n      add\n      0x20\n      dup1\n      swap2\n      div\n      mul\n      0x20\n      add\n      mload(0x40)\n      swap1\n      dup2\n      add\n      0x40\n      mstore\n      dup1\n      swap3\n      swap2\n      swap1\n      dup2\n      dup2\n      mstore\n      0x20\n      add\n      dup3\n      dup1\n      sload\n      tag_128\n      swap1\n      tag_127\n      jump\t// in\n    tag_128:\n      dup1\n      iszero\n      tag_129\n      jumpi\n      dup1\n      0x1f\n      lt\n      tag_130\n      jumpi\n      0x0100\n      dup1\n      dup4\n      sload\n      div\n      mul\n      dup4\n      mstore\n      swap2\n      0x20\n      add\n      swap2\n      jump(tag_129)\n    tag_130:\n      dup3\n      add\n      swap2\n      swap1\n      0x00\n      mstore\n      keccak256(0x00, 0x20)\n      swap1\n    tag_131:\n      dup2\n      sload\n      dup2\n      mstore\n      swap1\n      0x01\n      add\n      swap1\n      0x20\n      add\n      dup1\n      dup4\n      gt\n      tag_131\n      jumpi\n      dup3\n      swap1\n      sub\n      0x1f\n      and\n      dup3\n      add\n      swap2\n    tag_129:\n      pop\n      pop\n      pop\n      pop\n      pop\n      dup2\n      jump\t// out\n        /* \"contracts/ERC20.sol\":2030:2187  function approve(address spender, uint amount) external override returns (bool) {... */\n    tag_44:\n        /* \"contracts/ERC20.sol\":2104:2108  bool */\n      0x00\n        /* \"contracts/ERC20.sol\":2153:2159  amount */\n      dup2\n        /* \"contracts/ERC20.sol\":2120:2129  allowance */\n      0x06\n        /* \"contracts/ERC20.sol\":2120:2141  allowance[msg.sender] */\n      0x00\n        /* \"contracts/ERC20.sol\":2130:2140  msg.sender */\n      caller\n        /* \"contracts/ERC20.sol\":2120:2141  allowance[msg.sender] */\n      0xffffffffffffffffffffffffffffffffffffffff\n      and\n      0xffffffffffffffffffffffffffffffffffffffff\n      and\n      dup2\n      mstore\n      0x20\n      add\n      swap1\n      dup2\n      mstore\n      0x20\n      add\n      0x00\n      keccak256\n        /* \"contracts/ERC20.sol\":2120:2150  allowance[msg.sender][spender] */\n      0x00\n        /* \"contracts/ERC20.sol\":2142:2149  spender */\n      dup6\n        /* \"contracts/ERC20.sol\":2120:2150  allowance[msg.sender][spender] */\n      0xffffffffffffffffffffffffffffffffffffffff\n      and\n      0xffffffffffffffffffffffffffffffffffffffff\n      and\n      dup2\n      mstore\n      0x20\n      add\n      swap1\n      dup2\n      mstore\n      0x20\n      add\n      0x00\n      keccak256\n        /* \"contracts/ERC20.sol\":2120:2159  allowance[msg.sender][spender] = amount */\n      dup2\n      swap1\n      sstore\n      pop\n        /* \"contracts/ERC20.sol\":2176:2180  true */\n      0x01\n        /* \"contracts/ERC20.sol\":2169:2180  return true */\n      swap1\n      pop\n        /* \"contracts/ERC20.sol\":2030:2187  function approve(address spender, uint amount) external override returns (bool) {... */\n      swap3\n      swap2\n      pop\n      pop\n      jump\t// out\n        /* \"contracts/ERC20.sol\":249:281  uint public override totalSupply */\n    tag_49:\n      sload(0x03)\n      dup2\n      jump\t// out\n        /* \"contracts/ERC20.sol\":2231:2841  function transferFrom(address sender, address to, uint amount) external override returns (bool) {... */\n    tag_56:\n        /* \"contracts/ERC20.sol\":2321:2325  bool */\n      0x00\n        /* \"contracts/ERC20.sol\":2378:2384  amount */\n      dup2\n        /* \"contracts/ERC20.sol\":2345:2354  allowance */\n      0x06\n        /* \"contracts/ERC20.sol\":2345:2362  allowance[sender] */\n      0x00\n        /* \"contracts/ERC20.sol\":2355:2361  sender */\n      dup7\n        /* \"contracts/ERC20.sol\":2345:2362  allowance[sender] */\n      0xffffffffffffffffffffffffffffffffffffffff\n      and\n      0xffffffffffffffffffffffffffffffffffffffff\n      and\n      dup2\n      mstore\n      0x20\n      add\n      swap1\n      dup2\n      mstore\n      0x20\n      add\n      0x00\n      keccak256\n        /* \"contracts/ERC20.sol\":2345:2374  allowance[sender][msg.sender] */\n      0x00\n        /* \"contracts/ERC20.sol\":2363:2373  msg.sender */\n      caller\n        /* \"contracts/ERC20.sol\":2345:2374  allowance[sender][msg.sender] */\n      0xffffffffffffffffffffffffffffffffffffffff\n      and\n      0xffffffffffffffffffffffffffffffffffffffff\n      and\n      dup2\n      mstore\n      0x20\n      add\n      swap1\n      dup2\n      mstore\n      0x20\n      add\n      0x00\n      keccak256\n      sload\n        /* \"contracts/ERC20.sol\":2345:2384  allowance[sender][msg.sender] >= amount */\n      lt\n      iszero\n        /* \"contracts/ERC20.sol\":2337:2385  require(allowance[sender][msg.sender] >= amount) */\n      tag_134\n      jumpi\n      0x00\n      dup1\n      revert\n    tag_134:\n        /* \"contracts/ERC20.sol\":2428:2434  amount */\n      dup2\n        /* \"contracts/ERC20.sol\":2395:2404  allowance */\n      0x06\n        /* \"contracts/ERC20.sol\":2395:2412  allowance[sender] */\n      0x00\n        /* \"contracts/ERC20.sol\":2405:2411  sender */\n      dup7\n        /* \"contracts/ERC20.sol\":2395:2412  allowance[sender] */\n      0xffffffffffffffffffffffffffffffffffffffff\n      and\n      0xffffffffffffffffffffffffffffffffffffffff\n      and\n      dup2\n      mstore\n      0x20\n      add\n      swap1\n      dup2\n      mstore\n      0x20\n      add\n      0x00\n      keccak256\n        /* \"contracts/ERC20.sol\":2395:2424  allowance[sender][msg.sender] */\n      0x00\n        /* \"contracts/ERC20.sol\":2413:2423  msg.sender */\n      caller\n        /* \"contracts/ERC20.sol\":2395:2424  allowance[sender][msg.sender] */\n      0xffffffffffffffffffffffffffffffffffffffff\n      and\n      0xffffffffffffffffffffffffffffffffffffffff\n      and\n      dup2\n      mstore\n      0x20\n      add\n      swap1\n      dup2\n      mstore\n      0x20\n      add\n      0x00\n      keccak256\n      0x00\n        /* \"contracts/ERC20.sol\":2395:2434  allowance[sender][msg.sender] -= amount */\n      dup3\n      dup3\n      sload\n      tag_135\n      swap2\n      swap1\n      tag_29\n      jump\t// in\n    tag_135:\n      swap3\n      pop\n      pop\n      dup2\n      swap1\n      sstore\n      pop\n        /* \"contracts/ERC20.sol\":2464:2470  amount */\n      dup2\n        /* \"contracts/ERC20.sol\":2444:2452  balances */\n      0x05\n        /* \"contracts/ERC20.sol\":2444:2460  balances[sender] */\n      0x00\n        /* \"contracts/ERC20.sol\":2453:2459  sender */\n      dup7\n        /* \"contracts/ERC20.sol\":2444:2460  balances[sender] */\n      0xffffffffffffffffffffffffffffffffffffffff\n      and\n      0xffffffffffffffffffffffffffffffffffffffff\n      and\n      dup2\n      mstore\n      0x20\n      add\n      swap1\n      dup2\n      mstore\n      0x20\n      add\n      0x00\n      keccak256\n      0x00\n        /* \"contracts/ERC20.sol\":2444:2470  balances[sender] -= amount */\n      dup3\n      dup3\n      sload\n      tag_136\n      swap2\n      swap1\n      tag_29\n      jump\t// in\n    tag_136:\n      swap3\n      pop\n      pop\n      dup2\n      swap1\n      sstore\n      pop\n        /* \"contracts/ERC20.sol\":2496:2502  amount */\n      dup2\n        /* \"contracts/ERC20.sol\":2480:2488  balances */\n      0x05\n        /* \"contracts/ERC20.sol\":2480:2492  balances[to] */\n      0x00\n        /* \"contracts/ERC20.sol\":2489:2491  to */\n      dup6\n        /* \"contracts/ERC20.sol\":2480:2492  balances[to] */\n      0xffffffffffffffffffffffffffffffffffffffff\n      and\n      0xffffffffffffffffffffffffffffffffffffffff\n      and\n      dup2\n      mstore\n      0x20\n      add\n      swap1\n      dup2\n      mstore\n      0x20\n      add\n      0x00\n      keccak256\n      0x00\n        /* \"contracts/ERC20.sol\":2480:2502  balances[to] += amount */\n      dup3\n      dup3\n      sload\n      tag_137\n      swap2\n      swap1\n      tag_31\n      jump\t// in\n    tag_137:\n      swap3\n      pop\n      pop\n      dup2\n      swap1\n      sstore\n      pop\n        /* \"contracts/ERC20.sol\":2519:2523  true */\n      0x01\n        /* \"contracts/ERC20.sol\":2512:2523  return true */\n      swap1\n      pop\n        /* \"contracts/ERC20.sol\":2231:2841  function transferFrom(address sender, address to, uint amount) external override returns (bool) {... */\n      swap4\n      swap3\n      pop\n      pop\n      pop\n      jump\t// out\n        /* \"contracts/ERC20.sol\":357:397  mapping(address => uint) public balances */\n    tag_62:\n      mstore(0x20, 0x05)\n      dup1\n      0x00\n      mstore\n      keccak256(0x00, 0x40)\n      0x00\n      swap2\n      pop\n      swap1\n      pop\n      sload\n      dup2\n      jump\t// out\n        /* \"contracts/ERC20.sol\":197:223  uint8 public decimals = 18 */\n    tag_66:\n      0x02\n      0x00\n      swap1\n      sload\n      swap1\n      0x0100\n      exp\n      swap1\n      div\n      0xff\n      and\n      dup2\n      jump\t// out\n        /* \"contracts/Pokemon.sol\":1172:1191  User[] public users */\n    tag_73:\n      0x0b\n      dup2\n      dup2\n      sload\n      dup2\n      lt\n      tag_138\n      jumpi\n      0x00\n      dup1\n      revert\n    tag_138:\n      swap1\n      0x00\n      mstore\n      keccak256(0x00, 0x20)\n      add\n      0x00\n      swap2\n      pop\n      swap1\n      pop\n      dup1\n      0x00\n      add\n      0x00\n      swap1\n      sload\n      swap1\n      0x0100\n      exp\n      swap1\n      div\n      0xffffffffffffffffffffffffffffffffffffffff\n      and\n      swap1\n      pop\n      dup2\n      jump\t// out\n        /* \"contracts/Pokemon.sol\":1069:1111  mapping(address => Poke[]) public pokemons */\n    tag_79:\n      mstore(0x20, 0x0a)\n      dup2\n      0x00\n      mstore\n      keccak256(0x00, 0x40)\n      dup2\n      dup2\n      sload\n      dup2\n      lt\n      tag_140\n      jumpi\n      0x00\n      dup1\n      revert\n    tag_140:\n      swap1\n      0x00\n      mstore\n      keccak256(0x00, 0x20)\n      swap1\n      0x02\n      mul\n      add\n      0x00\n      swap2\n      pop\n      swap2\n      pop\n      pop\n      dup1\n      0x00\n      add\n      dup1\n      sload\n      tag_142\n      swap1\n      tag_127\n      jump\t// in\n    tag_142:\n      dup1\n      0x1f\n      add\n      0x20\n      dup1\n      swap2\n      div\n      mul\n      0x20\n      add\n      mload(0x40)\n      swap1\n      dup2\n      add\n      0x40\n      mstore\n      dup1\n      swap3\n      swap2\n      swap1\n      dup2\n      dup2\n      mstore\n      0x20\n      add\n      dup3\n      dup1\n      sload\n      tag_143\n      swap1\n      tag_127\n      jump\t// in\n    tag_143:\n      dup1\n      iszero\n      tag_144\n      jumpi\n      dup1\n      0x1f\n      lt\n      tag_145\n      jumpi\n      0x0100\n      dup1\n      dup4\n      sload\n      div\n      mul\n      dup4\n      mstore\n      swap2\n      0x20\n      add\n      swap2\n      jump(tag_144)\n    tag_145:\n      dup3\n      add\n      swap2\n      swap1\n      0x00\n      mstore\n      keccak256(0x00, 0x20)\n      swap1\n    tag_146:\n      dup2\n      sload\n      dup2\n      mstore\n      swap1\n      0x01\n      add\n      swap1\n      0x20\n      add\n      dup1\n      dup4\n      gt\n      tag_146\n      jumpi\n      dup3\n      swap1\n      sub\n      0x1f\n      and\n      dup3\n      add\n      swap2\n    tag_144:\n      pop\n      pop\n      pop\n      pop\n      pop\n      swap1\n      dup1\n      0x01\n      add\n      dup1\n      sload\n      tag_147\n      swap1\n      tag_127\n      jump\t// in\n    tag_147:\n      dup1\n      0x1f\n      add\n      0x20\n      dup1\n      swap2\n      div\n      mul\n      0x20\n      add\n      mload(0x40)\n      swap1\n      dup2\n      add\n      0x40\n      mstore\n      dup1\n      swap3\n      swap2\n      swap1\n      dup2\n      dup2\n      mstore\n      0x20\n      add\n      dup3\n      dup1\n      sload\n      tag_148\n      swap1\n      tag_127\n      jump\t// in\n    tag_148:\n      dup1\n      iszero\n      tag_149\n      jumpi\n      dup1\n      0x1f\n      lt\n      tag_150\n      jumpi\n      0x0100\n      dup1\n      dup4\n      sload\n      div\n      mul\n      dup4\n      mstore\n      swap2\n      0x20\n      add\n      swap2\n      jump(tag_149)\n    tag_150:\n      dup3\n      add\n      swap2\n      swap1\n      0x00\n      mstore\n      keccak256(0x00, 0x20)\n      swap1\n    tag_151:\n      dup2\n      sload\n      dup2\n      mstore\n      swap1\n      0x01\n      add\n      swap1\n      0x20\n      add\n      dup1\n      dup4\n      gt\n      tag_151\n      jumpi\n      dup3\n      swap1\n      sub\n      0x1f\n      and\n      dup3\n      add\n      swap2\n    tag_149:\n      pop\n      pop\n      pop\n      pop\n      pop\n      swap1\n      pop\n      dup3\n      jump\t// out\n        /* \"contracts/ERC20.sol\":2871:2985  function burn(uint amount) external {... */\n    tag_85:\n        /* \"contracts/ERC20.sol\":2941:2947  amount */\n      dup1\n        /* \"contracts/ERC20.sol\":2917:2925  balances */\n      0x05\n        /* \"contracts/ERC20.sol\":2917:2937  balances[msg.sender] */\n      0x00\n        /* \"contracts/ERC20.sol\":2926:2936  msg.sender */\n      caller\n        /* \"contracts/ERC20.sol\":2917:2937  balances[msg.sender] */\n      0xffffffffffffffffffffffffffffffffffffffff\n      and\n      0xffffffffffffffffffffffffffffffffffffffff\n      and\n      dup2\n      mstore\n      0x20\n      add\n      swap1\n      dup2\n      mstore\n      0x20\n      add\n      0x00\n      keccak256\n      0x00\n        /* \"contracts/ERC20.sol\":2917:2947  balances[msg.sender] -= amount */\n      dup3\n      dup3\n      sload\n      tag_153\n      swap2\n      swap1\n      tag_29\n      jump\t// in\n    tag_153:\n      swap3\n      pop\n      pop\n      dup2\n      swap1\n      sstore\n      pop\n        /* \"contracts/ERC20.sol\":2972:2978  amount */\n      dup1\n        /* \"contracts/ERC20.sol\":2957:2968  totalSupply */\n      0x03\n      0x00\n        /* \"contracts/ERC20.sol\":2957:2978  totalSupply -= amount */\n      dup3\n      dup3\n      sload\n      tag_154\n      swap2\n      swap1\n      tag_29\n      jump\t// in\n    tag_154:\n      swap3\n      pop\n      pop\n      dup2\n      swap1\n      sstore\n      pop\n        /* \"contracts/ERC20.sol\":2871:2985  function burn(uint amount) external {... */\n      pop\n      jump\t// out\n        /* \"contracts/ERC20.sol\":1685:1800  function balanceOf(address account) external view override returns (uint) {... */\n    tag_89:\n        /* \"contracts/ERC20.sol\":1753:1757  uint */\n      0x00\n        /* \"contracts/ERC20.sol\":1776:1784  balances */\n      0x05\n        /* \"contracts/ERC20.sol\":1776:1793  balances[account] */\n      0x00\n        /* \"contracts/ERC20.sol\":1785:1792  account */\n      dup4\n        /* \"contracts/ERC20.sol\":1776:1793  balances[account] */\n      0xffffffffffffffffffffffffffffffffffffffff\n      and\n      0xffffffffffffffffffffffffffffffffffffffff\n      and\n      dup2\n      mstore\n      0x20\n      add\n      swap1\n      dup2\n      mstore\n      0x20\n      add\n      0x00\n      keccak256\n      sload\n        /* \"contracts/ERC20.sol\":1769:1793  return balances[account] */\n      swap1\n      pop\n        /* \"contracts/ERC20.sol\":1685:1800  function balanceOf(address account) external view override returns (uint) {... */\n      swap2\n      swap1\n      pop\n      jump\t// out\n        /* \"contracts/Pokemon.sol\":1407:1499  function getPokemonUsers() public view returns (User[] memory) {... */\n    tag_93:\n        /* \"contracts/Pokemon.sol\":1455:1468  User[] memory */\n      0x60\n        /* \"contracts/Pokemon.sol\":1487:1492  users */\n      0x0b\n        /* \"contracts/Pokemon.sol\":1480:1492  return users */\n      dup1\n      sload\n      dup1\n      0x20\n      mul\n      0x20\n      add\n      mload(0x40)\n      swap1\n      dup2\n      add\n      0x40\n      mstore\n      dup1\n      swap3\n      swap2\n      swap1\n      dup2\n      dup2\n      mstore\n      0x20\n      add\n      0x00\n      swap1\n    tag_157:\n      dup3\n      dup3\n      lt\n      iszero\n      tag_158\n      jumpi\n      dup4\n      dup3\n      swap1\n      0x00\n      mstore\n      keccak256(0x00, 0x20)\n      add\n      mload(0x40)\n      dup1\n      0x20\n      add\n      0x40\n      mstore\n      swap1\n      dup2\n      0x00\n      dup3\n      add\n      0x00\n      swap1\n      sload\n      swap1\n      0x0100\n      exp\n      swap1\n      div\n      0xffffffffffffffffffffffffffffffffffffffff\n      and\n      0xffffffffffffffffffffffffffffffffffffffff\n      and\n      0xffffffffffffffffffffffffffffffffffffffff\n      and\n      dup2\n      mstore\n      pop\n      pop\n      dup2\n      mstore\n      0x20\n      add\n      swap1\n      0x01\n      add\n      swap1\n      jump(tag_157)\n    tag_158:\n      pop\n      pop\n      pop\n      pop\n      swap1\n      pop\n        /* \"contracts/Pokemon.sol\":1407:1499  function getPokemonUsers() public view returns (User[] memory) {... */\n      swap1\n      jump\t// out\n        /* \"contracts/Pokemon.sol\":1258:1360  function getPokemon() public view returns (Poke[] memory) {... */\n    tag_98:\n        /* \"contracts/Pokemon.sol\":1301:1314  Poke[] memory */\n      0x60\n        /* \"contracts/Pokemon.sol\":1333:1341  pokemons */\n      0x0a\n        /* \"contracts/Pokemon.sol\":1333:1353  pokemons[msg.sender] */\n      0x00\n        /* \"contracts/Pokemon.sol\":1342:1352  msg.sender */\n      caller\n        /* \"contracts/Pokemon.sol\":1333:1353  pokemons[msg.sender] */\n      0xffffffffffffffffffffffffffffffffffffffff\n      and\n      0xffffffffffffffffffffffffffffffffffffffff\n      and\n      dup2\n      mstore\n      0x20\n      add\n      swap1\n      dup2\n      mstore\n      0x20\n      add\n      0x00\n      keccak256\n        /* \"contracts/Pokemon.sol\":1326:1353  return pokemons[msg.sender] */\n      dup1\n      sload\n      dup1\n      0x20\n      mul\n      0x20\n      add\n      mload(0x40)\n      swap1\n      dup2\n      add\n      0x40\n      mstore\n      dup1\n      swap3\n      swap2\n      swap1\n      dup2\n      dup2\n      mstore\n      0x20\n      add\n      0x00\n      swap1\n    tag_161:\n      dup3\n      dup3\n      lt\n      iszero\n      tag_162\n      jumpi\n      dup4\n      dup3\n      swap1\n      0x00\n      mstore\n      keccak256(0x00, 0x20)\n      swap1\n      0x02\n      mul\n      add\n      mload(0x40)\n      dup1\n      0x40\n      add\n      0x40\n      mstore\n      swap1\n      dup2\n      0x00\n      dup3\n      add\n      dup1\n      sload\n      tag_164\n      swap1\n      tag_127\n      jump\t// in\n    tag_164:\n      dup1\n      0x1f\n      add\n      0x20\n      dup1\n      swap2\n      div\n      mul\n      0x20\n      add\n      mload(0x40)\n      swap1\n      dup2\n      add\n      0x40\n      mstore\n      dup1\n      swap3\n      swap2\n      swap1\n      dup2\n      dup2\n      mstore\n      0x20\n      add\n      dup3\n      dup1\n      sload\n      tag_165\n      swap1\n      tag_127\n      jump\t// in\n    tag_165:\n      dup1\n      iszero\n      tag_166\n      jumpi\n      dup1\n      0x1f\n      lt\n      tag_167\n      jumpi\n      0x0100\n      dup1\n      dup4\n      sload\n      div\n      mul\n      dup4\n      mstore\n      swap2\n      0x20\n      add\n      swap2\n      jump(tag_166)\n    tag_167:\n      dup3\n      add\n      swap2\n      swap1\n      0x00\n      mstore\n      keccak256(0x00, 0x20)\n      swap1\n    tag_168:\n      dup2\n      sload\n      dup2\n      mstore\n      swap1\n      0x01\n      add\n      swap1\n      0x20\n      add\n      dup1\n      dup4\n      gt\n      tag_168\n      jumpi\n      dup3\n      swap1\n      sub\n      0x1f\n      and\n      dup3\n      add\n      swap2\n    tag_166:\n      pop\n      pop\n      pop\n      pop\n      pop\n      dup2\n      mstore\n      0x20\n      add\n      0x01\n      dup3\n      add\n      dup1\n      sload\n      tag_169\n      swap1\n      tag_127\n      jump\t// in\n    tag_169:\n      dup1\n      0x1f\n      add\n      0x20\n      dup1\n      swap2\n      div\n      mul\n      0x20\n      add\n      mload(0x40)\n      swap1\n      dup2\n      add\n      0x40\n      mstore\n      dup1\n      swap3\n      swap2\n      swap1\n      dup2\n      dup2\n      mstore\n      0x20\n      add\n      dup3\n      dup1\n      sload\n      tag_170\n      swap1\n      tag_127\n      jump\t// in\n    tag_170:\n      dup1\n      iszero\n      tag_171\n      jumpi\n      dup1\n      0x1f\n      lt\n      tag_172\n      jumpi\n      0x0100\n      dup1\n      dup4\n      sload\n      div\n      mul\n      dup4\n      mstore\n      swap2\n      0x20\n      add\n      swap2\n      jump(tag_171)\n    tag_172:\n      dup3\n      add\n      swap2\n      swap1\n      0x00\n      mstore\n      keccak256(0x00, 0x20)\n      swap1\n    tag_173:\n      dup2\n      sload\n      dup2\n      mstore\n      swap1\n      0x01\n      add\n      swap1\n      0x20\n      add\n      dup1\n      dup4\n      gt\n      tag_173\n      jumpi\n      dup3\n      swap1\n      sub\n      0x1f\n      and\n      dup3\n      add\n      swap2\n    tag_171:\n      pop\n      pop\n      pop\n      pop\n      pop\n      dup2\n      mstore\n      pop\n      pop\n      dup2\n      mstore\n      0x20\n      add\n      swap1\n      0x01\n      add\n      swap1\n      jump(tag_161)\n    tag_162:\n      pop\n      pop\n      pop\n      pop\n      swap1\n      pop\n        /* \"contracts/Pokemon.sol\":1258:1360  function getPokemon() public view returns (Poke[] memory) {... */\n      swap1\n      jump\t// out\n        /* \"contracts/ERC20.sol\":154:174  string public symbol */\n    tag_103:\n      0x01\n      dup1\n      sload\n      tag_174\n      swap1\n      tag_127\n      jump\t// in\n    tag_174:\n      dup1\n      0x1f\n      add\n      0x20\n      dup1\n      swap2\n      div\n      mul\n      0x20\n      add\n      mload(0x40)\n      swap1\n      dup2\n      add\n      0x40\n      mstore\n      dup1\n      swap3\n      swap2\n      swap1\n      dup2\n      dup2\n      mstore\n      0x20\n      add\n      dup3\n      dup1\n      sload\n      tag_175\n      swap1\n      tag_127\n      jump\t// in\n    tag_175:\n      dup1\n      iszero\n      tag_176\n      jumpi\n      dup1\n      0x1f\n      lt\n      tag_177\n      jumpi\n      0x0100\n      dup1\n      dup4\n      sload\n      div\n      mul\n      dup4\n      mstore\n      swap2\n      0x20\n      add\n      swap2\n      jump(tag_176)\n    tag_177:\n      dup3\n      add\n      swap2\n      swap1\n      0x00\n      mstore\n      keccak256(0x00, 0x20)\n      swap1\n    tag_178:\n      dup2\n      sload\n      dup2\n      mstore\n      swap1\n      0x01\n      add\n      swap1\n      0x20\n      add\n      dup1\n      dup4\n      gt\n      tag_178\n      jumpi\n      dup3\n      swap1\n      sub\n      0x1f\n      and\n      dup3\n      add\n      swap2\n    tag_176:\n      pop\n      pop\n      pop\n      pop\n      pop\n      dup2\n      jump\t// out\n        /* \"contracts/ERC20.sol\":1827:2003  function transfer(address to, uint amount) external override returns (bool) {... */\n    tag_108:\n        /* \"contracts/ERC20.sol\":1897:1901  bool */\n      0x00\n        /* \"contracts/ERC20.sol\":1937:1943  amount */\n      dup2\n        /* \"contracts/ERC20.sol\":1913:1921  balances */\n      0x05\n        /* \"contracts/ERC20.sol\":1913:1933  balances[msg.sender] */\n      0x00\n        /* \"contracts/ERC20.sol\":1922:1932  msg.sender */\n      caller\n        /* \"contracts/ERC20.sol\":1913:1933  balances[msg.sender] */\n      0xffffffffffffffffffffffffffffffffffffffff\n      and\n      0xffffffffffffffffffffffffffffffffffffffff\n      and\n      dup2\n      mstore\n      0x20\n      add\n      swap1\n      dup2\n      mstore\n      0x20\n      add\n      0x00\n      keccak256\n      0x00\n        /* \"contracts/ERC20.sol\":1913:1943  balances[msg.sender] -= amount */\n      dup3\n      dup3\n      sload\n      tag_180\n      swap2\n      swap1\n      tag_29\n      jump\t// in\n    tag_180:\n      swap3\n      pop\n      pop\n      dup2\n      swap1\n      sstore\n      pop\n        /* \"contracts/ERC20.sol\":1969:1975  amount */\n      dup2\n        /* \"contracts/ERC20.sol\":1953:1961  balances */\n      0x05\n        /* \"contracts/ERC20.sol\":1953:1965  balances[to] */\n      0x00\n        /* \"contracts/ERC20.sol\":1962:1964  to */\n      dup6\n        /* \"contracts/ERC20.sol\":1953:1965  balances[to] */\n      0xffffffffffffffffffffffffffffffffffffffff\n      and\n      0xffffffffffffffffffffffffffffffffffffffff\n      and\n      dup2\n      mstore\n      0x20\n      add\n      swap1\n      dup2\n      mstore\n      0x20\n      add\n      0x00\n      keccak256\n      0x00\n        /* \"contracts/ERC20.sol\":1953:1975  balances[to] += amount */\n      dup3\n      dup3\n      sload\n      tag_181\n      swap2\n      swap1\n      tag_31\n      jump\t// in\n    tag_181:\n      swap3\n      pop\n      pop\n      dup2\n      swap1\n      sstore\n      pop\n        /* \"contracts/ERC20.sol\":1992:1996  true */\n      0x01\n        /* \"contracts/ERC20.sol\":1985:1996  return true */\n      swap1\n      pop\n        /* \"contracts/ERC20.sol\":1827:2003  function transfer(address to, uint amount) external override returns (bool) {... */\n      swap3\n      swap2\n      pop\n      pop\n      jump\t// out\n        /* \"contracts/Pokemon.sol\":1542:2475  function buyPokemon() public {... */\n    tag_112:\n        /* \"contracts/Pokemon.sol\":1613:1623  tokenPrice */\n      sload(0x07)\n        /* \"contracts/Pokemon.sol\":1589:1597  balances */\n      0x05\n        /* \"contracts/Pokemon.sol\":1589:1609  balances[msg.sender] */\n      0x00\n        /* \"contracts/Pokemon.sol\":1598:1608  msg.sender */\n      caller\n        /* \"contracts/Pokemon.sol\":1589:1609  balances[msg.sender] */\n      0xffffffffffffffffffffffffffffffffffffffff\n      and\n      0xffffffffffffffffffffffffffffffffffffffff\n      and\n      dup2\n      mstore\n      0x20\n      add\n      swap1\n      dup2\n      mstore\n      0x20\n      add\n      0x00\n      keccak256\n      sload\n        /* \"contracts/Pokemon.sol\":1589:1623  balances[msg.sender] >= tokenPrice */\n      lt\n      iszero\n        /* \"contracts/Pokemon.sol\":1581:1624  require(balances[msg.sender] >= tokenPrice) */\n      tag_183\n      jumpi\n      0x00\n      dup1\n      revert\n    tag_183:\n        /* \"contracts/Pokemon.sol\":1658:1668  tokenPrice */\n      sload(0x07)\n        /* \"contracts/Pokemon.sol\":1634:1642  balances */\n      0x05\n        /* \"contracts/Pokemon.sol\":1634:1654  balances[msg.sender] */\n      0x00\n        /* \"contracts/Pokemon.sol\":1643:1653  msg.sender */\n      caller\n        /* \"contracts/Pokemon.sol\":1634:1654  balances[msg.sender] */\n      0xffffffffffffffffffffffffffffffffffffffff\n      and\n      0xffffffffffffffffffffffffffffffffffffffff\n      and\n      dup2\n      mstore\n      0x20\n      add\n      swap1\n      dup2\n      mstore\n      0x20\n      add\n      0x00\n      keccak256\n      0x00\n        /* \"contracts/Pokemon.sol\":1634:1668  balances[msg.sender] -= tokenPrice */\n      dup3\n      dup3\n      sload\n      tag_184\n      swap2\n      swap1\n      tag_29\n      jump\t// in\n    tag_184:\n      swap3\n      pop\n      pop\n      dup2\n      swap1\n      sstore\n      pop\n        /* \"contracts/Pokemon.sol\":1693:1703  tokenPrice */\n      sload(0x07)\n        /* \"contracts/Pokemon.sol\":1678:1689  totalSupply */\n      0x03\n      0x00\n        /* \"contracts/Pokemon.sol\":1678:1703  totalSupply -= tokenPrice */\n      dup3\n      dup3\n      sload\n      tag_185\n      swap2\n      swap1\n      tag_29\n      jump\t// in\n    tag_185:\n      swap3\n      pop\n      pop\n      dup2\n      swap1\n      sstore\n      pop\n        /* \"contracts/Pokemon.sol\":1714:1725  uint random */\n      0x00\n        /* \"contracts/Pokemon.sol\":1773:1788  block.timestamp */\n      timestamp\n        /* \"contracts/Pokemon.sol\":1790:1804  block.coinbase */\n      coinbase\n        /* \"contracts/Pokemon.sol\":1806:1818  block.number */\n      number\n        /* \"contracts/Pokemon.sol\":1756:1819  abi.encodePacked(block.timestamp, block.coinbase, block.number) */\n      add(0x20, mload(0x40))\n      tag_186\n      swap4\n      swap3\n      swap2\n      swap1\n      tag_187\n      jump\t// in\n    tag_186:\n      mload(0x40)\n      0x20\n      dup2\n      dup4\n      sub\n      sub\n      dup2\n      mstore\n      swap1\n      0x40\n      mstore\n        /* \"contracts/Pokemon.sol\":1733:1829  keccak256(... */\n      dup1\n      mload\n      swap1\n      0x20\n      add\n      keccak256\n        /* \"contracts/Pokemon.sol\":1728:1830  uint(keccak256(... */\n      0x00\n      shr\n        /* \"contracts/Pokemon.sol\":1714:1830  uint random = uint(keccak256(... */\n      swap1\n      pop\n        /* \"contracts/Pokemon.sol\":1863:1864  3 */\n      0x03\n        /* \"contracts/Pokemon.sol\":1854:1860  random */\n      dup2\n        /* \"contracts/Pokemon.sol\":1854:1864  random % 3 */\n      tag_188\n      swap2\n      swap1\n      tag_189\n      jump\t// in\n    tag_188:\n        /* \"contracts/Pokemon.sol\":1840:1865  random = uint(random % 3) */\n      swap1\n      pop\n        /* \"contracts/Pokemon.sol\":1961:1969  pokemons */\n      0x0a\n        /* \"contracts/Pokemon.sol\":1961:1981  pokemons[msg.sender] */\n      0x00\n        /* \"contracts/Pokemon.sol\":1970:1980  msg.sender */\n      caller\n        /* \"contracts/Pokemon.sol\":1961:1981  pokemons[msg.sender] */\n      0xffffffffffffffffffffffffffffffffffffffff\n      and\n      0xffffffffffffffffffffffffffffffffffffffff\n      and\n      dup2\n      mstore\n      0x20\n      add\n      swap1\n      dup2\n      mstore\n      0x20\n      add\n      0x00\n      keccak256\n        /* \"contracts/Pokemon.sol\":1987:2103  Poke(... */\n      mload(0x40)\n      dup1\n      0x40\n      add\n      0x40\n      mstore\n      dup1\n        /* \"contracts/Pokemon.sol\":2005:2015  pokemonUrl */\n      0x09\n        /* \"contracts/Pokemon.sol\":2016:2022  random */\n      dup5\n        /* \"contracts/Pokemon.sol\":2005:2023  pokemonUrl[random] */\n      dup2\n      sload\n      dup2\n      lt\n      tag_190\n      jumpi\n      tag_191\n      tag_192\n      jump\t// in\n    tag_191:\n    tag_190:\n      swap1\n      0x00\n      mstore\n      keccak256(0x00, 0x20)\n      add\n        /* \"contracts/Pokemon.sol\":1987:2103  Poke(... */\n      dup1\n      sload\n      tag_194\n      swap1\n      tag_127\n      jump\t// in\n    tag_194:\n      dup1\n      0x1f\n      add\n      0x20\n      dup1\n      swap2\n      div\n      mul\n      0x20\n      add\n      mload(0x40)\n      swap1\n      dup2\n      add\n      0x40\n      mstore\n      dup1\n      swap3\n      swap2\n      swap1\n      dup2\n      dup2\n      mstore\n      0x20\n      add\n      dup3\n      dup1\n      sload\n      tag_195\n      swap1\n      tag_127\n      jump\t// in\n    tag_195:\n      dup1\n      iszero\n      tag_196\n      jumpi\n      dup1\n      0x1f\n      lt\n      tag_197\n      jumpi\n      0x0100\n      dup1\n      dup4\n      sload\n      div\n      mul\n      dup4\n      mstore\n      swap2\n      0x20\n      add\n      swap2\n      jump(tag_196)\n    tag_197:\n      dup3\n      add\n      swap2\n      swap1\n      0x00\n      mstore\n      keccak256(0x00, 0x20)\n      swap1\n    tag_198:\n      dup2\n      sload\n      dup2\n      mstore\n      swap1\n      0x01\n      add\n      swap1\n      0x20\n      add\n      dup1\n      dup4\n      gt\n      tag_198\n      jumpi\n      dup3\n      swap1\n      sub\n      0x1f\n      and\n      dup3\n      add\n      swap2\n    tag_196:\n      pop\n      pop\n      pop\n      pop\n      pop\n      dup2\n      mstore\n      0x20\n      add\n        /* \"contracts/Pokemon.sol\":2074:2085  pokemonName */\n      0x08\n        /* \"contracts/Pokemon.sol\":2086:2092  random */\n      dup5\n        /* \"contracts/Pokemon.sol\":2074:2093  pokemonName[random] */\n      dup2\n      sload\n      dup2\n      lt\n      tag_199\n      jumpi\n      tag_200\n      tag_192\n      jump\t// in\n    tag_200:\n    tag_199:\n      swap1\n      0x00\n      mstore\n      keccak256(0x00, 0x20)\n      add\n        /* \"contracts/Pokemon.sol\":1987:2103  Poke(... */\n      dup1\n      sload\n      tag_202\n      swap1\n      tag_127\n      jump\t// in\n    tag_202:\n      dup1\n      0x1f\n      add\n      0x20\n      dup1\n      swap2\n      div\n      mul\n      0x20\n      add\n      mload(0x40)\n      swap1\n      dup2\n      add\n      0x40\n      mstore\n      dup1\n      swap3\n      swap2\n      swap1\n      dup2\n      dup2\n      mstore\n      0x20\n      add\n      dup3\n      dup1\n      sload\n      tag_203\n      swap1\n      tag_127\n      jump\t// in\n    tag_203:\n      dup1\n      iszero\n      tag_204\n      jumpi\n      dup1\n      0x1f\n      lt\n      tag_205\n      jumpi\n      0x0100\n      dup1\n      dup4\n      sload\n      div\n      mul\n      dup4\n      mstore\n      swap2\n      0x20\n      add\n      swap2\n      jump(tag_204)\n    tag_205:\n      dup3\n      add\n      swap2\n      swap1\n      0x00\n      mstore\n      keccak256(0x00, 0x20)\n      swap1\n    tag_206:\n      dup2\n      sload\n      dup2\n      mstore\n      swap1\n      0x01\n      add\n      swap1\n      0x20\n      add\n      dup1\n      dup4\n      gt\n      tag_206\n      jumpi\n      dup3\n      swap1\n      sub\n      0x1f\n      and\n      dup3\n      add\n      swap2\n    tag_204:\n      pop\n      pop\n      pop\n      pop\n      pop\n      dup2\n      mstore\n      pop\n        /* \"contracts/Pokemon.sol\":1961:2104  pokemons[msg.sender].push(Poke(... */\n      swap1\n      dup1\n      0x01\n      dup2\n      sload\n      add\n      dup1\n      dup3\n      sstore\n      dup1\n      swap2\n      pop\n      pop\n      0x01\n      swap1\n      sub\n      swap1\n      0x00\n      mstore\n      keccak256(0x00, 0x20)\n      swap1\n      0x02\n      mul\n      add\n      0x00\n      swap1\n      swap2\n      swap1\n      swap2\n      swap1\n      swap2\n      pop\n      0x00\n      dup3\n      add\n      mload\n      dup2\n      0x00\n      add\n      swap1\n      dup2\n      tag_208\n      swap2\n      swap1\n      tag_209\n      jump\t// in\n    tag_208:\n      pop\n      0x20\n      dup3\n      add\n      mload\n      dup2\n      0x01\n      add\n      swap1\n      dup2\n      tag_210\n      swap2\n      swap1\n      tag_209\n      jump\t// in\n    tag_210:\n      pop\n      pop\n      pop\n        /* \"contracts/Pokemon.sol\":2220:2231  bool isUser */\n      0x00\n        /* \"contracts/Pokemon.sol\":2253:2262  uint256 i */\n      dup1\n        /* \"contracts/Pokemon.sol\":2249:2419  for(uint256 i = 0; i < users.length; i++) {... */\n    tag_211:\n        /* \"contracts/Pokemon.sol\":2272:2277  users */\n      0x0b\n        /* \"contracts/Pokemon.sol\":2272:2284  users.length */\n      dup1\n      sload\n      swap1\n      pop\n        /* \"contracts/Pokemon.sol\":2268:2269  i */\n      dup2\n        /* \"contracts/Pokemon.sol\":2268:2284  i < users.length */\n      lt\n        /* \"contracts/Pokemon.sol\":2249:2419  for(uint256 i = 0; i < users.length; i++) {... */\n      iszero\n      tag_212\n      jumpi\n        /* \"contracts/Pokemon.sol\":2328:2338  msg.sender */\n      caller\n        /* \"contracts/Pokemon.sol\":2308:2338  users[i].account == msg.sender */\n      0xffffffffffffffffffffffffffffffffffffffff\n      and\n        /* \"contracts/Pokemon.sol\":2308:2313  users */\n      0x0b\n        /* \"contracts/Pokemon.sol\":2314:2315  i */\n      dup3\n        /* \"contracts/Pokemon.sol\":2308:2316  users[i] */\n      dup2\n      sload\n      dup2\n      lt\n      tag_214\n      jumpi\n      tag_215\n      tag_192\n      jump\t// in\n    tag_215:\n    tag_214:\n      swap1\n      0x00\n      mstore\n      keccak256(0x00, 0x20)\n      add\n        /* \"contracts/Pokemon.sol\":2308:2324  users[i].account */\n      0x00\n      add\n      0x00\n      swap1\n      sload\n      swap1\n      0x0100\n      exp\n      swap1\n      div\n      0xffffffffffffffffffffffffffffffffffffffff\n      and\n        /* \"contracts/Pokemon.sol\":2308:2338  users[i].account == msg.sender */\n      0xffffffffffffffffffffffffffffffffffffffff\n      and\n      sub\n        /* \"contracts/Pokemon.sol\":2305:2409  if(users[i].account == msg.sender) {... */\n      tag_217\n      jumpi\n        /* \"contracts/Pokemon.sol\":2367:2371  true */\n      0x01\n        /* \"contracts/Pokemon.sol\":2358:2371  isUser = true */\n      swap2\n      pop\n        /* \"contracts/Pokemon.sol\":2389:2394  break */\n      jump(tag_212)\n        /* \"contracts/Pokemon.sol\":2305:2409  if(users[i].account == msg.sender) {... */\n    tag_217:\n        /* \"contracts/Pokemon.sol\":2286:2289  i++ */\n      dup1\n      dup1\n      tag_218\n      swap1\n      tag_219\n      jump\t// in\n    tag_218:\n      swap2\n      pop\n      pop\n        /* \"contracts/Pokemon.sol\":2249:2419  for(uint256 i = 0; i < users.length; i++) {... */\n      jump(tag_211)\n    tag_212:\n      pop\n        /* \"contracts/Pokemon.sol\":2432:2438  isUser */\n      dup1\n        /* \"contracts/Pokemon.sol\":2428:2468  if(!isUser) users.push(User(msg.sender)) */\n      tag_220\n      jumpi\n        /* \"contracts/Pokemon.sol\":2440:2445  users */\n      0x0b\n        /* \"contracts/Pokemon.sol\":2451:2467  User(msg.sender) */\n      mload(0x40)\n      dup1\n      0x20\n      add\n      0x40\n      mstore\n      dup1\n        /* \"contracts/Pokemon.sol\":2456:2466  msg.sender */\n      caller\n        /* \"contracts/Pokemon.sol\":2451:2467  User(msg.sender) */\n      0xffffffffffffffffffffffffffffffffffffffff\n      and\n      dup2\n      mstore\n      pop\n        /* \"contracts/Pokemon.sol\":2440:2468  users.push(User(msg.sender)) */\n      swap1\n      dup1\n      0x01\n      dup2\n      sload\n      add\n      dup1\n      dup3\n      sstore\n      dup1\n      swap2\n      pop\n      pop\n      0x01\n      swap1\n      sub\n      swap1\n      0x00\n      mstore\n      keccak256(0x00, 0x20)\n      add\n      0x00\n      swap1\n      swap2\n      swap1\n      swap2\n      swap1\n      swap2\n      pop\n      0x00\n      dup3\n      add\n      mload\n      dup2\n      0x00\n      add\n      exp(0x0100, 0x00)\n      dup2\n      sload\n      dup2\n      0xffffffffffffffffffffffffffffffffffffffff\n      mul\n      not\n      and\n      swap1\n      dup4\n      0xffffffffffffffffffffffffffffffffffffffff\n      and\n      mul\n      or\n      swap1\n      sstore\n      pop\n      pop\n      pop\n        /* \"contracts/Pokemon.sol\":2428:2468  if(!isUser) users.push(User(msg.sender)) */\n    tag_220:\n        /* \"contracts/Pokemon.sol\":1571:2475  {... */\n      pop\n      pop\n        /* \"contracts/Pokemon.sol\":1542:2475  function buyPokemon() public {... */\n      jump\t// out\n        /* \"contracts/Pokemon.sol\":2515:3403  function movePokemon(address who, uint which) public {... */\n    tag_116:\n        /* \"contracts/Pokemon.sol\":2616:2617  0 */\n      0x00\n        /* \"contracts/Pokemon.sol\":2586:2594  pokemons */\n      0x0a\n        /* \"contracts/Pokemon.sol\":2586:2606  pokemons[msg.sender] */\n      0x00\n        /* \"contracts/Pokemon.sol\":2595:2605  msg.sender */\n      caller\n        /* \"contracts/Pokemon.sol\":2586:2606  pokemons[msg.sender] */\n      0xffffffffffffffffffffffffffffffffffffffff\n      and\n      0xffffffffffffffffffffffffffffffffffffffff\n      and\n      dup2\n      mstore\n      0x20\n      add\n      swap1\n      dup2\n      mstore\n      0x20\n      add\n      0x00\n      keccak256\n        /* \"contracts/Pokemon.sol\":2586:2613  pokemons[msg.sender].length */\n      dup1\n      sload\n      swap1\n      pop\n        /* \"contracts/Pokemon.sol\":2586:2617  pokemons[msg.sender].length > 0 */\n      gt\n        /* \"contracts/Pokemon.sol\":2578:2660  require(pokemons[msg.sender].length > 0, \"There is no pokemon which can be moved\") */\n      tag_223\n      jumpi\n      mload(0x40)\n      0x08c379a000000000000000000000000000000000000000000000000000000000\n      dup2\n      mstore\n      0x04\n      add\n      tag_224\n      swap1\n      tag_225\n      jump\t// in\n    tag_224:\n      mload(0x40)\n      dup1\n      swap2\n      sub\n      swap1\n      revert\n    tag_223:\n        /* \"contracts/Pokemon.sol\":2761:2775  uint lastIndex */\n      0x00\n        /* \"contracts/Pokemon.sol\":2808:2809  1 */\n      0x01\n        /* \"contracts/Pokemon.sol\":2778:2786  pokemons */\n      0x0a\n        /* \"contracts/Pokemon.sol\":2778:2798  pokemons[msg.sender] */\n      0x00\n        /* \"contracts/Pokemon.sol\":2787:2797  msg.sender */\n      caller\n        /* \"contracts/Pokemon.sol\":2778:2798  pokemons[msg.sender] */\n      0xffffffffffffffffffffffffffffffffffffffff\n      and\n      0xffffffffffffffffffffffffffffffffffffffff\n      and\n      dup2\n      mstore\n      0x20\n      add\n      swap1\n      dup2\n      mstore\n      0x20\n      add\n      0x00\n      keccak256\n        /* \"contracts/Pokemon.sol\":2778:2805  pokemons[msg.sender].length */\n      dup1\n      sload\n      swap1\n      pop\n        /* \"contracts/Pokemon.sol\":2778:2809  pokemons[msg.sender].length - 1 */\n      tag_226\n      swap2\n      swap1\n      tag_29\n      jump\t// in\n    tag_226:\n        /* \"contracts/Pokemon.sol\":2761:2809  uint lastIndex = pokemons[msg.sender].length - 1 */\n      swap1\n      pop\n        /* \"contracts/Pokemon.sol\":2836:2845  lastIndex */\n      dup1\n        /* \"contracts/Pokemon.sol\":2827:2832  which */\n      dup3\n        /* \"contracts/Pokemon.sol\":2827:2845  which <= lastIndex */\n      gt\n      iszero\n        /* \"contracts/Pokemon.sol\":2819:2873  require(which <= lastIndex, \"Invalid index to remove\") */\n      tag_227\n      jumpi\n      mload(0x40)\n      0x08c379a000000000000000000000000000000000000000000000000000000000\n      dup2\n      mstore\n      0x04\n      add\n      tag_228\n      swap1\n      tag_229\n      jump\t// in\n    tag_228:\n      mload(0x40)\n      dup1\n      swap2\n      sub\n      swap1\n      revert\n    tag_227:\n        /* \"contracts/Pokemon.sol\":2913:2921  pokemons */\n      0x0a\n        /* \"contracts/Pokemon.sol\":2913:2933  pokemons[msg.sender] */\n      0x00\n        /* \"contracts/Pokemon.sol\":2922:2932  msg.sender */\n      caller\n        /* \"contracts/Pokemon.sol\":2913:2933  pokemons[msg.sender] */\n      0xffffffffffffffffffffffffffffffffffffffff\n      and\n      0xffffffffffffffffffffffffffffffffffffffff\n      and\n      dup2\n      mstore\n      0x20\n      add\n      swap1\n      dup2\n      mstore\n      0x20\n      add\n      0x00\n      keccak256\n        /* \"contracts/Pokemon.sol\":2934:2943  lastIndex */\n      dup2\n        /* \"contracts/Pokemon.sol\":2913:2944  pokemons[msg.sender][lastIndex] */\n      dup2\n      sload\n      dup2\n      lt\n      tag_230\n      jumpi\n      tag_231\n      tag_192\n      jump\t// in\n    tag_231:\n    tag_230:\n      swap1\n      0x00\n      mstore\n      keccak256(0x00, 0x20)\n      swap1\n      0x02\n      mul\n      add\n        /* \"contracts/Pokemon.sol\":2883:2891  pokemons */\n      0x0a\n        /* \"contracts/Pokemon.sol\":2883:2903  pokemons[msg.sender] */\n      0x00\n        /* \"contracts/Pokemon.sol\":2892:2902  msg.sender */\n      caller\n        /* \"contracts/Pokemon.sol\":2883:2903  pokemons[msg.sender] */\n      0xffffffffffffffffffffffffffffffffffffffff\n      and\n      0xffffffffffffffffffffffffffffffffffffffff\n      and\n      dup2\n      mstore\n      0x20\n      add\n      swap1\n      dup2\n      mstore\n      0x20\n      add\n      0x00\n      keccak256\n        /* \"contracts/Pokemon.sol\":2904:2909  which */\n      dup4\n        /* \"contracts/Pokemon.sol\":2883:2910  pokemons[msg.sender][which] */\n      dup2\n      sload\n      dup2\n      lt\n      tag_233\n      jumpi\n      tag_234\n      tag_192\n      jump\t// in\n    tag_234:\n    tag_233:\n      swap1\n      0x00\n      mstore\n      keccak256(0x00, 0x20)\n      swap1\n      0x02\n      mul\n      add\n        /* \"contracts/Pokemon.sol\":2883:2944  pokemons[msg.sender][which] = pokemons[msg.sender][lastIndex] */\n      0x00\n      dup3\n      add\n      dup2\n      0x00\n      add\n      swap1\n      dup2\n      tag_236\n      swap2\n      swap1\n      tag_237\n      jump\t// in\n    tag_236:\n      pop\n      0x01\n      dup3\n      add\n      dup2\n      0x01\n      add\n      swap1\n      dup2\n      tag_238\n      swap2\n      swap1\n      tag_237\n      jump\t// in\n    tag_238:\n      pop\n      swap1\n      pop\n      pop\n        /* \"contracts/Pokemon.sol\":2954:2962  pokemons */\n      0x0a\n        /* \"contracts/Pokemon.sol\":2954:2974  pokemons[msg.sender] */\n      0x00\n        /* \"contracts/Pokemon.sol\":2963:2973  msg.sender */\n      caller\n        /* \"contracts/Pokemon.sol\":2954:2974  pokemons[msg.sender] */\n      0xffffffffffffffffffffffffffffffffffffffff\n      and\n      0xffffffffffffffffffffffffffffffffffffffff\n      and\n      dup2\n      mstore\n      0x20\n      add\n      swap1\n      dup2\n      mstore\n      0x20\n      add\n      0x00\n      keccak256\n        /* \"contracts/Pokemon.sol\":2954:2980  pokemons[msg.sender].pop() */\n      dup1\n      sload\n      dup1\n      tag_239\n      jumpi\n      tag_240\n      tag_241\n      jump\t// in\n    tag_240:\n    tag_239:\n      0x01\n      swap1\n      sub\n      dup2\n      dup2\n      swap1\n      0x00\n      mstore\n      keccak256(0x00, 0x20)\n      swap1\n      0x02\n      mul\n      add\n      0x00\n      dup1\n      dup3\n      add\n      0x00\n      tag_243\n      swap2\n      swap1\n      tag_244\n      jump\t// in\n    tag_243:\n      0x01\n      dup3\n      add\n      0x00\n      tag_245\n      swap2\n      swap1\n      tag_244\n      jump\t// in\n    tag_245:\n      pop\n      pop\n      swap1\n      sstore\n        /* \"contracts/Pokemon.sol\":3054:3062  pokemons */\n      0x0a\n        /* \"contracts/Pokemon.sol\":3054:3067  pokemons[who] */\n      0x00\n        /* \"contracts/Pokemon.sol\":3063:3066  who */\n      dup5\n        /* \"contracts/Pokemon.sol\":3054:3067  pokemons[who] */\n      0xffffffffffffffffffffffffffffffffffffffff\n      and\n      0xffffffffffffffffffffffffffffffffffffffff\n      and\n      dup2\n      mstore\n      0x20\n      add\n      swap1\n      dup2\n      mstore\n      0x20\n      add\n      0x00\n      keccak256\n        /* \"contracts/Pokemon.sol\":3073:3150  Poke(... */\n      mload(0x40)\n      dup1\n      0x40\n      add\n      0x40\n      mstore\n      dup1\n        /* \"contracts/Pokemon.sol\":3091:3101  pokemonUrl */\n      0x09\n        /* \"contracts/Pokemon.sol\":3102:3107  which */\n      dup6\n        /* \"contracts/Pokemon.sol\":3091:3108  pokemonUrl[which] */\n      dup2\n      sload\n      dup2\n      lt\n      tag_246\n      jumpi\n      tag_247\n      tag_192\n      jump\t// in\n    tag_247:\n    tag_246:\n      swap1\n      0x00\n      mstore\n      keccak256(0x00, 0x20)\n      add\n        /* \"contracts/Pokemon.sol\":3073:3150  Poke(... */\n      dup1\n      sload\n      tag_249\n      swap1\n      tag_127\n      jump\t// in\n    tag_249:\n      dup1\n      0x1f\n      add\n      0x20\n      dup1\n      swap2\n      div\n      mul\n      0x20\n      add\n      mload(0x40)\n      swap1\n      dup2\n      add\n      0x40\n      mstore\n      dup1\n      swap3\n      swap2\n      swap1\n      dup2\n      dup2\n      mstore\n      0x20\n      add\n      dup3\n      dup1\n      sload\n      tag_250\n      swap1\n      tag_127\n      jump\t// in\n    tag_250:\n      dup1\n      iszero\n      tag_251\n      jumpi\n      dup1\n      0x1f\n      lt\n      tag_252\n      jumpi\n      0x0100\n      dup1\n      dup4\n      sload\n      div\n      mul\n      dup4\n      mstore\n      swap2\n      0x20\n      add\n      swap2\n      jump(tag_251)\n    tag_252:\n      dup3\n      add\n      swap2\n      swap1\n      0x00\n      mstore\n      keccak256(0x00, 0x20)\n      swap1\n    tag_253:\n      dup2\n      sload\n      dup2\n      mstore\n      swap1\n      0x01\n      add\n      swap1\n      0x20\n      add\n      dup1\n      dup4\n      gt\n      tag_253\n      jumpi\n      dup3\n      swap1\n      sub\n      0x1f\n      and\n      dup3\n      add\n      swap2\n    tag_251:\n      pop\n      pop\n      pop\n      pop\n      pop\n      dup2\n      mstore\n      0x20\n      add\n        /* \"contracts/Pokemon.sol\":3122:3133  pokemonName */\n      0x08\n        /* \"contracts/Pokemon.sol\":3134:3139  which */\n      dup6\n        /* \"contracts/Pokemon.sol\":3122:3140  pokemonName[which] */\n      dup2\n      sload\n      dup2\n      lt\n      tag_254\n      jumpi\n      tag_255\n      tag_192\n      jump\t// in\n    tag_255:\n    tag_254:\n      swap1\n      0x00\n      mstore\n      keccak256(0x00, 0x20)\n      add\n        /* \"contracts/Pokemon.sol\":3073:3150  Poke(... */\n      dup1\n      sload\n      tag_257\n      swap1\n      tag_127\n      jump\t// in\n    tag_257:\n      dup1\n      0x1f\n      add\n      0x20\n      dup1\n      swap2\n      div\n      mul\n      0x20\n      add\n      mload(0x40)\n      swap1\n      dup2\n      add\n      0x40\n      mstore\n      dup1\n      swap3\n      swap2\n      swap1\n      dup2\n      dup2\n      mstore\n      0x20\n      add\n      dup3\n      dup1\n      sload\n      tag_258\n      swap1\n      tag_127\n      jump\t// in\n    tag_258:\n      dup1\n      iszero\n      tag_259\n      jumpi\n      dup1\n      0x1f\n      lt\n      tag_260\n      jumpi\n      0x0100\n      dup1\n      dup4\n      sload\n      div\n      mul\n      dup4\n      mstore\n      swap2\n      0x20\n      add\n      swap2\n      jump(tag_259)\n    tag_260:\n      dup3\n      add\n      swap2\n      swap1\n      0x00\n      mstore\n      keccak256(0x00, 0x20)\n      swap1\n    tag_261:\n      dup2\n      sload\n      dup2\n      mstore\n      swap1\n      0x01\n      add\n      swap1\n      0x20\n      add\n      dup1\n      dup4\n      gt\n      tag_261\n      jumpi\n      dup3\n      swap1\n      sub\n      0x1f\n      and\n      dup3\n      add\n      swap2\n    tag_259:\n      pop\n      pop\n      pop\n      pop\n      pop\n      dup2\n      mstore\n      pop\n        /* \"contracts/Pokemon.sol\":3054:3151  pokemons[who].push(Poke(... */\n      swap1\n      dup1\n      0x01\n      dup2\n      sload\n      add\n      dup1\n      dup3\n      sstore\n      dup1\n      swap2\n      pop\n      pop\n      0x01\n      swap1\n      sub\n      swap1\n      0x00\n      mstore\n      keccak256(0x00, 0x20)\n      swap1\n      0x02\n      mul\n      add\n      0x00\n      swap1\n      swap2\n      swap1\n      swap2\n      swap1\n      swap2\n      pop\n      0x00\n      dup3\n      add\n      mload\n      dup2\n      0x00\n      add\n      swap1\n      dup2\n      tag_263\n      swap2\n      swap1\n      tag_209\n      jump\t// in\n    tag_263:\n      pop\n      0x20\n      dup3\n      add\n      mload\n      dup2\n      0x01\n      add\n      swap1\n      dup2\n      tag_264\n      swap2\n      swap1\n      tag_209\n      jump\t// in\n    tag_264:\n      pop\n      pop\n      pop\n        /* \"contracts/Pokemon.sol\":3162:3173  bool isUser */\n      0x00\n        /* \"contracts/Pokemon.sol\":3195:3204  uint256 i */\n      dup1\n        /* \"contracts/Pokemon.sol\":3191:3354  for(uint256 i = 0; i < users.length; i++) {... */\n    tag_265:\n        /* \"contracts/Pokemon.sol\":3214:3219  users */\n      0x0b\n        /* \"contracts/Pokemon.sol\":3214:3226  users.length */\n      dup1\n      sload\n      swap1\n      pop\n        /* \"contracts/Pokemon.sol\":3210:3211  i */\n      dup2\n        /* \"contracts/Pokemon.sol\":3210:3226  i < users.length */\n      lt\n        /* \"contracts/Pokemon.sol\":3191:3354  for(uint256 i = 0; i < users.length; i++) {... */\n      iszero\n      tag_266\n      jumpi\n        /* \"contracts/Pokemon.sol\":3270:3273  who */\n      dup5\n        /* \"contracts/Pokemon.sol\":3250:3273  users[i].account == who */\n      0xffffffffffffffffffffffffffffffffffffffff\n      and\n        /* \"contracts/Pokemon.sol\":3250:3255  users */\n      0x0b\n        /* \"contracts/Pokemon.sol\":3256:3257  i */\n      dup3\n        /* \"contracts/Pokemon.sol\":3250:3258  users[i] */\n      dup2\n      sload\n      dup2\n      lt\n      tag_268\n      jumpi\n      tag_269\n      tag_192\n      jump\t// in\n    tag_269:\n    tag_268:\n      swap1\n      0x00\n      mstore\n      keccak256(0x00, 0x20)\n      add\n        /* \"contracts/Pokemon.sol\":3250:3266  users[i].account */\n      0x00\n      add\n      0x00\n      swap1\n      sload\n      swap1\n      0x0100\n      exp\n      swap1\n      div\n      0xffffffffffffffffffffffffffffffffffffffff\n      and\n        /* \"contracts/Pokemon.sol\":3250:3273  users[i].account == who */\n      0xffffffffffffffffffffffffffffffffffffffff\n      and\n      sub\n        /* \"contracts/Pokemon.sol\":3247:3344  if(users[i].account == who) {... */\n      tag_271\n      jumpi\n        /* \"contracts/Pokemon.sol\":3302:3306  true */\n      0x01\n        /* \"contracts/Pokemon.sol\":3293:3306  isUser = true */\n      swap2\n      pop\n        /* \"contracts/Pokemon.sol\":3324:3329  break */\n      jump(tag_266)\n        /* \"contracts/Pokemon.sol\":3247:3344  if(users[i].account == who) {... */\n    tag_271:\n        /* \"contracts/Pokemon.sol\":3228:3231  i++ */\n      dup1\n      dup1\n      tag_272\n      swap1\n      tag_219\n      jump\t// in\n    tag_272:\n      swap2\n      pop\n      pop\n        /* \"contracts/Pokemon.sol\":3191:3354  for(uint256 i = 0; i < users.length; i++) {... */\n      jump(tag_265)\n    tag_266:\n      pop\n        /* \"contracts/Pokemon.sol\":3367:3373  isUser */\n      dup1\n        /* \"contracts/Pokemon.sol\":3363:3396  if(!isUser) users.push(User(who)) */\n      tag_273\n      jumpi\n        /* \"contracts/Pokemon.sol\":3375:3380  users */\n      0x0b\n        /* \"contracts/Pokemon.sol\":3386:3395  User(who) */\n      mload(0x40)\n      dup1\n      0x20\n      add\n      0x40\n      mstore\n      dup1\n        /* \"contracts/Pokemon.sol\":3391:3394  who */\n      dup7\n        /* \"contracts/Pokemon.sol\":3386:3395  User(who) */\n      0xffffffffffffffffffffffffffffffffffffffff\n      and\n      dup2\n      mstore\n      pop\n        /* \"contracts/Pokemon.sol\":3375:3396  users.push(User(who)) */\n      swap1\n      dup1\n      0x01\n      dup2\n      sload\n      add\n      dup1\n      dup3\n      sstore\n      dup1\n      swap2\n      pop\n      pop\n      0x01\n      swap1\n      sub\n      swap1\n      0x00\n      mstore\n      keccak256(0x00, 0x20)\n      add\n      0x00\n      swap1\n      swap2\n      swap1\n      swap2\n      swap1\n      swap2\n      pop\n      0x00\n      dup3\n      add\n      mload\n      dup2\n      0x00\n      add\n      exp(0x0100, 0x00)\n      dup2\n      sload\n      dup2\n      0xffffffffffffffffffffffffffffffffffffffff\n      mul\n      not\n      and\n      swap1\n      dup4\n      0xffffffffffffffffffffffffffffffffffffffff\n      and\n      mul\n      or\n      swap1\n      sstore\n      pop\n      pop\n      pop\n        /* \"contracts/Pokemon.sol\":3363:3396  if(!isUser) users.push(User(who)) */\n    tag_273:\n        /* \"contracts/Pokemon.sol\":2568:3403  {... */\n      pop\n      pop\n        /* \"contracts/Pokemon.sol\":2515:3403  function movePokemon(address who, uint which) public {... */\n      pop\n      pop\n      jump\t// out\n        /* \"contracts/ERC20.sol\":473:543  mapping(address => mapping(address => uint)) public override allowance */\n    tag_121:\n      mstore(0x20, 0x06)\n      dup2\n      0x00\n      mstore\n      mstore(0x20, keccak256(0x00, 0x40))\n      dup1\n      0x00\n      mstore\n      keccak256(0x00, 0x40)\n      0x00\n      swap2\n      pop\n      swap2\n      pop\n      pop\n      sload\n      dup2\n      jump\t// out\n    tag_244:\n      pop\n      dup1\n      sload\n      tag_275\n      swap1\n      tag_127\n      jump\t// in\n    tag_275:\n      0x00\n      dup3\n      sstore\n      dup1\n      0x1f\n      lt\n      tag_277\n      jumpi\n      pop\n      jump(tag_276)\n    tag_277:\n      0x1f\n      add\n      0x20\n      swap1\n      div\n      swap1\n      0x00\n      mstore\n      keccak256(0x00, 0x20)\n      swap1\n      dup2\n      add\n      swap1\n      tag_278\n      swap2\n      swap1\n      tag_279\n      jump\t// in\n    tag_278:\n    tag_276:\n      pop\n      jump\t// out\n    tag_279:\n    tag_280:\n      dup1\n      dup3\n      gt\n      iszero\n      tag_281\n      jumpi\n      0x00\n      dup2\n      0x00\n      swap1\n      sstore\n      pop\n      0x01\n      add\n      jump(tag_280)\n    tag_281:\n      pop\n      swap1\n      jump\t// out\n        /* \"#utility.yul\":7:84   */\n    tag_282:\n        /* \"#utility.yul\":44:51   */\n      0x00\n        /* \"#utility.yul\":73:78   */\n      dup2\n        /* \"#utility.yul\":62:78   */\n      swap1\n      pop\n        /* \"#utility.yul\":7:84   */\n      swap2\n      swap1\n      pop\n      jump\t// out\n        /* \"#utility.yul\":90:270   */\n    tag_283:\n        /* \"#utility.yul\":138:215   */\n      0x4e487b7100000000000000000000000000000000000000000000000000000000\n        /* \"#utility.yul\":135:136   */\n      0x00\n        /* \"#utility.yul\":128:216   */\n      mstore\n        /* \"#utility.yul\":235:239   */\n      0x11\n        /* \"#utility.yul\":232:233   */\n      0x04\n        /* \"#utility.yul\":225:240   */\n      mstore\n        /* \"#utility.yul\":259:263   */\n      0x24\n        /* \"#utility.yul\":256:257   */\n      0x00\n        /* \"#utility.yul\":249:264   */\n      revert\n        /* \"#utility.yul\":276:686   */\n    tag_26:\n        /* \"#utility.yul\":316:323   */\n      0x00\n        /* \"#utility.yul\":339:359   */\n      tag_355\n        /* \"#utility.yul\":357:358   */\n      dup3\n        /* \"#utility.yul\":339:359   */\n      tag_282\n      jump\t// in\n    tag_355:\n        /* \"#utility.yul\":334:359   */\n      swap2\n      pop\n        /* \"#utility.yul\":373:393   */\n      tag_356\n        /* \"#utility.yul\":391:392   */\n      dup4\n        /* \"#utility.yul\":373:393   */\n      tag_282\n      jump\t// in\n    tag_356:\n        /* \"#utility.yul\":368:393   */\n      swap3\n      pop\n        /* \"#utility.yul\":428:429   */\n      dup3\n        /* \"#utility.yul\":425:426   */\n      dup3\n        /* \"#utility.yul\":421:430   */\n      mul\n        /* \"#utility.yul\":450:480   */\n      tag_357\n        /* \"#utility.yul\":468:479   */\n      dup2\n        /* \"#utility.yul\":450:480   */\n      tag_282\n      jump\t// in\n    tag_357:\n        /* \"#utility.yul\":439:480   */\n      swap2\n      pop\n        /* \"#utility.yul\":629:630   */\n      dup3\n        /* \"#utility.yul\":620:627   */\n      dup3\n        /* \"#utility.yul\":616:631   */\n      div\n        /* \"#utility.yul\":613:614   */\n      dup5\n        /* \"#utility.yul\":610:632   */\n      eq\n        /* \"#utility.yul\":590:591   */\n      dup4\n        /* \"#utility.yul\":583:592   */\n      iszero\n        /* \"#utility.yul\":563:646   */\n      or\n        /* \"#utility.yul\":540:679   */\n      tag_358\n      jumpi\n        /* \"#utility.yul\":659:677   */\n      tag_359\n      tag_283\n      jump\t// in\n    tag_359:\n        /* \"#utility.yul\":540:679   */\n    tag_358:\n        /* \"#utility.yul\":324:686   */\n      pop\n        /* \"#utility.yul\":276:686   */\n      swap3\n      swap2\n      pop\n      pop\n      jump\t// out\n        /* \"#utility.yul\":692:886   */\n    tag_29:\n        /* \"#utility.yul\":732:736   */\n      0x00\n        /* \"#utility.yul\":752:772   */\n      tag_361\n        /* \"#utility.yul\":770:771   */\n      dup3\n        /* \"#utility.yul\":752:772   */\n      tag_282\n      jump\t// in\n    tag_361:\n        /* \"#utility.yul\":747:772   */\n      swap2\n      pop\n        /* \"#utility.yul\":786:806   */\n      tag_362\n        /* \"#utility.yul\":804:805   */\n      dup4\n        /* \"#utility.yul\":786:806   */\n      tag_282\n      jump\t// in\n    tag_362:\n        /* \"#utility.yul\":781:806   */\n      swap3\n      pop\n        /* \"#utility.yul\":830:831   */\n      dup3\n        /* \"#utility.yul\":827:828   */\n      dup3\n        /* \"#utility.yul\":823:832   */\n      sub\n        /* \"#utility.yul\":815:832   */\n      swap1\n      pop\n        /* \"#utility.yul\":854:855   */\n      dup2\n        /* \"#utility.yul\":848:852   */\n      dup2\n        /* \"#utility.yul\":845:856   */\n      gt\n        /* \"#utility.yul\":842:879   */\n      iszero\n      tag_363\n      jumpi\n        /* \"#utility.yul\":859:877   */\n      tag_364\n      tag_283\n      jump\t// in\n    tag_364:\n        /* \"#utility.yul\":842:879   */\n    tag_363:\n        /* \"#utility.yul\":692:886   */\n      swap3\n      swap2\n      pop\n      pop\n      jump\t// out\n        /* \"#utility.yul\":892:1083   */\n    tag_31:\n        /* \"#utility.yul\":932:935   */\n      0x00\n        /* \"#utility.yul\":951:971   */\n      tag_366\n        /* \"#utility.yul\":969:970   */\n      dup3\n        /* \"#utility.yul\":951:971   */\n      tag_282\n      jump\t// in\n    tag_366:\n        /* \"#utility.yul\":946:971   */\n      swap2\n      pop\n        /* \"#utility.yul\":985:1005   */\n      tag_367\n        /* \"#utility.yul\":1003:1004   */\n      dup4\n        /* \"#utility.yul\":985:1005   */\n      tag_282\n      jump\t// in\n    tag_367:\n        /* \"#utility.yul\":980:1005   */\n      swap3\n      pop\n        /* \"#utility.yul\":1028:1029   */\n      dup3\n        /* \"#utility.yul\":1025:1026   */\n      dup3\n        /* \"#utility.yul\":1021:1030   */\n      add\n        /* \"#utility.yul\":1014:1030   */\n      swap1\n      pop\n        /* \"#utility.yul\":1049:1052   */\n      dup1\n        /* \"#utility.yul\":1046:1047   */\n      dup3\n        /* \"#utility.yul\":1043:1053   */\n      gt\n        /* \"#utility.yul\":1040:1076   */\n      iszero\n      tag_368\n      jumpi\n        /* \"#utility.yul\":1056:1074   */\n      tag_369\n      tag_283\n      jump\t// in\n    tag_369:\n        /* \"#utility.yul\":1040:1076   */\n    tag_368:\n        /* \"#utility.yul\":892:1083   */\n      swap3\n      swap2\n      pop\n      pop\n      jump\t// out\n        /* \"#utility.yul\":1089:1188   */\n    tag_284:\n        /* \"#utility.yul\":1141:1147   */\n      0x00\n        /* \"#utility.yul\":1175:1180   */\n      dup2\n        /* \"#utility.yul\":1169:1181   */\n      mload\n        /* \"#utility.yul\":1159:1181   */\n      swap1\n      pop\n        /* \"#utility.yul\":1089:1188   */\n      swap2\n      swap1\n      pop\n      jump\t// out\n        /* \"#utility.yul\":1194:1363   */\n    tag_285:\n        /* \"#utility.yul\":1278:1289   */\n      0x00\n        /* \"#utility.yul\":1312:1318   */\n      dup3\n        /* \"#utility.yul\":1307:1310   */\n      dup3\n        /* \"#utility.yul\":1300:1319   */\n      mstore\n        /* \"#utility.yul\":1352:1356   */\n      0x20\n        /* \"#utility.yul\":1347:1350   */\n      dup3\n        /* \"#utility.yul\":1343:1357   */\n      add\n        /* \"#utility.yul\":1328:1357   */\n      swap1\n      pop\n        /* \"#utility.yul\":1194:1363   */\n      swap3\n      swap2\n      pop\n      pop\n      jump\t// out\n        /* \"#utility.yul\":1369:1615   */\n    tag_286:\n        /* \"#utility.yul\":1450:1451   */\n      0x00\n        /* \"#utility.yul\":1460:1573   */\n    tag_373:\n        /* \"#utility.yul\":1474:1480   */\n      dup4\n        /* \"#utility.yul\":1471:1472   */\n      dup2\n        /* \"#utility.yul\":1468:1481   */\n      lt\n        /* \"#utility.yul\":1460:1573   */\n      iszero\n      tag_375\n      jumpi\n        /* \"#utility.yul\":1559:1560   */\n      dup1\n        /* \"#utility.yul\":1554:1557   */\n      dup3\n        /* \"#utility.yul\":1550:1561   */\n      add\n        /* \"#utility.yul\":1544:1562   */\n      mload\n        /* \"#utility.yul\":1540:1541   */\n      dup2\n        /* \"#utility.yul\":1535:1538   */\n      dup5\n        /* \"#utility.yul\":1531:1542   */\n      add\n        /* \"#utility.yul\":1524:1563   */\n      mstore\n        /* \"#utility.yul\":1496:1498   */\n      0x20\n        /* \"#utility.yul\":1493:1494   */\n      dup2\n        /* \"#utility.yul\":1489:1499   */\n      add\n        /* \"#utility.yul\":1484:1499   */\n      swap1\n      pop\n        /* \"#utility.yul\":1460:1573   */\n      jump(tag_373)\n    tag_375:\n        /* \"#utility.yul\":1607:1608   */\n      0x00\n        /* \"#utility.yul\":1598:1604   */\n      dup5\n        /* \"#utility.yul\":1593:1596   */\n      dup5\n        /* \"#utility.yul\":1589:1605   */\n      add\n        /* \"#utility.yul\":1582:1609   */\n      mstore\n        /* \"#utility.yul\":1431:1615   */\n      pop\n        /* \"#utility.yul\":1369:1615   */\n      pop\n      pop\n      pop\n      jump\t// out\n        /* \"#utility.yul\":1621:1723   */\n    tag_287:\n        /* \"#utility.yul\":1662:1668   */\n      0x00\n        /* \"#utility.yul\":1713:1715   */\n      0x1f\n        /* \"#utility.yul\":1709:1716   */\n      not\n        /* \"#utility.yul\":1704:1706   */\n      0x1f\n        /* \"#utility.yul\":1697:1702   */\n      dup4\n        /* \"#utility.yul\":1693:1707   */\n      add\n        /* \"#utility.yul\":1689:1717   */\n      and\n        /* \"#utility.yul\":1679:1717   */\n      swap1\n      pop\n        /* \"#utility.yul\":1621:1723   */\n      swap2\n      swap1\n      pop\n      jump\t// out\n        /* \"#utility.yul\":1729:2106   */\n    tag_288:\n        /* \"#utility.yul\":1817:1820   */\n      0x00\n        /* \"#utility.yul\":1845:1884   */\n      tag_378\n        /* \"#utility.yul\":1878:1883   */\n      dup3\n        /* \"#utility.yul\":1845:1884   */\n      tag_284\n      jump\t// in\n    tag_378:\n        /* \"#utility.yul\":1900:1971   */\n      tag_379\n        /* \"#utility.yul\":1964:1970   */\n      dup2\n        /* \"#utility.yul\":1959:1962   */\n      dup6\n        /* \"#utility.yul\":1900:1971   */\n      tag_285\n      jump\t// in\n    tag_379:\n        /* \"#utility.yul\":1893:1971   */\n      swap4\n      pop\n        /* \"#utility.yul\":1980:2045   */\n      tag_380\n        /* \"#utility.yul\":2038:2044   */\n      dup2\n        /* \"#utility.yul\":2033:2036   */\n      dup6\n        /* \"#utility.yul\":2026:2030   */\n      0x20\n        /* \"#utility.yul\":2019:2024   */\n      dup7\n        /* \"#utility.yul\":2015:2031   */\n      add\n        /* \"#utility.yul\":1980:2045   */\n      tag_286\n      jump\t// in\n    tag_380:\n        /* \"#utility.yul\":2070:2099   */\n      tag_381\n        /* \"#utility.yul\":2092:2098   */\n      dup2\n        /* \"#utility.yul\":2070:2099   */\n      tag_287\n      jump\t// in\n    tag_381:\n        /* \"#utility.yul\":2065:2068   */\n      dup5\n        /* \"#utility.yul\":2061:2100   */\n      add\n        /* \"#utility.yul\":2054:2100   */\n      swap2\n      pop\n        /* \"#utility.yul\":1821:2106   */\n      pop\n        /* \"#utility.yul\":1729:2106   */\n      swap3\n      swap2\n      pop\n      pop\n      jump\t// out\n        /* \"#utility.yul\":2112:2425   */\n    tag_39:\n        /* \"#utility.yul\":2225:2229   */\n      0x00\n        /* \"#utility.yul\":2263:2265   */\n      0x20\n        /* \"#utility.yul\":2252:2261   */\n      dup3\n        /* \"#utility.yul\":2248:2266   */\n      add\n        /* \"#utility.yul\":2240:2266   */\n      swap1\n      pop\n        /* \"#utility.yul\":2312:2321   */\n      dup2\n        /* \"#utility.yul\":2306:2310   */\n      dup2\n        /* \"#utility.yul\":2302:2322   */\n      sub\n        /* \"#utility.yul\":2298:2299   */\n      0x00\n        /* \"#utility.yul\":2287:2296   */\n      dup4\n        /* \"#utility.yul\":2283:2300   */\n      add\n        /* \"#utility.yul\":2276:2323   */\n      mstore\n        /* \"#utility.yul\":2340:2418   */\n      tag_383\n        /* \"#utility.yul\":2413:2417   */\n      dup2\n        /* \"#utility.yul\":2404:2410   */\n      dup5\n        /* \"#utility.yul\":2340:2418   */\n      tag_288\n      jump\t// in\n    tag_383:\n        /* \"#utility.yul\":2332:2418   */\n      swap1\n      pop\n        /* \"#utility.yul\":2112:2425   */\n      swap3\n      swap2\n      pop\n      pop\n      jump\t// out\n        /* \"#utility.yul\":2512:2629   */\n    tag_290:\n        /* \"#utility.yul\":2621:2622   */\n      0x00\n        /* \"#utility.yul\":2618:2619   */\n      dup1\n        /* \"#utility.yul\":2611:2623   */\n      revert\n        /* \"#utility.yul\":2758:2884   */\n    tag_292:\n        /* \"#utility.yul\":2795:2802   */\n      0x00\n        /* \"#utility.yul\":2835:2877   */\n      0xffffffffffffffffffffffffffffffffffffffff\n        /* \"#utility.yul\":2828:2833   */\n      dup3\n        /* \"#utility.yul\":2824:2878   */\n      and\n        /* \"#utility.yul\":2813:2878   */\n      swap1\n      pop\n        /* \"#utility.yul\":2758:2884   */\n      swap2\n      swap1\n      pop\n      jump\t// out\n        /* \"#utility.yul\":2890:2986   */\n    tag_293:\n        /* \"#utility.yul\":2927:2934   */\n      0x00\n        /* \"#utility.yul\":2956:2980   */\n      tag_389\n        /* \"#utility.yul\":2974:2979   */\n      dup3\n        /* \"#utility.yul\":2956:2980   */\n      tag_292\n      jump\t// in\n    tag_389:\n        /* \"#utility.yul\":2945:2980   */\n      swap1\n      pop\n        /* \"#utility.yul\":2890:2986   */\n      swap2\n      swap1\n      pop\n      jump\t// out\n        /* \"#utility.yul\":2992:3114   */\n    tag_294:\n        /* \"#utility.yul\":3065:3089   */\n      tag_391\n        /* \"#utility.yul\":3083:3088   */\n      dup2\n        /* \"#utility.yul\":3065:3089   */\n      tag_293\n      jump\t// in\n    tag_391:\n        /* \"#utility.yul\":3058:3063   */\n      dup2\n        /* \"#utility.yul\":3055:3090   */\n      eq\n        /* \"#utility.yul\":3045:3108   */\n      tag_392\n      jumpi\n        /* \"#utility.yul\":3104:3105   */\n      0x00\n        /* \"#utility.yul\":3101:3102   */\n      dup1\n        /* \"#utility.yul\":3094:3106   */\n      revert\n        /* \"#utility.yul\":3045:3108   */\n    tag_392:\n        /* \"#utility.yul\":2992:3114   */\n      pop\n      jump\t// out\n        /* \"#utility.yul\":3120:3259   */\n    tag_295:\n        /* \"#utility.yul\":3166:3171   */\n      0x00\n        /* \"#utility.yul\":3204:3210   */\n      dup2\n        /* \"#utility.yul\":3191:3211   */\n      calldataload\n        /* \"#utility.yul\":3182:3211   */\n      swap1\n      pop\n        /* \"#utility.yul\":3220:3253   */\n      tag_394\n        /* \"#utility.yul\":3247:3252   */\n      dup2\n        /* \"#utility.yul\":3220:3253   */\n      tag_294\n      jump\t// in\n    tag_394:\n        /* \"#utility.yul\":3120:3259   */\n      swap3\n      swap2\n      pop\n      pop\n      jump\t// out\n        /* \"#utility.yul\":3265:3387   */\n    tag_296:\n        /* \"#utility.yul\":3338:3362   */\n      tag_396\n        /* \"#utility.yul\":3356:3361   */\n      dup2\n        /* \"#utility.yul\":3338:3362   */\n      tag_282\n      jump\t// in\n    tag_396:\n        /* \"#utility.yul\":3331:3336   */\n      dup2\n        /* \"#utility.yul\":3328:3363   */\n      eq\n        /* \"#utility.yul\":3318:3381   */\n      tag_397\n      jumpi\n        /* \"#utility.yul\":3377:3378   */\n      0x00\n        /* \"#utility.yul\":3374:3375   */\n      dup1\n        /* \"#utility.yul\":3367:3379   */\n      revert\n        /* \"#utility.yul\":3318:3381   */\n    tag_397:\n        /* \"#utility.yul\":3265:3387   */\n      pop\n      jump\t// out\n        /* \"#utility.yul\":3393:3532   */\n    tag_297:\n        /* \"#utility.yul\":3439:3444   */\n      0x00\n        /* \"#utility.yul\":3477:3483   */\n      dup2\n        /* \"#utility.yul\":3464:3484   */\n      calldataload\n        /* \"#utility.yul\":3455:3484   */\n      swap1\n      pop\n        /* \"#utility.yul\":3493:3526   */\n      tag_399\n        /* \"#utility.yul\":3520:3525   */\n      dup2\n        /* \"#utility.yul\":3493:3526   */\n      tag_296\n      jump\t// in\n    tag_399:\n        /* \"#utility.yul\":3393:3532   */\n      swap3\n      swap2\n      pop\n      pop\n      jump\t// out\n        /* \"#utility.yul\":3538:4012   */\n    tag_43:\n        /* \"#utility.yul\":3606:3612   */\n      0x00\n        /* \"#utility.yul\":3614:3620   */\n      dup1\n        /* \"#utility.yul\":3663:3665   */\n      0x40\n        /* \"#utility.yul\":3651:3660   */\n      dup4\n        /* \"#utility.yul\":3642:3649   */\n      dup6\n        /* \"#utility.yul\":3638:3661   */\n      sub\n        /* \"#utility.yul\":3634:3666   */\n      slt\n        /* \"#utility.yul\":3631:3750   */\n      iszero\n      tag_401\n      jumpi\n        /* \"#utility.yul\":3669:3748   */\n      tag_402\n      tag_290\n      jump\t// in\n    tag_402:\n        /* \"#utility.yul\":3631:3750   */\n    tag_401:\n        /* \"#utility.yul\":3789:3790   */\n      0x00\n        /* \"#utility.yul\":3814:3867   */\n      tag_403\n        /* \"#utility.yul\":3859:3866   */\n      dup6\n        /* \"#utility.yul\":3850:3856   */\n      dup3\n        /* \"#utility.yul\":3839:3848   */\n      dup7\n        /* \"#utility.yul\":3835:3857   */\n      add\n        /* \"#utility.yul\":3814:3867   */\n      tag_295\n      jump\t// in\n    tag_403:\n        /* \"#utility.yul\":3804:3867   */\n      swap3\n      pop\n        /* \"#utility.yul\":3760:3877   */\n      pop\n        /* \"#utility.yul\":3916:3918   */\n      0x20\n        /* \"#utility.yul\":3942:3995   */\n      tag_404\n        /* \"#utility.yul\":3987:3994   */\n      dup6\n        /* \"#utility.yul\":3978:3984   */\n      dup3\n        /* \"#utility.yul\":3967:3976   */\n      dup7\n        /* \"#utility.yul\":3963:3985   */\n      add\n        /* \"#utility.yul\":3942:3995   */\n      tag_297\n      jump\t// in\n    tag_404:\n        /* \"#utility.yul\":3932:3995   */\n      swap2\n      pop\n        /* \"#utility.yul\":3887:4005   */\n      pop\n        /* \"#utility.yul\":3538:4012   */\n      swap3\n      pop\n      swap3\n      swap1\n      pop\n      jump\t// out\n        /* \"#utility.yul\":4018:4108   */\n    tag_298:\n        /* \"#utility.yul\":4052:4059   */\n      0x00\n        /* \"#utility.yul\":4095:4100   */\n      dup2\n        /* \"#utility.yul\":4088:4101   */\n      iszero\n        /* \"#utility.yul\":4081:4102   */\n      iszero\n        /* \"#utility.yul\":4070:4102   */\n      swap1\n      pop\n        /* \"#utility.yul\":4018:4108   */\n      swap2\n      swap1\n      pop\n      jump\t// out\n        /* \"#utility.yul\":4114:4223   */\n    tag_299:\n        /* \"#utility.yul\":4195:4216   */\n      tag_407\n        /* \"#utility.yul\":4210:4215   */\n      dup2\n        /* \"#utility.yul\":4195:4216   */\n      tag_298\n      jump\t// in\n    tag_407:\n        /* \"#utility.yul\":4190:4193   */\n      dup3\n        /* \"#utility.yul\":4183:4217   */\n      mstore\n        /* \"#utility.yul\":4114:4223   */\n      pop\n      pop\n      jump\t// out\n        /* \"#utility.yul\":4229:4439   */\n    tag_46:\n        /* \"#utility.yul\":4316:4320   */\n      0x00\n        /* \"#utility.yul\":4354:4356   */\n      0x20\n        /* \"#utility.yul\":4343:4352   */\n      dup3\n        /* \"#utility.yul\":4339:4357   */\n      add\n        /* \"#utility.yul\":4331:4357   */\n      swap1\n      pop\n        /* \"#utility.yul\":4367:4432   */\n      tag_409\n        /* \"#utility.yul\":4429:4430   */\n      0x00\n        /* \"#utility.yul\":4418:4427   */\n      dup4\n        /* \"#utility.yul\":4414:4431   */\n      add\n        /* \"#utility.yul\":4405:4411   */\n      dup5\n        /* \"#utility.yul\":4367:4432   */\n      tag_299\n      jump\t// in\n    tag_409:\n        /* \"#utility.yul\":4229:4439   */\n      swap3\n      swap2\n      pop\n      pop\n      jump\t// out\n        /* \"#utility.yul\":4445:4563   */\n    tag_300:\n        /* \"#utility.yul\":4532:4556   */\n      tag_411\n        /* \"#utility.yul\":4550:4555   */\n      dup2\n        /* \"#utility.yul\":4532:4556   */\n      tag_282\n      jump\t// in\n    tag_411:\n        /* \"#utility.yul\":4527:4530   */\n      dup3\n        /* \"#utility.yul\":4520:4557   */\n      mstore\n        /* \"#utility.yul\":4445:4563   */\n      pop\n      pop\n      jump\t// out\n        /* \"#utility.yul\":4569:4791   */\n    tag_51:\n        /* \"#utility.yul\":4662:4666   */\n      0x00\n        /* \"#utility.yul\":4700:4702   */\n      0x20\n        /* \"#utility.yul\":4689:4698   */\n      dup3\n        /* \"#utility.yul\":4685:4703   */\n      add\n        /* \"#utility.yul\":4677:4703   */\n      swap1\n      pop\n        /* \"#utility.yul\":4713:4784   */\n      tag_413\n        /* \"#utility.yul\":4781:4782   */\n      0x00\n        /* \"#utility.yul\":4770:4779   */\n      dup4\n        /* \"#utility.yul\":4766:4783   */\n      add\n        /* \"#utility.yul\":4757:4763   */\n      dup5\n        /* \"#utility.yul\":4713:4784   */\n      tag_300\n      jump\t// in\n    tag_413:\n        /* \"#utility.yul\":4569:4791   */\n      swap3\n      swap2\n      pop\n      pop\n      jump\t// out\n        /* \"#utility.yul\":4797:5416   */\n    tag_55:\n        /* \"#utility.yul\":4874:4880   */\n      0x00\n        /* \"#utility.yul\":4882:4888   */\n      dup1\n        /* \"#utility.yul\":4890:4896   */\n      0x00\n        /* \"#utility.yul\":4939:4941   */\n      0x60\n        /* \"#utility.yul\":4927:4936   */\n      dup5\n        /* \"#utility.yul\":4918:4925   */\n      dup7\n        /* \"#utility.yul\":4914:4937   */\n      sub\n        /* \"#utility.yul\":4910:4942   */\n      slt\n        /* \"#utility.yul\":4907:5026   */\n      iszero\n      tag_415\n      jumpi\n        /* \"#utility.yul\":4945:5024   */\n      tag_416\n      tag_290\n      jump\t// in\n    tag_416:\n        /* \"#utility.yul\":4907:5026   */\n    tag_415:\n        /* \"#utility.yul\":5065:5066   */\n      0x00\n        /* \"#utility.yul\":5090:5143   */\n      tag_417\n        /* \"#utility.yul\":5135:5142   */\n      dup7\n        /* \"#utility.yul\":5126:5132   */\n      dup3\n        /* \"#utility.yul\":5115:5124   */\n      dup8\n        /* \"#utility.yul\":5111:5133   */\n      add\n        /* \"#utility.yul\":5090:5143   */\n      tag_295\n      jump\t// in\n    tag_417:\n        /* \"#utility.yul\":5080:5143   */\n      swap4\n      pop\n        /* \"#utility.yul\":5036:5153   */\n      pop\n        /* \"#utility.yul\":5192:5194   */\n      0x20\n        /* \"#utility.yul\":5218:5271   */\n      tag_418\n        /* \"#utility.yul\":5263:5270   */\n      dup7\n        /* \"#utility.yul\":5254:5260   */\n      dup3\n        /* \"#utility.yul\":5243:5252   */\n      dup8\n        /* \"#utility.yul\":5239:5261   */\n      add\n        /* \"#utility.yul\":5218:5271   */\n      tag_295\n      jump\t// in\n    tag_418:\n        /* \"#utility.yul\":5208:5271   */\n      swap3\n      pop\n        /* \"#utility.yul\":5163:5281   */\n      pop\n        /* \"#utility.yul\":5320:5322   */\n      0x40\n        /* \"#utility.yul\":5346:5399   */\n      tag_419\n        /* \"#utility.yul\":5391:5398   */\n      dup7\n        /* \"#utility.yul\":5382:5388   */\n      dup3\n        /* \"#utility.yul\":5371:5380   */\n      dup8\n        /* \"#utility.yul\":5367:5389   */\n      add\n        /* \"#utility.yul\":5346:5399   */\n      tag_297\n      jump\t// in\n    tag_419:\n        /* \"#utility.yul\":5336:5399   */\n      swap2\n      pop\n        /* \"#utility.yul\":5291:5409   */\n      pop\n        /* \"#utility.yul\":4797:5416   */\n      swap3\n      pop\n      swap3\n      pop\n      swap3\n      jump\t// out\n        /* \"#utility.yul\":5422:5751   */\n    tag_61:\n        /* \"#utility.yul\":5481:5487   */\n      0x00\n        /* \"#utility.yul\":5530:5532   */\n      0x20\n        /* \"#utility.yul\":5518:5527   */\n      dup3\n        /* \"#utility.yul\":5509:5516   */\n      dup5\n        /* \"#utility.yul\":5505:5528   */\n      sub\n        /* \"#utility.yul\":5501:5533   */\n      slt\n        /* \"#utility.yul\":5498:5617   */\n      iszero\n      tag_421\n      jumpi\n        /* \"#utility.yul\":5536:5615   */\n      tag_422\n      tag_290\n      jump\t// in\n    tag_422:\n        /* \"#utility.yul\":5498:5617   */\n    tag_421:\n        /* \"#utility.yul\":5656:5657   */\n      0x00\n        /* \"#utility.yul\":5681:5734   */\n      tag_423\n        /* \"#utility.yul\":5726:5733   */\n      dup5\n        /* \"#utility.yul\":5717:5723   */\n      dup3\n        /* \"#utility.yul\":5706:5715   */\n      dup6\n        /* \"#utility.yul\":5702:5724   */\n      add\n        /* \"#utility.yul\":5681:5734   */\n      tag_295\n      jump\t// in\n    tag_423:\n        /* \"#utility.yul\":5671:5734   */\n      swap2\n      pop\n        /* \"#utility.yul\":5627:5744   */\n      pop\n        /* \"#utility.yul\":5422:5751   */\n      swap3\n      swap2\n      pop\n      pop\n      jump\t// out\n        /* \"#utility.yul\":5757:5843   */\n    tag_301:\n        /* \"#utility.yul\":5792:5799   */\n      0x00\n        /* \"#utility.yul\":5832:5836   */\n      0xff\n        /* \"#utility.yul\":5825:5830   */\n      dup3\n        /* \"#utility.yul\":5821:5837   */\n      and\n        /* \"#utility.yul\":5810:5837   */\n      swap1\n      pop\n        /* \"#utility.yul\":5757:5843   */\n      swap2\n      swap1\n      pop\n      jump\t// out\n        /* \"#utility.yul\":5849:5961   */\n    tag_302:\n        /* \"#utility.yul\":5932:5954   */\n      tag_426\n        /* \"#utility.yul\":5948:5953   */\n      dup2\n        /* \"#utility.yul\":5932:5954   */\n      tag_301\n      jump\t// in\n    tag_426:\n        /* \"#utility.yul\":5927:5930   */\n      dup3\n        /* \"#utility.yul\":5920:5955   */\n      mstore\n        /* \"#utility.yul\":5849:5961   */\n      pop\n      pop\n      jump\t// out\n        /* \"#utility.yul\":5967:6181   */\n    tag_68:\n        /* \"#utility.yul\":6056:6060   */\n      0x00\n        /* \"#utility.yul\":6094:6096   */\n      0x20\n        /* \"#utility.yul\":6083:6092   */\n      dup3\n        /* \"#utility.yul\":6079:6097   */\n      add\n        /* \"#utility.yul\":6071:6097   */\n      swap1\n      pop\n        /* \"#utility.yul\":6107:6174   */\n      tag_428\n        /* \"#utility.yul\":6171:6172   */\n      0x00\n        /* \"#utility.yul\":6160:6169   */\n      dup4\n        /* \"#utility.yul\":6156:6173   */\n      add\n        /* \"#utility.yul\":6147:6153   */\n      dup5\n        /* \"#utility.yul\":6107:6174   */\n      tag_302\n      jump\t// in\n    tag_428:\n        /* \"#utility.yul\":5967:6181   */\n      swap3\n      swap2\n      pop\n      pop\n      jump\t// out\n        /* \"#utility.yul\":6187:6516   */\n    tag_72:\n        /* \"#utility.yul\":6246:6252   */\n      0x00\n        /* \"#utility.yul\":6295:6297   */\n      0x20\n        /* \"#utility.yul\":6283:6292   */\n      dup3\n        /* \"#utility.yul\":6274:6281   */\n      dup5\n        /* \"#utility.yul\":6270:6293   */\n      sub\n        /* \"#utility.yul\":6266:6298   */\n      slt\n        /* \"#utility.yul\":6263:6382   */\n      iszero\n      tag_430\n      jumpi\n        /* \"#utility.yul\":6301:6380   */\n      tag_431\n      tag_290\n      jump\t// in\n    tag_431:\n        /* \"#utility.yul\":6263:6382   */\n    tag_430:\n        /* \"#utility.yul\":6421:6422   */\n      0x00\n        /* \"#utility.yul\":6446:6499   */\n      tag_432\n        /* \"#utility.yul\":6491:6498   */\n      dup5\n        /* \"#utility.yul\":6482:6488   */\n      dup3\n        /* \"#utility.yul\":6471:6480   */\n      dup6\n        /* \"#utility.yul\":6467:6489   */\n      add\n        /* \"#utility.yul\":6446:6499   */\n      tag_297\n      jump\t// in\n    tag_432:\n        /* \"#utility.yul\":6436:6499   */\n      swap2\n      pop\n        /* \"#utility.yul\":6392:6509   */\n      pop\n        /* \"#utility.yul\":6187:6516   */\n      swap3\n      swap2\n      pop\n      pop\n      jump\t// out\n        /* \"#utility.yul\":6522:6640   */\n    tag_303:\n        /* \"#utility.yul\":6609:6633   */\n      tag_434\n        /* \"#utility.yul\":6627:6632   */\n      dup2\n        /* \"#utility.yul\":6609:6633   */\n      tag_293\n      jump\t// in\n    tag_434:\n        /* \"#utility.yul\":6604:6607   */\n      dup3\n        /* \"#utility.yul\":6597:6634   */\n      mstore\n        /* \"#utility.yul\":6522:6640   */\n      pop\n      pop\n      jump\t// out\n        /* \"#utility.yul\":6646:6868   */\n    tag_75:\n        /* \"#utility.yul\":6739:6743   */\n      0x00\n        /* \"#utility.yul\":6777:6779   */\n      0x20\n        /* \"#utility.yul\":6766:6775   */\n      dup3\n        /* \"#utility.yul\":6762:6780   */\n      add\n        /* \"#utility.yul\":6754:6780   */\n      swap1\n      pop\n        /* \"#utility.yul\":6790:6861   */\n      tag_436\n        /* \"#utility.yul\":6858:6859   */\n      0x00\n        /* \"#utility.yul\":6847:6856   */\n      dup4\n        /* \"#utility.yul\":6843:6860   */\n      add\n        /* \"#utility.yul\":6834:6840   */\n      dup5\n        /* \"#utility.yul\":6790:6861   */\n      tag_303\n      jump\t// in\n    tag_436:\n        /* \"#utility.yul\":6646:6868   */\n      swap3\n      swap2\n      pop\n      pop\n      jump\t// out\n        /* \"#utility.yul\":6874:7388   */\n    tag_81:\n        /* \"#utility.yul\":7035:7039   */\n      0x00\n        /* \"#utility.yul\":7073:7075   */\n      0x40\n        /* \"#utility.yul\":7062:7071   */\n      dup3\n        /* \"#utility.yul\":7058:7076   */\n      add\n        /* \"#utility.yul\":7050:7076   */\n      swap1\n      pop\n        /* \"#utility.yul\":7122:7131   */\n      dup2\n        /* \"#utility.yul\":7116:7120   */\n      dup2\n        /* \"#utility.yul\":7112:7132   */\n      sub\n        /* \"#utility.yul\":7108:7109   */\n      0x00\n        /* \"#utility.yul\":7097:7106   */\n      dup4\n        /* \"#utility.yul\":7093:7110   */\n      add\n        /* \"#utility.yul\":7086:7133   */\n      mstore\n        /* \"#utility.yul\":7150:7228   */\n      tag_438\n        /* \"#utility.yul\":7223:7227   */\n      dup2\n        /* \"#utility.yul\":7214:7220   */\n      dup6\n        /* \"#utility.yul\":7150:7228   */\n      tag_288\n      jump\t// in\n    tag_438:\n        /* \"#utility.yul\":7142:7228   */\n      swap1\n      pop\n        /* \"#utility.yul\":7275:7284   */\n      dup2\n        /* \"#utility.yul\":7269:7273   */\n      dup2\n        /* \"#utility.yul\":7265:7285   */\n      sub\n        /* \"#utility.yul\":7260:7262   */\n      0x20\n        /* \"#utility.yul\":7249:7258   */\n      dup4\n        /* \"#utility.yul\":7245:7263   */\n      add\n        /* \"#utility.yul\":7238:7286   */\n      mstore\n        /* \"#utility.yul\":7303:7381   */\n      tag_439\n        /* \"#utility.yul\":7376:7380   */\n      dup2\n        /* \"#utility.yul\":7367:7373   */\n      dup5\n        /* \"#utility.yul\":7303:7381   */\n      tag_288\n      jump\t// in\n    tag_439:\n        /* \"#utility.yul\":7295:7381   */\n      swap1\n      pop\n        /* \"#utility.yul\":6874:7388   */\n      swap4\n      swap3\n      pop\n      pop\n      pop\n      jump\t// out\n        /* \"#utility.yul\":7394:7529   */\n    tag_304:\n        /* \"#utility.yul\":7482:7488   */\n      0x00\n        /* \"#utility.yul\":7516:7521   */\n      dup2\n        /* \"#utility.yul\":7510:7522   */\n      mload\n        /* \"#utility.yul\":7500:7522   */\n      swap1\n      pop\n        /* \"#utility.yul\":7394:7529   */\n      swap2\n      swap1\n      pop\n      jump\t// out\n        /* \"#utility.yul\":7535:7740   */\n    tag_305:\n        /* \"#utility.yul\":7655:7666   */\n      0x00\n        /* \"#utility.yul\":7689:7695   */\n      dup3\n        /* \"#utility.yul\":7684:7687   */\n      dup3\n        /* \"#utility.yul\":7677:7696   */\n      mstore\n        /* \"#utility.yul\":7729:7733   */\n      0x20\n        /* \"#utility.yul\":7724:7727   */\n      dup3\n        /* \"#utility.yul\":7720:7734   */\n      add\n        /* \"#utility.yul\":7705:7734   */\n      swap1\n      pop\n        /* \"#utility.yul\":7535:7740   */\n      swap3\n      swap2\n      pop\n      pop\n      jump\t// out\n        /* \"#utility.yul\":7746:7899   */\n    tag_306:\n        /* \"#utility.yul\":7834:7838   */\n      0x00\n        /* \"#utility.yul\":7857:7860   */\n      dup2\n        /* \"#utility.yul\":7849:7860   */\n      swap1\n      pop\n        /* \"#utility.yul\":7887:7891   */\n      0x20\n        /* \"#utility.yul\":7882:7885   */\n      dup3\n        /* \"#utility.yul\":7878:7892   */\n      add\n        /* \"#utility.yul\":7870:7892   */\n      swap1\n      pop\n        /* \"#utility.yul\":7746:7899   */\n      swap2\n      swap1\n      pop\n      jump\t// out\n        /* \"#utility.yul\":7905:8013   */\n    tag_307:\n        /* \"#utility.yul\":7982:8006   */\n      tag_444\n        /* \"#utility.yul\":8000:8005   */\n      dup2\n        /* \"#utility.yul\":7982:8006   */\n      tag_293\n      jump\t// in\n    tag_444:\n        /* \"#utility.yul\":7977:7980   */\n      dup3\n        /* \"#utility.yul\":7970:8007   */\n      mstore\n        /* \"#utility.yul\":7905:8013   */\n      pop\n      pop\n      jump\t// out\n        /* \"#utility.yul\":8069:8387   */\n    tag_308:\n        /* \"#utility.yul\":8198:8202   */\n      0x20\n        /* \"#utility.yul\":8193:8196   */\n      dup3\n        /* \"#utility.yul\":8189:8203   */\n      add\n        /* \"#utility.yul\":8288:8292   */\n      0x00\n        /* \"#utility.yul\":8281:8286   */\n      dup3\n        /* \"#utility.yul\":8277:8293   */\n      add\n        /* \"#utility.yul\":8271:8294   */\n      mload\n        /* \"#utility.yul\":8307:8370   */\n      tag_446\n        /* \"#utility.yul\":8364:8368   */\n      0x00\n        /* \"#utility.yul\":8359:8362   */\n      dup6\n        /* \"#utility.yul\":8355:8369   */\n      add\n        /* \"#utility.yul\":8341:8353   */\n      dup3\n        /* \"#utility.yul\":8307:8370   */\n      tag_307\n      jump\t// in\n    tag_446:\n        /* \"#utility.yul\":8213:8380   */\n      pop\n        /* \"#utility.yul\":8167:8387   */\n      pop\n        /* \"#utility.yul\":8069:8387   */\n      pop\n      pop\n      jump\t// out\n        /* \"#utility.yul\":8393:8656   */\n    tag_309:\n        /* \"#utility.yul\":8504:8514   */\n      0x00\n        /* \"#utility.yul\":8525:8613   */\n      tag_448\n        /* \"#utility.yul\":8609:8612   */\n      dup4\n        /* \"#utility.yul\":8601:8607   */\n      dup4\n        /* \"#utility.yul\":8525:8613   */\n      tag_308\n      jump\t// in\n    tag_448:\n        /* \"#utility.yul\":8645:8649   */\n      0x20\n        /* \"#utility.yul\":8640:8643   */\n      dup4\n        /* \"#utility.yul\":8636:8650   */\n      add\n        /* \"#utility.yul\":8622:8650   */\n      swap1\n      pop\n        /* \"#utility.yul\":8393:8656   */\n      swap3\n      swap2\n      pop\n      pop\n      jump\t// out\n        /* \"#utility.yul\":8662:8796   */\n    tag_310:\n        /* \"#utility.yul\":8753:8757   */\n      0x00\n        /* \"#utility.yul\":8785:8789   */\n      0x20\n        /* \"#utility.yul\":8780:8783   */\n      dup3\n        /* \"#utility.yul\":8776:8790   */\n      add\n        /* \"#utility.yul\":8768:8790   */\n      swap1\n      pop\n        /* \"#utility.yul\":8662:8796   */\n      swap2\n      swap1\n      pop\n      jump\t// out\n        /* \"#utility.yul\":8856:9756   */\n    tag_311:\n        /* \"#utility.yul\":9017:9020   */\n      0x00\n        /* \"#utility.yul\":9046:9121   */\n      tag_451\n        /* \"#utility.yul\":9115:9120   */\n      dup3\n        /* \"#utility.yul\":9046:9121   */\n      tag_304\n      jump\t// in\n    tag_451:\n        /* \"#utility.yul\":9137:9244   */\n      tag_452\n        /* \"#utility.yul\":9237:9243   */\n      dup2\n        /* \"#utility.yul\":9232:9235   */\n      dup6\n        /* \"#utility.yul\":9137:9244   */\n      tag_305\n      jump\t// in\n    tag_452:\n        /* \"#utility.yul\":9130:9244   */\n      swap4\n      pop\n        /* \"#utility.yul\":9268:9345   */\n      tag_453\n        /* \"#utility.yul\":9339:9344   */\n      dup4\n        /* \"#utility.yul\":9268:9345   */\n      tag_306\n      jump\t// in\n    tag_453:\n        /* \"#utility.yul\":9368:9375   */\n      dup1\n        /* \"#utility.yul\":9399:9400   */\n      0x00\n        /* \"#utility.yul\":9384:9731   */\n    tag_454:\n        /* \"#utility.yul\":9409:9415   */\n      dup4\n        /* \"#utility.yul\":9406:9407   */\n      dup2\n        /* \"#utility.yul\":9403:9416   */\n      lt\n        /* \"#utility.yul\":9384:9731   */\n      iszero\n      tag_456\n      jumpi\n        /* \"#utility.yul\":9485:9491   */\n      dup2\n        /* \"#utility.yul\":9479:9492   */\n      mload\n        /* \"#utility.yul\":9512:9617   */\n      tag_457\n        /* \"#utility.yul\":9613:9616   */\n      dup9\n        /* \"#utility.yul\":9598:9611   */\n      dup3\n        /* \"#utility.yul\":9512:9617   */\n      tag_309\n      jump\t// in\n    tag_457:\n        /* \"#utility.yul\":9505:9617   */\n      swap8\n      pop\n        /* \"#utility.yul\":9640:9721   */\n      tag_458\n        /* \"#utility.yul\":9714:9720   */\n      dup4\n        /* \"#utility.yul\":9640:9721   */\n      tag_310\n      jump\t// in\n    tag_458:\n        /* \"#utility.yul\":9630:9721   */\n      swap3\n      pop\n        /* \"#utility.yul\":9444:9731   */\n      pop\n        /* \"#utility.yul\":9431:9432   */\n      0x01\n        /* \"#utility.yul\":9428:9429   */\n      dup2\n        /* \"#utility.yul\":9424:9433   */\n      add\n        /* \"#utility.yul\":9419:9433   */\n      swap1\n      pop\n        /* \"#utility.yul\":9384:9731   */\n      jump(tag_454)\n    tag_456:\n        /* \"#utility.yul\":9388:9402   */\n      pop\n        /* \"#utility.yul\":9747:9750   */\n      dup6\n        /* \"#utility.yul\":9740:9750   */\n      swap4\n      pop\n        /* \"#utility.yul\":9022:9756   */\n      pop\n      pop\n      pop\n        /* \"#utility.yul\":8856:9756   */\n      swap3\n      swap2\n      pop\n      pop\n      jump\t// out\n        /* \"#utility.yul\":9762:10219   */\n    tag_95:\n        /* \"#utility.yul\":9947:9951   */\n      0x00\n        /* \"#utility.yul\":9985:9987   */\n      0x20\n        /* \"#utility.yul\":9974:9983   */\n      dup3\n        /* \"#utility.yul\":9970:9988   */\n      add\n        /* \"#utility.yul\":9962:9988   */\n      swap1\n      pop\n        /* \"#utility.yul\":10034:10043   */\n      dup2\n        /* \"#utility.yul\":10028:10032   */\n      dup2\n        /* \"#utility.yul\":10024:10044   */\n      sub\n        /* \"#utility.yul\":10020:10021   */\n      0x00\n        /* \"#utility.yul\":10009:10018   */\n      dup4\n        /* \"#utility.yul\":10005:10022   */\n      add\n        /* \"#utility.yul\":9998:10045   */\n      mstore\n        /* \"#utility.yul\":10062:10212   */\n      tag_460\n        /* \"#utility.yul\":10207:10211   */\n      dup2\n        /* \"#utility.yul\":10198:10204   */\n      dup5\n        /* \"#utility.yul\":10062:10212   */\n      tag_311\n      jump\t// in\n    tag_460:\n        /* \"#utility.yul\":10054:10212   */\n      swap1\n      pop\n        /* \"#utility.yul\":9762:10219   */\n      swap3\n      swap2\n      pop\n      pop\n      jump\t// out\n        /* \"#utility.yul\":10225:10360   */\n    tag_312:\n        /* \"#utility.yul\":10313:10319   */\n      0x00\n        /* \"#utility.yul\":10347:10352   */\n      dup2\n        /* \"#utility.yul\":10341:10353   */\n      mload\n        /* \"#utility.yul\":10331:10353   */\n      swap1\n      pop\n        /* \"#utility.yul\":10225:10360   */\n      swap2\n      swap1\n      pop\n      jump\t// out\n        /* \"#utility.yul\":10366:10571   */\n    tag_313:\n        /* \"#utility.yul\":10486:10497   */\n      0x00\n        /* \"#utility.yul\":10520:10526   */\n      dup3\n        /* \"#utility.yul\":10515:10518   */\n      dup3\n        /* \"#utility.yul\":10508:10527   */\n      mstore\n        /* \"#utility.yul\":10560:10564   */\n      0x20\n        /* \"#utility.yul\":10555:10558   */\n      dup3\n        /* \"#utility.yul\":10551:10565   */\n      add\n        /* \"#utility.yul\":10536:10565   */\n      swap1\n      pop\n        /* \"#utility.yul\":10366:10571   */\n      swap3\n      swap2\n      pop\n      pop\n      jump\t// out\n        /* \"#utility.yul\":10577:10730   */\n    tag_314:\n        /* \"#utility.yul\":10665:10669   */\n      0x00\n        /* \"#utility.yul\":10688:10691   */\n      dup2\n        /* \"#utility.yul\":10680:10691   */\n      swap1\n      pop\n        /* \"#utility.yul\":10718:10722   */\n      0x20\n        /* \"#utility.yul\":10713:10716   */\n      dup3\n        /* \"#utility.yul\":10709:10723   */\n      add\n        /* \"#utility.yul\":10701:10723   */\n      swap1\n      pop\n        /* \"#utility.yul\":10577:10730   */\n      swap2\n      swap1\n      pop\n      jump\t// out\n        /* \"#utility.yul\":10736:10895   */\n    tag_315:\n        /* \"#utility.yul\":10810:10821   */\n      0x00\n        /* \"#utility.yul\":10844:10850   */\n      dup3\n        /* \"#utility.yul\":10839:10842   */\n      dup3\n        /* \"#utility.yul\":10832:10851   */\n      mstore\n        /* \"#utility.yul\":10884:10888   */\n      0x20\n        /* \"#utility.yul\":10879:10882   */\n      dup3\n        /* \"#utility.yul\":10875:10889   */\n      add\n        /* \"#utility.yul\":10860:10889   */\n      swap1\n      pop\n        /* \"#utility.yul\":10736:10895   */\n      swap3\n      swap2\n      pop\n      pop\n      jump\t// out\n        /* \"#utility.yul\":10901:11258   */\n    tag_316:\n        /* \"#utility.yul\":10979:10982   */\n      0x00\n        /* \"#utility.yul\":11007:11046   */\n      tag_466\n        /* \"#utility.yul\":11040:11045   */\n      dup3\n        /* \"#utility.yul\":11007:11046   */\n      tag_284\n      jump\t// in\n    tag_466:\n        /* \"#utility.yul\":11062:11123   */\n      tag_467\n        /* \"#utility.yul\":11116:11122   */\n      dup2\n        /* \"#utility.yul\":11111:11114   */\n      dup6\n        /* \"#utility.yul\":11062:11123   */\n      tag_315\n      jump\t// in\n    tag_467:\n        /* \"#utility.yul\":11055:11123   */\n      swap4\n      pop\n        /* \"#utility.yul\":11132:11197   */\n      tag_468\n        /* \"#utility.yul\":11190:11196   */\n      dup2\n        /* \"#utility.yul\":11185:11188   */\n      dup6\n        /* \"#utility.yul\":11178:11182   */\n      0x20\n        /* \"#utility.yul\":11171:11176   */\n      dup7\n        /* \"#utility.yul\":11167:11183   */\n      add\n        /* \"#utility.yul\":11132:11197   */\n      tag_286\n      jump\t// in\n    tag_468:\n        /* \"#utility.yul\":11222:11251   */\n      tag_469\n        /* \"#utility.yul\":11244:11250   */\n      dup2\n        /* \"#utility.yul\":11222:11251   */\n      tag_287\n      jump\t// in\n    tag_469:\n        /* \"#utility.yul\":11217:11220   */\n      dup5\n        /* \"#utility.yul\":11213:11252   */\n      add\n        /* \"#utility.yul\":11206:11252   */\n      swap2\n      pop\n        /* \"#utility.yul\":10983:11258   */\n      pop\n        /* \"#utility.yul\":10901:11258   */\n      swap3\n      swap2\n      pop\n      pop\n      jump\t// out\n        /* \"#utility.yul\":11314:11972   */\n    tag_317:\n        /* \"#utility.yul\":11415:11418   */\n      0x00\n        /* \"#utility.yul\":11451:11455   */\n      0x40\n        /* \"#utility.yul\":11446:11449   */\n      dup4\n        /* \"#utility.yul\":11442:11456   */\n      add\n        /* \"#utility.yul\":11537:11541   */\n      0x00\n        /* \"#utility.yul\":11530:11535   */\n      dup4\n        /* \"#utility.yul\":11526:11542   */\n      add\n        /* \"#utility.yul\":11520:11543   */\n      mload\n        /* \"#utility.yul\":11590:11593   */\n      dup5\n        /* \"#utility.yul\":11584:11588   */\n      dup3\n        /* \"#utility.yul\":11580:11594   */\n      sub\n        /* \"#utility.yul\":11573:11577   */\n      0x00\n        /* \"#utility.yul\":11568:11571   */\n      dup7\n        /* \"#utility.yul\":11564:11578   */\n      add\n        /* \"#utility.yul\":11557:11595   */\n      mstore\n        /* \"#utility.yul\":11616:11689   */\n      tag_471\n        /* \"#utility.yul\":11684:11688   */\n      dup3\n        /* \"#utility.yul\":11670:11682   */\n      dup3\n        /* \"#utility.yul\":11616:11689   */\n      tag_316\n      jump\t// in\n    tag_471:\n        /* \"#utility.yul\":11608:11689   */\n      swap2\n      pop\n        /* \"#utility.yul\":11466:11700   */\n      pop\n        /* \"#utility.yul\":11782:11786   */\n      0x20\n        /* \"#utility.yul\":11775:11780   */\n      dup4\n        /* \"#utility.yul\":11771:11787   */\n      add\n        /* \"#utility.yul\":11765:11788   */\n      mload\n        /* \"#utility.yul\":11835:11838   */\n      dup5\n        /* \"#utility.yul\":11829:11833   */\n      dup3\n        /* \"#utility.yul\":11825:11839   */\n      sub\n        /* \"#utility.yul\":11818:11822   */\n      0x20\n        /* \"#utility.yul\":11813:11816   */\n      dup7\n        /* \"#utility.yul\":11809:11823   */\n      add\n        /* \"#utility.yul\":11802:11840   */\n      mstore\n        /* \"#utility.yul\":11861:11934   */\n      tag_472\n        /* \"#utility.yul\":11929:11933   */\n      dup3\n        /* \"#utility.yul\":11915:11927   */\n      dup3\n        /* \"#utility.yul\":11861:11934   */\n      tag_316\n      jump\t// in\n    tag_472:\n        /* \"#utility.yul\":11853:11934   */\n      swap2\n      pop\n        /* \"#utility.yul\":11710:11945   */\n      pop\n        /* \"#utility.yul\":11962:11966   */\n      dup1\n        /* \"#utility.yul\":11955:11966   */\n      swap2\n      pop\n        /* \"#utility.yul\":11420:11972   */\n      pop\n        /* \"#utility.yul\":11314:11972   */\n      swap3\n      swap2\n      pop\n      pop\n      jump\t// out\n        /* \"#utility.yul\":11978:12218   */\n    tag_318:\n        /* \"#utility.yul\":12089:12099   */\n      0x00\n        /* \"#utility.yul\":12124:12212   */\n      tag_474\n        /* \"#utility.yul\":12208:12211   */\n      dup4\n        /* \"#utility.yul\":12200:12206   */\n      dup4\n        /* \"#utility.yul\":12124:12212   */\n      tag_317\n      jump\t// in\n    tag_474:\n        /* \"#utility.yul\":12110:12212   */\n      swap1\n      pop\n        /* \"#utility.yul\":11978:12218   */\n      swap3\n      swap2\n      pop\n      pop\n      jump\t// out\n        /* \"#utility.yul\":12224:12358   */\n    tag_319:\n        /* \"#utility.yul\":12315:12319   */\n      0x00\n        /* \"#utility.yul\":12347:12351   */\n      0x20\n        /* \"#utility.yul\":12342:12345   */\n      dup3\n        /* \"#utility.yul\":12338:12352   */\n      add\n        /* \"#utility.yul\":12330:12352   */\n      swap1\n      pop\n        /* \"#utility.yul\":12224:12358   */\n      swap2\n      swap1\n      pop\n      jump\t// out\n        /* \"#utility.yul\":12418:13497   */\n    tag_320:\n        /* \"#utility.yul\":12579:12582   */\n      0x00\n        /* \"#utility.yul\":12608:12683   */\n      tag_477\n        /* \"#utility.yul\":12677:12682   */\n      dup3\n        /* \"#utility.yul\":12608:12683   */\n      tag_312\n      jump\t// in\n    tag_477:\n        /* \"#utility.yul\":12699:12806   */\n      tag_478\n        /* \"#utility.yul\":12799:12805   */\n      dup2\n        /* \"#utility.yul\":12794:12797   */\n      dup6\n        /* \"#utility.yul\":12699:12806   */\n      tag_313\n      jump\t// in\n    tag_478:\n        /* \"#utility.yul\":12692:12806   */\n      swap4\n      pop\n        /* \"#utility.yul\":12832:12835   */\n      dup4\n        /* \"#utility.yul\":12877:12881   */\n      0x20\n        /* \"#utility.yul\":12869:12875   */\n      dup3\n        /* \"#utility.yul\":12865:12882   */\n      mul\n        /* \"#utility.yul\":12860:12863   */\n      dup6\n        /* \"#utility.yul\":12856:12883   */\n      add\n        /* \"#utility.yul\":12907:12984   */\n      tag_479\n        /* \"#utility.yul\":12978:12983   */\n      dup6\n        /* \"#utility.yul\":12907:12984   */\n      tag_314\n      jump\t// in\n    tag_479:\n        /* \"#utility.yul\":13007:13014   */\n      dup1\n        /* \"#utility.yul\":13038:13039   */\n      0x00\n        /* \"#utility.yul\":13023:13452   */\n    tag_480:\n        /* \"#utility.yul\":13048:13054   */\n      dup6\n        /* \"#utility.yul\":13045:13046   */\n      dup2\n        /* \"#utility.yul\":13042:13055   */\n      lt\n        /* \"#utility.yul\":13023:13452   */\n      iszero\n      tag_482\n      jumpi\n        /* \"#utility.yul\":13119:13128   */\n      dup5\n        /* \"#utility.yul\":13113:13117   */\n      dup5\n        /* \"#utility.yul\":13109:13129   */\n      sub\n        /* \"#utility.yul\":13104:13107   */\n      dup10\n        /* \"#utility.yul\":13097:13130   */\n      mstore\n        /* \"#utility.yul\":13170:13176   */\n      dup2\n        /* \"#utility.yul\":13164:13177   */\n      mload\n        /* \"#utility.yul\":13198:13304   */\n      tag_483\n        /* \"#utility.yul\":13299:13303   */\n      dup6\n        /* \"#utility.yul\":13284:13297   */\n      dup3\n        /* \"#utility.yul\":13198:13304   */\n      tag_318\n      jump\t// in\n    tag_483:\n        /* \"#utility.yul\":13190:13304   */\n      swap5\n      pop\n        /* \"#utility.yul\":13327:13408   */\n      tag_484\n        /* \"#utility.yul\":13401:13407   */\n      dup4\n        /* \"#utility.yul\":13327:13408   */\n      tag_319\n      jump\t// in\n    tag_484:\n        /* \"#utility.yul\":13317:13408   */\n      swap3\n      pop\n        /* \"#utility.yul\":13437:13441   */\n      0x20\n        /* \"#utility.yul\":13432:13435   */\n      dup11\n        /* \"#utility.yul\":13428:13442   */\n      add\n        /* \"#utility.yul\":13421:13442   */\n      swap10\n      pop\n        /* \"#utility.yul\":13083:13452   */\n      pop\n        /* \"#utility.yul\":13070:13071   */\n      0x01\n        /* \"#utility.yul\":13067:13068   */\n      dup2\n        /* \"#utility.yul\":13063:13072   */\n      add\n        /* \"#utility.yul\":13058:13072   */\n      swap1\n      pop\n        /* \"#utility.yul\":13023:13452   */\n      jump(tag_480)\n    tag_482:\n        /* \"#utility.yul\":13027:13041   */\n      pop\n        /* \"#utility.yul\":13468:13472   */\n      dup3\n        /* \"#utility.yul\":13461:13472   */\n      swap8\n      pop\n        /* \"#utility.yul\":13488:13491   */\n      dup8\n        /* \"#utility.yul\":13481:13491   */\n      swap6\n      pop\n        /* \"#utility.yul\":12584:13497   */\n      pop\n      pop\n      pop\n      pop\n      pop\n        /* \"#utility.yul\":12418:13497   */\n      swap3\n      swap2\n      pop\n      pop\n      jump\t// out\n        /* \"#utility.yul\":13503:13960   */\n    tag_100:\n        /* \"#utility.yul\":13688:13692   */\n      0x00\n        /* \"#utility.yul\":13726:13728   */\n      0x20\n        /* \"#utility.yul\":13715:13724   */\n      dup3\n        /* \"#utility.yul\":13711:13729   */\n      add\n        /* \"#utility.yul\":13703:13729   */\n      swap1\n      pop\n        /* \"#utility.yul\":13775:13784   */\n      dup2\n        /* \"#utility.yul\":13769:13773   */\n      dup2\n        /* \"#utility.yul\":13765:13785   */\n      sub\n        /* \"#utility.yul\":13761:13762   */\n      0x00\n        /* \"#utility.yul\":13750:13759   */\n      dup4\n        /* \"#utility.yul\":13746:13763   */\n      add\n        /* \"#utility.yul\":13739:13786   */\n      mstore\n        /* \"#utility.yul\":13803:13953   */\n      tag_486\n        /* \"#utility.yul\":13948:13952   */\n      dup2\n        /* \"#utility.yul\":13939:13945   */\n      dup5\n        /* \"#utility.yul\":13803:13953   */\n      tag_320\n      jump\t// in\n    tag_486:\n        /* \"#utility.yul\":13795:13953   */\n      swap1\n      pop\n        /* \"#utility.yul\":13503:13960   */\n      swap3\n      swap2\n      pop\n      pop\n      jump\t// out\n        /* \"#utility.yul\":13966:14440   */\n    tag_120:\n        /* \"#utility.yul\":14034:14040   */\n      0x00\n        /* \"#utility.yul\":14042:14048   */\n      dup1\n        /* \"#utility.yul\":14091:14093   */\n      0x40\n        /* \"#utility.yul\":14079:14088   */\n      dup4\n        /* \"#utility.yul\":14070:14077   */\n      dup6\n        /* \"#utility.yul\":14066:14089   */\n      sub\n        /* \"#utility.yul\":14062:14094   */\n      slt\n        /* \"#utility.yul\":14059:14178   */\n      iszero\n      tag_488\n      jumpi\n        /* \"#utility.yul\":14097:14176   */\n      tag_489\n      tag_290\n      jump\t// in\n    tag_489:\n        /* \"#utility.yul\":14059:14178   */\n    tag_488:\n        /* \"#utility.yul\":14217:14218   */\n      0x00\n        /* \"#utility.yul\":14242:14295   */\n      tag_490\n        /* \"#utility.yul\":14287:14294   */\n      dup6\n        /* \"#utility.yul\":14278:14284   */\n      dup3\n        /* \"#utility.yul\":14267:14276   */\n      dup7\n        /* \"#utility.yul\":14263:14285   */\n      add\n        /* \"#utility.yul\":14242:14295   */\n      tag_295\n      jump\t// in\n    tag_490:\n        /* \"#utility.yul\":14232:14295   */\n      swap3\n      pop\n        /* \"#utility.yul\":14188:14305   */\n      pop\n        /* \"#utility.yul\":14344:14346   */\n      0x20\n        /* \"#utility.yul\":14370:14423   */\n      tag_491\n        /* \"#utility.yul\":14415:14422   */\n      dup6\n        /* \"#utility.yul\":14406:14412   */\n      dup3\n        /* \"#utility.yul\":14395:14404   */\n      dup7\n        /* \"#utility.yul\":14391:14413   */\n      add\n        /* \"#utility.yul\":14370:14423   */\n      tag_295\n      jump\t// in\n    tag_491:\n        /* \"#utility.yul\":14360:14423   */\n      swap2\n      pop\n        /* \"#utility.yul\":14315:14433   */\n      pop\n        /* \"#utility.yul\":13966:14440   */\n      swap3\n      pop\n      swap3\n      swap1\n      pop\n      jump\t// out\n        /* \"#utility.yul\":14446:14626   */\n    tag_321:\n        /* \"#utility.yul\":14494:14571   */\n      0x4e487b7100000000000000000000000000000000000000000000000000000000\n        /* \"#utility.yul\":14491:14492   */\n      0x00\n        /* \"#utility.yul\":14484:14572   */\n      mstore\n        /* \"#utility.yul\":14591:14595   */\n      0x22\n        /* \"#utility.yul\":14588:14589   */\n      0x04\n        /* \"#utility.yul\":14581:14596   */\n      mstore\n        /* \"#utility.yul\":14615:14619   */\n      0x24\n        /* \"#utility.yul\":14612:14613   */\n      0x00\n        /* \"#utility.yul\":14605:14620   */\n      revert\n        /* \"#utility.yul\":14632:14952   */\n    tag_127:\n        /* \"#utility.yul\":14676:14682   */\n      0x00\n        /* \"#utility.yul\":14713:14714   */\n      0x02\n        /* \"#utility.yul\":14707:14711   */\n      dup3\n        /* \"#utility.yul\":14703:14715   */\n      div\n        /* \"#utility.yul\":14693:14715   */\n      swap1\n      pop\n        /* \"#utility.yul\":14760:14761   */\n      0x01\n        /* \"#utility.yul\":14754:14758   */\n      dup3\n        /* \"#utility.yul\":14750:14762   */\n      and\n        /* \"#utility.yul\":14781:14799   */\n      dup1\n        /* \"#utility.yul\":14771:14852   */\n      tag_494\n      jumpi\n        /* \"#utility.yul\":14837:14841   */\n      0x7f\n        /* \"#utility.yul\":14829:14835   */\n      dup3\n        /* \"#utility.yul\":14825:14842   */\n      and\n        /* \"#utility.yul\":14815:14842   */\n      swap2\n      pop\n        /* \"#utility.yul\":14771:14852   */\n    tag_494:\n        /* \"#utility.yul\":14899:14901   */\n      0x20\n        /* \"#utility.yul\":14891:14897   */\n      dup3\n        /* \"#utility.yul\":14888:14902   */\n      lt\n        /* \"#utility.yul\":14868:14886   */\n      dup2\n        /* \"#utility.yul\":14865:14903   */\n      sub\n        /* \"#utility.yul\":14862:14946   */\n      tag_495\n      jumpi\n        /* \"#utility.yul\":14918:14936   */\n      tag_496\n      tag_321\n      jump\t// in\n    tag_496:\n        /* \"#utility.yul\":14862:14946   */\n    tag_495:\n        /* \"#utility.yul\":14683:14952   */\n      pop\n        /* \"#utility.yul\":14632:14952   */\n      swap2\n      swap1\n      pop\n      jump\t// out\n        /* \"#utility.yul\":14958:15037   */\n    tag_322:\n        /* \"#utility.yul\":14997:15004   */\n      0x00\n        /* \"#utility.yul\":15026:15031   */\n      dup2\n        /* \"#utility.yul\":15015:15031   */\n      swap1\n      pop\n        /* \"#utility.yul\":14958:15037   */\n      swap2\n      swap1\n      pop\n      jump\t// out\n        /* \"#utility.yul\":15043:15200   */\n    tag_323:\n        /* \"#utility.yul\":15148:15193   */\n      tag_499\n        /* \"#utility.yul\":15168:15192   */\n      tag_500\n        /* \"#utility.yul\":15186:15191   */\n      dup3\n        /* \"#utility.yul\":15168:15192   */\n      tag_282\n      jump\t// in\n    tag_500:\n        /* \"#utility.yul\":15148:15193   */\n      tag_322\n      jump\t// in\n    tag_499:\n        /* \"#utility.yul\":15143:15146   */\n      dup3\n        /* \"#utility.yul\":15136:15194   */\n      mstore\n        /* \"#utility.yul\":15043:15200   */\n      pop\n      pop\n      jump\t// out\n        /* \"#utility.yul\":15206:15310   */\n    tag_324:\n        /* \"#utility.yul\":15251:15258   */\n      0x00\n        /* \"#utility.yul\":15280:15304   */\n      tag_502\n        /* \"#utility.yul\":15298:15303   */\n      dup3\n        /* \"#utility.yul\":15280:15304   */\n      tag_292\n      jump\t// in\n    tag_502:\n        /* \"#utility.yul\":15269:15304   */\n      swap1\n      pop\n        /* \"#utility.yul\":15206:15310   */\n      swap2\n      swap1\n      pop\n      jump\t// out\n        /* \"#utility.yul\":15316:15410   */\n    tag_325:\n        /* \"#utility.yul\":15349:15357   */\n      0x00\n        /* \"#utility.yul\":15397:15402   */\n      dup2\n        /* \"#utility.yul\":15393:15395   */\n      0x60\n        /* \"#utility.yul\":15389:15403   */\n      shl\n        /* \"#utility.yul\":15368:15403   */\n      swap1\n      pop\n        /* \"#utility.yul\":15316:15410   */\n      swap2\n      swap1\n      pop\n      jump\t// out\n        /* \"#utility.yul\":15416:15510   */\n    tag_326:\n        /* \"#utility.yul\":15455:15462   */\n      0x00\n        /* \"#utility.yul\":15484:15504   */\n      tag_505\n        /* \"#utility.yul\":15498:15503   */\n      dup3\n        /* \"#utility.yul\":15484:15504   */\n      tag_325\n      jump\t// in\n    tag_505:\n        /* \"#utility.yul\":15473:15504   */\n      swap1\n      pop\n        /* \"#utility.yul\":15416:15510   */\n      swap2\n      swap1\n      pop\n      jump\t// out\n        /* \"#utility.yul\":15516:15624   */\n    tag_327:\n        /* \"#utility.yul\":15563:15570   */\n      0x00\n        /* \"#utility.yul\":15592:15618   */\n      tag_507\n        /* \"#utility.yul\":15612:15617   */\n      dup3\n        /* \"#utility.yul\":15592:15618   */\n      tag_326\n      jump\t// in\n    tag_507:\n        /* \"#utility.yul\":15581:15618   */\n      swap1\n      pop\n        /* \"#utility.yul\":15516:15624   */\n      swap2\n      swap1\n      pop\n      jump\t// out\n        /* \"#utility.yul\":15630:15819   */\n    tag_328:\n        /* \"#utility.yul\":15751:15812   */\n      tag_509\n        /* \"#utility.yul\":15779:15811   */\n      tag_510\n        /* \"#utility.yul\":15805:15810   */\n      dup3\n        /* \"#utility.yul\":15779:15811   */\n      tag_324\n      jump\t// in\n    tag_510:\n        /* \"#utility.yul\":15751:15812   */\n      tag_327\n      jump\t// in\n    tag_509:\n        /* \"#utility.yul\":15746:15749   */\n      dup3\n        /* \"#utility.yul\":15739:15813   */\n      mstore\n        /* \"#utility.yul\":15630:15819   */\n      pop\n      pop\n      jump\t// out\n        /* \"#utility.yul\":15825:16395   */\n    tag_187:\n        /* \"#utility.yul\":16009:16012   */\n      0x00\n        /* \"#utility.yul\":16024:16099   */\n      tag_512\n        /* \"#utility.yul\":16095:16098   */\n      dup3\n        /* \"#utility.yul\":16086:16092   */\n      dup7\n        /* \"#utility.yul\":16024:16099   */\n      tag_323\n      jump\t// in\n    tag_512:\n        /* \"#utility.yul\":16124:16126   */\n      0x20\n        /* \"#utility.yul\":16119:16122   */\n      dup3\n        /* \"#utility.yul\":16115:16127   */\n      add\n        /* \"#utility.yul\":16108:16127   */\n      swap2\n      pop\n        /* \"#utility.yul\":16137:16228   */\n      tag_513\n        /* \"#utility.yul\":16224:16227   */\n      dup3\n        /* \"#utility.yul\":16215:16221   */\n      dup6\n        /* \"#utility.yul\":16137:16228   */\n      tag_328\n      jump\t// in\n    tag_513:\n        /* \"#utility.yul\":16253:16255   */\n      0x14\n        /* \"#utility.yul\":16248:16251   */\n      dup3\n        /* \"#utility.yul\":16244:16256   */\n      add\n        /* \"#utility.yul\":16237:16256   */\n      swap2\n      pop\n        /* \"#utility.yul\":16266:16341   */\n      tag_514\n        /* \"#utility.yul\":16337:16340   */\n      dup3\n        /* \"#utility.yul\":16328:16334   */\n      dup5\n        /* \"#utility.yul\":16266:16341   */\n      tag_323\n      jump\t// in\n    tag_514:\n        /* \"#utility.yul\":16366:16368   */\n      0x20\n        /* \"#utility.yul\":16361:16364   */\n      dup3\n        /* \"#utility.yul\":16357:16369   */\n      add\n        /* \"#utility.yul\":16350:16369   */\n      swap2\n      pop\n        /* \"#utility.yul\":16386:16389   */\n      dup2\n        /* \"#utility.yul\":16379:16389   */\n      swap1\n      pop\n        /* \"#utility.yul\":15825:16395   */\n      swap5\n      swap4\n      pop\n      pop\n      pop\n      pop\n      jump\t// out\n        /* \"#utility.yul\":16401:16581   */\n    tag_329:\n        /* \"#utility.yul\":16449:16526   */\n      0x4e487b7100000000000000000000000000000000000000000000000000000000\n        /* \"#utility.yul\":16446:16447   */\n      0x00\n        /* \"#utility.yul\":16439:16527   */\n      mstore\n        /* \"#utility.yul\":16546:16550   */\n      0x12\n        /* \"#utility.yul\":16543:16544   */\n      0x04\n        /* \"#utility.yul\":16536:16551   */\n      mstore\n        /* \"#utility.yul\":16570:16574   */\n      0x24\n        /* \"#utility.yul\":16567:16568   */\n      0x00\n        /* \"#utility.yul\":16560:16575   */\n      revert\n        /* \"#utility.yul\":16587:16763   */\n    tag_189:\n        /* \"#utility.yul\":16619:16620   */\n      0x00\n        /* \"#utility.yul\":16636:16656   */\n      tag_517\n        /* \"#utility.yul\":16654:16655   */\n      dup3\n        /* \"#utility.yul\":16636:16656   */\n      tag_282\n      jump\t// in\n    tag_517:\n        /* \"#utility.yul\":16631:16656   */\n      swap2\n      pop\n        /* \"#utility.yul\":16670:16690   */\n      tag_518\n        /* \"#utility.yul\":16688:16689   */\n      dup4\n        /* \"#utility.yul\":16670:16690   */\n      tag_282\n      jump\t// in\n    tag_518:\n        /* \"#utility.yul\":16665:16690   */\n      swap3\n      pop\n        /* \"#utility.yul\":16709:16710   */\n      dup3\n        /* \"#utility.yul\":16699:16734   */\n      tag_519\n      jumpi\n        /* \"#utility.yul\":16714:16732   */\n      tag_520\n      tag_329\n      jump\t// in\n    tag_520:\n        /* \"#utility.yul\":16699:16734   */\n    tag_519:\n        /* \"#utility.yul\":16755:16756   */\n      dup3\n        /* \"#utility.yul\":16752:16753   */\n      dup3\n        /* \"#utility.yul\":16748:16757   */\n      mod\n        /* \"#utility.yul\":16743:16757   */\n      swap1\n      pop\n        /* \"#utility.yul\":16587:16763   */\n      swap3\n      swap2\n      pop\n      pop\n      jump\t// out\n        /* \"#utility.yul\":16769:16949   */\n    tag_192:\n        /* \"#utility.yul\":16817:16894   */\n      0x4e487b7100000000000000000000000000000000000000000000000000000000\n        /* \"#utility.yul\":16814:16815   */\n      0x00\n        /* \"#utility.yul\":16807:16895   */\n      mstore\n        /* \"#utility.yul\":16914:16918   */\n      0x32\n        /* \"#utility.yul\":16911:16912   */\n      0x04\n        /* \"#utility.yul\":16904:16919   */\n      mstore\n        /* \"#utility.yul\":16938:16942   */\n      0x24\n        /* \"#utility.yul\":16935:16936   */\n      0x00\n        /* \"#utility.yul\":16928:16943   */\n      revert\n        /* \"#utility.yul\":16955:17135   */\n    tag_330:\n        /* \"#utility.yul\":17003:17080   */\n      0x4e487b7100000000000000000000000000000000000000000000000000000000\n        /* \"#utility.yul\":17000:17001   */\n      0x00\n        /* \"#utility.yul\":16993:17081   */\n      mstore\n        /* \"#utility.yul\":17100:17104   */\n      0x41\n        /* \"#utility.yul\":17097:17098   */\n      0x04\n        /* \"#utility.yul\":17090:17105   */\n      mstore\n        /* \"#utility.yul\":17124:17128   */\n      0x24\n        /* \"#utility.yul\":17121:17122   */\n      0x00\n        /* \"#utility.yul\":17114:17129   */\n      revert\n        /* \"#utility.yul\":17141:17282   */\n    tag_331:\n        /* \"#utility.yul\":17190:17194   */\n      0x00\n        /* \"#utility.yul\":17213:17216   */\n      dup2\n        /* \"#utility.yul\":17205:17216   */\n      swap1\n      pop\n        /* \"#utility.yul\":17236:17239   */\n      dup2\n        /* \"#utility.yul\":17233:17234   */\n      0x00\n        /* \"#utility.yul\":17226:17240   */\n      mstore\n        /* \"#utility.yul\":17270:17274   */\n      0x20\n        /* \"#utility.yul\":17267:17268   */\n      0x00\n        /* \"#utility.yul\":17257:17275   */\n      keccak256\n        /* \"#utility.yul\":17249:17275   */\n      swap1\n      pop\n        /* \"#utility.yul\":17141:17282   */\n      swap2\n      swap1\n      pop\n      jump\t// out\n        /* \"#utility.yul\":17288:17381   */\n    tag_332:\n        /* \"#utility.yul\":17325:17331   */\n      0x00\n        /* \"#utility.yul\":17372:17374   */\n      0x20\n        /* \"#utility.yul\":17367:17369   */\n      0x1f\n        /* \"#utility.yul\":17360:17365   */\n      dup4\n        /* \"#utility.yul\":17356:17370   */\n      add\n        /* \"#utility.yul\":17352:17375   */\n      div\n        /* \"#utility.yul\":17342:17375   */\n      swap1\n      pop\n        /* \"#utility.yul\":17288:17381   */\n      swap2\n      swap1\n      pop\n      jump\t// out\n        /* \"#utility.yul\":17387:17494   */\n    tag_333:\n        /* \"#utility.yul\":17431:17439   */\n      0x00\n        /* \"#utility.yul\":17481:17486   */\n      dup3\n        /* \"#utility.yul\":17475:17479   */\n      dup3\n        /* \"#utility.yul\":17471:17487   */\n      shl\n        /* \"#utility.yul\":17450:17487   */\n      swap1\n      pop\n        /* \"#utility.yul\":17387:17494   */\n      swap3\n      swap2\n      pop\n      pop\n      jump\t// out\n        /* \"#utility.yul\":17500:17893   */\n    tag_334:\n        /* \"#utility.yul\":17569:17575   */\n      0x00\n        /* \"#utility.yul\":17619:17620   */\n      0x08\n        /* \"#utility.yul\":17607:17617   */\n      dup4\n        /* \"#utility.yul\":17603:17621   */\n      mul\n        /* \"#utility.yul\":17642:17739   */\n      tag_527\n        /* \"#utility.yul\":17672:17738   */\n      0xffffffffffffffffffffffffffffffffffffffffffffffffffffffffffffffff\n        /* \"#utility.yul\":17661:17670   */\n      dup3\n        /* \"#utility.yul\":17642:17739   */\n      tag_333\n      jump\t// in\n    tag_527:\n        /* \"#utility.yul\":17760:17799   */\n      tag_528\n        /* \"#utility.yul\":17790:17798   */\n      dup7\n        /* \"#utility.yul\":17779:17788   */\n      dup4\n        /* \"#utility.yul\":17760:17799   */\n      tag_333\n      jump\t// in\n    tag_528:\n        /* \"#utility.yul\":17748:17799   */\n      swap6\n      pop\n        /* \"#utility.yul\":17832:17836   */\n      dup1\n        /* \"#utility.yul\":17828:17837   */\n      not\n        /* \"#utility.yul\":17821:17826   */\n      dup5\n        /* \"#utility.yul\":17817:17838   */\n      and\n        /* \"#utility.yul\":17808:17838   */\n      swap4\n      pop\n        /* \"#utility.yul\":17881:17885   */\n      dup1\n        /* \"#utility.yul\":17871:17879   */\n      dup7\n        /* \"#utility.yul\":17867:17886   */\n      and\n        /* \"#utility.yul\":17860:17865   */\n      dup5\n        /* \"#utility.yul\":17857:17887   */\n      or\n        /* \"#utility.yul\":17847:17887   */\n      swap3\n      pop\n        /* \"#utility.yul\":17576:17893   */\n      pop\n      pop\n        /* \"#utility.yul\":17500:17893   */\n      swap4\n      swap3\n      pop\n      pop\n      pop\n      jump\t// out\n        /* \"#utility.yul\":17899:17959   */\n    tag_335:\n        /* \"#utility.yul\":17927:17930   */\n      0x00\n        /* \"#utility.yul\":17948:17953   */\n      dup2\n        /* \"#utility.yul\":17941:17953   */\n      swap1\n      pop\n        /* \"#utility.yul\":17899:17959   */\n      swap2\n      swap1\n      pop\n      jump\t// out\n        /* \"#utility.yul\":17965:18107   */\n    tag_336:\n        /* \"#utility.yul\":18015:18024   */\n      0x00\n        /* \"#utility.yul\":18048:18101   */\n      tag_531\n        /* \"#utility.yul\":18066:18100   */\n      tag_532\n        /* \"#utility.yul\":18075:18099   */\n      tag_533\n        /* \"#utility.yul\":18093:18098   */\n      dup5\n        /* \"#utility.yul\":18075:18099   */\n      tag_282\n      jump\t// in\n    tag_533:\n        /* \"#utility.yul\":18066:18100   */\n      tag_335\n      jump\t// in\n    tag_532:\n        /* \"#utility.yul\":18048:18101   */\n      tag_282\n      jump\t// in\n    tag_531:\n        /* \"#utility.yul\":18035:18101   */\n      swap1\n      pop\n        /* \"#utility.yul\":17965:18107   */\n      swap2\n      swap1\n      pop\n      jump\t// out\n        /* \"#utility.yul\":18113:18188   */\n    tag_337:\n        /* \"#utility.yul\":18156:18159   */\n      0x00\n        /* \"#utility.yul\":18177:18182   */\n      dup2\n        /* \"#utility.yul\":18170:18182   */\n      swap1\n      pop\n        /* \"#utility.yul\":18113:18188   */\n      swap2\n      swap1\n      pop\n      jump\t// out\n        /* \"#utility.yul\":18194:18463   */\n    tag_338:\n        /* \"#utility.yul\":18304:18343   */\n      tag_536\n        /* \"#utility.yul\":18335:18342   */\n      dup4\n        /* \"#utility.yul\":18304:18343   */\n      tag_336\n      jump\t// in\n    tag_536:\n        /* \"#utility.yul\":18365:18456   */\n      tag_537\n        /* \"#utility.yul\":18414:18455   */\n      tag_538\n        /* \"#utility.yul\":18438:18454   */\n      dup3\n        /* \"#utility.yul\":18414:18455   */\n      tag_337\n      jump\t// in\n    tag_538:\n        /* \"#utility.yul\":18406:18412   */\n      dup5\n        /* \"#utility.yul\":18399:18403   */\n      dup5\n        /* \"#utility.yul\":18393:18404   */\n      sload\n        /* \"#utility.yul\":18365:18456   */\n      tag_334\n      jump\t// in\n    tag_537:\n        /* \"#utility.yul\":18359:18363   */\n      dup3\n        /* \"#utility.yul\":18352:18457   */\n      sstore\n        /* \"#utility.yul\":18270:18463   */\n      pop\n        /* \"#utility.yul\":18194:18463   */\n      pop\n      pop\n      pop\n      jump\t// out\n        /* \"#utility.yul\":18469:18542   */\n    tag_339:\n        /* \"#utility.yul\":18514:18517   */\n      0x00\n        /* \"#utility.yul\":18469:18542   */\n      swap1\n      jump\t// out\n        /* \"#utility.yul\":18548:18737   */\n    tag_340:\n        /* \"#utility.yul\":18625:18657   */\n      tag_541\n      tag_339\n      jump\t// in\n    tag_541:\n        /* \"#utility.yul\":18666:18731   */\n      tag_542\n        /* \"#utility.yul\":18724:18730   */\n      dup2\n        /* \"#utility.yul\":18716:18722   */\n      dup5\n        /* \"#utility.yul\":18710:18714   */\n      dup5\n        /* \"#utility.yul\":18666:18731   */\n      tag_338\n      jump\t// in\n    tag_542:\n        /* \"#utility.yul\":18601:18737   */\n      pop\n        /* \"#utility.yul\":18548:18737   */\n      pop\n      pop\n      jump\t// out\n        /* \"#utility.yul\":18743:18929   */\n    tag_341:\n        /* \"#utility.yul\":18803:18923   */\n    tag_544:\n        /* \"#utility.yul\":18820:18823   */\n      dup2\n        /* \"#utility.yul\":18813:18818   */\n      dup2\n        /* \"#utility.yul\":18810:18824   */\n      lt\n        /* \"#utility.yul\":18803:18923   */\n      iszero\n      tag_546\n      jumpi\n        /* \"#utility.yul\":18874:18913   */\n      tag_547\n        /* \"#utility.yul\":18911:18912   */\n      0x00\n        /* \"#utility.yul\":18904:18909   */\n      dup3\n        /* \"#utility.yul\":18874:18913   */\n      tag_340\n      jump\t// in\n    tag_547:\n        /* \"#utility.yul\":18847:18848   */\n      0x01\n        /* \"#utility.yul\":18840:18845   */\n      dup2\n        /* \"#utility.yul\":18836:18849   */\n      add\n        /* \"#utility.yul\":18827:18849   */\n      swap1\n      pop\n        /* \"#utility.yul\":18803:18923   */\n      jump(tag_544)\n    tag_546:\n        /* \"#utility.yul\":18743:18929   */\n      pop\n      pop\n      jump\t// out\n        /* \"#utility.yul\":18935:19478   */\n    tag_342:\n        /* \"#utility.yul\":19036:19038   */\n      0x1f\n        /* \"#utility.yul\":19031:19034   */\n      dup3\n        /* \"#utility.yul\":19028:19039   */\n      gt\n        /* \"#utility.yul\":19025:19471   */\n      iszero\n      tag_549\n      jumpi\n        /* \"#utility.yul\":19070:19108   */\n      tag_550\n        /* \"#utility.yul\":19102:19107   */\n      dup2\n        /* \"#utility.yul\":19070:19108   */\n      tag_331\n      jump\t// in\n    tag_550:\n        /* \"#utility.yul\":19154:19183   */\n      tag_551\n        /* \"#utility.yul\":19172:19182   */\n      dup5\n        /* \"#utility.yul\":19154:19183   */\n      tag_332\n      jump\t// in\n    tag_551:\n        /* \"#utility.yul\":19144:19152   */\n      dup2\n        /* \"#utility.yul\":19140:19184   */\n      add\n        /* \"#utility.yul\":19337:19339   */\n      0x20\n        /* \"#utility.yul\":19325:19335   */\n      dup6\n        /* \"#utility.yul\":19322:19340   */\n      lt\n        /* \"#utility.yul\":19319:19368   */\n      iszero\n      tag_552\n      jumpi\n        /* \"#utility.yul\":19358:19366   */\n      dup2\n        /* \"#utility.yul\":19343:19366   */\n      swap1\n      pop\n        /* \"#utility.yul\":19319:19368   */\n    tag_552:\n        /* \"#utility.yul\":19381:19461   */\n      tag_553\n        /* \"#utility.yul\":19437:19459   */\n      tag_554\n        /* \"#utility.yul\":19455:19458   */\n      dup6\n        /* \"#utility.yul\":19437:19459   */\n      tag_332\n      jump\t// in\n    tag_554:\n        /* \"#utility.yul\":19427:19435   */\n      dup4\n        /* \"#utility.yul\":19423:19460   */\n      add\n        /* \"#utility.yul\":19410:19421   */\n      dup3\n        /* \"#utility.yul\":19381:19461   */\n      tag_341\n      jump\t// in\n    tag_553:\n        /* \"#utility.yul\":19040:19471   */\n      pop\n      pop\n        /* \"#utility.yul\":19025:19471   */\n    tag_549:\n        /* \"#utility.yul\":18935:19478   */\n      pop\n      pop\n      pop\n      jump\t// out\n        /* \"#utility.yul\":19484:19601   */\n    tag_343:\n        /* \"#utility.yul\":19538:19546   */\n      0x00\n        /* \"#utility.yul\":19588:19593   */\n      dup3\n        /* \"#utility.yul\":19582:19586   */\n      dup3\n        /* \"#utility.yul\":19578:19594   */\n      shr\n        /* \"#utility.yul\":19557:19594   */\n      swap1\n      pop\n        /* \"#utility.yul\":19484:19601   */\n      swap3\n      swap2\n      pop\n      pop\n      jump\t// out\n        /* \"#utility.yul\":19607:19776   */\n    tag_344:\n        /* \"#utility.yul\":19651:19657   */\n      0x00\n        /* \"#utility.yul\":19684:19735   */\n      tag_557\n        /* \"#utility.yul\":19732:19733   */\n      0x00\n        /* \"#utility.yul\":19728:19734   */\n      not\n        /* \"#utility.yul\":19720:19725   */\n      dup5\n        /* \"#utility.yul\":19717:19718   */\n      0x08\n        /* \"#utility.yul\":19713:19726   */\n      mul\n        /* \"#utility.yul\":19684:19735   */\n      tag_343\n      jump\t// in\n    tag_557:\n        /* \"#utility.yul\":19680:19736   */\n      not\n        /* \"#utility.yul\":19765:19769   */\n      dup1\n        /* \"#utility.yul\":19759:19763   */\n      dup4\n        /* \"#utility.yul\":19755:19770   */\n      and\n        /* \"#utility.yul\":19745:19770   */\n      swap2\n      pop\n        /* \"#utility.yul\":19658:19776   */\n      pop\n        /* \"#utility.yul\":19607:19776   */\n      swap3\n      swap2\n      pop\n      pop\n      jump\t// out\n        /* \"#utility.yul\":19781:20076   */\n    tag_345:\n        /* \"#utility.yul\":19857:19861   */\n      0x00\n        /* \"#utility.yul\":20003:20032   */\n      tag_559\n        /* \"#utility.yul\":20028:20031   */\n      dup4\n        /* \"#utility.yul\":20022:20026   */\n      dup4\n        /* \"#utility.yul\":20003:20032   */\n      tag_344\n      jump\t// in\n    tag_559:\n        /* \"#utility.yul\":19995:20032   */\n      swap2\n      pop\n        /* \"#utility.yul\":20065:20068   */\n      dup3\n        /* \"#utility.yul\":20062:20063   */\n      0x02\n        /* \"#utility.yul\":20058:20069   */\n      mul\n        /* \"#utility.yul\":20052:20056   */\n      dup3\n        /* \"#utility.yul\":20049:20070   */\n      or\n        /* \"#utility.yul\":20041:20070   */\n      swap1\n      pop\n        /* \"#utility.yul\":19781:20076   */\n      swap3\n      swap2\n      pop\n      pop\n      jump\t// out\n        /* \"#utility.yul\":20081:21476   */\n    tag_209:\n        /* \"#utility.yul\":20198:20235   */\n      tag_561\n        /* \"#utility.yul\":20231:20234   */\n      dup3\n        /* \"#utility.yul\":20198:20235   */\n      tag_284\n      jump\t// in\n    tag_561:\n        /* \"#utility.yul\":20300:20318   */\n      0xffffffffffffffff\n        /* \"#utility.yul\":20292:20298   */\n      dup2\n        /* \"#utility.yul\":20289:20319   */\n      gt\n        /* \"#utility.yul\":20286:20342   */\n      iszero\n      tag_562\n      jumpi\n        /* \"#utility.yul\":20322:20340   */\n      tag_563\n      tag_330\n      jump\t// in\n    tag_563:\n        /* \"#utility.yul\":20286:20342   */\n    tag_562:\n        /* \"#utility.yul\":20366:20404   */\n      tag_564\n        /* \"#utility.yul\":20398:20402   */\n      dup3\n        /* \"#utility.yul\":20392:20403   */\n      sload\n        /* \"#utility.yul\":20366:20404   */\n      tag_127\n      jump\t// in\n    tag_564:\n        /* \"#utility.yul\":20451:20518   */\n      tag_565\n        /* \"#utility.yul\":20511:20517   */\n      dup3\n        /* \"#utility.yul\":20503:20509   */\n      dup3\n        /* \"#utility.yul\":20497:20501   */\n      dup6\n        /* \"#utility.yul\":20451:20518   */\n      tag_342\n      jump\t// in\n    tag_565:\n        /* \"#utility.yul\":20545:20546   */\n      0x00\n        /* \"#utility.yul\":20569:20573   */\n      0x20\n        /* \"#utility.yul\":20556:20573   */\n      swap1\n      pop\n        /* \"#utility.yul\":20601:20603   */\n      0x1f\n        /* \"#utility.yul\":20593:20599   */\n      dup4\n        /* \"#utility.yul\":20590:20604   */\n      gt\n        /* \"#utility.yul\":20618:20619   */\n      0x01\n        /* \"#utility.yul\":20613:21231   */\n      dup2\n      eq\n      tag_567\n      jumpi\n        /* \"#utility.yul\":21275:21276   */\n      0x00\n        /* \"#utility.yul\":21292:21298   */\n      dup5\n        /* \"#utility.yul\":21289:21366   */\n      iszero\n      tag_568\n      jumpi\n        /* \"#utility.yul\":21341:21350   */\n      dup3\n        /* \"#utility.yul\":21336:21339   */\n      dup8\n        /* \"#utility.yul\":21332:21351   */\n      add\n        /* \"#utility.yul\":21326:21352   */\n      mload\n        /* \"#utility.yul\":21317:21352   */\n      swap1\n      pop\n        /* \"#utility.yul\":21289:21366   */\n    tag_568:\n        /* \"#utility.yul\":21392:21459   */\n      tag_569\n        /* \"#utility.yul\":21452:21458   */\n      dup6\n        /* \"#utility.yul\":21445:21450   */\n      dup3\n        /* \"#utility.yul\":21392:21459   */\n      tag_345\n      jump\t// in\n    tag_569:\n        /* \"#utility.yul\":21386:21390   */\n      dup7\n        /* \"#utility.yul\":21379:21460   */\n      sstore\n        /* \"#utility.yul\":21248:21470   */\n      pop\n        /* \"#utility.yul\":20583:21470   */\n      jump(tag_566)\n        /* \"#utility.yul\":20613:21231   */\n    tag_567:\n        /* \"#utility.yul\":20665:20669   */\n      0x1f\n        /* \"#utility.yul\":20661:20670   */\n      not\n        /* \"#utility.yul\":20653:20659   */\n      dup5\n        /* \"#utility.yul\":20649:20671   */\n      and\n        /* \"#utility.yul\":20699:20736   */\n      tag_570\n        /* \"#utility.yul\":20731:20735   */\n      dup7\n        /* \"#utility.yul\":20699:20736   */\n      tag_331\n      jump\t// in\n    tag_570:\n        /* \"#utility.yul\":20758:20759   */\n      0x00\n        /* \"#utility.yul\":20772:20980   */\n    tag_571:\n        /* \"#utility.yul\":20786:20793   */\n      dup3\n        /* \"#utility.yul\":20783:20784   */\n      dup2\n        /* \"#utility.yul\":20780:20794   */\n      lt\n        /* \"#utility.yul\":20772:20980   */\n      iszero\n      tag_573\n      jumpi\n        /* \"#utility.yul\":20865:20874   */\n      dup5\n        /* \"#utility.yul\":20860:20863   */\n      dup10\n        /* \"#utility.yul\":20856:20875   */\n      add\n        /* \"#utility.yul\":20850:20876   */\n      mload\n        /* \"#utility.yul\":20842:20848   */\n      dup3\n        /* \"#utility.yul\":20835:20877   */\n      sstore\n        /* \"#utility.yul\":20916:20917   */\n      0x01\n        /* \"#utility.yul\":20908:20914   */\n      dup3\n        /* \"#utility.yul\":20904:20918   */\n      add\n        /* \"#utility.yul\":20894:20918   */\n      swap2\n      pop\n        /* \"#utility.yul\":20963:20965   */\n      0x20\n        /* \"#utility.yul\":20952:20961   */\n      dup6\n        /* \"#utility.yul\":20948:20966   */\n      add\n        /* \"#utility.yul\":20935:20966   */\n      swap5\n      pop\n        /* \"#utility.yul\":20809:20813   */\n      0x20\n        /* \"#utility.yul\":20806:20807   */\n      dup2\n        /* \"#utility.yul\":20802:20814   */\n      add\n        /* \"#utility.yul\":20797:20814   */\n      swap1\n      pop\n        /* \"#utility.yul\":20772:20980   */\n      jump(tag_571)\n    tag_573:\n        /* \"#utility.yul\":21008:21014   */\n      dup7\n        /* \"#utility.yul\":20999:21006   */\n      dup4\n        /* \"#utility.yul\":20996:21015   */\n      lt\n        /* \"#utility.yul\":20993:21172   */\n      iszero\n      tag_574\n      jumpi\n        /* \"#utility.yul\":21066:21075   */\n      dup5\n        /* \"#utility.yul\":21061:21064   */\n      dup10\n        /* \"#utility.yul\":21057:21076   */\n      add\n        /* \"#utility.yul\":21051:21077   */\n      mload\n        /* \"#utility.yul\":21109:21157   */\n      tag_575\n        /* \"#utility.yul\":21151:21155   */\n      0x1f\n        /* \"#utility.yul\":21143:21149   */\n      dup10\n        /* \"#utility.yul\":21139:21156   */\n      and\n        /* \"#utility.yul\":21128:21137   */\n      dup3\n        /* \"#utility.yul\":21109:21157   */\n      tag_344\n      jump\t// in\n    tag_575:\n        /* \"#utility.yul\":21101:21107   */\n      dup4\n        /* \"#utility.yul\":21094:21158   */\n      sstore\n        /* \"#utility.yul\":21016:21172   */\n      pop\n        /* \"#utility.yul\":20993:21172   */\n    tag_574:\n        /* \"#utility.yul\":21218:21219   */\n      0x01\n        /* \"#utility.yul\":21214:21215   */\n      0x02\n        /* \"#utility.yul\":21206:21212   */\n      dup9\n        /* \"#utility.yul\":21202:21216   */\n      mul\n        /* \"#utility.yul\":21198:21220   */\n      add\n        /* \"#utility.yul\":21192:21196   */\n      dup9\n        /* \"#utility.yul\":21185:21221   */\n      sstore\n        /* \"#utility.yul\":20620:21231   */\n      pop\n      pop\n      pop\n        /* \"#utility.yul\":20583:21470   */\n    tag_566:\n      pop\n        /* \"#utility.yul\":20173:21476   */\n      pop\n      pop\n      pop\n        /* \"#utility.yul\":20081:21476   */\n      pop\n      pop\n      jump\t// out\n        /* \"#utility.yul\":21482:21715   */\n    tag_219:\n        /* \"#utility.yul\":21521:21524   */\n      0x00\n        /* \"#utility.yul\":21544:21568   */\n      tag_577\n        /* \"#utility.yul\":21562:21567   */\n      dup3\n        /* \"#utility.yul\":21544:21568   */\n      tag_282\n      jump\t// in\n    tag_577:\n        /* \"#utility.yul\":21535:21568   */\n      swap2\n      pop\n        /* \"#utility.yul\":21590:21656   */\n      0xffffffffffffffffffffffffffffffffffffffffffffffffffffffffffffffff\n        /* \"#utility.yul\":21583:21588   */\n      dup3\n        /* \"#utility.yul\":21580:21657   */\n      sub\n        /* \"#utility.yul\":21577:21680   */\n      tag_578\n      jumpi\n        /* \"#utility.yul\":21660:21678   */\n      tag_579\n      tag_283\n      jump\t// in\n    tag_579:\n        /* \"#utility.yul\":21577:21680   */\n    tag_578:\n        /* \"#utility.yul\":21707:21708   */\n      0x01\n        /* \"#utility.yul\":21700:21705   */\n      dup3\n        /* \"#utility.yul\":21696:21709   */\n      add\n        /* \"#utility.yul\":21689:21709   */\n      swap1\n      pop\n        /* \"#utility.yul\":21482:21715   */\n      swap2\n      swap1\n      pop\n      jump\t// out\n        /* \"#utility.yul\":21721:21946   */\n    tag_346:\n        /* \"#utility.yul\":21861:21895   */\n      0x5468657265206973206e6f20706f6b656d6f6e2077686963682063616e206265\n        /* \"#utility.yul\":21857:21858   */\n      0x00\n        /* \"#utility.yul\":21849:21855   */\n      dup3\n        /* \"#utility.yul\":21845:21859   */\n      add\n        /* \"#utility.yul\":21838:21896   */\n      mstore\n        /* \"#utility.yul\":21930:21938   */\n      0x206d6f7665640000000000000000000000000000000000000000000000000000\n        /* \"#utility.yul\":21925:21927   */\n      0x20\n        /* \"#utility.yul\":21917:21923   */\n      dup3\n        /* \"#utility.yul\":21913:21928   */\n      add\n        /* \"#utility.yul\":21906:21939   */\n      mstore\n        /* \"#utility.yul\":21721:21946   */\n      pop\n      jump\t// out\n        /* \"#utility.yul\":21952:22318   */\n    tag_347:\n        /* \"#utility.yul\":22094:22097   */\n      0x00\n        /* \"#utility.yul\":22115:22182   */\n      tag_582\n        /* \"#utility.yul\":22179:22181   */\n      0x26\n        /* \"#utility.yul\":22174:22177   */\n      dup4\n        /* \"#utility.yul\":22115:22182   */\n      tag_285\n      jump\t// in\n    tag_582:\n        /* \"#utility.yul\":22108:22182   */\n      swap2\n      pop\n        /* \"#utility.yul\":22191:22284   */\n      tag_583\n        /* \"#utility.yul\":22280:22283   */\n      dup3\n        /* \"#utility.yul\":22191:22284   */\n      tag_346\n      jump\t// in\n    tag_583:\n        /* \"#utility.yul\":22309:22311   */\n      0x40\n        /* \"#utility.yul\":22304:22307   */\n      dup3\n        /* \"#utility.yul\":22300:22312   */\n      add\n        /* \"#utility.yul\":22293:22312   */\n      swap1\n      pop\n        /* \"#utility.yul\":21952:22318   */\n      swap2\n      swap1\n      pop\n      jump\t// out\n        /* \"#utility.yul\":22324:22743   */\n    tag_225:\n        /* \"#utility.yul\":22490:22494   */\n      0x00\n        /* \"#utility.yul\":22528:22530   */\n      0x20\n        /* \"#utility.yul\":22517:22526   */\n      dup3\n        /* \"#utility.yul\":22513:22531   */\n      add\n        /* \"#utility.yul\":22505:22531   */\n      swap1\n      pop\n        /* \"#utility.yul\":22577:22586   */\n      dup2\n        /* \"#utility.yul\":22571:22575   */\n      dup2\n        /* \"#utility.yul\":22567:22587   */\n      sub\n        /* \"#utility.yul\":22563:22564   */\n      0x00\n        /* \"#utility.yul\":22552:22561   */\n      dup4\n        /* \"#utility.yul\":22548:22565   */\n      add\n        /* \"#utility.yul\":22541:22588   */\n      mstore\n        /* \"#utility.yul\":22605:22736   */\n      tag_585\n        /* \"#utility.yul\":22731:22735   */\n      dup2\n        /* \"#utility.yul\":22605:22736   */\n      tag_347\n      jump\t// in\n    tag_585:\n        /* \"#utility.yul\":22597:22736   */\n      swap1\n      pop\n        /* \"#utility.yul\":22324:22743   */\n      swap2\n      swap1\n      pop\n      jump\t// out\n        /* \"#utility.yul\":22749:22922   */\n    tag_348:\n        /* \"#utility.yul\":22889:22914   */\n      0x496e76616c696420696e64657820746f2072656d6f7665000000000000000000\n        /* \"#utility.yul\":22885:22886   */\n      0x00\n        /* \"#utility.yul\":22877:22883   */\n      dup3\n        /* \"#utility.yul\":22873:22887   */\n      add\n        /* \"#utility.yul\":22866:22915   */\n      mstore\n        /* \"#utility.yul\":22749:22922   */\n      pop\n      jump\t// out\n        /* \"#utility.yul\":22928:23294   */\n    tag_349:\n        /* \"#utility.yul\":23070:23073   */\n      0x00\n        /* \"#utility.yul\":23091:23158   */\n      tag_588\n        /* \"#utility.yul\":23155:23157   */\n      0x17\n        /* \"#utility.yul\":23150:23153   */\n      dup4\n        /* \"#utility.yul\":23091:23158   */\n      tag_285\n      jump\t// in\n    tag_588:\n        /* \"#utility.yul\":23084:23158   */\n      swap2\n      pop\n        /* \"#utility.yul\":23167:23260   */\n      tag_589\n        /* \"#utility.yul\":23256:23259   */\n      dup3\n        /* \"#utility.yul\":23167:23260   */\n      tag_348\n      jump\t// in\n    tag_589:\n        /* \"#utility.yul\":23285:23287   */\n      0x20\n        /* \"#utility.yul\":23280:23283   */\n      dup3\n        /* \"#utility.yul\":23276:23288   */\n      add\n        /* \"#utility.yul\":23269:23288   */\n      swap1\n      pop\n        /* \"#utility.yul\":22928:23294   */\n      swap2\n      swap1\n      pop\n      jump\t// out\n        /* \"#utility.yul\":23300:23719   */\n    tag_229:\n        /* \"#utility.yul\":23466:23470   */\n      0x00\n        /* \"#utility.yul\":23504:23506   */\n      0x20\n        /* \"#utility.yul\":23493:23502   */\n      dup3\n        /* \"#utility.yul\":23489:23507   */\n      add\n        /* \"#utility.yul\":23481:23507   */\n      swap1\n      pop\n        /* \"#utility.yul\":23553:23562   */\n      dup2\n        /* \"#utility.yul\":23547:23551   */\n      dup2\n        /* \"#utility.yul\":23543:23563   */\n      sub\n        /* \"#utility.yul\":23539:23540   */\n      0x00\n        /* \"#utility.yul\":23528:23537   */\n      dup4\n        /* \"#utility.yul\":23524:23541   */\n      add\n        /* \"#utility.yul\":23517:23564   */\n      mstore\n        /* \"#utility.yul\":23581:23712   */\n      tag_591\n        /* \"#utility.yul\":23707:23711   */\n      dup2\n        /* \"#utility.yul\":23581:23712   */\n      tag_349\n      jump\t// in\n    tag_591:\n        /* \"#utility.yul\":23573:23712   */\n      swap1\n      pop\n        /* \"#utility.yul\":23300:23719   */\n      swap2\n      swap1\n      pop\n      jump\t// out\n        /* \"#utility.yul\":23725:23874   */\n    tag_350:\n        /* \"#utility.yul\":23774:23780   */\n      0x00\n        /* \"#utility.yul\":23808:23813   */\n      dup2\n        /* \"#utility.yul\":23802:23814   */\n      sload\n        /* \"#utility.yul\":23792:23814   */\n      swap1\n      pop\n        /* \"#utility.yul\":23834:23867   */\n      tag_593\n        /* \"#utility.yul\":23860:23866   */\n      dup2\n        /* \"#utility.yul\":23834:23867   */\n      tag_127\n      jump\t// in\n    tag_593:\n        /* \"#utility.yul\":23824:23867   */\n      swap1\n      pop\n        /* \"#utility.yul\":23725:23874   */\n      swap2\n      swap1\n      pop\n      jump\t// out\n        /* \"#utility.yul\":23880:25331   */\n    tag_237:\n        /* \"#utility.yul\":23991:23994   */\n      dup2\n        /* \"#utility.yul\":23985:23989   */\n      dup2\n        /* \"#utility.yul\":23982:23995   */\n      sub\n        /* \"#utility.yul\":23979:24005   */\n      tag_595\n      jumpi\n        /* \"#utility.yul\":23998:24003   */\n      pop\n      pop\n      jump(tag_594)\n        /* \"#utility.yul\":23979:24005   */\n    tag_595:\n        /* \"#utility.yul\":24029:24063   */\n      tag_596\n        /* \"#utility.yul\":24059:24062   */\n      dup3\n        /* \"#utility.yul\":24029:24063   */\n      tag_350\n      jump\t// in\n    tag_596:\n        /* \"#utility.yul\":24128:24146   */\n      0xffffffffffffffff\n        /* \"#utility.yul\":24120:24126   */\n      dup2\n        /* \"#utility.yul\":24117:24147   */\n      gt\n        /* \"#utility.yul\":24114:24170   */\n      iszero\n      tag_597\n      jumpi\n        /* \"#utility.yul\":24150:24168   */\n      tag_598\n      tag_330\n      jump\t// in\n    tag_598:\n        /* \"#utility.yul\":24114:24170   */\n    tag_597:\n        /* \"#utility.yul\":24194:24232   */\n      tag_599\n        /* \"#utility.yul\":24226:24230   */\n      dup3\n        /* \"#utility.yul\":24220:24231   */\n      sload\n        /* \"#utility.yul\":24194:24232   */\n      tag_127\n      jump\t// in\n    tag_599:\n        /* \"#utility.yul\":24279:24346   */\n      tag_600\n        /* \"#utility.yul\":24339:24345   */\n      dup3\n        /* \"#utility.yul\":24331:24337   */\n      dup3\n        /* \"#utility.yul\":24325:24329   */\n      dup6\n        /* \"#utility.yul\":24279:24346   */\n      tag_342\n      jump\t// in\n    tag_600:\n        /* \"#utility.yul\":24373:24374   */\n      0x00\n        /* \"#utility.yul\":24402:24404   */\n      0x1f\n        /* \"#utility.yul\":24394:24400   */\n      dup4\n        /* \"#utility.yul\":24391:24405   */\n      gt\n        /* \"#utility.yul\":24419:24420   */\n      0x01\n        /* \"#utility.yul\":24414:25086   */\n      dup2\n      eq\n      tag_602\n      jumpi\n        /* \"#utility.yul\":25130:25131   */\n      0x00\n        /* \"#utility.yul\":25147:25153   */\n      dup5\n        /* \"#utility.yul\":25144:25221   */\n      iszero\n      tag_603\n      jumpi\n        /* \"#utility.yul\":25196:25205   */\n      dup3\n        /* \"#utility.yul\":25191:25194   */\n      dup8\n        /* \"#utility.yul\":25187:25206   */\n      add\n        /* \"#utility.yul\":25181:25207   */\n      sload\n        /* \"#utility.yul\":25172:25207   */\n      swap1\n      pop\n        /* \"#utility.yul\":25144:25221   */\n    tag_603:\n        /* \"#utility.yul\":25247:25314   */\n      tag_604\n        /* \"#utility.yul\":25307:25313   */\n      dup6\n        /* \"#utility.yul\":25300:25305   */\n      dup3\n        /* \"#utility.yul\":25247:25314   */\n      tag_345\n      jump\t// in\n    tag_604:\n        /* \"#utility.yul\":25241:25245   */\n      dup7\n        /* \"#utility.yul\":25234:25315   */\n      sstore\n        /* \"#utility.yul\":25103:25325   */\n      pop\n        /* \"#utility.yul\":24384:25325   */\n      jump(tag_601)\n        /* \"#utility.yul\":24414:25086   */\n    tag_602:\n        /* \"#utility.yul\":24466:24470   */\n      0x1f\n        /* \"#utility.yul\":24462:24471   */\n      not\n        /* \"#utility.yul\":24454:24460   */\n      dup5\n        /* \"#utility.yul\":24450:24472   */\n      and\n        /* \"#utility.yul\":24492:24528   */\n      tag_605\n        /* \"#utility.yul\":24524:24527   */\n      dup8\n        /* \"#utility.yul\":24492:24528   */\n      tag_331\n      jump\t// in\n    tag_605:\n        /* \"#utility.yul\":24485:24528   */\n      swap7\n      pop\n        /* \"#utility.yul\":24555:24592   */\n      tag_606\n        /* \"#utility.yul\":24587:24591   */\n      dup7\n        /* \"#utility.yul\":24555:24592   */\n      tag_331\n      jump\t// in\n    tag_606:\n        /* \"#utility.yul\":24614:24615   */\n      0x00\n        /* \"#utility.yul\":24628:24835   */\n    tag_607:\n        /* \"#utility.yul\":24642:24649   */\n      dup3\n        /* \"#utility.yul\":24639:24640   */\n      dup2\n        /* \"#utility.yul\":24636:24650   */\n      lt\n        /* \"#utility.yul\":24628:24835   */\n      iszero\n      tag_609\n      jumpi\n        /* \"#utility.yul\":24721:24730   */\n      dup5\n        /* \"#utility.yul\":24716:24719   */\n      dup10\n        /* \"#utility.yul\":24712:24731   */\n      add\n        /* \"#utility.yul\":24706:24732   */\n      sload\n        /* \"#utility.yul\":24698:24704   */\n      dup3\n        /* \"#utility.yul\":24691:24733   */\n      sstore\n        /* \"#utility.yul\":24772:24773   */\n      0x01\n        /* \"#utility.yul\":24764:24770   */\n      dup3\n        /* \"#utility.yul\":24760:24774   */\n      add\n        /* \"#utility.yul\":24750:24774   */\n      swap2\n      pop\n        /* \"#utility.yul\":24819:24820   */\n      0x01\n        /* \"#utility.yul\":24808:24817   */\n      dup6\n        /* \"#utility.yul\":24804:24821   */\n      add\n        /* \"#utility.yul\":24791:24821   */\n      swap5\n      pop\n        /* \"#utility.yul\":24665:24669   */\n      0x20\n        /* \"#utility.yul\":24662:24663   */\n      dup2\n        /* \"#utility.yul\":24658:24670   */\n      add\n        /* \"#utility.yul\":24653:24670   */\n      swap1\n      pop\n        /* \"#utility.yul\":24628:24835   */\n      jump(tag_607)\n    tag_609:\n        /* \"#utility.yul\":24863:24869   */\n      dup7\n        /* \"#utility.yul\":24854:24861   */\n      dup4\n        /* \"#utility.yul\":24851:24870   */\n      lt\n        /* \"#utility.yul\":24848:25027   */\n      iszero\n      tag_610\n      jumpi\n        /* \"#utility.yul\":24921:24930   */\n      dup5\n        /* \"#utility.yul\":24916:24919   */\n      dup10\n        /* \"#utility.yul\":24912:24931   */\n      add\n        /* \"#utility.yul\":24906:24932   */\n      sload\n        /* \"#utility.yul\":24964:25012   */\n      tag_611\n        /* \"#utility.yul\":25006:25010   */\n      0x1f\n        /* \"#utility.yul\":24998:25004   */\n      dup10\n        /* \"#utility.yul\":24994:25011   */\n      and\n        /* \"#utility.yul\":24983:24992   */\n      dup3\n        /* \"#utility.yul\":24964:25012   */\n      tag_344\n      jump\t// in\n    tag_611:\n        /* \"#utility.yul\":24956:24962   */\n      dup4\n        /* \"#utility.yul\":24949:25013   */\n      sstore\n        /* \"#utility.yul\":24871:25027   */\n      pop\n        /* \"#utility.yul\":24848:25027   */\n    tag_610:\n        /* \"#utility.yul\":25073:25074   */\n      0x01\n        /* \"#utility.yul\":25069:25070   */\n      0x02\n        /* \"#utility.yul\":25061:25067   */\n      dup9\n        /* \"#utility.yul\":25057:25071   */\n      mul\n        /* \"#utility.yul\":25053:25075   */\n      add\n        /* \"#utility.yul\":25047:25051   */\n      dup9\n        /* \"#utility.yul\":25040:25076   */\n      sstore\n        /* \"#utility.yul\":24421:25086   */\n      pop\n      pop\n      pop\n        /* \"#utility.yul\":24384:25325   */\n    tag_601:\n      pop\n        /* \"#utility.yul\":23969:25331   */\n      pop\n      pop\n      pop\n        /* \"#utility.yul\":23880:25331   */\n      pop\n      pop\n    tag_594:\n      jump\t// out\n        /* \"#utility.yul\":25337:25517   */\n    tag_241:\n        /* \"#utility.yul\":25385:25462   */\n      0x4e487b7100000000000000000000000000000000000000000000000000000000\n        /* \"#utility.yul\":25382:25383   */\n      0x00\n        /* \"#utility.yul\":25375:25463   */\n      mstore\n        /* \"#utility.yul\":25482:25486   */\n      0x31\n        /* \"#utility.yul\":25479:25480   */\n      0x04\n        /* \"#utility.yul\":25472:25487   */\n      mstore\n        /* \"#utility.yul\":25506:25510   */\n      0x24\n        /* \"#utility.yul\":25503:25504   */\n      0x00\n        /* \"#utility.yul\":25496:25511   */\n      revert\n\n    auxdata: 0xa26469706673582212207b6e88e021d488333214032cd5394df4fbecbcddbc0084bd9d0d8f57acaf076564736f6c63430008130033\n}\n",
				"bytecode": {
					"linkReferences": {},
					"object": "60806040526012600260006101000a81548160ff021916908360ff160217905550683635c9adc5dea0000060075560405180606001604052806040518060400160405280600781526020017f50696b616368750000000000000000000000000000000000000000000000000081525081526020016040518060400160405280600581526020017f4b6f62756b00000000000000000000000000000000000000000000000000000081525081526020016040518060400160405280600a81526020017f436861726d616e646572000000000000000000000000000000000000000000008152508152506008906003620000f99291906200030f565b5060405180606001604052806040518060a0016040528060638152602001620031ba6063913981526020016040518060c00160405280608481526020016200328e6084913981526020016040518060a00160405280607181526020016200321d607191398152506009906003620001729291906200030f565b503480156200018057600080fd5b506040518060400160405280600781526020017f506f6b656d6f6e000000000000000000000000000000000000000000000000008152506040518060400160405280600381526020017f504f4b000000000000000000000000000000000000000000000000000000000081525061271033600460006101000a81548173ffffffffffffffffffffffffffffffffffffffff021916908373ffffffffffffffffffffffffffffffffffffffff160217905550826000908162000242919062000676565b50816001908162000254919062000676565b5062000290600260009054906101000a900460ff16600a620002779190620008ed565b826200028491906200093e565b6200029960201b60201c565b505050620009c4565b80600560003373ffffffffffffffffffffffffffffffffffffffff1673ffffffffffffffffffffffffffffffffffffffff1681526020019081526020016000206000828254620002ea919062000989565b92505081905550806003600082825462000305919062000989565b9250508190555050565b8280548282559060005260206000209081019282156200035c579160200282015b828111156200035b5782518290816200034a919062000676565b509160200191906001019062000330565b5b5090506200036b91906200036f565b5090565b5b8082111562000393576000818162000389919062000397565b5060010162000370565b5090565b508054620003a59062000465565b6000825580601f10620003b95750620003da565b601f016020900490600052602060002090810190620003d99190620003dd565b5b50565b5b80821115620003f8576000816000905550600101620003de565b5090565b600081519050919050565b7f4e487b7100000000000000000000000000000000000000000000000000000000600052604160045260246000fd5b7f4e487b7100000000000000000000000000000000000000000000000000000000600052602260045260246000fd5b600060028204905060018216806200047e57607f821691505b60208210810362000494576200049362000436565b5b50919050565b60008190508160005260206000209050919050565b60006020601f8301049050919050565b600082821b905092915050565b600060088302620004fe7fffffffffffffffffffffffffffffffffffffffffffffffffffffffffffffffff82620004bf565b6200050a8683620004bf565b95508019841693508086168417925050509392505050565b6000819050919050565b6000819050919050565b600062000557620005516200054b8462000522565b6200052c565b62000522565b9050919050565b6000819050919050565b620005738362000536565b6200058b62000582826200055e565b848454620004cc565b825550505050565b600090565b620005a262000593565b620005af81848462000568565b505050565b5b81811015620005d757620005cb60008262000598565b600181019050620005b5565b5050565b601f8211156200062657620005f0816200049a565b620005fb84620004af565b810160208510156200060b578190505b620006236200061a85620004af565b830182620005b4565b50505b505050565b600082821c905092915050565b60006200064b600019846008026200062b565b1980831691505092915050565b600062000666838362000638565b9150826002028217905092915050565b6200068182620003fc565b67ffffffffffffffff8111156200069d576200069c62000407565b5b620006a9825462000465565b620006b6828285620005db565b600060209050601f831160018114620006ee5760008415620006d9578287015190505b620006e5858262000658565b86555062000755565b601f198416620006fe866200049a565b60005b82811015620007285784890151825560018201915060208501945060208101905062000701565b8683101562000748578489015162000744601f89168262000638565b8355505b6001600288020188555050505b505050505050565b7f4e487b7100000000000000000000000000000000000000000000000000000000600052601160045260246000fd5b60008160011c9050919050565b6000808291508390505b6001851115620007eb57808604811115620007c357620007c26200075d565b5b6001851615620007d35780820291505b8081029050620007e3856200078c565b9450620007a3565b94509492505050565b600082620008065760019050620008d9565b81620008165760009050620008d9565b81600181146200082f57600281146200083a5762000870565b6001915050620008d9565b60ff8411156200084f576200084e6200075d565b5b8360020a9150848211156200086957620008686200075d565b5b50620008d9565b5060208310610133831016604e8410600b8410161715620008aa5782820a905083811115620008a457620008a36200075d565b5b620008d9565b620008b9848484600162000799565b92509050818404811115620008d357620008d26200075d565b5b81810290505b9392505050565b600060ff82169050919050565b6000620008fa8262000522565b91506200090783620008e0565b9250620009367fffffffffffffffffffffffffffffffffffffffffffffffffffffffffffffffff8484620007f4565b905092915050565b60006200094b8262000522565b9150620009588362000522565b9250828202620009688162000522565b915082820484148315176200098257620009816200075d565b5b5092915050565b6000620009968262000522565b9150620009a38362000522565b9250828201905080821115620009be57620009bd6200075d565b5b92915050565b6127e680620009d46000396000f3fe6080604052600436106101025760003560e01c806342966c681161009557806395d89b411161006457806395d89b4114610529578063a9059cbb14610554578063c78bc15f14610591578063d3beb5da146105a8578063dd62ed3e146105d1576102b5565b806342966c681461046d57806370a0823114610496578063868babb0146104d357806387e24c72146104fe576102b5565b806327e235e3116100d157806327e235e31461038a578063313ce567146103c7578063365b98b2146103f257806336e604771461042f576102b5565b806306fdde03146102ba578063095ea7b3146102e557806318160ddd1461032257806323b872dd1461034d576102b5565b366102b557600060c8346101169190611a6b565b90508060056000600460009054906101000a900473ffffffffffffffffffffffffffffffffffffffff1673ffffffffffffffffffffffffffffffffffffffff1673ffffffffffffffffffffffffffffffffffffffff16815260200190815260200160002054101561018657600080fd5b8060056000600460009054906101000a900473ffffffffffffffffffffffffffffffffffffffff1673ffffffffffffffffffffffffffffffffffffffff1673ffffffffffffffffffffffffffffffffffffffff16815260200190815260200160002060008282546101f79190611aad565b9250508190555080600560003373ffffffffffffffffffffffffffffffffffffffff1673ffffffffffffffffffffffffffffffffffffffff168152602001908152602001600020600082825461024d9190611ae1565b92505081905550600460009054906101000a900473ffffffffffffffffffffffffffffffffffffffff1673ffffffffffffffffffffffffffffffffffffffff163373ffffffffffffffffffffffffffffffffffffffff16036102b3576102b28161060e565b5b005b600080fd5b3480156102c657600080fd5b506102cf610680565b6040516102dc9190611ba5565b60405180910390f35b3480156102f157600080fd5b5061030c60048036038101906103079190611c56565b61070e565b6040516103199190611cb1565b60405180910390f35b34801561032e57600080fd5b5061033761079b565b6040516103449190611cdb565b60405180910390f35b34801561035957600080fd5b50610374600480360381019061036f9190611cf6565b6107a1565b6040516103819190611cb1565b60405180910390f35b34801561039657600080fd5b506103b160048036038101906103ac9190611d49565b610976565b6040516103be9190611cdb565b60405180910390f35b3480156103d357600080fd5b506103dc61098e565b6040516103e99190611d92565b60405180910390f35b3480156103fe57600080fd5b5061041960048036038101906104149190611dad565b6109a1565b6040516104269190611de9565b60405180910390f35b34801561043b57600080fd5b5061045660048036038101906104519190611c56565b6109eb565b604051610464929190611e04565b60405180910390f35b34801561047957600080fd5b50610494600480360381019061048f9190611dad565b610b3c565b005b3480156104a257600080fd5b506104bd60048036038101906104b89190611d49565b610bae565b6040516104ca9190611cdb565b60405180910390f35b3480156104df57600080fd5b506104e8610bf7565b6040516104f59190611f15565b60405180910390f35b34801561050a57600080fd5b50610513610ca8565b6040516105209190612087565b60405180910390f35b34801561053557600080fd5b5061053e610e68565b60405161054b9190611ba5565b60405180910390f35b34801561056057600080fd5b5061057b60048036038101906105769190611c56565b610ef6565b6040516105889190611cb1565b60405180910390f35b34801561059d57600080fd5b506105a6610fae565b005b3480156105b457600080fd5b506105cf60048036038101906105ca9190611c56565b6113e8565b005b3480156105dd57600080fd5b506105f860048036038101906105f391906120a9565b6119b0565b6040516106059190611cdb565b60405180910390f35b80600560003373ffffffffffffffffffffffffffffffffffffffff1673ffffffffffffffffffffffffffffffffffffffff168152602001908152602001600020600082825461065d9190611ae1565b9250508190555080600360008282546106769190611ae1565b9250508190555050565b6000805461068d90612118565b80601f01602080910402602001604051908101604052809291908181526020018280546106b990612118565b80156107065780601f106106db57610100808354040283529160200191610706565b820191906000526020600020905b8154815290600101906020018083116106e957829003601f168201915b505050505081565b600081600660003373ffffffffffffffffffffffffffffffffffffffff1673ffffffffffffffffffffffffffffffffffffffff16815260200190815260200160002060008573ffffffffffffffffffffffffffffffffffffffff1673ffffffffffffffffffffffffffffffffffffffff168152602001908152602001600020819055506001905092915050565b60035481565b600081600660008673ffffffffffffffffffffffffffffffffffffffff1673ffffffffffffffffffffffffffffffffffffffff16815260200190815260200160002060003373ffffffffffffffffffffffffffffffffffffffff1673ffffffffffffffffffffffffffffffffffffffff16815260200190815260200160002054101561082c57600080fd5b81600660008673ffffffffffffffffffffffffffffffffffffffff1673ffffffffffffffffffffffffffffffffffffffff16815260200190815260200160002060003373ffffffffffffffffffffffffffffffffffffffff1673ffffffffffffffffffffffffffffffffffffffff16815260200190815260200160002060008282546108b89190611aad565b9250508190555081600560008673ffffffffffffffffffffffffffffffffffffffff1673ffffffffffffffffffffffffffffffffffffffff168152602001908152602001600020600082825461090e9190611aad565b9250508190555081600560008573ffffffffffffffffffffffffffffffffffffffff1673ffffffffffffffffffffffffffffffffffffffff16815260200190815260200160002060008282546109649190611ae1565b92505081905550600190509392505050565b60056020528060005260406000206000915090505481565b600260009054906101000a900460ff1681565b600b81815481106109b157600080fd5b906000526020600020016000915090508060000160009054906101000a900473ffffffffffffffffffffffffffffffffffffffff16905081565b600a6020528160005260406000208181548110610a0757600080fd5b906000526020600020906002020160009150915050806000018054610a2b90612118565b80601f0160208091040260200160405190810160405280929190818152602001828054610a5790612118565b8015610aa45780601f10610a7957610100808354040283529160200191610aa4565b820191906000526020600020905b815481529060010190602001808311610a8757829003601f168201915b505050505090806001018054610ab990612118565b80601f0160208091040260200160405190810160405280929190818152602001828054610ae590612118565b8015610b325780601f10610b0757610100808354040283529160200191610b32565b820191906000526020600020905b815481529060010190602001808311610b1557829003601f168201915b5050505050905082565b80600560003373ffffffffffffffffffffffffffffffffffffffff1673ffffffffffffffffffffffffffffffffffffffff1681526020019081526020016000206000828254610b8b9190611aad565b925050819055508060036000828254610ba49190611aad565b9250508190555050565b6000600560008373ffffffffffffffffffffffffffffffffffffffff1673ffffffffffffffffffffffffffffffffffffffff168152602001908152602001600020549050919050565b6060600b805480602002602001604051908101604052809291908181526020016000905b82821015610c9f578382906000526020600020016040518060200160405290816000820160009054906101000a900473ffffffffffffffffffffffffffffffffffffffff1673ffffffffffffffffffffffffffffffffffffffff1673ffffffffffffffffffffffffffffffffffffffff168152505081526020019060010190610c1b565b50505050905090565b6060600a60003373ffffffffffffffffffffffffffffffffffffffff1673ffffffffffffffffffffffffffffffffffffffff168152602001908152602001600020805480602002602001604051908101604052809291908181526020016000905b82821015610e5f5783829060005260206000209060020201604051806040016040529081600082018054610d3c90612118565b80601f0160208091040260200160405190810160405280929190818152602001828054610d6890612118565b8015610db55780601f10610d8a57610100808354040283529160200191610db5565b820191906000526020600020905b815481529060010190602001808311610d9857829003601f168201915b50505050508152602001600182018054610dce90612118565b80601f0160208091040260200160405190810160405280929190818152602001828054610dfa90612118565b8015610e475780601f10610e1c57610100808354040283529160200191610e47565b820191906000526020600020905b815481529060010190602001808311610e2a57829003601f168201915b50505050508152505081526020019060010190610d09565b50505050905090565b60018054610e7590612118565b80601f0160208091040260200160405190810160405280929190818152602001828054610ea190612118565b8015610eee5780601f10610ec357610100808354040283529160200191610eee565b820191906000526020600020905b815481529060010190602001808311610ed157829003601f168201915b505050505081565b600081600560003373ffffffffffffffffffffffffffffffffffffffff1673ffffffffffffffffffffffffffffffffffffffff1681526020019081526020016000206000828254610f479190611aad565b9250508190555081600560008573ffffffffffffffffffffffffffffffffffffffff1673ffffffffffffffffffffffffffffffffffffffff1681526020019081526020016000206000828254610f9d9190611ae1565b925050819055506001905092915050565b600754600560003373ffffffffffffffffffffffffffffffffffffffff1673ffffffffffffffffffffffffffffffffffffffff168152602001908152602001600020541015610ffc57600080fd5b600754600560003373ffffffffffffffffffffffffffffffffffffffff1673ffffffffffffffffffffffffffffffffffffffff168152602001908152602001600020600082825461104d9190611aad565b92505081905550600754600360008282546110689190611aad565b925050819055506000424143604051602001611086939291906121c4565b6040516020818303038152906040528051906020012060001c90506003816110ae9190612230565b9050600a60003373ffffffffffffffffffffffffffffffffffffffff1673ffffffffffffffffffffffffffffffffffffffff16815260200190815260200160002060405180604001604052806009848154811061110e5761110d612261565b5b90600052602060002001805461112390612118565b80601f016020809104026020016040519081016040528092919081815260200182805461114f90612118565b801561119c5780601f106111715761010080835404028352916020019161119c565b820191906000526020600020905b81548152906001019060200180831161117f57829003601f168201915b50505050508152602001600884815481106111ba576111b9612261565b5b9060005260206000200180546111cf90612118565b80601f01602080910402602001604051908101604052809291908181526020018280546111fb90612118565b80156112485780601f1061121d57610100808354040283529160200191611248565b820191906000526020600020905b81548152906001019060200180831161122b57829003601f168201915b50505050508152509080600181540180825580915050600190039060005260206000209060020201600090919091909150600082015181600001908161128e919061246b565b5060208201518160010190816112a4919061246b565b5050506000805b600b80549050811015611348573373ffffffffffffffffffffffffffffffffffffffff16600b82815481106112e3576112e2612261565b5b9060005260206000200160000160009054906101000a900473ffffffffffffffffffffffffffffffffffffffff1673ffffffffffffffffffffffffffffffffffffffff16036113355760019150611348565b80806113409061253d565b9150506112ab565b50806113e457600b60405180602001604052803373ffffffffffffffffffffffffffffffffffffffff168152509080600181540180825580915050600190039060005260206000200160009091909190915060008201518160000160006101000a81548173ffffffffffffffffffffffffffffffffffffffff021916908373ffffffffffffffffffffffffffffffffffffffff16021790555050505b5050565b6000600a60003373ffffffffffffffffffffffffffffffffffffffff1673ffffffffffffffffffffffffffffffffffffffff168152602001908152602001600020805490501161146d576040517f08c379a0000000000000000000000000000000000000000000000000000000008152600401611464906125f7565b60405180910390fd5b60006001600a60003373ffffffffffffffffffffffffffffffffffffffff1673ffffffffffffffffffffffffffffffffffffffff168152602001908152602001600020805490506114be9190611aad565b905080821115611503576040517f08c379a00000000000000000000000000000000000000000000000000000000081526004016114fa90612663565b60405180910390fd5b600a60003373ffffffffffffffffffffffffffffffffffffffff1673ffffffffffffffffffffffffffffffffffffffff168152602001908152602001600020818154811061155457611553612261565b5b9060005260206000209060020201600a60003373ffffffffffffffffffffffffffffffffffffffff1673ffffffffffffffffffffffffffffffffffffffff16815260200190815260200160002083815481106115b3576115b2612261565b5b9060005260206000209060020201600082018160000190816115d59190612699565b50600182018160010190816115ea9190612699565b50905050600a60003373ffffffffffffffffffffffffffffffffffffffff1673ffffffffffffffffffffffffffffffffffffffff16815260200190815260200160002080548061163d5761163c612781565b5b60019003818190600052602060002090600202016000808201600061166291906119d5565b60018201600061167291906119d5565b50509055600a60008473ffffffffffffffffffffffffffffffffffffffff1673ffffffffffffffffffffffffffffffffffffffff1681526020019081526020016000206040518060400160405280600985815481106116d4576116d3612261565b5b9060005260206000200180546116e990612118565b80601f016020809104026020016040519081016040528092919081815260200182805461171590612118565b80156117625780601f1061173757610100808354040283529160200191611762565b820191906000526020600020905b81548152906001019060200180831161174557829003601f168201915b50505050508152602001600885815481106117805761177f612261565b5b90600052602060002001805461179590612118565b80601f01602080910402602001604051908101604052809291908181526020018280546117c190612118565b801561180e5780601f106117e35761010080835404028352916020019161180e565b820191906000526020600020905b8154815290600101906020018083116117f157829003601f168201915b505050505081525090806001815401808255809150506001900390600052602060002090600202016000909190919091506000820151816000019081611854919061246b565b50602082015181600101908161186a919061246b565b5050506000805b600b8054905081101561190e578473ffffffffffffffffffffffffffffffffffffffff16600b82815481106118a9576118a8612261565b5b9060005260206000200160000160009054906101000a900473ffffffffffffffffffffffffffffffffffffffff1673ffffffffffffffffffffffffffffffffffffffff16036118fb576001915061190e565b80806119069061253d565b915050611871565b50806119aa57600b60405180602001604052808673ffffffffffffffffffffffffffffffffffffffff168152509080600181540180825580915050600190039060005260206000200160009091909190915060008201518160000160006101000a81548173ffffffffffffffffffffffffffffffffffffffff021916908373ffffffffffffffffffffffffffffffffffffffff16021790555050505b50505050565b6006602052816000526040600020602052806000526040600020600091509150505481565b5080546119e190612118565b6000825580601f106119f35750611a12565b601f016020900490600052602060002090810190611a119190611a15565b5b50565b5b80821115611a2e576000816000905550600101611a16565b5090565b6000819050919050565b7f4e487b7100000000000000000000000000000000000000000000000000000000600052601160045260246000fd5b6000611a7682611a32565b9150611a8183611a32565b9250828202611a8f81611a32565b91508282048414831517611aa657611aa5611a3c565b5b5092915050565b6000611ab882611a32565b9150611ac383611a32565b9250828203905081811115611adb57611ada611a3c565b5b92915050565b6000611aec82611a32565b9150611af783611a32565b9250828201905080821115611b0f57611b0e611a3c565b5b92915050565b600081519050919050565b600082825260208201905092915050565b60005b83811015611b4f578082015181840152602081019050611b34565b60008484015250505050565b6000601f19601f8301169050919050565b6000611b7782611b15565b611b818185611b20565b9350611b91818560208601611b31565b611b9a81611b5b565b840191505092915050565b60006020820190508181036000830152611bbf8184611b6c565b905092915050565b600080fd5b600073ffffffffffffffffffffffffffffffffffffffff82169050919050565b6000611bf782611bcc565b9050919050565b611c0781611bec565b8114611c1257600080fd5b50565b600081359050611c2481611bfe565b92915050565b611c3381611a32565b8114611c3e57600080fd5b50565b600081359050611c5081611c2a565b92915050565b60008060408385031215611c6d57611c6c611bc7565b5b6000611c7b85828601611c15565b9250506020611c8c85828601611c41565b9150509250929050565b60008115159050919050565b611cab81611c96565b82525050565b6000602082019050611cc66000830184611ca2565b92915050565b611cd581611a32565b82525050565b6000602082019050611cf06000830184611ccc565b92915050565b600080600060608486031215611d0f57611d0e611bc7565b5b6000611d1d86828701611c15565b9350506020611d2e86828701611c15565b9250506040611d3f86828701611c41565b9150509250925092565b600060208284031215611d5f57611d5e611bc7565b5b6000611d6d84828501611c15565b91505092915050565b600060ff82169050919050565b611d8c81611d76565b82525050565b6000602082019050611da76000830184611d83565b92915050565b600060208284031215611dc357611dc2611bc7565b5b6000611dd184828501611c41565b91505092915050565b611de381611bec565b82525050565b6000602082019050611dfe6000830184611dda565b92915050565b60006040820190508181036000830152611e1e8185611b6c565b90508181036020830152611e328184611b6c565b90509392505050565b600081519050919050565b600082825260208201905092915050565b6000819050602082019050919050565b611e7081611bec565b82525050565b602082016000820151611e8c6000850182611e67565b50505050565b6000611e9e8383611e76565b60208301905092915050565b6000602082019050919050565b6000611ec282611e3b565b611ecc8185611e46565b9350611ed783611e57565b8060005b83811015611f08578151611eef8882611e92565b9750611efa83611eaa565b925050600181019050611edb565b5085935050505092915050565b60006020820190508181036000830152611f2f8184611eb7565b905092915050565b600081519050919050565b600082825260208201905092915050565b6000819050602082019050919050565b600082825260208201905092915050565b6000611f7f82611b15565b611f898185611f63565b9350611f99818560208601611b31565b611fa281611b5b565b840191505092915050565b60006040830160008301518482036000860152611fca8282611f74565b91505060208301518482036020860152611fe48282611f74565b9150508091505092915050565b6000611ffd8383611fad565b905092915050565b6000602082019050919050565b600061201d82611f37565b6120278185611f42565b93508360208202850161203985611f53565b8060005b8581101561207557848403895281516120568582611ff1565b945061206183612005565b925060208a0199505060018101905061203d565b50829750879550505050505092915050565b600060208201905081810360008301526120a18184612012565b905092915050565b600080604083850312156120c0576120bf611bc7565b5b60006120ce85828601611c15565b92505060206120df85828601611c15565b9150509250929050565b7f4e487b7100000000000000000000000000000000000000000000000000000000600052602260045260246000fd5b6000600282049050600182168061213057607f821691505b602082108103612143576121426120e9565b5b50919050565b6000819050919050565b61216461215f82611a32565b612149565b82525050565b600061217582611bcc565b9050919050565b60008160601b9050919050565b60006121948261217c565b9050919050565b60006121a682612189565b9050919050565b6121be6121b98261216a565b61219b565b82525050565b60006121d08286612153565b6020820191506121e082856121ad565b6014820191506121f08284612153565b602082019150819050949350505050565b7f4e487b7100000000000000000000000000000000000000000000000000000000600052601260045260246000fd5b600061223b82611a32565b915061224683611a32565b92508261225657612255612201565b5b828206905092915050565b7f4e487b7100000000000000000000000000000000000000000000000000000000600052603260045260246000fd5b7f4e487b7100000000000000000000000000000000000000000000000000000000600052604160045260246000fd5b60008190508160005260206000209050919050565b60006020601f8301049050919050565b600082821b905092915050565b6000600883026123217fffffffffffffffffffffffffffffffffffffffffffffffffffffffffffffffff826122e4565b61232b86836122e4565b95508019841693508086168417925050509392505050565b6000819050919050565b600061236861236361235e84611a32565b612343565b611a32565b9050919050565b6000819050919050565b6123828361234d565b61239661238e8261236f565b8484546122f1565b825550505050565b600090565b6123ab61239e565b6123b6818484612379565b505050565b5b818110156123da576123cf6000826123a3565b6001810190506123bc565b5050565b601f82111561241f576123f0816122bf565b6123f9846122d4565b81016020851015612408578190505b61241c612414856122d4565b8301826123bb565b50505b505050565b600082821c905092915050565b600061244260001984600802612424565b1980831691505092915050565b600061245b8383612431565b9150826002028217905092915050565b61247482611b15565b67ffffffffffffffff81111561248d5761248c612290565b5b6124978254612118565b6124a28282856123de565b600060209050601f8311600181146124d557600084156124c3578287015190505b6124cd858261244f565b865550612535565b601f1984166124e3866122bf565b60005b8281101561250b578489015182556001820191506020850194506020810190506124e6565b868310156125285784890151612524601f891682612431565b8355505b6001600288020188555050505b505050505050565b600061254882611a32565b91507fffffffffffffffffffffffffffffffffffffffffffffffffffffffffffffffff820361257a57612579611a3c565b5b600182019050919050565b7f5468657265206973206e6f20706f6b656d6f6e2077686963682063616e20626560008201527f206d6f7665640000000000000000000000000000000000000000000000000000602082015250565b60006125e1602683611b20565b91506125ec82612585565b604082019050919050565b60006020820190508181036000830152612610816125d4565b9050919050565b7f496e76616c696420696e64657820746f2072656d6f7665000000000000000000600082015250565b600061264d601783611b20565b915061265882612617565b602082019050919050565b6000602082019050818103600083015261267c81612640565b9050919050565b60008154905061269281612118565b9050919050565b8181036126a757505061277f565b6126b082612683565b67ffffffffffffffff8111156126c9576126c8612290565b5b6126d38254612118565b6126de8282856123de565b6000601f83116001811461270d57600084156126fb578287015490505b612705858261244f565b865550612778565b601f19841661271b876122bf565b9650612726866122bf565b60005b8281101561274e57848901548255600182019150600185019450602081019050612729565b8683101561276b5784890154612767601f891682612431565b8355505b6001600288020188555050505b5050505050505b565b7f4e487b7100000000000000000000000000000000000000000000000000000000600052603160045260246000fdfea26469706673582212207b6e88e021d488333214032cd5394df4fbecbcddbc0084bd9d0d8f57acaf076564736f6c6343000813003368747470733a2f2f656e637279707465642d74626e302e677374617469632e636f6d2f696d616765733f713d74626e3a414e64394763512d4a66454343346f633163485239687a46345043437369677173344d30754a5f66526726757371703d43415568747470733a2f2f692e6e616d752e77696b692f692f776b7748626c3331397343466c5452367074395034416e686175576559743961323851744766353044625232684155725a3768636162647749334b765053484a64364a6f4c4a39505a4d4f4e4e5863644530734f71672e7765627068747470733a2f2f656e637279707465642d74626e302e677374617469632e636f6d2f696d616765733f713d74626e3a414e643947635161365f6176776c656e454e7752565954474a6d634863306a6a49486e6d44583462537a4c5230426f51596656484e645269784b744a75584b6c4135504f6558306450505926757371703d434155",
					"opcodes": "PUSH1 0x80 PUSH1 0x40 MSTORE PUSH1 0x12 PUSH1 0x2 PUSH1 0x0 PUSH2 0x100 EXP DUP2 SLOAD DUP2 PUSH1 0xFF MUL NOT AND SWAP1 DUP4 PUSH1 0xFF AND MUL OR SWAP1 SSTORE POP PUSH9 0x3635C9ADC5DEA00000 PUSH1 0x7 SSTORE PUSH1 0x40 MLOAD DUP1 PUSH1 0x60 ADD PUSH1 0x40 MSTORE DUP1 PUSH1 0x40 MLOAD DUP1 PUSH1 0x40 ADD PUSH1 0x40 MSTORE DUP1 PUSH1 0x7 DUP2 MSTORE PUSH1 0x20 ADD PUSH32 0x50696B6163687500000000000000000000000000000000000000000000000000 DUP2 MSTORE POP DUP2 MSTORE PUSH1 0x20 ADD PUSH1 0x40 MLOAD DUP1 PUSH1 0x40 ADD PUSH1 0x40 MSTORE DUP1 PUSH1 0x5 DUP2 MSTORE PUSH1 0x20 ADD PUSH32 0x4B6F62756B000000000000000000000000000000000000000000000000000000 DUP2 MSTORE POP DUP2 MSTORE PUSH1 0x20 ADD PUSH1 0x40 MLOAD DUP1 PUSH1 0x40 ADD PUSH1 0x40 MSTORE DUP1 PUSH1 0xA DUP2 MSTORE PUSH1 0x20 ADD PUSH32 0x436861726D616E64657200000000000000000000000000000000000000000000 DUP2 MSTORE POP DUP2 MSTORE POP PUSH1 0x8 SWAP1 PUSH1 0x3 PUSH3 0xF9 SWAP3 SWAP2 SWAP1 PUSH3 0x30F JUMP JUMPDEST POP PUSH1 0x40 MLOAD DUP1 PUSH1 0x60 ADD PUSH1 0x40 MSTORE DUP1 PUSH1 0x40 MLOAD DUP1 PUSH1 0xA0 ADD PUSH1 0x40 MSTORE DUP1 PUSH1 0x63 DUP2 MSTORE PUSH1 0x20 ADD PUSH3 0x31BA PUSH1 0x63 SWAP2 CODECOPY DUP2 MSTORE PUSH1 0x20 ADD PUSH1 0x40 MLOAD DUP1 PUSH1 0xC0 ADD PUSH1 0x40 MSTORE DUP1 PUSH1 0x84 DUP2 MSTORE PUSH1 0x20 ADD PUSH3 0x328E PUSH1 0x84 SWAP2 CODECOPY DUP2 MSTORE PUSH1 0x20 ADD PUSH1 0x40 MLOAD DUP1 PUSH1 0xA0 ADD PUSH1 0x40 MSTORE DUP1 PUSH1 0x71 DUP2 MSTORE PUSH1 0x20 ADD PUSH3 0x321D PUSH1 0x71 SWAP2 CODECOPY DUP2 MSTORE POP PUSH1 0x9 SWAP1 PUSH1 0x3 PUSH3 0x172 SWAP3 SWAP2 SWAP1 PUSH3 0x30F JUMP JUMPDEST POP CALLVALUE DUP1 ISZERO PUSH3 0x180 JUMPI PUSH1 0x0 DUP1 REVERT JUMPDEST POP PUSH1 0x40 MLOAD DUP1 PUSH1 0x40 ADD PUSH1 0x40 MSTORE DUP1 PUSH1 0x7 DUP2 MSTORE PUSH1 0x20 ADD PUSH32 0x506F6B656D6F6E00000000000000000000000000000000000000000000000000 DUP2 MSTORE POP PUSH1 0x40 MLOAD DUP1 PUSH1 0x40 ADD PUSH1 0x40 MSTORE DUP1 PUSH1 0x3 DUP2 MSTORE PUSH1 0x20 ADD PUSH32 0x504F4B0000000000000000000000000000000000000000000000000000000000 DUP2 MSTORE POP PUSH2 0x2710 CALLER PUSH1 0x4 PUSH1 0x0 PUSH2 0x100 EXP DUP2 SLOAD DUP2 PUSH20 0xFFFFFFFFFFFFFFFFFFFFFFFFFFFFFFFFFFFFFFFF MUL NOT AND SWAP1 DUP4 PUSH20 0xFFFFFFFFFFFFFFFFFFFFFFFFFFFFFFFFFFFFFFFF AND MUL OR SWAP1 SSTORE POP DUP3 PUSH1 0x0 SWAP1 DUP2 PUSH3 0x242 SWAP2 SWAP1 PUSH3 0x676 JUMP JUMPDEST POP DUP2 PUSH1 0x1 SWAP1 DUP2 PUSH3 0x254 SWAP2 SWAP1 PUSH3 0x676 JUMP JUMPDEST POP PUSH3 0x290 PUSH1 0x2 PUSH1 0x0 SWAP1 SLOAD SWAP1 PUSH2 0x100 EXP SWAP1 DIV PUSH1 0xFF AND PUSH1 0xA PUSH3 0x277 SWAP2 SWAP1 PUSH3 0x8ED JUMP JUMPDEST DUP3 PUSH3 0x284 SWAP2 SWAP1 PUSH3 0x93E JUMP JUMPDEST PUSH3 0x299 PUSH1 0x20 SHL PUSH1 0x20 SHR JUMP JUMPDEST POP POP POP PUSH3 0x9C4 JUMP JUMPDEST DUP1 PUSH1 0x5 PUSH1 0x0 CALLER PUSH20 0xFFFFFFFFFFFFFFFFFFFFFFFFFFFFFFFFFFFFFFFF AND PUSH20 0xFFFFFFFFFFFFFFFFFFFFFFFFFFFFFFFFFFFFFFFF AND DUP2 MSTORE PUSH1 0x20 ADD SWAP1 DUP2 MSTORE PUSH1 0x20 ADD PUSH1 0x0 KECCAK256 PUSH1 0x0 DUP3 DUP3 SLOAD PUSH3 0x2EA SWAP2 SWAP1 PUSH3 0x989 JUMP JUMPDEST SWAP3 POP POP DUP2 SWAP1 SSTORE POP DUP1 PUSH1 0x3 PUSH1 0x0 DUP3 DUP3 SLOAD PUSH3 0x305 SWAP2 SWAP1 PUSH3 0x989 JUMP JUMPDEST SWAP3 POP POP DUP2 SWAP1 SSTORE POP POP JUMP JUMPDEST DUP3 DUP1 SLOAD DUP3 DUP3 SSTORE SWAP1 PUSH1 0x0 MSTORE PUSH1 0x20 PUSH1 0x0 KECCAK256 SWAP1 DUP2 ADD SWAP3 DUP3 ISZERO PUSH3 0x35C JUMPI SWAP2 PUSH1 0x20 MUL DUP3 ADD JUMPDEST DUP3 DUP2 GT ISZERO PUSH3 0x35B JUMPI DUP3 MLOAD DUP3 SWAP1 DUP2 PUSH3 0x34A SWAP2 SWAP1 PUSH3 0x676 JUMP JUMPDEST POP SWAP2 PUSH1 0x20 ADD SWAP2 SWAP1 PUSH1 0x1 ADD SWAP1 PUSH3 0x330 JUMP JUMPDEST JUMPDEST POP SWAP1 POP PUSH3 0x36B SWAP2 SWAP1 PUSH3 0x36F JUMP JUMPDEST POP SWAP1 JUMP JUMPDEST JUMPDEST DUP1 DUP3 GT ISZERO PUSH3 0x393 JUMPI PUSH1 0x0 DUP2 DUP2 PUSH3 0x389 SWAP2 SWAP1 PUSH3 0x397 JUMP JUMPDEST POP PUSH1 0x1 ADD PUSH3 0x370 JUMP JUMPDEST POP SWAP1 JUMP JUMPDEST POP DUP1 SLOAD PUSH3 0x3A5 SWAP1 PUSH3 0x465 JUMP JUMPDEST PUSH1 0x0 DUP3 SSTORE DUP1 PUSH1 0x1F LT PUSH3 0x3B9 JUMPI POP PUSH3 0x3DA JUMP JUMPDEST PUSH1 0x1F ADD PUSH1 0x20 SWAP1 DIV SWAP1 PUSH1 0x0 MSTORE PUSH1 0x20 PUSH1 0x0 KECCAK256 SWAP1 DUP2 ADD SWAP1 PUSH3 0x3D9 SWAP2 SWAP1 PUSH3 0x3DD JUMP JUMPDEST JUMPDEST POP JUMP JUMPDEST JUMPDEST DUP1 DUP3 GT ISZERO PUSH3 0x3F8 JUMPI PUSH1 0x0 DUP2 PUSH1 0x0 SWAP1 SSTORE POP PUSH1 0x1 ADD PUSH3 0x3DE JUMP JUMPDEST POP SWAP1 JUMP JUMPDEST PUSH1 0x0 DUP2 MLOAD SWAP1 POP SWAP2 SWAP1 POP JUMP JUMPDEST PUSH32 0x4E487B7100000000000000000000000000000000000000000000000000000000 PUSH1 0x0 MSTORE PUSH1 0x41 PUSH1 0x4 MSTORE PUSH1 0x24 PUSH1 0x0 REVERT JUMPDEST PUSH32 0x4E487B7100000000000000000000000000000000000000000000000000000000 PUSH1 0x0 MSTORE PUSH1 0x22 PUSH1 0x4 MSTORE PUSH1 0x24 PUSH1 0x0 REVERT JUMPDEST PUSH1 0x0 PUSH1 0x2 DUP3 DIV SWAP1 POP PUSH1 0x1 DUP3 AND DUP1 PUSH3 0x47E JUMPI PUSH1 0x7F DUP3 AND SWAP2 POP JUMPDEST PUSH1 0x20 DUP3 LT DUP2 SUB PUSH3 0x494 JUMPI PUSH3 0x493 PUSH3 0x436 JUMP JUMPDEST JUMPDEST POP SWAP2 SWAP1 POP JUMP JUMPDEST PUSH1 0x0 DUP2 SWAP1 POP DUP2 PUSH1 0x0 MSTORE PUSH1 0x20 PUSH1 0x0 KECCAK256 SWAP1 POP SWAP2 SWAP1 POP JUMP JUMPDEST PUSH1 0x0 PUSH1 0x20 PUSH1 0x1F DUP4 ADD DIV SWAP1 POP SWAP2 SWAP1 POP JUMP JUMPDEST PUSH1 0x0 DUP3 DUP3 SHL SWAP1 POP SWAP3 SWAP2 POP POP JUMP JUMPDEST PUSH1 0x0 PUSH1 0x8 DUP4 MUL PUSH3 0x4FE PUSH32 0xFFFFFFFFFFFFFFFFFFFFFFFFFFFFFFFFFFFFFFFFFFFFFFFFFFFFFFFFFFFFFFFF DUP3 PUSH3 0x4BF JUMP JUMPDEST PUSH3 0x50A DUP7 DUP4 PUSH3 0x4BF JUMP JUMPDEST SWAP6 POP DUP1 NOT DUP5 AND SWAP4 POP DUP1 DUP7 AND DUP5 OR SWAP3 POP POP POP SWAP4 SWAP3 POP POP POP JUMP JUMPDEST PUSH1 0x0 DUP2 SWAP1 POP SWAP2 SWAP1 POP JUMP JUMPDEST PUSH1 0x0 DUP2 SWAP1 POP SWAP2 SWAP1 POP JUMP JUMPDEST PUSH1 0x0 PUSH3 0x557 PUSH3 0x551 PUSH3 0x54B DUP5 PUSH3 0x522 JUMP JUMPDEST PUSH3 0x52C JUMP JUMPDEST PUSH3 0x522 JUMP JUMPDEST SWAP1 POP SWAP2 SWAP1 POP JUMP JUMPDEST PUSH1 0x0 DUP2 SWAP1 POP SWAP2 SWAP1 POP JUMP JUMPDEST PUSH3 0x573 DUP4 PUSH3 0x536 JUMP JUMPDEST PUSH3 0x58B PUSH3 0x582 DUP3 PUSH3 0x55E JUMP JUMPDEST DUP5 DUP5 SLOAD PUSH3 0x4CC JUMP JUMPDEST DUP3 SSTORE POP POP POP POP JUMP JUMPDEST PUSH1 0x0 SWAP1 JUMP JUMPDEST PUSH3 0x5A2 PUSH3 0x593 JUMP JUMPDEST PUSH3 0x5AF DUP2 DUP5 DUP5 PUSH3 0x568 JUMP JUMPDEST POP POP POP JUMP JUMPDEST JUMPDEST DUP2 DUP2 LT ISZERO PUSH3 0x5D7 JUMPI PUSH3 0x5CB PUSH1 0x0 DUP3 PUSH3 0x598 JUMP JUMPDEST PUSH1 0x1 DUP2 ADD SWAP1 POP PUSH3 0x5B5 JUMP JUMPDEST POP POP JUMP JUMPDEST PUSH1 0x1F DUP3 GT ISZERO PUSH3 0x626 JUMPI PUSH3 0x5F0 DUP2 PUSH3 0x49A JUMP JUMPDEST PUSH3 0x5FB DUP5 PUSH3 0x4AF JUMP JUMPDEST DUP2 ADD PUSH1 0x20 DUP6 LT ISZERO PUSH3 0x60B JUMPI DUP2 SWAP1 POP JUMPDEST PUSH3 0x623 PUSH3 0x61A DUP6 PUSH3 0x4AF JUMP JUMPDEST DUP4 ADD DUP3 PUSH3 0x5B4 JUMP JUMPDEST POP POP JUMPDEST POP POP POP JUMP JUMPDEST PUSH1 0x0 DUP3 DUP3 SHR SWAP1 POP SWAP3 SWAP2 POP POP JUMP JUMPDEST PUSH1 0x0 PUSH3 0x64B PUSH1 0x0 NOT DUP5 PUSH1 0x8 MUL PUSH3 0x62B JUMP JUMPDEST NOT DUP1 DUP4 AND SWAP2 POP POP SWAP3 SWAP2 POP POP JUMP JUMPDEST PUSH1 0x0 PUSH3 0x666 DUP4 DUP4 PUSH3 0x638 JUMP JUMPDEST SWAP2 POP DUP3 PUSH1 0x2 MUL DUP3 OR SWAP1 POP SWAP3 SWAP2 POP POP JUMP JUMPDEST PUSH3 0x681 DUP3 PUSH3 0x3FC JUMP JUMPDEST PUSH8 0xFFFFFFFFFFFFFFFF DUP2 GT ISZERO PUSH3 0x69D JUMPI PUSH3 0x69C PUSH3 0x407 JUMP JUMPDEST JUMPDEST PUSH3 0x6A9 DUP3 SLOAD PUSH3 0x465 JUMP JUMPDEST PUSH3 0x6B6 DUP3 DUP3 DUP6 PUSH3 0x5DB JUMP JUMPDEST PUSH1 0x0 PUSH1 0x20 SWAP1 POP PUSH1 0x1F DUP4 GT PUSH1 0x1 DUP2 EQ PUSH3 0x6EE JUMPI PUSH1 0x0 DUP5 ISZERO PUSH3 0x6D9 JUMPI DUP3 DUP8 ADD MLOAD SWAP1 POP JUMPDEST PUSH3 0x6E5 DUP6 DUP3 PUSH3 0x658 JUMP JUMPDEST DUP7 SSTORE POP PUSH3 0x755 JUMP JUMPDEST PUSH1 0x1F NOT DUP5 AND PUSH3 0x6FE DUP7 PUSH3 0x49A JUMP JUMPDEST PUSH1 0x0 JUMPDEST DUP3 DUP2 LT ISZERO PUSH3 0x728 JUMPI DUP5 DUP10 ADD MLOAD DUP3 SSTORE PUSH1 0x1 DUP3 ADD SWAP2 POP PUSH1 0x20 DUP6 ADD SWAP5 POP PUSH1 0x20 DUP2 ADD SWAP1 POP PUSH3 0x701 JUMP JUMPDEST DUP7 DUP4 LT ISZERO PUSH3 0x748 JUMPI DUP5 DUP10 ADD MLOAD PUSH3 0x744 PUSH1 0x1F DUP10 AND DUP3 PUSH3 0x638 JUMP JUMPDEST DUP4 SSTORE POP JUMPDEST PUSH1 0x1 PUSH1 0x2 DUP9 MUL ADD DUP9 SSTORE POP POP POP JUMPDEST POP POP POP POP POP POP JUMP JUMPDEST PUSH32 0x4E487B7100000000000000000000000000000000000000000000000000000000 PUSH1 0x0 MSTORE PUSH1 0x11 PUSH1 0x4 MSTORE PUSH1 0x24 PUSH1 0x0 REVERT JUMPDEST PUSH1 0x0 DUP2 PUSH1 0x1 SHR SWAP1 POP SWAP2 SWAP1 POP JUMP JUMPDEST PUSH1 0x0 DUP1 DUP3 SWAP2 POP DUP4 SWAP1 POP JUMPDEST PUSH1 0x1 DUP6 GT ISZERO PUSH3 0x7EB JUMPI DUP1 DUP7 DIV DUP2 GT ISZERO PUSH3 0x7C3 JUMPI PUSH3 0x7C2 PUSH3 0x75D JUMP JUMPDEST JUMPDEST PUSH1 0x1 DUP6 AND ISZERO PUSH3 0x7D3 JUMPI DUP1 DUP3 MUL SWAP2 POP JUMPDEST DUP1 DUP2 MUL SWAP1 POP PUSH3 0x7E3 DUP6 PUSH3 0x78C JUMP JUMPDEST SWAP5 POP PUSH3 0x7A3 JUMP JUMPDEST SWAP5 POP SWAP5 SWAP3 POP POP POP JUMP JUMPDEST PUSH1 0x0 DUP3 PUSH3 0x806 JUMPI PUSH1 0x1 SWAP1 POP PUSH3 0x8D9 JUMP JUMPDEST DUP2 PUSH3 0x816 JUMPI PUSH1 0x0 SWAP1 POP PUSH3 0x8D9 JUMP JUMPDEST DUP2 PUSH1 0x1 DUP2 EQ PUSH3 0x82F JUMPI PUSH1 0x2 DUP2 EQ PUSH3 0x83A JUMPI PUSH3 0x870 JUMP JUMPDEST PUSH1 0x1 SWAP2 POP POP PUSH3 0x8D9 JUMP JUMPDEST PUSH1 0xFF DUP5 GT ISZERO PUSH3 0x84F JUMPI PUSH3 0x84E PUSH3 0x75D JUMP JUMPDEST JUMPDEST DUP4 PUSH1 0x2 EXP SWAP2 POP DUP5 DUP3 GT ISZERO PUSH3 0x869 JUMPI PUSH3 0x868 PUSH3 0x75D JUMP JUMPDEST JUMPDEST POP PUSH3 0x8D9 JUMP JUMPDEST POP PUSH1 0x20 DUP4 LT PUSH2 0x133 DUP4 LT AND PUSH1 0x4E DUP5 LT PUSH1 0xB DUP5 LT AND OR ISZERO PUSH3 0x8AA JUMPI DUP3 DUP3 EXP SWAP1 POP DUP4 DUP2 GT ISZERO PUSH3 0x8A4 JUMPI PUSH3 0x8A3 PUSH3 0x75D JUMP JUMPDEST JUMPDEST PUSH3 0x8D9 JUMP JUMPDEST PUSH3 0x8B9 DUP5 DUP5 DUP5 PUSH1 0x1 PUSH3 0x799 JUMP JUMPDEST SWAP3 POP SWAP1 POP DUP2 DUP5 DIV DUP2 GT ISZERO PUSH3 0x8D3 JUMPI PUSH3 0x8D2 PUSH3 0x75D JUMP JUMPDEST JUMPDEST DUP2 DUP2 MUL SWAP1 POP JUMPDEST SWAP4 SWAP3 POP POP POP JUMP JUMPDEST PUSH1 0x0 PUSH1 0xFF DUP3 AND SWAP1 POP SWAP2 SWAP1 POP JUMP JUMPDEST PUSH1 0x0 PUSH3 0x8FA DUP3 PUSH3 0x522 JUMP JUMPDEST SWAP2 POP PUSH3 0x907 DUP4 PUSH3 0x8E0 JUMP JUMPDEST SWAP3 POP PUSH3 0x936 PUSH32 0xFFFFFFFFFFFFFFFFFFFFFFFFFFFFFFFFFFFFFFFFFFFFFFFFFFFFFFFFFFFFFFFF DUP5 DUP5 PUSH3 0x7F4 JUMP JUMPDEST SWAP1 POP SWAP3 SWAP2 POP POP JUMP JUMPDEST PUSH1 0x0 PUSH3 0x94B DUP3 PUSH3 0x522 JUMP JUMPDEST SWAP2 POP PUSH3 0x958 DUP4 PUSH3 0x522 JUMP JUMPDEST SWAP3 POP DUP3 DUP3 MUL PUSH3 0x968 DUP2 PUSH3 0x522 JUMP JUMPDEST SWAP2 POP DUP3 DUP3 DIV DUP5 EQ DUP4 ISZERO OR PUSH3 0x982 JUMPI PUSH3 0x981 PUSH3 0x75D JUMP JUMPDEST JUMPDEST POP SWAP3 SWAP2 POP POP JUMP JUMPDEST PUSH1 0x0 PUSH3 0x996 DUP3 PUSH3 0x522 JUMP JUMPDEST SWAP2 POP PUSH3 0x9A3 DUP4 PUSH3 0x522 JUMP JUMPDEST SWAP3 POP DUP3 DUP3 ADD SWAP1 POP DUP1 DUP3 GT ISZERO PUSH3 0x9BE JUMPI PUSH3 0x9BD PUSH3 0x75D JUMP JUMPDEST JUMPDEST SWAP3 SWAP2 POP POP JUMP JUMPDEST PUSH2 0x27E6 DUP1 PUSH3 0x9D4 PUSH1 0x0 CODECOPY PUSH1 0x0 RETURN INVALID PUSH1 0x80 PUSH1 0x40 MSTORE PUSH1 0x4 CALLDATASIZE LT PUSH2 0x102 JUMPI PUSH1 0x0 CALLDATALOAD PUSH1 0xE0 SHR DUP1 PUSH4 0x42966C68 GT PUSH2 0x95 JUMPI DUP1 PUSH4 0x95D89B41 GT PUSH2 0x64 JUMPI DUP1 PUSH4 0x95D89B41 EQ PUSH2 0x529 JUMPI DUP1 PUSH4 0xA9059CBB EQ PUSH2 0x554 JUMPI DUP1 PUSH4 0xC78BC15F EQ PUSH2 0x591 JUMPI DUP1 PUSH4 0xD3BEB5DA EQ PUSH2 0x5A8 JUMPI DUP1 PUSH4 0xDD62ED3E EQ PUSH2 0x5D1 JUMPI PUSH2 0x2B5 JUMP JUMPDEST DUP1 PUSH4 0x42966C68 EQ PUSH2 0x46D JUMPI DUP1 PUSH4 0x70A08231 EQ PUSH2 0x496 JUMPI DUP1 PUSH4 0x868BABB0 EQ PUSH2 0x4D3 JUMPI DUP1 PUSH4 0x87E24C72 EQ PUSH2 0x4FE JUMPI PUSH2 0x2B5 JUMP JUMPDEST DUP1 PUSH4 0x27E235E3 GT PUSH2 0xD1 JUMPI DUP1 PUSH4 0x27E235E3 EQ PUSH2 0x38A JUMPI DUP1 PUSH4 0x313CE567 EQ PUSH2 0x3C7 JUMPI DUP1 PUSH4 0x365B98B2 EQ PUSH2 0x3F2 JUMPI DUP1 PUSH4 0x36E60477 EQ PUSH2 0x42F JUMPI PUSH2 0x2B5 JUMP JUMPDEST DUP1 PUSH4 0x6FDDE03 EQ PUSH2 0x2BA JUMPI DUP1 PUSH4 0x95EA7B3 EQ PUSH2 0x2E5 JUMPI DUP1 PUSH4 0x18160DDD EQ PUSH2 0x322 JUMPI DUP1 PUSH4 0x23B872DD EQ PUSH2 0x34D JUMPI PUSH2 0x2B5 JUMP JUMPDEST CALLDATASIZE PUSH2 0x2B5 JUMPI PUSH1 0x0 PUSH1 0xC8 CALLVALUE PUSH2 0x116 SWAP2 SWAP1 PUSH2 0x1A6B JUMP JUMPDEST SWAP1 POP DUP1 PUSH1 0x5 PUSH1 0x0 PUSH1 0x4 PUSH1 0x0 SWAP1 SLOAD SWAP1 PUSH2 0x100 EXP SWAP1 DIV PUSH20 0xFFFFFFFFFFFFFFFFFFFFFFFFFFFFFFFFFFFFFFFF AND PUSH20 0xFFFFFFFFFFFFFFFFFFFFFFFFFFFFFFFFFFFFFFFF AND PUSH20 0xFFFFFFFFFFFFFFFFFFFFFFFFFFFFFFFFFFFFFFFF AND DUP2 MSTORE PUSH1 0x20 ADD SWAP1 DUP2 MSTORE PUSH1 0x20 ADD PUSH1 0x0 KECCAK256 SLOAD LT ISZERO PUSH2 0x186 JUMPI PUSH1 0x0 DUP1 REVERT JUMPDEST DUP1 PUSH1 0x5 PUSH1 0x0 PUSH1 0x4 PUSH1 0x0 SWAP1 SLOAD SWAP1 PUSH2 0x100 EXP SWAP1 DIV PUSH20 0xFFFFFFFFFFFFFFFFFFFFFFFFFFFFFFFFFFFFFFFF AND PUSH20 0xFFFFFFFFFFFFFFFFFFFFFFFFFFFFFFFFFFFFFFFF AND PUSH20 0xFFFFFFFFFFFFFFFFFFFFFFFFFFFFFFFFFFFFFFFF AND DUP2 MSTORE PUSH1 0x20 ADD SWAP1 DUP2 MSTORE PUSH1 0x20 ADD PUSH1 0x0 KECCAK256 PUSH1 0x0 DUP3 DUP3 SLOAD PUSH2 0x1F7 SWAP2 SWAP1 PUSH2 0x1AAD JUMP JUMPDEST SWAP3 POP POP DUP2 SWAP1 SSTORE POP DUP1 PUSH1 0x5 PUSH1 0x0 CALLER PUSH20 0xFFFFFFFFFFFFFFFFFFFFFFFFFFFFFFFFFFFFFFFF AND PUSH20 0xFFFFFFFFFFFFFFFFFFFFFFFFFFFFFFFFFFFFFFFF AND DUP2 MSTORE PUSH1 0x20 ADD SWAP1 DUP2 MSTORE PUSH1 0x20 ADD PUSH1 0x0 KECCAK256 PUSH1 0x0 DUP3 DUP3 SLOAD PUSH2 0x24D SWAP2 SWAP1 PUSH2 0x1AE1 JUMP JUMPDEST SWAP3 POP POP DUP2 SWAP1 SSTORE POP PUSH1 0x4 PUSH1 0x0 SWAP1 SLOAD SWAP1 PUSH2 0x100 EXP SWAP1 DIV PUSH20 0xFFFFFFFFFFFFFFFFFFFFFFFFFFFFFFFFFFFFFFFF AND PUSH20 0xFFFFFFFFFFFFFFFFFFFFFFFFFFFFFFFFFFFFFFFF AND CALLER PUSH20 0xFFFFFFFFFFFFFFFFFFFFFFFFFFFFFFFFFFFFFFFF AND SUB PUSH2 0x2B3 JUMPI PUSH2 0x2B2 DUP2 PUSH2 0x60E JUMP JUMPDEST JUMPDEST STOP JUMPDEST PUSH1 0x0 DUP1 REVERT JUMPDEST CALLVALUE DUP1 ISZERO PUSH2 0x2C6 JUMPI PUSH1 0x0 DUP1 REVERT JUMPDEST POP PUSH2 0x2CF PUSH2 0x680 JUMP JUMPDEST PUSH1 0x40 MLOAD PUSH2 0x2DC SWAP2 SWAP1 PUSH2 0x1BA5 JUMP JUMPDEST PUSH1 0x40 MLOAD DUP1 SWAP2 SUB SWAP1 RETURN JUMPDEST CALLVALUE DUP1 ISZERO PUSH2 0x2F1 JUMPI PUSH1 0x0 DUP1 REVERT JUMPDEST POP PUSH2 0x30C PUSH1 0x4 DUP1 CALLDATASIZE SUB DUP2 ADD SWAP1 PUSH2 0x307 SWAP2 SWAP1 PUSH2 0x1C56 JUMP JUMPDEST PUSH2 0x70E JUMP JUMPDEST PUSH1 0x40 MLOAD PUSH2 0x319 SWAP2 SWAP1 PUSH2 0x1CB1 JUMP JUMPDEST PUSH1 0x40 MLOAD DUP1 SWAP2 SUB SWAP1 RETURN JUMPDEST CALLVALUE DUP1 ISZERO PUSH2 0x32E JUMPI PUSH1 0x0 DUP1 REVERT JUMPDEST POP PUSH2 0x337 PUSH2 0x79B JUMP JUMPDEST PUSH1 0x40 MLOAD PUSH2 0x344 SWAP2 SWAP1 PUSH2 0x1CDB JUMP JUMPDEST PUSH1 0x40 MLOAD DUP1 SWAP2 SUB SWAP1 RETURN JUMPDEST CALLVALUE DUP1 ISZERO PUSH2 0x359 JUMPI PUSH1 0x0 DUP1 REVERT JUMPDEST POP PUSH2 0x374 PUSH1 0x4 DUP1 CALLDATASIZE SUB DUP2 ADD SWAP1 PUSH2 0x36F SWAP2 SWAP1 PUSH2 0x1CF6 JUMP JUMPDEST PUSH2 0x7A1 JUMP JUMPDEST PUSH1 0x40 MLOAD PUSH2 0x381 SWAP2 SWAP1 PUSH2 0x1CB1 JUMP JUMPDEST PUSH1 0x40 MLOAD DUP1 SWAP2 SUB SWAP1 RETURN JUMPDEST CALLVALUE DUP1 ISZERO PUSH2 0x396 JUMPI PUSH1 0x0 DUP1 REVERT JUMPDEST POP PUSH2 0x3B1 PUSH1 0x4 DUP1 CALLDATASIZE SUB DUP2 ADD SWAP1 PUSH2 0x3AC SWAP2 SWAP1 PUSH2 0x1D49 JUMP JUMPDEST PUSH2 0x976 JUMP JUMPDEST PUSH1 0x40 MLOAD PUSH2 0x3BE SWAP2 SWAP1 PUSH2 0x1CDB JUMP JUMPDEST PUSH1 0x40 MLOAD DUP1 SWAP2 SUB SWAP1 RETURN JUMPDEST CALLVALUE DUP1 ISZERO PUSH2 0x3D3 JUMPI PUSH1 0x0 DUP1 REVERT JUMPDEST POP PUSH2 0x3DC PUSH2 0x98E JUMP JUMPDEST PUSH1 0x40 MLOAD PUSH2 0x3E9 SWAP2 SWAP1 PUSH2 0x1D92 JUMP JUMPDEST PUSH1 0x40 MLOAD DUP1 SWAP2 SUB SWAP1 RETURN JUMPDEST CALLVALUE DUP1 ISZERO PUSH2 0x3FE JUMPI PUSH1 0x0 DUP1 REVERT JUMPDEST POP PUSH2 0x419 PUSH1 0x4 DUP1 CALLDATASIZE SUB DUP2 ADD SWAP1 PUSH2 0x414 SWAP2 SWAP1 PUSH2 0x1DAD JUMP JUMPDEST PUSH2 0x9A1 JUMP JUMPDEST PUSH1 0x40 MLOAD PUSH2 0x426 SWAP2 SWAP1 PUSH2 0x1DE9 JUMP JUMPDEST PUSH1 0x40 MLOAD DUP1 SWAP2 SUB SWAP1 RETURN JUMPDEST CALLVALUE DUP1 ISZERO PUSH2 0x43B JUMPI PUSH1 0x0 DUP1 REVERT JUMPDEST POP PUSH2 0x456 PUSH1 0x4 DUP1 CALLDATASIZE SUB DUP2 ADD SWAP1 PUSH2 0x451 SWAP2 SWAP1 PUSH2 0x1C56 JUMP JUMPDEST PUSH2 0x9EB JUMP JUMPDEST PUSH1 0x40 MLOAD PUSH2 0x464 SWAP3 SWAP2 SWAP1 PUSH2 0x1E04 JUMP JUMPDEST PUSH1 0x40 MLOAD DUP1 SWAP2 SUB SWAP1 RETURN JUMPDEST CALLVALUE DUP1 ISZERO PUSH2 0x479 JUMPI PUSH1 0x0 DUP1 REVERT JUMPDEST POP PUSH2 0x494 PUSH1 0x4 DUP1 CALLDATASIZE SUB DUP2 ADD SWAP1 PUSH2 0x48F SWAP2 SWAP1 PUSH2 0x1DAD JUMP JUMPDEST PUSH2 0xB3C JUMP JUMPDEST STOP JUMPDEST CALLVALUE DUP1 ISZERO PUSH2 0x4A2 JUMPI PUSH1 0x0 DUP1 REVERT JUMPDEST POP PUSH2 0x4BD PUSH1 0x4 DUP1 CALLDATASIZE SUB DUP2 ADD SWAP1 PUSH2 0x4B8 SWAP2 SWAP1 PUSH2 0x1D49 JUMP JUMPDEST PUSH2 0xBAE JUMP JUMPDEST PUSH1 0x40 MLOAD PUSH2 0x4CA SWAP2 SWAP1 PUSH2 0x1CDB JUMP JUMPDEST PUSH1 0x40 MLOAD DUP1 SWAP2 SUB SWAP1 RETURN JUMPDEST CALLVALUE DUP1 ISZERO PUSH2 0x4DF JUMPI PUSH1 0x0 DUP1 REVERT JUMPDEST POP PUSH2 0x4E8 PUSH2 0xBF7 JUMP JUMPDEST PUSH1 0x40 MLOAD PUSH2 0x4F5 SWAP2 SWAP1 PUSH2 0x1F15 JUMP JUMPDEST PUSH1 0x40 MLOAD DUP1 SWAP2 SUB SWAP1 RETURN JUMPDEST CALLVALUE DUP1 ISZERO PUSH2 0x50A JUMPI PUSH1 0x0 DUP1 REVERT JUMPDEST POP PUSH2 0x513 PUSH2 0xCA8 JUMP JUMPDEST PUSH1 0x40 MLOAD PUSH2 0x520 SWAP2 SWAP1 PUSH2 0x2087 JUMP JUMPDEST PUSH1 0x40 MLOAD DUP1 SWAP2 SUB SWAP1 RETURN JUMPDEST CALLVALUE DUP1 ISZERO PUSH2 0x535 JUMPI PUSH1 0x0 DUP1 REVERT JUMPDEST POP PUSH2 0x53E PUSH2 0xE68 JUMP JUMPDEST PUSH1 0x40 MLOAD PUSH2 0x54B SWAP2 SWAP1 PUSH2 0x1BA5 JUMP JUMPDEST PUSH1 0x40 MLOAD DUP1 SWAP2 SUB SWAP1 RETURN JUMPDEST CALLVALUE DUP1 ISZERO PUSH2 0x560 JUMPI PUSH1 0x0 DUP1 REVERT JUMPDEST POP PUSH2 0x57B PUSH1 0x4 DUP1 CALLDATASIZE SUB DUP2 ADD SWAP1 PUSH2 0x576 SWAP2 SWAP1 PUSH2 0x1C56 JUMP JUMPDEST PUSH2 0xEF6 JUMP JUMPDEST PUSH1 0x40 MLOAD PUSH2 0x588 SWAP2 SWAP1 PUSH2 0x1CB1 JUMP JUMPDEST PUSH1 0x40 MLOAD DUP1 SWAP2 SUB SWAP1 RETURN JUMPDEST CALLVALUE DUP1 ISZERO PUSH2 0x59D JUMPI PUSH1 0x0 DUP1 REVERT JUMPDEST POP PUSH2 0x5A6 PUSH2 0xFAE JUMP JUMPDEST STOP JUMPDEST CALLVALUE DUP1 ISZERO PUSH2 0x5B4 JUMPI PUSH1 0x0 DUP1 REVERT JUMPDEST POP PUSH2 0x5CF PUSH1 0x4 DUP1 CALLDATASIZE SUB DUP2 ADD SWAP1 PUSH2 0x5CA SWAP2 SWAP1 PUSH2 0x1C56 JUMP JUMPDEST PUSH2 0x13E8 JUMP JUMPDEST STOP JUMPDEST CALLVALUE DUP1 ISZERO PUSH2 0x5DD JUMPI PUSH1 0x0 DUP1 REVERT JUMPDEST POP PUSH2 0x5F8 PUSH1 0x4 DUP1 CALLDATASIZE SUB DUP2 ADD SWAP1 PUSH2 0x5F3 SWAP2 SWAP1 PUSH2 0x20A9 JUMP JUMPDEST PUSH2 0x19B0 JUMP JUMPDEST PUSH1 0x40 MLOAD PUSH2 0x605 SWAP2 SWAP1 PUSH2 0x1CDB JUMP JUMPDEST PUSH1 0x40 MLOAD DUP1 SWAP2 SUB SWAP1 RETURN JUMPDEST DUP1 PUSH1 0x5 PUSH1 0x0 CALLER PUSH20 0xFFFFFFFFFFFFFFFFFFFFFFFFFFFFFFFFFFFFFFFF AND PUSH20 0xFFFFFFFFFFFFFFFFFFFFFFFFFFFFFFFFFFFFFFFF AND DUP2 MSTORE PUSH1 0x20 ADD SWAP1 DUP2 MSTORE PUSH1 0x20 ADD PUSH1 0x0 KECCAK256 PUSH1 0x0 DUP3 DUP3 SLOAD PUSH2 0x65D SWAP2 SWAP1 PUSH2 0x1AE1 JUMP JUMPDEST SWAP3 POP POP DUP2 SWAP1 SSTORE POP DUP1 PUSH1 0x3 PUSH1 0x0 DUP3 DUP3 SLOAD PUSH2 0x676 SWAP2 SWAP1 PUSH2 0x1AE1 JUMP JUMPDEST SWAP3 POP POP DUP2 SWAP1 SSTORE POP POP JUMP JUMPDEST PUSH1 0x0 DUP1 SLOAD PUSH2 0x68D SWAP1 PUSH2 0x2118 JUMP JUMPDEST DUP1 PUSH1 0x1F ADD PUSH1 0x20 DUP1 SWAP2 DIV MUL PUSH1 0x20 ADD PUSH1 0x40 MLOAD SWAP1 DUP2 ADD PUSH1 0x40 MSTORE DUP1 SWAP3 SWAP2 SWAP1 DUP2 DUP2 MSTORE PUSH1 0x20 ADD DUP3 DUP1 SLOAD PUSH2 0x6B9 SWAP1 PUSH2 0x2118 JUMP JUMPDEST DUP1 ISZERO PUSH2 0x706 JUMPI DUP1 PUSH1 0x1F LT PUSH2 0x6DB JUMPI PUSH2 0x100 DUP1 DUP4 SLOAD DIV MUL DUP4 MSTORE SWAP2 PUSH1 0x20 ADD SWAP2 PUSH2 0x706 JUMP JUMPDEST DUP3 ADD SWAP2 SWAP1 PUSH1 0x0 MSTORE PUSH1 0x20 PUSH1 0x0 KECCAK256 SWAP1 JUMPDEST DUP2 SLOAD DUP2 MSTORE SWAP1 PUSH1 0x1 ADD SWAP1 PUSH1 0x20 ADD DUP1 DUP4 GT PUSH2 0x6E9 JUMPI DUP3 SWAP1 SUB PUSH1 0x1F AND DUP3 ADD SWAP2 JUMPDEST POP POP POP POP POP DUP2 JUMP JUMPDEST PUSH1 0x0 DUP2 PUSH1 0x6 PUSH1 0x0 CALLER PUSH20 0xFFFFFFFFFFFFFFFFFFFFFFFFFFFFFFFFFFFFFFFF AND PUSH20 0xFFFFFFFFFFFFFFFFFFFFFFFFFFFFFFFFFFFFFFFF AND DUP2 MSTORE PUSH1 0x20 ADD SWAP1 DUP2 MSTORE PUSH1 0x20 ADD PUSH1 0x0 KECCAK256 PUSH1 0x0 DUP6 PUSH20 0xFFFFFFFFFFFFFFFFFFFFFFFFFFFFFFFFFFFFFFFF AND PUSH20 0xFFFFFFFFFFFFFFFFFFFFFFFFFFFFFFFFFFFFFFFF AND DUP2 MSTORE PUSH1 0x20 ADD SWAP1 DUP2 MSTORE PUSH1 0x20 ADD PUSH1 0x0 KECCAK256 DUP2 SWAP1 SSTORE POP PUSH1 0x1 SWAP1 POP SWAP3 SWAP2 POP POP JUMP JUMPDEST PUSH1 0x3 SLOAD DUP2 JUMP JUMPDEST PUSH1 0x0 DUP2 PUSH1 0x6 PUSH1 0x0 DUP7 PUSH20 0xFFFFFFFFFFFFFFFFFFFFFFFFFFFFFFFFFFFFFFFF AND PUSH20 0xFFFFFFFFFFFFFFFFFFFFFFFFFFFFFFFFFFFFFFFF AND DUP2 MSTORE PUSH1 0x20 ADD SWAP1 DUP2 MSTORE PUSH1 0x20 ADD PUSH1 0x0 KECCAK256 PUSH1 0x0 CALLER PUSH20 0xFFFFFFFFFFFFFFFFFFFFFFFFFFFFFFFFFFFFFFFF AND PUSH20 0xFFFFFFFFFFFFFFFFFFFFFFFFFFFFFFFFFFFFFFFF AND DUP2 MSTORE PUSH1 0x20 ADD SWAP1 DUP2 MSTORE PUSH1 0x20 ADD PUSH1 0x0 KECCAK256 SLOAD LT ISZERO PUSH2 0x82C JUMPI PUSH1 0x0 DUP1 REVERT JUMPDEST DUP2 PUSH1 0x6 PUSH1 0x0 DUP7 PUSH20 0xFFFFFFFFFFFFFFFFFFFFFFFFFFFFFFFFFFFFFFFF AND PUSH20 0xFFFFFFFFFFFFFFFFFFFFFFFFFFFFFFFFFFFFFFFF AND DUP2 MSTORE PUSH1 0x20 ADD SWAP1 DUP2 MSTORE PUSH1 0x20 ADD PUSH1 0x0 KECCAK256 PUSH1 0x0 CALLER PUSH20 0xFFFFFFFFFFFFFFFFFFFFFFFFFFFFFFFFFFFFFFFF AND PUSH20 0xFFFFFFFFFFFFFFFFFFFFFFFFFFFFFFFFFFFFFFFF AND DUP2 MSTORE PUSH1 0x20 ADD SWAP1 DUP2 MSTORE PUSH1 0x20 ADD PUSH1 0x0 KECCAK256 PUSH1 0x0 DUP3 DUP3 SLOAD PUSH2 0x8B8 SWAP2 SWAP1 PUSH2 0x1AAD JUMP JUMPDEST SWAP3 POP POP DUP2 SWAP1 SSTORE POP DUP2 PUSH1 0x5 PUSH1 0x0 DUP7 PUSH20 0xFFFFFFFFFFFFFFFFFFFFFFFFFFFFFFFFFFFFFFFF AND PUSH20 0xFFFFFFFFFFFFFFFFFFFFFFFFFFFFFFFFFFFFFFFF AND DUP2 MSTORE PUSH1 0x20 ADD SWAP1 DUP2 MSTORE PUSH1 0x20 ADD PUSH1 0x0 KECCAK256 PUSH1 0x0 DUP3 DUP3 SLOAD PUSH2 0x90E SWAP2 SWAP1 PUSH2 0x1AAD JUMP JUMPDEST SWAP3 POP POP DUP2 SWAP1 SSTORE POP DUP2 PUSH1 0x5 PUSH1 0x0 DUP6 PUSH20 0xFFFFFFFFFFFFFFFFFFFFFFFFFFFFFFFFFFFFFFFF AND PUSH20 0xFFFFFFFFFFFFFFFFFFFFFFFFFFFFFFFFFFFFFFFF AND DUP2 MSTORE PUSH1 0x20 ADD SWAP1 DUP2 MSTORE PUSH1 0x20 ADD PUSH1 0x0 KECCAK256 PUSH1 0x0 DUP3 DUP3 SLOAD PUSH2 0x964 SWAP2 SWAP1 PUSH2 0x1AE1 JUMP JUMPDEST SWAP3 POP POP DUP2 SWAP1 SSTORE POP PUSH1 0x1 SWAP1 POP SWAP4 SWAP3 POP POP POP JUMP JUMPDEST PUSH1 0x5 PUSH1 0x20 MSTORE DUP1 PUSH1 0x0 MSTORE PUSH1 0x40 PUSH1 0x0 KECCAK256 PUSH1 0x0 SWAP2 POP SWAP1 POP SLOAD DUP2 JUMP JUMPDEST PUSH1 0x2 PUSH1 0x0 SWAP1 SLOAD SWAP1 PUSH2 0x100 EXP SWAP1 DIV PUSH1 0xFF AND DUP2 JUMP JUMPDEST PUSH1 0xB DUP2 DUP2 SLOAD DUP2 LT PUSH2 0x9B1 JUMPI PUSH1 0x0 DUP1 REVERT JUMPDEST SWAP1 PUSH1 0x0 MSTORE PUSH1 0x20 PUSH1 0x0 KECCAK256 ADD PUSH1 0x0 SWAP2 POP SWAP1 POP DUP1 PUSH1 0x0 ADD PUSH1 0x0 SWAP1 SLOAD SWAP1 PUSH2 0x100 EXP SWAP1 DIV PUSH20 0xFFFFFFFFFFFFFFFFFFFFFFFFFFFFFFFFFFFFFFFF AND SWAP1 POP DUP2 JUMP JUMPDEST PUSH1 0xA PUSH1 0x20 MSTORE DUP2 PUSH1 0x0 MSTORE PUSH1 0x40 PUSH1 0x0 KECCAK256 DUP2 DUP2 SLOAD DUP2 LT PUSH2 0xA07 JUMPI PUSH1 0x0 DUP1 REVERT JUMPDEST SWAP1 PUSH1 0x0 MSTORE PUSH1 0x20 PUSH1 0x0 KECCAK256 SWAP1 PUSH1 0x2 MUL ADD PUSH1 0x0 SWAP2 POP SWAP2 POP POP DUP1 PUSH1 0x0 ADD DUP1 SLOAD PUSH2 0xA2B SWAP1 PUSH2 0x2118 JUMP JUMPDEST DUP1 PUSH1 0x1F ADD PUSH1 0x20 DUP1 SWAP2 DIV MUL PUSH1 0x20 ADD PUSH1 0x40 MLOAD SWAP1 DUP2 ADD PUSH1 0x40 MSTORE DUP1 SWAP3 SWAP2 SWAP1 DUP2 DUP2 MSTORE PUSH1 0x20 ADD DUP3 DUP1 SLOAD PUSH2 0xA57 SWAP1 PUSH2 0x2118 JUMP JUMPDEST DUP1 ISZERO PUSH2 0xAA4 JUMPI DUP1 PUSH1 0x1F LT PUSH2 0xA79 JUMPI PUSH2 0x100 DUP1 DUP4 SLOAD DIV MUL DUP4 MSTORE SWAP2 PUSH1 0x20 ADD SWAP2 PUSH2 0xAA4 JUMP JUMPDEST DUP3 ADD SWAP2 SWAP1 PUSH1 0x0 MSTORE PUSH1 0x20 PUSH1 0x0 KECCAK256 SWAP1 JUMPDEST DUP2 SLOAD DUP2 MSTORE SWAP1 PUSH1 0x1 ADD SWAP1 PUSH1 0x20 ADD DUP1 DUP4 GT PUSH2 0xA87 JUMPI DUP3 SWAP1 SUB PUSH1 0x1F AND DUP3 ADD SWAP2 JUMPDEST POP POP POP POP POP SWAP1 DUP1 PUSH1 0x1 ADD DUP1 SLOAD PUSH2 0xAB9 SWAP1 PUSH2 0x2118 JUMP JUMPDEST DUP1 PUSH1 0x1F ADD PUSH1 0x20 DUP1 SWAP2 DIV MUL PUSH1 0x20 ADD PUSH1 0x40 MLOAD SWAP1 DUP2 ADD PUSH1 0x40 MSTORE DUP1 SWAP3 SWAP2 SWAP1 DUP2 DUP2 MSTORE PUSH1 0x20 ADD DUP3 DUP1 SLOAD PUSH2 0xAE5 SWAP1 PUSH2 0x2118 JUMP JUMPDEST DUP1 ISZERO PUSH2 0xB32 JUMPI DUP1 PUSH1 0x1F LT PUSH2 0xB07 JUMPI PUSH2 0x100 DUP1 DUP4 SLOAD DIV MUL DUP4 MSTORE SWAP2 PUSH1 0x20 ADD SWAP2 PUSH2 0xB32 JUMP JUMPDEST DUP3 ADD SWAP2 SWAP1 PUSH1 0x0 MSTORE PUSH1 0x20 PUSH1 0x0 KECCAK256 SWAP1 JUMPDEST DUP2 SLOAD DUP2 MSTORE SWAP1 PUSH1 0x1 ADD SWAP1 PUSH1 0x20 ADD DUP1 DUP4 GT PUSH2 0xB15 JUMPI DUP3 SWAP1 SUB PUSH1 0x1F AND DUP3 ADD SWAP2 JUMPDEST POP POP POP POP POP SWAP1 POP DUP3 JUMP JUMPDEST DUP1 PUSH1 0x5 PUSH1 0x0 CALLER PUSH20 0xFFFFFFFFFFFFFFFFFFFFFFFFFFFFFFFFFFFFFFFF AND PUSH20 0xFFFFFFFFFFFFFFFFFFFFFFFFFFFFFFFFFFFFFFFF AND DUP2 MSTORE PUSH1 0x20 ADD SWAP1 DUP2 MSTORE PUSH1 0x20 ADD PUSH1 0x0 KECCAK256 PUSH1 0x0 DUP3 DUP3 SLOAD PUSH2 0xB8B SWAP2 SWAP1 PUSH2 0x1AAD JUMP JUMPDEST SWAP3 POP POP DUP2 SWAP1 SSTORE POP DUP1 PUSH1 0x3 PUSH1 0x0 DUP3 DUP3 SLOAD PUSH2 0xBA4 SWAP2 SWAP1 PUSH2 0x1AAD JUMP JUMPDEST SWAP3 POP POP DUP2 SWAP1 SSTORE POP POP JUMP JUMPDEST PUSH1 0x0 PUSH1 0x5 PUSH1 0x0 DUP4 PUSH20 0xFFFFFFFFFFFFFFFFFFFFFFFFFFFFFFFFFFFFFFFF AND PUSH20 0xFFFFFFFFFFFFFFFFFFFFFFFFFFFFFFFFFFFFFFFF AND DUP2 MSTORE PUSH1 0x20 ADD SWAP1 DUP2 MSTORE PUSH1 0x20 ADD PUSH1 0x0 KECCAK256 SLOAD SWAP1 POP SWAP2 SWAP1 POP JUMP JUMPDEST PUSH1 0x60 PUSH1 0xB DUP1 SLOAD DUP1 PUSH1 0x20 MUL PUSH1 0x20 ADD PUSH1 0x40 MLOAD SWAP1 DUP2 ADD PUSH1 0x40 MSTORE DUP1 SWAP3 SWAP2 SWAP1 DUP2 DUP2 MSTORE PUSH1 0x20 ADD PUSH1 0x0 SWAP1 JUMPDEST DUP3 DUP3 LT ISZERO PUSH2 0xC9F JUMPI DUP4 DUP3 SWAP1 PUSH1 0x0 MSTORE PUSH1 0x20 PUSH1 0x0 KECCAK256 ADD PUSH1 0x40 MLOAD DUP1 PUSH1 0x20 ADD PUSH1 0x40 MSTORE SWAP1 DUP2 PUSH1 0x0 DUP3 ADD PUSH1 0x0 SWAP1 SLOAD SWAP1 PUSH2 0x100 EXP SWAP1 DIV PUSH20 0xFFFFFFFFFFFFFFFFFFFFFFFFFFFFFFFFFFFFFFFF AND PUSH20 0xFFFFFFFFFFFFFFFFFFFFFFFFFFFFFFFFFFFFFFFF AND PUSH20 0xFFFFFFFFFFFFFFFFFFFFFFFFFFFFFFFFFFFFFFFF AND DUP2 MSTORE POP POP DUP2 MSTORE PUSH1 0x20 ADD SWAP1 PUSH1 0x1 ADD SWAP1 PUSH2 0xC1B JUMP JUMPDEST POP POP POP POP SWAP1 POP SWAP1 JUMP JUMPDEST PUSH1 0x60 PUSH1 0xA PUSH1 0x0 CALLER PUSH20 0xFFFFFFFFFFFFFFFFFFFFFFFFFFFFFFFFFFFFFFFF AND PUSH20 0xFFFFFFFFFFFFFFFFFFFFFFFFFFFFFFFFFFFFFFFF AND DUP2 MSTORE PUSH1 0x20 ADD SWAP1 DUP2 MSTORE PUSH1 0x20 ADD PUSH1 0x0 KECCAK256 DUP1 SLOAD DUP1 PUSH1 0x20 MUL PUSH1 0x20 ADD PUSH1 0x40 MLOAD SWAP1 DUP2 ADD PUSH1 0x40 MSTORE DUP1 SWAP3 SWAP2 SWAP1 DUP2 DUP2 MSTORE PUSH1 0x20 ADD PUSH1 0x0 SWAP1 JUMPDEST DUP3 DUP3 LT ISZERO PUSH2 0xE5F JUMPI DUP4 DUP3 SWAP1 PUSH1 0x0 MSTORE PUSH1 0x20 PUSH1 0x0 KECCAK256 SWAP1 PUSH1 0x2 MUL ADD PUSH1 0x40 MLOAD DUP1 PUSH1 0x40 ADD PUSH1 0x40 MSTORE SWAP1 DUP2 PUSH1 0x0 DUP3 ADD DUP1 SLOAD PUSH2 0xD3C SWAP1 PUSH2 0x2118 JUMP JUMPDEST DUP1 PUSH1 0x1F ADD PUSH1 0x20 DUP1 SWAP2 DIV MUL PUSH1 0x20 ADD PUSH1 0x40 MLOAD SWAP1 DUP2 ADD PUSH1 0x40 MSTORE DUP1 SWAP3 SWAP2 SWAP1 DUP2 DUP2 MSTORE PUSH1 0x20 ADD DUP3 DUP1 SLOAD PUSH2 0xD68 SWAP1 PUSH2 0x2118 JUMP JUMPDEST DUP1 ISZERO PUSH2 0xDB5 JUMPI DUP1 PUSH1 0x1F LT PUSH2 0xD8A JUMPI PUSH2 0x100 DUP1 DUP4 SLOAD DIV MUL DUP4 MSTORE SWAP2 PUSH1 0x20 ADD SWAP2 PUSH2 0xDB5 JUMP JUMPDEST DUP3 ADD SWAP2 SWAP1 PUSH1 0x0 MSTORE PUSH1 0x20 PUSH1 0x0 KECCAK256 SWAP1 JUMPDEST DUP2 SLOAD DUP2 MSTORE SWAP1 PUSH1 0x1 ADD SWAP1 PUSH1 0x20 ADD DUP1 DUP4 GT PUSH2 0xD98 JUMPI DUP3 SWAP1 SUB PUSH1 0x1F AND DUP3 ADD SWAP2 JUMPDEST POP POP POP POP POP DUP2 MSTORE PUSH1 0x20 ADD PUSH1 0x1 DUP3 ADD DUP1 SLOAD PUSH2 0xDCE SWAP1 PUSH2 0x2118 JUMP JUMPDEST DUP1 PUSH1 0x1F ADD PUSH1 0x20 DUP1 SWAP2 DIV MUL PUSH1 0x20 ADD PUSH1 0x40 MLOAD SWAP1 DUP2 ADD PUSH1 0x40 MSTORE DUP1 SWAP3 SWAP2 SWAP1 DUP2 DUP2 MSTORE PUSH1 0x20 ADD DUP3 DUP1 SLOAD PUSH2 0xDFA SWAP1 PUSH2 0x2118 JUMP JUMPDEST DUP1 ISZERO PUSH2 0xE47 JUMPI DUP1 PUSH1 0x1F LT PUSH2 0xE1C JUMPI PUSH2 0x100 DUP1 DUP4 SLOAD DIV MUL DUP4 MSTORE SWAP2 PUSH1 0x20 ADD SWAP2 PUSH2 0xE47 JUMP JUMPDEST DUP3 ADD SWAP2 SWAP1 PUSH1 0x0 MSTORE PUSH1 0x20 PUSH1 0x0 KECCAK256 SWAP1 JUMPDEST DUP2 SLOAD DUP2 MSTORE SWAP1 PUSH1 0x1 ADD SWAP1 PUSH1 0x20 ADD DUP1 DUP4 GT PUSH2 0xE2A JUMPI DUP3 SWAP1 SUB PUSH1 0x1F AND DUP3 ADD SWAP2 JUMPDEST POP POP POP POP POP DUP2 MSTORE POP POP DUP2 MSTORE PUSH1 0x20 ADD SWAP1 PUSH1 0x1 ADD SWAP1 PUSH2 0xD09 JUMP JUMPDEST POP POP POP POP SWAP1 POP SWAP1 JUMP JUMPDEST PUSH1 0x1 DUP1 SLOAD PUSH2 0xE75 SWAP1 PUSH2 0x2118 JUMP JUMPDEST DUP1 PUSH1 0x1F ADD PUSH1 0x20 DUP1 SWAP2 DIV MUL PUSH1 0x20 ADD PUSH1 0x40 MLOAD SWAP1 DUP2 ADD PUSH1 0x40 MSTORE DUP1 SWAP3 SWAP2 SWAP1 DUP2 DUP2 MSTORE PUSH1 0x20 ADD DUP3 DUP1 SLOAD PUSH2 0xEA1 SWAP1 PUSH2 0x2118 JUMP JUMPDEST DUP1 ISZERO PUSH2 0xEEE JUMPI DUP1 PUSH1 0x1F LT PUSH2 0xEC3 JUMPI PUSH2 0x100 DUP1 DUP4 SLOAD DIV MUL DUP4 MSTORE SWAP2 PUSH1 0x20 ADD SWAP2 PUSH2 0xEEE JUMP JUMPDEST DUP3 ADD SWAP2 SWAP1 PUSH1 0x0 MSTORE PUSH1 0x20 PUSH1 0x0 KECCAK256 SWAP1 JUMPDEST DUP2 SLOAD DUP2 MSTORE SWAP1 PUSH1 0x1 ADD SWAP1 PUSH1 0x20 ADD DUP1 DUP4 GT PUSH2 0xED1 JUMPI DUP3 SWAP1 SUB PUSH1 0x1F AND DUP3 ADD SWAP2 JUMPDEST POP POP POP POP POP DUP2 JUMP JUMPDEST PUSH1 0x0 DUP2 PUSH1 0x5 PUSH1 0x0 CALLER PUSH20 0xFFFFFFFFFFFFFFFFFFFFFFFFFFFFFFFFFFFFFFFF AND PUSH20 0xFFFFFFFFFFFFFFFFFFFFFFFFFFFFFFFFFFFFFFFF AND DUP2 MSTORE PUSH1 0x20 ADD SWAP1 DUP2 MSTORE PUSH1 0x20 ADD PUSH1 0x0 KECCAK256 PUSH1 0x0 DUP3 DUP3 SLOAD PUSH2 0xF47 SWAP2 SWAP1 PUSH2 0x1AAD JUMP JUMPDEST SWAP3 POP POP DUP2 SWAP1 SSTORE POP DUP2 PUSH1 0x5 PUSH1 0x0 DUP6 PUSH20 0xFFFFFFFFFFFFFFFFFFFFFFFFFFFFFFFFFFFFFFFF AND PUSH20 0xFFFFFFFFFFFFFFFFFFFFFFFFFFFFFFFFFFFFFFFF AND DUP2 MSTORE PUSH1 0x20 ADD SWAP1 DUP2 MSTORE PUSH1 0x20 ADD PUSH1 0x0 KECCAK256 PUSH1 0x0 DUP3 DUP3 SLOAD PUSH2 0xF9D SWAP2 SWAP1 PUSH2 0x1AE1 JUMP JUMPDEST SWAP3 POP POP DUP2 SWAP1 SSTORE POP PUSH1 0x1 SWAP1 POP SWAP3 SWAP2 POP POP JUMP JUMPDEST PUSH1 0x7 SLOAD PUSH1 0x5 PUSH1 0x0 CALLER PUSH20 0xFFFFFFFFFFFFFFFFFFFFFFFFFFFFFFFFFFFFFFFF AND PUSH20 0xFFFFFFFFFFFFFFFFFFFFFFFFFFFFFFFFFFFFFFFF AND DUP2 MSTORE PUSH1 0x20 ADD SWAP1 DUP2 MSTORE PUSH1 0x20 ADD PUSH1 0x0 KECCAK256 SLOAD LT ISZERO PUSH2 0xFFC JUMPI PUSH1 0x0 DUP1 REVERT JUMPDEST PUSH1 0x7 SLOAD PUSH1 0x5 PUSH1 0x0 CALLER PUSH20 0xFFFFFFFFFFFFFFFFFFFFFFFFFFFFFFFFFFFFFFFF AND PUSH20 0xFFFFFFFFFFFFFFFFFFFFFFFFFFFFFFFFFFFFFFFF AND DUP2 MSTORE PUSH1 0x20 ADD SWAP1 DUP2 MSTORE PUSH1 0x20 ADD PUSH1 0x0 KECCAK256 PUSH1 0x0 DUP3 DUP3 SLOAD PUSH2 0x104D SWAP2 SWAP1 PUSH2 0x1AAD JUMP JUMPDEST SWAP3 POP POP DUP2 SWAP1 SSTORE POP PUSH1 0x7 SLOAD PUSH1 0x3 PUSH1 0x0 DUP3 DUP3 SLOAD PUSH2 0x1068 SWAP2 SWAP1 PUSH2 0x1AAD JUMP JUMPDEST SWAP3 POP POP DUP2 SWAP1 SSTORE POP PUSH1 0x0 TIMESTAMP COINBASE NUMBER PUSH1 0x40 MLOAD PUSH1 0x20 ADD PUSH2 0x1086 SWAP4 SWAP3 SWAP2 SWAP1 PUSH2 0x21C4 JUMP JUMPDEST PUSH1 0x40 MLOAD PUSH1 0x20 DUP2 DUP4 SUB SUB DUP2 MSTORE SWAP1 PUSH1 0x40 MSTORE DUP1 MLOAD SWAP1 PUSH1 0x20 ADD KECCAK256 PUSH1 0x0 SHR SWAP1 POP PUSH1 0x3 DUP2 PUSH2 0x10AE SWAP2 SWAP1 PUSH2 0x2230 JUMP JUMPDEST SWAP1 POP PUSH1 0xA PUSH1 0x0 CALLER PUSH20 0xFFFFFFFFFFFFFFFFFFFFFFFFFFFFFFFFFFFFFFFF AND PUSH20 0xFFFFFFFFFFFFFFFFFFFFFFFFFFFFFFFFFFFFFFFF AND DUP2 MSTORE PUSH1 0x20 ADD SWAP1 DUP2 MSTORE PUSH1 0x20 ADD PUSH1 0x0 KECCAK256 PUSH1 0x40 MLOAD DUP1 PUSH1 0x40 ADD PUSH1 0x40 MSTORE DUP1 PUSH1 0x9 DUP5 DUP2 SLOAD DUP2 LT PUSH2 0x110E JUMPI PUSH2 0x110D PUSH2 0x2261 JUMP JUMPDEST JUMPDEST SWAP1 PUSH1 0x0 MSTORE PUSH1 0x20 PUSH1 0x0 KECCAK256 ADD DUP1 SLOAD PUSH2 0x1123 SWAP1 PUSH2 0x2118 JUMP JUMPDEST DUP1 PUSH1 0x1F ADD PUSH1 0x20 DUP1 SWAP2 DIV MUL PUSH1 0x20 ADD PUSH1 0x40 MLOAD SWAP1 DUP2 ADD PUSH1 0x40 MSTORE DUP1 SWAP3 SWAP2 SWAP1 DUP2 DUP2 MSTORE PUSH1 0x20 ADD DUP3 DUP1 SLOAD PUSH2 0x114F SWAP1 PUSH2 0x2118 JUMP JUMPDEST DUP1 ISZERO PUSH2 0x119C JUMPI DUP1 PUSH1 0x1F LT PUSH2 0x1171 JUMPI PUSH2 0x100 DUP1 DUP4 SLOAD DIV MUL DUP4 MSTORE SWAP2 PUSH1 0x20 ADD SWAP2 PUSH2 0x119C JUMP JUMPDEST DUP3 ADD SWAP2 SWAP1 PUSH1 0x0 MSTORE PUSH1 0x20 PUSH1 0x0 KECCAK256 SWAP1 JUMPDEST DUP2 SLOAD DUP2 MSTORE SWAP1 PUSH1 0x1 ADD SWAP1 PUSH1 0x20 ADD DUP1 DUP4 GT PUSH2 0x117F JUMPI DUP3 SWAP1 SUB PUSH1 0x1F AND DUP3 ADD SWAP2 JUMPDEST POP POP POP POP POP DUP2 MSTORE PUSH1 0x20 ADD PUSH1 0x8 DUP5 DUP2 SLOAD DUP2 LT PUSH2 0x11BA JUMPI PUSH2 0x11B9 PUSH2 0x2261 JUMP JUMPDEST JUMPDEST SWAP1 PUSH1 0x0 MSTORE PUSH1 0x20 PUSH1 0x0 KECCAK256 ADD DUP1 SLOAD PUSH2 0x11CF SWAP1 PUSH2 0x2118 JUMP JUMPDEST DUP1 PUSH1 0x1F ADD PUSH1 0x20 DUP1 SWAP2 DIV MUL PUSH1 0x20 ADD PUSH1 0x40 MLOAD SWAP1 DUP2 ADD PUSH1 0x40 MSTORE DUP1 SWAP3 SWAP2 SWAP1 DUP2 DUP2 MSTORE PUSH1 0x20 ADD DUP3 DUP1 SLOAD PUSH2 0x11FB SWAP1 PUSH2 0x2118 JUMP JUMPDEST DUP1 ISZERO PUSH2 0x1248 JUMPI DUP1 PUSH1 0x1F LT PUSH2 0x121D JUMPI PUSH2 0x100 DUP1 DUP4 SLOAD DIV MUL DUP4 MSTORE SWAP2 PUSH1 0x20 ADD SWAP2 PUSH2 0x1248 JUMP JUMPDEST DUP3 ADD SWAP2 SWAP1 PUSH1 0x0 MSTORE PUSH1 0x20 PUSH1 0x0 KECCAK256 SWAP1 JUMPDEST DUP2 SLOAD DUP2 MSTORE SWAP1 PUSH1 0x1 ADD SWAP1 PUSH1 0x20 ADD DUP1 DUP4 GT PUSH2 0x122B JUMPI DUP3 SWAP1 SUB PUSH1 0x1F AND DUP3 ADD SWAP2 JUMPDEST POP POP POP POP POP DUP2 MSTORE POP SWAP1 DUP1 PUSH1 0x1 DUP2 SLOAD ADD DUP1 DUP3 SSTORE DUP1 SWAP2 POP POP PUSH1 0x1 SWAP1 SUB SWAP1 PUSH1 0x0 MSTORE PUSH1 0x20 PUSH1 0x0 KECCAK256 SWAP1 PUSH1 0x2 MUL ADD PUSH1 0x0 SWAP1 SWAP2 SWAP1 SWAP2 SWAP1 SWAP2 POP PUSH1 0x0 DUP3 ADD MLOAD DUP2 PUSH1 0x0 ADD SWAP1 DUP2 PUSH2 0x128E SWAP2 SWAP1 PUSH2 0x246B JUMP JUMPDEST POP PUSH1 0x20 DUP3 ADD MLOAD DUP2 PUSH1 0x1 ADD SWAP1 DUP2 PUSH2 0x12A4 SWAP2 SWAP1 PUSH2 0x246B JUMP JUMPDEST POP POP POP PUSH1 0x0 DUP1 JUMPDEST PUSH1 0xB DUP1 SLOAD SWAP1 POP DUP2 LT ISZERO PUSH2 0x1348 JUMPI CALLER PUSH20 0xFFFFFFFFFFFFFFFFFFFFFFFFFFFFFFFFFFFFFFFF AND PUSH1 0xB DUP3 DUP2 SLOAD DUP2 LT PUSH2 0x12E3 JUMPI PUSH2 0x12E2 PUSH2 0x2261 JUMP JUMPDEST JUMPDEST SWAP1 PUSH1 0x0 MSTORE PUSH1 0x20 PUSH1 0x0 KECCAK256 ADD PUSH1 0x0 ADD PUSH1 0x0 SWAP1 SLOAD SWAP1 PUSH2 0x100 EXP SWAP1 DIV PUSH20 0xFFFFFFFFFFFFFFFFFFFFFFFFFFFFFFFFFFFFFFFF AND PUSH20 0xFFFFFFFFFFFFFFFFFFFFFFFFFFFFFFFFFFFFFFFF AND SUB PUSH2 0x1335 JUMPI PUSH1 0x1 SWAP2 POP PUSH2 0x1348 JUMP JUMPDEST DUP1 DUP1 PUSH2 0x1340 SWAP1 PUSH2 0x253D JUMP JUMPDEST SWAP2 POP POP PUSH2 0x12AB JUMP JUMPDEST POP DUP1 PUSH2 0x13E4 JUMPI PUSH1 0xB PUSH1 0x40 MLOAD DUP1 PUSH1 0x20 ADD PUSH1 0x40 MSTORE DUP1 CALLER PUSH20 0xFFFFFFFFFFFFFFFFFFFFFFFFFFFFFFFFFFFFFFFF AND DUP2 MSTORE POP SWAP1 DUP1 PUSH1 0x1 DUP2 SLOAD ADD DUP1 DUP3 SSTORE DUP1 SWAP2 POP POP PUSH1 0x1 SWAP1 SUB SWAP1 PUSH1 0x0 MSTORE PUSH1 0x20 PUSH1 0x0 KECCAK256 ADD PUSH1 0x0 SWAP1 SWAP2 SWAP1 SWAP2 SWAP1 SWAP2 POP PUSH1 0x0 DUP3 ADD MLOAD DUP2 PUSH1 0x0 ADD PUSH1 0x0 PUSH2 0x100 EXP DUP2 SLOAD DUP2 PUSH20 0xFFFFFFFFFFFFFFFFFFFFFFFFFFFFFFFFFFFFFFFF MUL NOT AND SWAP1 DUP4 PUSH20 0xFFFFFFFFFFFFFFFFFFFFFFFFFFFFFFFFFFFFFFFF AND MUL OR SWAP1 SSTORE POP POP POP JUMPDEST POP POP JUMP JUMPDEST PUSH1 0x0 PUSH1 0xA PUSH1 0x0 CALLER PUSH20 0xFFFFFFFFFFFFFFFFFFFFFFFFFFFFFFFFFFFFFFFF AND PUSH20 0xFFFFFFFFFFFFFFFFFFFFFFFFFFFFFFFFFFFFFFFF AND DUP2 MSTORE PUSH1 0x20 ADD SWAP1 DUP2 MSTORE PUSH1 0x20 ADD PUSH1 0x0 KECCAK256 DUP1 SLOAD SWAP1 POP GT PUSH2 0x146D JUMPI PUSH1 0x40 MLOAD PUSH32 0x8C379A000000000000000000000000000000000000000000000000000000000 DUP2 MSTORE PUSH1 0x4 ADD PUSH2 0x1464 SWAP1 PUSH2 0x25F7 JUMP JUMPDEST PUSH1 0x40 MLOAD DUP1 SWAP2 SUB SWAP1 REVERT JUMPDEST PUSH1 0x0 PUSH1 0x1 PUSH1 0xA PUSH1 0x0 CALLER PUSH20 0xFFFFFFFFFFFFFFFFFFFFFFFFFFFFFFFFFFFFFFFF AND PUSH20 0xFFFFFFFFFFFFFFFFFFFFFFFFFFFFFFFFFFFFFFFF AND DUP2 MSTORE PUSH1 0x20 ADD SWAP1 DUP2 MSTORE PUSH1 0x20 ADD PUSH1 0x0 KECCAK256 DUP1 SLOAD SWAP1 POP PUSH2 0x14BE SWAP2 SWAP1 PUSH2 0x1AAD JUMP JUMPDEST SWAP1 POP DUP1 DUP3 GT ISZERO PUSH2 0x1503 JUMPI PUSH1 0x40 MLOAD PUSH32 0x8C379A000000000000000000000000000000000000000000000000000000000 DUP2 MSTORE PUSH1 0x4 ADD PUSH2 0x14FA SWAP1 PUSH2 0x2663 JUMP JUMPDEST PUSH1 0x40 MLOAD DUP1 SWAP2 SUB SWAP1 REVERT JUMPDEST PUSH1 0xA PUSH1 0x0 CALLER PUSH20 0xFFFFFFFFFFFFFFFFFFFFFFFFFFFFFFFFFFFFFFFF AND PUSH20 0xFFFFFFFFFFFFFFFFFFFFFFFFFFFFFFFFFFFFFFFF AND DUP2 MSTORE PUSH1 0x20 ADD SWAP1 DUP2 MSTORE PUSH1 0x20 ADD PUSH1 0x0 KECCAK256 DUP2 DUP2 SLOAD DUP2 LT PUSH2 0x1554 JUMPI PUSH2 0x1553 PUSH2 0x2261 JUMP JUMPDEST JUMPDEST SWAP1 PUSH1 0x0 MSTORE PUSH1 0x20 PUSH1 0x0 KECCAK256 SWAP1 PUSH1 0x2 MUL ADD PUSH1 0xA PUSH1 0x0 CALLER PUSH20 0xFFFFFFFFFFFFFFFFFFFFFFFFFFFFFFFFFFFFFFFF AND PUSH20 0xFFFFFFFFFFFFFFFFFFFFFFFFFFFFFFFFFFFFFFFF AND DUP2 MSTORE PUSH1 0x20 ADD SWAP1 DUP2 MSTORE PUSH1 0x20 ADD PUSH1 0x0 KECCAK256 DUP4 DUP2 SLOAD DUP2 LT PUSH2 0x15B3 JUMPI PUSH2 0x15B2 PUSH2 0x2261 JUMP JUMPDEST JUMPDEST SWAP1 PUSH1 0x0 MSTORE PUSH1 0x20 PUSH1 0x0 KECCAK256 SWAP1 PUSH1 0x2 MUL ADD PUSH1 0x0 DUP3 ADD DUP2 PUSH1 0x0 ADD SWAP1 DUP2 PUSH2 0x15D5 SWAP2 SWAP1 PUSH2 0x2699 JUMP JUMPDEST POP PUSH1 0x1 DUP3 ADD DUP2 PUSH1 0x1 ADD SWAP1 DUP2 PUSH2 0x15EA SWAP2 SWAP1 PUSH2 0x2699 JUMP JUMPDEST POP SWAP1 POP POP PUSH1 0xA PUSH1 0x0 CALLER PUSH20 0xFFFFFFFFFFFFFFFFFFFFFFFFFFFFFFFFFFFFFFFF AND PUSH20 0xFFFFFFFFFFFFFFFFFFFFFFFFFFFFFFFFFFFFFFFF AND DUP2 MSTORE PUSH1 0x20 ADD SWAP1 DUP2 MSTORE PUSH1 0x20 ADD PUSH1 0x0 KECCAK256 DUP1 SLOAD DUP1 PUSH2 0x163D JUMPI PUSH2 0x163C PUSH2 0x2781 JUMP JUMPDEST JUMPDEST PUSH1 0x1 SWAP1 SUB DUP2 DUP2 SWAP1 PUSH1 0x0 MSTORE PUSH1 0x20 PUSH1 0x0 KECCAK256 SWAP1 PUSH1 0x2 MUL ADD PUSH1 0x0 DUP1 DUP3 ADD PUSH1 0x0 PUSH2 0x1662 SWAP2 SWAP1 PUSH2 0x19D5 JUMP JUMPDEST PUSH1 0x1 DUP3 ADD PUSH1 0x0 PUSH2 0x1672 SWAP2 SWAP1 PUSH2 0x19D5 JUMP JUMPDEST POP POP SWAP1 SSTORE PUSH1 0xA PUSH1 0x0 DUP5 PUSH20 0xFFFFFFFFFFFFFFFFFFFFFFFFFFFFFFFFFFFFFFFF AND PUSH20 0xFFFFFFFFFFFFFFFFFFFFFFFFFFFFFFFFFFFFFFFF AND DUP2 MSTORE PUSH1 0x20 ADD SWAP1 DUP2 MSTORE PUSH1 0x20 ADD PUSH1 0x0 KECCAK256 PUSH1 0x40 MLOAD DUP1 PUSH1 0x40 ADD PUSH1 0x40 MSTORE DUP1 PUSH1 0x9 DUP6 DUP2 SLOAD DUP2 LT PUSH2 0x16D4 JUMPI PUSH2 0x16D3 PUSH2 0x2261 JUMP JUMPDEST JUMPDEST SWAP1 PUSH1 0x0 MSTORE PUSH1 0x20 PUSH1 0x0 KECCAK256 ADD DUP1 SLOAD PUSH2 0x16E9 SWAP1 PUSH2 0x2118 JUMP JUMPDEST DUP1 PUSH1 0x1F ADD PUSH1 0x20 DUP1 SWAP2 DIV MUL PUSH1 0x20 ADD PUSH1 0x40 MLOAD SWAP1 DUP2 ADD PUSH1 0x40 MSTORE DUP1 SWAP3 SWAP2 SWAP1 DUP2 DUP2 MSTORE PUSH1 0x20 ADD DUP3 DUP1 SLOAD PUSH2 0x1715 SWAP1 PUSH2 0x2118 JUMP JUMPDEST DUP1 ISZERO PUSH2 0x1762 JUMPI DUP1 PUSH1 0x1F LT PUSH2 0x1737 JUMPI PUSH2 0x100 DUP1 DUP4 SLOAD DIV MUL DUP4 MSTORE SWAP2 PUSH1 0x20 ADD SWAP2 PUSH2 0x1762 JUMP JUMPDEST DUP3 ADD SWAP2 SWAP1 PUSH1 0x0 MSTORE PUSH1 0x20 PUSH1 0x0 KECCAK256 SWAP1 JUMPDEST DUP2 SLOAD DUP2 MSTORE SWAP1 PUSH1 0x1 ADD SWAP1 PUSH1 0x20 ADD DUP1 DUP4 GT PUSH2 0x1745 JUMPI DUP3 SWAP1 SUB PUSH1 0x1F AND DUP3 ADD SWAP2 JUMPDEST POP POP POP POP POP DUP2 MSTORE PUSH1 0x20 ADD PUSH1 0x8 DUP6 DUP2 SLOAD DUP2 LT PUSH2 0x1780 JUMPI PUSH2 0x177F PUSH2 0x2261 JUMP JUMPDEST JUMPDEST SWAP1 PUSH1 0x0 MSTORE PUSH1 0x20 PUSH1 0x0 KECCAK256 ADD DUP1 SLOAD PUSH2 0x1795 SWAP1 PUSH2 0x2118 JUMP JUMPDEST DUP1 PUSH1 0x1F ADD PUSH1 0x20 DUP1 SWAP2 DIV MUL PUSH1 0x20 ADD PUSH1 0x40 MLOAD SWAP1 DUP2 ADD PUSH1 0x40 MSTORE DUP1 SWAP3 SWAP2 SWAP1 DUP2 DUP2 MSTORE PUSH1 0x20 ADD DUP3 DUP1 SLOAD PUSH2 0x17C1 SWAP1 PUSH2 0x2118 JUMP JUMPDEST DUP1 ISZERO PUSH2 0x180E JUMPI DUP1 PUSH1 0x1F LT PUSH2 0x17E3 JUMPI PUSH2 0x100 DUP1 DUP4 SLOAD DIV MUL DUP4 MSTORE SWAP2 PUSH1 0x20 ADD SWAP2 PUSH2 0x180E JUMP JUMPDEST DUP3 ADD SWAP2 SWAP1 PUSH1 0x0 MSTORE PUSH1 0x20 PUSH1 0x0 KECCAK256 SWAP1 JUMPDEST DUP2 SLOAD DUP2 MSTORE SWAP1 PUSH1 0x1 ADD SWAP1 PUSH1 0x20 ADD DUP1 DUP4 GT PUSH2 0x17F1 JUMPI DUP3 SWAP1 SUB PUSH1 0x1F AND DUP3 ADD SWAP2 JUMPDEST POP POP POP POP POP DUP2 MSTORE POP SWAP1 DUP1 PUSH1 0x1 DUP2 SLOAD ADD DUP1 DUP3 SSTORE DUP1 SWAP2 POP POP PUSH1 0x1 SWAP1 SUB SWAP1 PUSH1 0x0 MSTORE PUSH1 0x20 PUSH1 0x0 KECCAK256 SWAP1 PUSH1 0x2 MUL ADD PUSH1 0x0 SWAP1 SWAP2 SWAP1 SWAP2 SWAP1 SWAP2 POP PUSH1 0x0 DUP3 ADD MLOAD DUP2 PUSH1 0x0 ADD SWAP1 DUP2 PUSH2 0x1854 SWAP2 SWAP1 PUSH2 0x246B JUMP JUMPDEST POP PUSH1 0x20 DUP3 ADD MLOAD DUP2 PUSH1 0x1 ADD SWAP1 DUP2 PUSH2 0x186A SWAP2 SWAP1 PUSH2 0x246B JUMP JUMPDEST POP POP POP PUSH1 0x0 DUP1 JUMPDEST PUSH1 0xB DUP1 SLOAD SWAP1 POP DUP2 LT ISZERO PUSH2 0x190E JUMPI DUP5 PUSH20 0xFFFFFFFFFFFFFFFFFFFFFFFFFFFFFFFFFFFFFFFF AND PUSH1 0xB DUP3 DUP2 SLOAD DUP2 LT PUSH2 0x18A9 JUMPI PUSH2 0x18A8 PUSH2 0x2261 JUMP JUMPDEST JUMPDEST SWAP1 PUSH1 0x0 MSTORE PUSH1 0x20 PUSH1 0x0 KECCAK256 ADD PUSH1 0x0 ADD PUSH1 0x0 SWAP1 SLOAD SWAP1 PUSH2 0x100 EXP SWAP1 DIV PUSH20 0xFFFFFFFFFFFFFFFFFFFFFFFFFFFFFFFFFFFFFFFF AND PUSH20 0xFFFFFFFFFFFFFFFFFFFFFFFFFFFFFFFFFFFFFFFF AND SUB PUSH2 0x18FB JUMPI PUSH1 0x1 SWAP2 POP PUSH2 0x190E JUMP JUMPDEST DUP1 DUP1 PUSH2 0x1906 SWAP1 PUSH2 0x253D JUMP JUMPDEST SWAP2 POP POP PUSH2 0x1871 JUMP JUMPDEST POP DUP1 PUSH2 0x19AA JUMPI PUSH1 0xB PUSH1 0x40 MLOAD DUP1 PUSH1 0x20 ADD PUSH1 0x40 MSTORE DUP1 DUP7 PUSH20 0xFFFFFFFFFFFFFFFFFFFFFFFFFFFFFFFFFFFFFFFF AND DUP2 MSTORE POP SWAP1 DUP1 PUSH1 0x1 DUP2 SLOAD ADD DUP1 DUP3 SSTORE DUP1 SWAP2 POP POP PUSH1 0x1 SWAP1 SUB SWAP1 PUSH1 0x0 MSTORE PUSH1 0x20 PUSH1 0x0 KECCAK256 ADD PUSH1 0x0 SWAP1 SWAP2 SWAP1 SWAP2 SWAP1 SWAP2 POP PUSH1 0x0 DUP3 ADD MLOAD DUP2 PUSH1 0x0 ADD PUSH1 0x0 PUSH2 0x100 EXP DUP2 SLOAD DUP2 PUSH20 0xFFFFFFFFFFFFFFFFFFFFFFFFFFFFFFFFFFFFFFFF MUL NOT AND SWAP1 DUP4 PUSH20 0xFFFFFFFFFFFFFFFFFFFFFFFFFFFFFFFFFFFFFFFF AND MUL OR SWAP1 SSTORE POP POP POP JUMPDEST POP POP POP POP JUMP JUMPDEST PUSH1 0x6 PUSH1 0x20 MSTORE DUP2 PUSH1 0x0 MSTORE PUSH1 0x40 PUSH1 0x0 KECCAK256 PUSH1 0x20 MSTORE DUP1 PUSH1 0x0 MSTORE PUSH1 0x40 PUSH1 0x0 KECCAK256 PUSH1 0x0 SWAP2 POP SWAP2 POP POP SLOAD DUP2 JUMP JUMPDEST POP DUP1 SLOAD PUSH2 0x19E1 SWAP1 PUSH2 0x2118 JUMP JUMPDEST PUSH1 0x0 DUP3 SSTORE DUP1 PUSH1 0x1F LT PUSH2 0x19F3 JUMPI POP PUSH2 0x1A12 JUMP JUMPDEST PUSH1 0x1F ADD PUSH1 0x20 SWAP1 DIV SWAP1 PUSH1 0x0 MSTORE PUSH1 0x20 PUSH1 0x0 KECCAK256 SWAP1 DUP2 ADD SWAP1 PUSH2 0x1A11 SWAP2 SWAP1 PUSH2 0x1A15 JUMP JUMPDEST JUMPDEST POP JUMP JUMPDEST JUMPDEST DUP1 DUP3 GT ISZERO PUSH2 0x1A2E JUMPI PUSH1 0x0 DUP2 PUSH1 0x0 SWAP1 SSTORE POP PUSH1 0x1 ADD PUSH2 0x1A16 JUMP JUMPDEST POP SWAP1 JUMP JUMPDEST PUSH1 0x0 DUP2 SWAP1 POP SWAP2 SWAP1 POP JUMP JUMPDEST PUSH32 0x4E487B7100000000000000000000000000000000000000000000000000000000 PUSH1 0x0 MSTORE PUSH1 0x11 PUSH1 0x4 MSTORE PUSH1 0x24 PUSH1 0x0 REVERT JUMPDEST PUSH1 0x0 PUSH2 0x1A76 DUP3 PUSH2 0x1A32 JUMP JUMPDEST SWAP2 POP PUSH2 0x1A81 DUP4 PUSH2 0x1A32 JUMP JUMPDEST SWAP3 POP DUP3 DUP3 MUL PUSH2 0x1A8F DUP2 PUSH2 0x1A32 JUMP JUMPDEST SWAP2 POP DUP3 DUP3 DIV DUP5 EQ DUP4 ISZERO OR PUSH2 0x1AA6 JUMPI PUSH2 0x1AA5 PUSH2 0x1A3C JUMP JUMPDEST JUMPDEST POP SWAP3 SWAP2 POP POP JUMP JUMPDEST PUSH1 0x0 PUSH2 0x1AB8 DUP3 PUSH2 0x1A32 JUMP JUMPDEST SWAP2 POP PUSH2 0x1AC3 DUP4 PUSH2 0x1A32 JUMP JUMPDEST SWAP3 POP DUP3 DUP3 SUB SWAP1 POP DUP2 DUP2 GT ISZERO PUSH2 0x1ADB JUMPI PUSH2 0x1ADA PUSH2 0x1A3C JUMP JUMPDEST JUMPDEST SWAP3 SWAP2 POP POP JUMP JUMPDEST PUSH1 0x0 PUSH2 0x1AEC DUP3 PUSH2 0x1A32 JUMP JUMPDEST SWAP2 POP PUSH2 0x1AF7 DUP4 PUSH2 0x1A32 JUMP JUMPDEST SWAP3 POP DUP3 DUP3 ADD SWAP1 POP DUP1 DUP3 GT ISZERO PUSH2 0x1B0F JUMPI PUSH2 0x1B0E PUSH2 0x1A3C JUMP JUMPDEST JUMPDEST SWAP3 SWAP2 POP POP JUMP JUMPDEST PUSH1 0x0 DUP2 MLOAD SWAP1 POP SWAP2 SWAP1 POP JUMP JUMPDEST PUSH1 0x0 DUP3 DUP3 MSTORE PUSH1 0x20 DUP3 ADD SWAP1 POP SWAP3 SWAP2 POP POP JUMP JUMPDEST PUSH1 0x0 JUMPDEST DUP4 DUP2 LT ISZERO PUSH2 0x1B4F JUMPI DUP1 DUP3 ADD MLOAD DUP2 DUP5 ADD MSTORE PUSH1 0x20 DUP2 ADD SWAP1 POP PUSH2 0x1B34 JUMP JUMPDEST PUSH1 0x0 DUP5 DUP5 ADD MSTORE POP POP POP POP JUMP JUMPDEST PUSH1 0x0 PUSH1 0x1F NOT PUSH1 0x1F DUP4 ADD AND SWAP1 POP SWAP2 SWAP1 POP JUMP JUMPDEST PUSH1 0x0 PUSH2 0x1B77 DUP3 PUSH2 0x1B15 JUMP JUMPDEST PUSH2 0x1B81 DUP2 DUP6 PUSH2 0x1B20 JUMP JUMPDEST SWAP4 POP PUSH2 0x1B91 DUP2 DUP6 PUSH1 0x20 DUP7 ADD PUSH2 0x1B31 JUMP JUMPDEST PUSH2 0x1B9A DUP2 PUSH2 0x1B5B JUMP JUMPDEST DUP5 ADD SWAP2 POP POP SWAP3 SWAP2 POP POP JUMP JUMPDEST PUSH1 0x0 PUSH1 0x20 DUP3 ADD SWAP1 POP DUP2 DUP2 SUB PUSH1 0x0 DUP4 ADD MSTORE PUSH2 0x1BBF DUP2 DUP5 PUSH2 0x1B6C JUMP JUMPDEST SWAP1 POP SWAP3 SWAP2 POP POP JUMP JUMPDEST PUSH1 0x0 DUP1 REVERT JUMPDEST PUSH1 0x0 PUSH20 0xFFFFFFFFFFFFFFFFFFFFFFFFFFFFFFFFFFFFFFFF DUP3 AND SWAP1 POP SWAP2 SWAP1 POP JUMP JUMPDEST PUSH1 0x0 PUSH2 0x1BF7 DUP3 PUSH2 0x1BCC JUMP JUMPDEST SWAP1 POP SWAP2 SWAP1 POP JUMP JUMPDEST PUSH2 0x1C07 DUP2 PUSH2 0x1BEC JUMP JUMPDEST DUP2 EQ PUSH2 0x1C12 JUMPI PUSH1 0x0 DUP1 REVERT JUMPDEST POP JUMP JUMPDEST PUSH1 0x0 DUP2 CALLDATALOAD SWAP1 POP PUSH2 0x1C24 DUP2 PUSH2 0x1BFE JUMP JUMPDEST SWAP3 SWAP2 POP POP JUMP JUMPDEST PUSH2 0x1C33 DUP2 PUSH2 0x1A32 JUMP JUMPDEST DUP2 EQ PUSH2 0x1C3E JUMPI PUSH1 0x0 DUP1 REVERT JUMPDEST POP JUMP JUMPDEST PUSH1 0x0 DUP2 CALLDATALOAD SWAP1 POP PUSH2 0x1C50 DUP2 PUSH2 0x1C2A JUMP JUMPDEST SWAP3 SWAP2 POP POP JUMP JUMPDEST PUSH1 0x0 DUP1 PUSH1 0x40 DUP4 DUP6 SUB SLT ISZERO PUSH2 0x1C6D JUMPI PUSH2 0x1C6C PUSH2 0x1BC7 JUMP JUMPDEST JUMPDEST PUSH1 0x0 PUSH2 0x1C7B DUP6 DUP3 DUP7 ADD PUSH2 0x1C15 JUMP JUMPDEST SWAP3 POP POP PUSH1 0x20 PUSH2 0x1C8C DUP6 DUP3 DUP7 ADD PUSH2 0x1C41 JUMP JUMPDEST SWAP2 POP POP SWAP3 POP SWAP3 SWAP1 POP JUMP JUMPDEST PUSH1 0x0 DUP2 ISZERO ISZERO SWAP1 POP SWAP2 SWAP1 POP JUMP JUMPDEST PUSH2 0x1CAB DUP2 PUSH2 0x1C96 JUMP JUMPDEST DUP3 MSTORE POP POP JUMP JUMPDEST PUSH1 0x0 PUSH1 0x20 DUP3 ADD SWAP1 POP PUSH2 0x1CC6 PUSH1 0x0 DUP4 ADD DUP5 PUSH2 0x1CA2 JUMP JUMPDEST SWAP3 SWAP2 POP POP JUMP JUMPDEST PUSH2 0x1CD5 DUP2 PUSH2 0x1A32 JUMP JUMPDEST DUP3 MSTORE POP POP JUMP JUMPDEST PUSH1 0x0 PUSH1 0x20 DUP3 ADD SWAP1 POP PUSH2 0x1CF0 PUSH1 0x0 DUP4 ADD DUP5 PUSH2 0x1CCC JUMP JUMPDEST SWAP3 SWAP2 POP POP JUMP JUMPDEST PUSH1 0x0 DUP1 PUSH1 0x0 PUSH1 0x60 DUP5 DUP7 SUB SLT ISZERO PUSH2 0x1D0F JUMPI PUSH2 0x1D0E PUSH2 0x1BC7 JUMP JUMPDEST JUMPDEST PUSH1 0x0 PUSH2 0x1D1D DUP7 DUP3 DUP8 ADD PUSH2 0x1C15 JUMP JUMPDEST SWAP4 POP POP PUSH1 0x20 PUSH2 0x1D2E DUP7 DUP3 DUP8 ADD PUSH2 0x1C15 JUMP JUMPDEST SWAP3 POP POP PUSH1 0x40 PUSH2 0x1D3F DUP7 DUP3 DUP8 ADD PUSH2 0x1C41 JUMP JUMPDEST SWAP2 POP POP SWAP3 POP SWAP3 POP SWAP3 JUMP JUMPDEST PUSH1 0x0 PUSH1 0x20 DUP3 DUP5 SUB SLT ISZERO PUSH2 0x1D5F JUMPI PUSH2 0x1D5E PUSH2 0x1BC7 JUMP JUMPDEST JUMPDEST PUSH1 0x0 PUSH2 0x1D6D DUP5 DUP3 DUP6 ADD PUSH2 0x1C15 JUMP JUMPDEST SWAP2 POP POP SWAP3 SWAP2 POP POP JUMP JUMPDEST PUSH1 0x0 PUSH1 0xFF DUP3 AND SWAP1 POP SWAP2 SWAP1 POP JUMP JUMPDEST PUSH2 0x1D8C DUP2 PUSH2 0x1D76 JUMP JUMPDEST DUP3 MSTORE POP POP JUMP JUMPDEST PUSH1 0x0 PUSH1 0x20 DUP3 ADD SWAP1 POP PUSH2 0x1DA7 PUSH1 0x0 DUP4 ADD DUP5 PUSH2 0x1D83 JUMP JUMPDEST SWAP3 SWAP2 POP POP JUMP JUMPDEST PUSH1 0x0 PUSH1 0x20 DUP3 DUP5 SUB SLT ISZERO PUSH2 0x1DC3 JUMPI PUSH2 0x1DC2 PUSH2 0x1BC7 JUMP JUMPDEST JUMPDEST PUSH1 0x0 PUSH2 0x1DD1 DUP5 DUP3 DUP6 ADD PUSH2 0x1C41 JUMP JUMPDEST SWAP2 POP POP SWAP3 SWAP2 POP POP JUMP JUMPDEST PUSH2 0x1DE3 DUP2 PUSH2 0x1BEC JUMP JUMPDEST DUP3 MSTORE POP POP JUMP JUMPDEST PUSH1 0x0 PUSH1 0x20 DUP3 ADD SWAP1 POP PUSH2 0x1DFE PUSH1 0x0 DUP4 ADD DUP5 PUSH2 0x1DDA JUMP JUMPDEST SWAP3 SWAP2 POP POP JUMP JUMPDEST PUSH1 0x0 PUSH1 0x40 DUP3 ADD SWAP1 POP DUP2 DUP2 SUB PUSH1 0x0 DUP4 ADD MSTORE PUSH2 0x1E1E DUP2 DUP6 PUSH2 0x1B6C JUMP JUMPDEST SWAP1 POP DUP2 DUP2 SUB PUSH1 0x20 DUP4 ADD MSTORE PUSH2 0x1E32 DUP2 DUP5 PUSH2 0x1B6C JUMP JUMPDEST SWAP1 POP SWAP4 SWAP3 POP POP POP JUMP JUMPDEST PUSH1 0x0 DUP2 MLOAD SWAP1 POP SWAP2 SWAP1 POP JUMP JUMPDEST PUSH1 0x0 DUP3 DUP3 MSTORE PUSH1 0x20 DUP3 ADD SWAP1 POP SWAP3 SWAP2 POP POP JUMP JUMPDEST PUSH1 0x0 DUP2 SWAP1 POP PUSH1 0x20 DUP3 ADD SWAP1 POP SWAP2 SWAP1 POP JUMP JUMPDEST PUSH2 0x1E70 DUP2 PUSH2 0x1BEC JUMP JUMPDEST DUP3 MSTORE POP POP JUMP JUMPDEST PUSH1 0x20 DUP3 ADD PUSH1 0x0 DUP3 ADD MLOAD PUSH2 0x1E8C PUSH1 0x0 DUP6 ADD DUP3 PUSH2 0x1E67 JUMP JUMPDEST POP POP POP POP JUMP JUMPDEST PUSH1 0x0 PUSH2 0x1E9E DUP4 DUP4 PUSH2 0x1E76 JUMP JUMPDEST PUSH1 0x20 DUP4 ADD SWAP1 POP SWAP3 SWAP2 POP POP JUMP JUMPDEST PUSH1 0x0 PUSH1 0x20 DUP3 ADD SWAP1 POP SWAP2 SWAP1 POP JUMP JUMPDEST PUSH1 0x0 PUSH2 0x1EC2 DUP3 PUSH2 0x1E3B JUMP JUMPDEST PUSH2 0x1ECC DUP2 DUP6 PUSH2 0x1E46 JUMP JUMPDEST SWAP4 POP PUSH2 0x1ED7 DUP4 PUSH2 0x1E57 JUMP JUMPDEST DUP1 PUSH1 0x0 JUMPDEST DUP4 DUP2 LT ISZERO PUSH2 0x1F08 JUMPI DUP2 MLOAD PUSH2 0x1EEF DUP9 DUP3 PUSH2 0x1E92 JUMP JUMPDEST SWAP8 POP PUSH2 0x1EFA DUP4 PUSH2 0x1EAA JUMP JUMPDEST SWAP3 POP POP PUSH1 0x1 DUP2 ADD SWAP1 POP PUSH2 0x1EDB JUMP JUMPDEST POP DUP6 SWAP4 POP POP POP POP SWAP3 SWAP2 POP POP JUMP JUMPDEST PUSH1 0x0 PUSH1 0x20 DUP3 ADD SWAP1 POP DUP2 DUP2 SUB PUSH1 0x0 DUP4 ADD MSTORE PUSH2 0x1F2F DUP2 DUP5 PUSH2 0x1EB7 JUMP JUMPDEST SWAP1 POP SWAP3 SWAP2 POP POP JUMP JUMPDEST PUSH1 0x0 DUP2 MLOAD SWAP1 POP SWAP2 SWAP1 POP JUMP JUMPDEST PUSH1 0x0 DUP3 DUP3 MSTORE PUSH1 0x20 DUP3 ADD SWAP1 POP SWAP3 SWAP2 POP POP JUMP JUMPDEST PUSH1 0x0 DUP2 SWAP1 POP PUSH1 0x20 DUP3 ADD SWAP1 POP SWAP2 SWAP1 POP JUMP JUMPDEST PUSH1 0x0 DUP3 DUP3 MSTORE PUSH1 0x20 DUP3 ADD SWAP1 POP SWAP3 SWAP2 POP POP JUMP JUMPDEST PUSH1 0x0 PUSH2 0x1F7F DUP3 PUSH2 0x1B15 JUMP JUMPDEST PUSH2 0x1F89 DUP2 DUP6 PUSH2 0x1F63 JUMP JUMPDEST SWAP4 POP PUSH2 0x1F99 DUP2 DUP6 PUSH1 0x20 DUP7 ADD PUSH2 0x1B31 JUMP JUMPDEST PUSH2 0x1FA2 DUP2 PUSH2 0x1B5B JUMP JUMPDEST DUP5 ADD SWAP2 POP POP SWAP3 SWAP2 POP POP JUMP JUMPDEST PUSH1 0x0 PUSH1 0x40 DUP4 ADD PUSH1 0x0 DUP4 ADD MLOAD DUP5 DUP3 SUB PUSH1 0x0 DUP7 ADD MSTORE PUSH2 0x1FCA DUP3 DUP3 PUSH2 0x1F74 JUMP JUMPDEST SWAP2 POP POP PUSH1 0x20 DUP4 ADD MLOAD DUP5 DUP3 SUB PUSH1 0x20 DUP7 ADD MSTORE PUSH2 0x1FE4 DUP3 DUP3 PUSH2 0x1F74 JUMP JUMPDEST SWAP2 POP POP DUP1 SWAP2 POP POP SWAP3 SWAP2 POP POP JUMP JUMPDEST PUSH1 0x0 PUSH2 0x1FFD DUP4 DUP4 PUSH2 0x1FAD JUMP JUMPDEST SWAP1 POP SWAP3 SWAP2 POP POP JUMP JUMPDEST PUSH1 0x0 PUSH1 0x20 DUP3 ADD SWAP1 POP SWAP2 SWAP1 POP JUMP JUMPDEST PUSH1 0x0 PUSH2 0x201D DUP3 PUSH2 0x1F37 JUMP JUMPDEST PUSH2 0x2027 DUP2 DUP6 PUSH2 0x1F42 JUMP JUMPDEST SWAP4 POP DUP4 PUSH1 0x20 DUP3 MUL DUP6 ADD PUSH2 0x2039 DUP6 PUSH2 0x1F53 JUMP JUMPDEST DUP1 PUSH1 0x0 JUMPDEST DUP6 DUP2 LT ISZERO PUSH2 0x2075 JUMPI DUP5 DUP5 SUB DUP10 MSTORE DUP2 MLOAD PUSH2 0x2056 DUP6 DUP3 PUSH2 0x1FF1 JUMP JUMPDEST SWAP5 POP PUSH2 0x2061 DUP4 PUSH2 0x2005 JUMP JUMPDEST SWAP3 POP PUSH1 0x20 DUP11 ADD SWAP10 POP POP PUSH1 0x1 DUP2 ADD SWAP1 POP PUSH2 0x203D JUMP JUMPDEST POP DUP3 SWAP8 POP DUP8 SWAP6 POP POP POP POP POP POP SWAP3 SWAP2 POP POP JUMP JUMPDEST PUSH1 0x0 PUSH1 0x20 DUP3 ADD SWAP1 POP DUP2 DUP2 SUB PUSH1 0x0 DUP4 ADD MSTORE PUSH2 0x20A1 DUP2 DUP5 PUSH2 0x2012 JUMP JUMPDEST SWAP1 POP SWAP3 SWAP2 POP POP JUMP JUMPDEST PUSH1 0x0 DUP1 PUSH1 0x40 DUP4 DUP6 SUB SLT ISZERO PUSH2 0x20C0 JUMPI PUSH2 0x20BF PUSH2 0x1BC7 JUMP JUMPDEST JUMPDEST PUSH1 0x0 PUSH2 0x20CE DUP6 DUP3 DUP7 ADD PUSH2 0x1C15 JUMP JUMPDEST SWAP3 POP POP PUSH1 0x20 PUSH2 0x20DF DUP6 DUP3 DUP7 ADD PUSH2 0x1C15 JUMP JUMPDEST SWAP2 POP POP SWAP3 POP SWAP3 SWAP1 POP JUMP JUMPDEST PUSH32 0x4E487B7100000000000000000000000000000000000000000000000000000000 PUSH1 0x0 MSTORE PUSH1 0x22 PUSH1 0x4 MSTORE PUSH1 0x24 PUSH1 0x0 REVERT JUMPDEST PUSH1 0x0 PUSH1 0x2 DUP3 DIV SWAP1 POP PUSH1 0x1 DUP3 AND DUP1 PUSH2 0x2130 JUMPI PUSH1 0x7F DUP3 AND SWAP2 POP JUMPDEST PUSH1 0x20 DUP3 LT DUP2 SUB PUSH2 0x2143 JUMPI PUSH2 0x2142 PUSH2 0x20E9 JUMP JUMPDEST JUMPDEST POP SWAP2 SWAP1 POP JUMP JUMPDEST PUSH1 0x0 DUP2 SWAP1 POP SWAP2 SWAP1 POP JUMP JUMPDEST PUSH2 0x2164 PUSH2 0x215F DUP3 PUSH2 0x1A32 JUMP JUMPDEST PUSH2 0x2149 JUMP JUMPDEST DUP3 MSTORE POP POP JUMP JUMPDEST PUSH1 0x0 PUSH2 0x2175 DUP3 PUSH2 0x1BCC JUMP JUMPDEST SWAP1 POP SWAP2 SWAP1 POP JUMP JUMPDEST PUSH1 0x0 DUP2 PUSH1 0x60 SHL SWAP1 POP SWAP2 SWAP1 POP JUMP JUMPDEST PUSH1 0x0 PUSH2 0x2194 DUP3 PUSH2 0x217C JUMP JUMPDEST SWAP1 POP SWAP2 SWAP1 POP JUMP JUMPDEST PUSH1 0x0 PUSH2 0x21A6 DUP3 PUSH2 0x2189 JUMP JUMPDEST SWAP1 POP SWAP2 SWAP1 POP JUMP JUMPDEST PUSH2 0x21BE PUSH2 0x21B9 DUP3 PUSH2 0x216A JUMP JUMPDEST PUSH2 0x219B JUMP JUMPDEST DUP3 MSTORE POP POP JUMP JUMPDEST PUSH1 0x0 PUSH2 0x21D0 DUP3 DUP7 PUSH2 0x2153 JUMP JUMPDEST PUSH1 0x20 DUP3 ADD SWAP2 POP PUSH2 0x21E0 DUP3 DUP6 PUSH2 0x21AD JUMP JUMPDEST PUSH1 0x14 DUP3 ADD SWAP2 POP PUSH2 0x21F0 DUP3 DUP5 PUSH2 0x2153 JUMP JUMPDEST PUSH1 0x20 DUP3 ADD SWAP2 POP DUP2 SWAP1 POP SWAP5 SWAP4 POP POP POP POP JUMP JUMPDEST PUSH32 0x4E487B7100000000000000000000000000000000000000000000000000000000 PUSH1 0x0 MSTORE PUSH1 0x12 PUSH1 0x4 MSTORE PUSH1 0x24 PUSH1 0x0 REVERT JUMPDEST PUSH1 0x0 PUSH2 0x223B DUP3 PUSH2 0x1A32 JUMP JUMPDEST SWAP2 POP PUSH2 0x2246 DUP4 PUSH2 0x1A32 JUMP JUMPDEST SWAP3 POP DUP3 PUSH2 0x2256 JUMPI PUSH2 0x2255 PUSH2 0x2201 JUMP JUMPDEST JUMPDEST DUP3 DUP3 MOD SWAP1 POP SWAP3 SWAP2 POP POP JUMP JUMPDEST PUSH32 0x4E487B7100000000000000000000000000000000000000000000000000000000 PUSH1 0x0 MSTORE PUSH1 0x32 PUSH1 0x4 MSTORE PUSH1 0x24 PUSH1 0x0 REVERT JUMPDEST PUSH32 0x4E487B7100000000000000000000000000000000000000000000000000000000 PUSH1 0x0 MSTORE PUSH1 0x41 PUSH1 0x4 MSTORE PUSH1 0x24 PUSH1 0x0 REVERT JUMPDEST PUSH1 0x0 DUP2 SWAP1 POP DUP2 PUSH1 0x0 MSTORE PUSH1 0x20 PUSH1 0x0 KECCAK256 SWAP1 POP SWAP2 SWAP1 POP JUMP JUMPDEST PUSH1 0x0 PUSH1 0x20 PUSH1 0x1F DUP4 ADD DIV SWAP1 POP SWAP2 SWAP1 POP JUMP JUMPDEST PUSH1 0x0 DUP3 DUP3 SHL SWAP1 POP SWAP3 SWAP2 POP POP JUMP JUMPDEST PUSH1 0x0 PUSH1 0x8 DUP4 MUL PUSH2 0x2321 PUSH32 0xFFFFFFFFFFFFFFFFFFFFFFFFFFFFFFFFFFFFFFFFFFFFFFFFFFFFFFFFFFFFFFFF DUP3 PUSH2 0x22E4 JUMP JUMPDEST PUSH2 0x232B DUP7 DUP4 PUSH2 0x22E4 JUMP JUMPDEST SWAP6 POP DUP1 NOT DUP5 AND SWAP4 POP DUP1 DUP7 AND DUP5 OR SWAP3 POP POP POP SWAP4 SWAP3 POP POP POP JUMP JUMPDEST PUSH1 0x0 DUP2 SWAP1 POP SWAP2 SWAP1 POP JUMP JUMPDEST PUSH1 0x0 PUSH2 0x2368 PUSH2 0x2363 PUSH2 0x235E DUP5 PUSH2 0x1A32 JUMP JUMPDEST PUSH2 0x2343 JUMP JUMPDEST PUSH2 0x1A32 JUMP JUMPDEST SWAP1 POP SWAP2 SWAP1 POP JUMP JUMPDEST PUSH1 0x0 DUP2 SWAP1 POP SWAP2 SWAP1 POP JUMP JUMPDEST PUSH2 0x2382 DUP4 PUSH2 0x234D JUMP JUMPDEST PUSH2 0x2396 PUSH2 0x238E DUP3 PUSH2 0x236F JUMP JUMPDEST DUP5 DUP5 SLOAD PUSH2 0x22F1 JUMP JUMPDEST DUP3 SSTORE POP POP POP POP JUMP JUMPDEST PUSH1 0x0 SWAP1 JUMP JUMPDEST PUSH2 0x23AB PUSH2 0x239E JUMP JUMPDEST PUSH2 0x23B6 DUP2 DUP5 DUP5 PUSH2 0x2379 JUMP JUMPDEST POP POP POP JUMP JUMPDEST JUMPDEST DUP2 DUP2 LT ISZERO PUSH2 0x23DA JUMPI PUSH2 0x23CF PUSH1 0x0 DUP3 PUSH2 0x23A3 JUMP JUMPDEST PUSH1 0x1 DUP2 ADD SWAP1 POP PUSH2 0x23BC JUMP JUMPDEST POP POP JUMP JUMPDEST PUSH1 0x1F DUP3 GT ISZERO PUSH2 0x241F JUMPI PUSH2 0x23F0 DUP2 PUSH2 0x22BF JUMP JUMPDEST PUSH2 0x23F9 DUP5 PUSH2 0x22D4 JUMP JUMPDEST DUP2 ADD PUSH1 0x20 DUP6 LT ISZERO PUSH2 0x2408 JUMPI DUP2 SWAP1 POP JUMPDEST PUSH2 0x241C PUSH2 0x2414 DUP6 PUSH2 0x22D4 JUMP JUMPDEST DUP4 ADD DUP3 PUSH2 0x23BB JUMP JUMPDEST POP POP JUMPDEST POP POP POP JUMP JUMPDEST PUSH1 0x0 DUP3 DUP3 SHR SWAP1 POP SWAP3 SWAP2 POP POP JUMP JUMPDEST PUSH1 0x0 PUSH2 0x2442 PUSH1 0x0 NOT DUP5 PUSH1 0x8 MUL PUSH2 0x2424 JUMP JUMPDEST NOT DUP1 DUP4 AND SWAP2 POP POP SWAP3 SWAP2 POP POP JUMP JUMPDEST PUSH1 0x0 PUSH2 0x245B DUP4 DUP4 PUSH2 0x2431 JUMP JUMPDEST SWAP2 POP DUP3 PUSH1 0x2 MUL DUP3 OR SWAP1 POP SWAP3 SWAP2 POP POP JUMP JUMPDEST PUSH2 0x2474 DUP3 PUSH2 0x1B15 JUMP JUMPDEST PUSH8 0xFFFFFFFFFFFFFFFF DUP2 GT ISZERO PUSH2 0x248D JUMPI PUSH2 0x248C PUSH2 0x2290 JUMP JUMPDEST JUMPDEST PUSH2 0x2497 DUP3 SLOAD PUSH2 0x2118 JUMP JUMPDEST PUSH2 0x24A2 DUP3 DUP3 DUP6 PUSH2 0x23DE JUMP JUMPDEST PUSH1 0x0 PUSH1 0x20 SWAP1 POP PUSH1 0x1F DUP4 GT PUSH1 0x1 DUP2 EQ PUSH2 0x24D5 JUMPI PUSH1 0x0 DUP5 ISZERO PUSH2 0x24C3 JUMPI DUP3 DUP8 ADD MLOAD SWAP1 POP JUMPDEST PUSH2 0x24CD DUP6 DUP3 PUSH2 0x244F JUMP JUMPDEST DUP7 SSTORE POP PUSH2 0x2535 JUMP JUMPDEST PUSH1 0x1F NOT DUP5 AND PUSH2 0x24E3 DUP7 PUSH2 0x22BF JUMP JUMPDEST PUSH1 0x0 JUMPDEST DUP3 DUP2 LT ISZERO PUSH2 0x250B JUMPI DUP5 DUP10 ADD MLOAD DUP3 SSTORE PUSH1 0x1 DUP3 ADD SWAP2 POP PUSH1 0x20 DUP6 ADD SWAP5 POP PUSH1 0x20 DUP2 ADD SWAP1 POP PUSH2 0x24E6 JUMP JUMPDEST DUP7 DUP4 LT ISZERO PUSH2 0x2528 JUMPI DUP5 DUP10 ADD MLOAD PUSH2 0x2524 PUSH1 0x1F DUP10 AND DUP3 PUSH2 0x2431 JUMP JUMPDEST DUP4 SSTORE POP JUMPDEST PUSH1 0x1 PUSH1 0x2 DUP9 MUL ADD DUP9 SSTORE POP POP POP JUMPDEST POP POP POP POP POP POP JUMP JUMPDEST PUSH1 0x0 PUSH2 0x2548 DUP3 PUSH2 0x1A32 JUMP JUMPDEST SWAP2 POP PUSH32 0xFFFFFFFFFFFFFFFFFFFFFFFFFFFFFFFFFFFFFFFFFFFFFFFFFFFFFFFFFFFFFFFF DUP3 SUB PUSH2 0x257A JUMPI PUSH2 0x2579 PUSH2 0x1A3C JUMP JUMPDEST JUMPDEST PUSH1 0x1 DUP3 ADD SWAP1 POP SWAP2 SWAP1 POP JUMP JUMPDEST PUSH32 0x5468657265206973206E6F20706F6B656D6F6E2077686963682063616E206265 PUSH1 0x0 DUP3 ADD MSTORE PUSH32 0x206D6F7665640000000000000000000000000000000000000000000000000000 PUSH1 0x20 DUP3 ADD MSTORE POP JUMP JUMPDEST PUSH1 0x0 PUSH2 0x25E1 PUSH1 0x26 DUP4 PUSH2 0x1B20 JUMP JUMPDEST SWAP2 POP PUSH2 0x25EC DUP3 PUSH2 0x2585 JUMP JUMPDEST PUSH1 0x40 DUP3 ADD SWAP1 POP SWAP2 SWAP1 POP JUMP JUMPDEST PUSH1 0x0 PUSH1 0x20 DUP3 ADD SWAP1 POP DUP2 DUP2 SUB PUSH1 0x0 DUP4 ADD MSTORE PUSH2 0x2610 DUP2 PUSH2 0x25D4 JUMP JUMPDEST SWAP1 POP SWAP2 SWAP1 POP JUMP JUMPDEST PUSH32 0x496E76616C696420696E64657820746F2072656D6F7665000000000000000000 PUSH1 0x0 DUP3 ADD MSTORE POP JUMP JUMPDEST PUSH1 0x0 PUSH2 0x264D PUSH1 0x17 DUP4 PUSH2 0x1B20 JUMP JUMPDEST SWAP2 POP PUSH2 0x2658 DUP3 PUSH2 0x2617 JUMP JUMPDEST PUSH1 0x20 DUP3 ADD SWAP1 POP SWAP2 SWAP1 POP JUMP JUMPDEST PUSH1 0x0 PUSH1 0x20 DUP3 ADD SWAP1 POP DUP2 DUP2 SUB PUSH1 0x0 DUP4 ADD MSTORE PUSH2 0x267C DUP2 PUSH2 0x2640 JUMP JUMPDEST SWAP1 POP SWAP2 SWAP1 POP JUMP JUMPDEST PUSH1 0x0 DUP2 SLOAD SWAP1 POP PUSH2 0x2692 DUP2 PUSH2 0x2118 JUMP JUMPDEST SWAP1 POP SWAP2 SWAP1 POP JUMP JUMPDEST DUP2 DUP2 SUB PUSH2 0x26A7 JUMPI POP POP PUSH2 0x277F JUMP JUMPDEST PUSH2 0x26B0 DUP3 PUSH2 0x2683 JUMP JUMPDEST PUSH8 0xFFFFFFFFFFFFFFFF DUP2 GT ISZERO PUSH2 0x26C9 JUMPI PUSH2 0x26C8 PUSH2 0x2290 JUMP JUMPDEST JUMPDEST PUSH2 0x26D3 DUP3 SLOAD PUSH2 0x2118 JUMP JUMPDEST PUSH2 0x26DE DUP3 DUP3 DUP6 PUSH2 0x23DE JUMP JUMPDEST PUSH1 0x0 PUSH1 0x1F DUP4 GT PUSH1 0x1 DUP2 EQ PUSH2 0x270D JUMPI PUSH1 0x0 DUP5 ISZERO PUSH2 0x26FB JUMPI DUP3 DUP8 ADD SLOAD SWAP1 POP JUMPDEST PUSH2 0x2705 DUP6 DUP3 PUSH2 0x244F JUMP JUMPDEST DUP7 SSTORE POP PUSH2 0x2778 JUMP JUMPDEST PUSH1 0x1F NOT DUP5 AND PUSH2 0x271B DUP8 PUSH2 0x22BF JUMP JUMPDEST SWAP7 POP PUSH2 0x2726 DUP7 PUSH2 0x22BF JUMP JUMPDEST PUSH1 0x0 JUMPDEST DUP3 DUP2 LT ISZERO PUSH2 0x274E JUMPI DUP5 DUP10 ADD SLOAD DUP3 SSTORE PUSH1 0x1 DUP3 ADD SWAP2 POP PUSH1 0x1 DUP6 ADD SWAP5 POP PUSH1 0x20 DUP2 ADD SWAP1 POP PUSH2 0x2729 JUMP JUMPDEST DUP7 DUP4 LT ISZERO PUSH2 0x276B JUMPI DUP5 DUP10 ADD SLOAD PUSH2 0x2767 PUSH1 0x1F DUP10 AND DUP3 PUSH2 0x2431 JUMP JUMPDEST DUP4 SSTORE POP JUMPDEST PUSH1 0x1 PUSH1 0x2 DUP9 MUL ADD DUP9 SSTORE POP POP POP JUMPDEST POP POP POP POP POP POP JUMPDEST JUMP JUMPDEST PUSH32 0x4E487B7100000000000000000000000000000000000000000000000000000000 PUSH1 0x0 MSTORE PUSH1 0x31 PUSH1 0x4 MSTORE PUSH1 0x24 PUSH1 0x0 REVERT INVALID LOG2 PUSH5 0x6970667358 0x22 SLT KECCAK256 PUSH28 0x6E88E021D488333214032CD5394DF4FBECBCDDBC0084BD9D0D8F57AC 0xAF SMOD PUSH6 0x64736F6C6343 STOP ADDMOD SGT STOP CALLER PUSH9 0x747470733A2F2F656E PUSH4 0x72797074 PUSH6 0x642D74626E30 0x2E PUSH8 0x7374617469632E63 PUSH16 0x6D2F696D616765733F713D74626E3A41 0x4E PUSH5 0x394763512D 0x4A PUSH7 0x454343346F6331 PUSH4 0x48523968 PUSH27 0x46345043437369677173344D30754A5F66526726757371703D4341 SSTORE PUSH9 0x747470733A2F2F692E PUSH15 0x616D752E77696B692F692F776B7748 PUSH3 0x6C3331 CODECOPY PUSH20 0x43466C5452367074395034416E68617557655974 CODECOPY PUSH2 0x3238 MLOAD PUSH21 0x4766353044625232684155725A3768636162647749 CALLER 0x4B PUSH23 0x5053484A64364A6F4C4A39505A4D4F4E4E586364453073 0x4F PUSH18 0x672E7765627068747470733A2F2F656E6372 PUSH26 0x707465642D74626E302E677374617469632E636F6D2F696D6167 PUSH6 0x733F713D7462 PUSH15 0x3A414E643947635161365F6176776C PUSH6 0x6E454E775256 MSIZE SLOAD SELFBALANCE 0x4A PUSH14 0x634863306A6A49486E6D44583462 MSTORE8 PUSH27 0x4C5230426F51596656484E645269784B744A75584B6C4135504F65 PC ADDRESS PUSH5 0x5050592675 PUSH20 0x71703D4341550000000000000000000000000000 "
				},
				"gasEstimates": {
					"creation": {
						"codeDepositCost": "2042800",
						"executionCost": "infinite",
						"totalCost": "infinite"
					},
					"external": {
						"allowance(address,address)": "infinite",
						"approve(address,uint256)": "23169",
						"balanceOf(address)": "2886",
						"balances(address)": "2837",
						"burn(uint256)": "infinite",
						"buyPokemon()": "infinite",
						"decimals()": "2516",
						"getPokemon()": "infinite",
						"getPokemonUsers()": "infinite",
						"movePokemon(address,uint256)": "infinite",
						"name()": "infinite",
						"pokemons(address,uint256)": "infinite",
						"symbol()": "infinite",
						"totalSupply()": "2497",
						"transfer(address,uint256)": "infinite",
						"transferFrom(address,address,uint256)": "infinite",
						"users(uint256)": "5048"
					}
				},
				"methodIdentifiers": {
					"allowance(address,address)": "dd62ed3e",
					"approve(address,uint256)": "095ea7b3",
					"balanceOf(address)": "70a08231",
					"balances(address)": "27e235e3",
					"burn(uint256)": "42966c68",
					"buyPokemon()": "c78bc15f",
					"decimals()": "313ce567",
					"getPokemon()": "87e24c72",
					"getPokemonUsers()": "868babb0",
					"movePokemon(address,uint256)": "d3beb5da",
					"name()": "06fdde03",
					"pokemons(address,uint256)": "36e60477",
					"symbol()": "95d89b41",
					"totalSupply()": "18160ddd",
					"transfer(address,uint256)": "a9059cbb",
					"transferFrom(address,address,uint256)": "23b872dd",
					"users(uint256)": "365b98b2"
				}
			},
			"storageLayout": {
				"storage": [
					{
						"astId": 6,
						"contract": "contracts/Pokemon.sol:Pokemon",
						"label": "name",
						"offset": 0,
						"slot": "0",
						"type": "t_string_storage"
					},
					{
						"astId": 8,
						"contract": "contracts/Pokemon.sol:Pokemon",
						"label": "symbol",
						"offset": 0,
						"slot": "1",
						"type": "t_string_storage"
					},
					{
						"astId": 11,
						"contract": "contracts/Pokemon.sol:Pokemon",
						"label": "decimals",
						"offset": 0,
						"slot": "2",
						"type": "t_uint8"
					},
					{
						"astId": 14,
						"contract": "contracts/Pokemon.sol:Pokemon",
						"label": "totalSupply",
						"offset": 0,
						"slot": "3",
						"type": "t_uint256"
					},
					{
						"astId": 16,
						"contract": "contracts/Pokemon.sol:Pokemon",
						"label": "owner",
						"offset": 0,
						"slot": "4",
						"type": "t_address"
					},
					{
						"astId": 20,
						"contract": "contracts/Pokemon.sol:Pokemon",
						"label": "balances",
						"offset": 0,
						"slot": "5",
						"type": "t_mapping(t_address,t_uint256)"
					},
					{
						"astId": 27,
						"contract": "contracts/Pokemon.sol:Pokemon",
						"label": "allowance",
						"offset": 0,
						"slot": "6",
						"type": "t_mapping(t_address,t_mapping(t_address,t_uint256))"
					},
					{
						"astId": 322,
						"contract": "contracts/Pokemon.sol:Pokemon",
						"label": "tokenPrice",
						"offset": 0,
						"slot": "7",
						"type": "t_uint256"
					},
					{
						"astId": 329,
						"contract": "contracts/Pokemon.sol:Pokemon",
						"label": "pokemonName",
						"offset": 0,
						"slot": "8",
						"type": "t_array(t_string_storage)dyn_storage"
					},
					{
						"astId": 336,
						"contract": "contracts/Pokemon.sol:Pokemon",
						"label": "pokemonUrl",
						"offset": 0,
						"slot": "9",
						"type": "t_array(t_string_storage)dyn_storage"
					},
					{
						"astId": 342,
						"contract": "contracts/Pokemon.sol:Pokemon",
						"label": "pokemons",
						"offset": 0,
						"slot": "10",
						"type": "t_mapping(t_address,t_array(t_struct(Poke)316_storage)dyn_storage)"
					},
					{
						"astId": 346,
						"contract": "contracts/Pokemon.sol:Pokemon",
						"label": "users",
						"offset": 0,
						"slot": "11",
						"type": "t_array(t_struct(User)319_storage)dyn_storage"
					}
				],
				"types": {
					"t_address": {
						"encoding": "inplace",
						"label": "address",
						"numberOfBytes": "20"
					},
					"t_array(t_string_storage)dyn_storage": {
						"base": "t_string_storage",
						"encoding": "dynamic_array",
						"label": "string[]",
						"numberOfBytes": "32"
					},
					"t_array(t_struct(Poke)316_storage)dyn_storage": {
						"base": "t_struct(Poke)316_storage",
						"encoding": "dynamic_array",
						"label": "struct Pokemon.Poke[]",
						"numberOfBytes": "32"
					},
					"t_array(t_struct(User)319_storage)dyn_storage": {
						"base": "t_struct(User)319_storage",
						"encoding": "dynamic_array",
						"label": "struct Pokemon.User[]",
						"numberOfBytes": "32"
					},
					"t_mapping(t_address,t_array(t_struct(Poke)316_storage)dyn_storage)": {
						"encoding": "mapping",
						"key": "t_address",
						"label": "mapping(address => struct Pokemon.Poke[])",
						"numberOfBytes": "32",
						"value": "t_array(t_struct(Poke)316_storage)dyn_storage"
					},
					"t_mapping(t_address,t_mapping(t_address,t_uint256))": {
						"encoding": "mapping",
						"key": "t_address",
						"label": "mapping(address => mapping(address => uint256))",
						"numberOfBytes": "32",
						"value": "t_mapping(t_address,t_uint256)"
					},
					"t_mapping(t_address,t_uint256)": {
						"encoding": "mapping",
						"key": "t_address",
						"label": "mapping(address => uint256)",
						"numberOfBytes": "32",
						"value": "t_uint256"
					},
					"t_string_storage": {
						"encoding": "bytes",
						"label": "string",
						"numberOfBytes": "32"
					},
					"t_struct(Poke)316_storage": {
						"encoding": "inplace",
						"label": "struct Pokemon.Poke",
						"members": [
							{
								"astId": 313,
								"contract": "contracts/Pokemon.sol:Pokemon",
								"label": "url",
								"offset": 0,
								"slot": "0",
								"type": "t_string_storage"
							},
							{
								"astId": 315,
								"contract": "contracts/Pokemon.sol:Pokemon",
								"label": "name",
								"offset": 0,
								"slot": "1",
								"type": "t_string_storage"
							}
						],
						"numberOfBytes": "64"
					},
					"t_struct(User)319_storage": {
						"encoding": "inplace",
						"label": "struct Pokemon.User",
						"members": [
							{
								"astId": 318,
								"contract": "contracts/Pokemon.sol:Pokemon",
								"label": "account",
								"offset": 0,
								"slot": "0",
								"type": "t_address"
							}
						],
						"numberOfBytes": "32"
					},
					"t_uint256": {
						"encoding": "inplace",
						"label": "uint256",
						"numberOfBytes": "32"
					},
					"t_uint8": {
						"encoding": "inplace",
						"label": "uint8",
						"numberOfBytes": "1"
					}
				}
			},
			"userdoc": {
				"kind": "user",
				"methods": {},
				"version": 1
			}
		}
	}
}